{
  "_format": "hh-sol-artifact-1",
  "contractName": "MindfulNFT",
  "sourceName": "contracts/MindfulNFT.sol",
  "abi": [
    {
      "inputs": [
        {
          "internalType": "address",
          "name": "_mintPass",
          "type": "address"
        },
        {
          "internalType": "uint96",
          "name": "_loyaltyFee",
          "type": "uint96"
        }
      ],
      "stateMutability": "nonpayable",
      "type": "constructor"
    },
    {
      "anonymous": false,
      "inputs": [
        {
          "indexed": true,
          "internalType": "address",
          "name": "owner",
          "type": "address"
        },
        {
          "indexed": true,
          "internalType": "address",
          "name": "approved",
          "type": "address"
        },
        {
          "indexed": true,
          "internalType": "uint256",
          "name": "tokenId",
          "type": "uint256"
        }
      ],
      "name": "Approval",
      "type": "event"
    },
    {
      "anonymous": false,
      "inputs": [
        {
          "indexed": true,
          "internalType": "address",
          "name": "owner",
          "type": "address"
        },
        {
          "indexed": true,
          "internalType": "address",
          "name": "operator",
          "type": "address"
        },
        {
          "indexed": false,
          "internalType": "bool",
          "name": "approved",
          "type": "bool"
        }
      ],
      "name": "ApprovalForAll",
      "type": "event"
    },
    {
      "anonymous": false,
      "inputs": [
        {
          "indexed": true,
          "internalType": "address",
          "name": "previousOwner",
          "type": "address"
        },
        {
          "indexed": true,
          "internalType": "address",
          "name": "newOwner",
          "type": "address"
        }
      ],
      "name": "OwnershipTransferred",
      "type": "event"
    },
    {
      "anonymous": false,
      "inputs": [
        {
          "indexed": false,
          "internalType": "address",
          "name": "account",
          "type": "address"
        }
      ],
      "name": "Paused",
      "type": "event"
    },
    {
      "anonymous": false,
      "inputs": [
        {
          "indexed": true,
          "internalType": "address",
          "name": "from",
          "type": "address"
        },
        {
          "indexed": true,
          "internalType": "address",
          "name": "to",
          "type": "address"
        },
        {
          "indexed": true,
          "internalType": "uint256",
          "name": "tokenId",
          "type": "uint256"
        }
      ],
      "name": "Transfer",
      "type": "event"
    },
    {
      "anonymous": false,
      "inputs": [
        {
          "indexed": false,
          "internalType": "address",
          "name": "account",
          "type": "address"
        }
      ],
      "name": "Unpaused",
      "type": "event"
    },
    {
      "inputs": [
        {
          "internalType": "address",
          "name": "to",
          "type": "address"
        },
        {
          "internalType": "uint256",
          "name": "tokenId",
          "type": "uint256"
        }
      ],
      "name": "approve",
      "outputs": [],
      "stateMutability": "nonpayable",
      "type": "function"
    },
    {
      "inputs": [
        {
          "internalType": "address",
          "name": "owner",
          "type": "address"
        }
      ],
      "name": "balanceOf",
      "outputs": [
        {
          "internalType": "uint256",
          "name": "",
          "type": "uint256"
        }
      ],
      "stateMutability": "view",
      "type": "function"
    },
    {
      "inputs": [
        {
          "internalType": "uint256",
          "name": "tokenId",
          "type": "uint256"
        }
      ],
      "name": "burn",
      "outputs": [],
      "stateMutability": "nonpayable",
      "type": "function"
    },
    {
      "inputs": [
        {
          "internalType": "uint256",
          "name": "tokenId",
          "type": "uint256"
        }
      ],
      "name": "getApproved",
      "outputs": [
        {
          "internalType": "address",
          "name": "",
          "type": "address"
        }
      ],
      "stateMutability": "view",
      "type": "function"
    },
    {
      "inputs": [
        {
          "internalType": "address",
          "name": "owner",
          "type": "address"
        },
        {
          "internalType": "address",
          "name": "operator",
          "type": "address"
        }
      ],
      "name": "isApprovedForAll",
      "outputs": [
        {
          "internalType": "bool",
          "name": "",
          "type": "bool"
        }
      ],
      "stateMutability": "view",
      "type": "function"
    },
    {
      "inputs": [],
      "name": "name",
      "outputs": [
        {
          "internalType": "string",
          "name": "",
          "type": "string"
        }
      ],
      "stateMutability": "view",
      "type": "function"
    },
    {
      "inputs": [
        {
          "internalType": "address",
          "name": "",
          "type": "address"
        },
        {
          "internalType": "address",
          "name": "_from",
          "type": "address"
        },
        {
          "internalType": "uint256",
          "name": "_tokenId",
          "type": "uint256"
        },
        {
          "internalType": "bytes",
          "name": "_data",
          "type": "bytes"
        }
      ],
      "name": "onERC721Received",
      "outputs": [
        {
          "internalType": "bytes4",
          "name": "",
          "type": "bytes4"
        }
      ],
      "stateMutability": "nonpayable",
      "type": "function"
    },
    {
      "inputs": [],
      "name": "owner",
      "outputs": [
        {
          "internalType": "address",
          "name": "",
          "type": "address"
        }
      ],
      "stateMutability": "view",
      "type": "function"
    },
    {
      "inputs": [
        {
          "internalType": "uint256",
          "name": "tokenId",
          "type": "uint256"
        }
      ],
      "name": "ownerOf",
      "outputs": [
        {
          "internalType": "address",
          "name": "",
          "type": "address"
        }
      ],
      "stateMutability": "view",
      "type": "function"
    },
    {
      "inputs": [],
      "name": "pause",
      "outputs": [],
      "stateMutability": "nonpayable",
      "type": "function"
    },
    {
      "inputs": [],
      "name": "paused",
      "outputs": [
        {
          "internalType": "bool",
          "name": "",
          "type": "bool"
        }
      ],
      "stateMutability": "view",
      "type": "function"
    },
    {
      "inputs": [],
      "name": "renounceOwnership",
      "outputs": [],
      "stateMutability": "nonpayable",
      "type": "function"
    },
    {
      "inputs": [
        {
          "internalType": "uint256",
          "name": "_tokenId",
          "type": "uint256"
        },
        {
          "internalType": "uint256",
          "name": "_salePrice",
          "type": "uint256"
        }
      ],
      "name": "royaltyInfo",
      "outputs": [
        {
          "internalType": "address",
          "name": "",
          "type": "address"
        },
        {
          "internalType": "uint256",
          "name": "",
          "type": "uint256"
        }
      ],
      "stateMutability": "view",
      "type": "function"
    },
    {
      "inputs": [
        {
          "internalType": "address",
          "name": "from",
          "type": "address"
        },
        {
          "internalType": "address",
          "name": "to",
          "type": "address"
        },
        {
          "internalType": "uint256",
          "name": "tokenId",
          "type": "uint256"
        }
      ],
      "name": "safeTransferFrom",
      "outputs": [],
      "stateMutability": "nonpayable",
      "type": "function"
    },
    {
      "inputs": [
        {
          "internalType": "address",
          "name": "from",
          "type": "address"
        },
        {
          "internalType": "address",
          "name": "to",
          "type": "address"
        },
        {
          "internalType": "uint256",
          "name": "tokenId",
          "type": "uint256"
        },
        {
          "internalType": "bytes",
          "name": "data",
          "type": "bytes"
        }
      ],
      "name": "safeTransferFrom",
      "outputs": [],
      "stateMutability": "nonpayable",
      "type": "function"
    },
    {
      "inputs": [
        {
          "internalType": "address",
          "name": "operator",
          "type": "address"
        },
        {
          "internalType": "bool",
          "name": "approved",
          "type": "bool"
        }
      ],
      "name": "setApprovalForAll",
      "outputs": [],
      "stateMutability": "nonpayable",
      "type": "function"
    },
    {
      "inputs": [
        {
          "internalType": "bytes4",
          "name": "interfaceId",
          "type": "bytes4"
        }
      ],
      "name": "supportsInterface",
      "outputs": [
        {
          "internalType": "bool",
          "name": "",
          "type": "bool"
        }
      ],
      "stateMutability": "view",
      "type": "function"
    },
    {
      "inputs": [],
      "name": "symbol",
      "outputs": [
        {
          "internalType": "string",
          "name": "",
          "type": "string"
        }
      ],
      "stateMutability": "view",
      "type": "function"
    },
    {
      "inputs": [
        {
          "internalType": "uint256",
          "name": "tokenId",
          "type": "uint256"
        }
      ],
      "name": "tokenURI",
      "outputs": [
        {
          "internalType": "string",
          "name": "",
          "type": "string"
        }
      ],
      "stateMutability": "view",
      "type": "function"
    },
    {
      "inputs": [
        {
          "internalType": "address",
          "name": "from",
          "type": "address"
        },
        {
          "internalType": "address",
          "name": "to",
          "type": "address"
        },
        {
          "internalType": "uint256",
          "name": "tokenId",
          "type": "uint256"
        }
      ],
      "name": "transferFrom",
      "outputs": [],
      "stateMutability": "nonpayable",
      "type": "function"
    },
    {
      "inputs": [
        {
          "internalType": "address",
          "name": "newOwner",
          "type": "address"
        }
      ],
      "name": "transferOwnership",
      "outputs": [],
      "stateMutability": "nonpayable",
      "type": "function"
    },
    {
      "inputs": [],
      "name": "unpause",
      "outputs": [],
      "stateMutability": "nonpayable",
      "type": "function"
    }
  ],
  "bytecode": "0x60c06040523480156200001157600080fd5b50604051620045fe380380620045fe8339818101604052810190620000379190620002e5565b6040518060400160405280601181526020017f4d696e6466756c204f6365616e204e46540000000000000000000000000000008152506040518060400160405280600781526020017f4d494e4446554c000000000000000000000000000000000000000000000000008152508160009081620000b49190620005a6565b508060019081620000c69190620005a6565b5050506000600760006101000a81548160ff02191690831515021790555062000104620000f86200016460201b60201c565b6200016c60201b60201c565b8173ffffffffffffffffffffffffffffffffffffffff1660808173ffffffffffffffffffffffffffffffffffffffff1681525050806bffffffffffffffffffffffff1660a0816bffffffffffffffffffffffff168152505050506200068d565b600033905090565b6000600760019054906101000a900473ffffffffffffffffffffffffffffffffffffffff16905081600760016101000a81548173ffffffffffffffffffffffffffffffffffffffff021916908373ffffffffffffffffffffffffffffffffffffffff1602179055508173ffffffffffffffffffffffffffffffffffffffff168173ffffffffffffffffffffffffffffffffffffffff167f8be0079c531659141344cd1fd0a4f28419497f9722a3daafe3b4186f6b6457e060405160405180910390a35050565b600080fd5b600073ffffffffffffffffffffffffffffffffffffffff82169050919050565b6000620002648262000237565b9050919050565b620002768162000257565b81146200028257600080fd5b50565b60008151905062000296816200026b565b92915050565b60006bffffffffffffffffffffffff82169050919050565b620002bf816200029c565b8114620002cb57600080fd5b50565b600081519050620002df81620002b4565b92915050565b60008060408385031215620002ff57620002fe62000232565b5b60006200030f8582860162000285565b92505060206200032285828601620002ce565b9150509250929050565b600081519050919050565b7f4e487b7100000000000000000000000000000000000000000000000000000000600052604160045260246000fd5b7f4e487b7100000000000000000000000000000000000000000000000000000000600052602260045260246000fd5b60006002820490506001821680620003ae57607f821691505b602082108103620003c457620003c362000366565b5b50919050565b60008190508160005260206000209050919050565b60006020601f8301049050919050565b600082821b905092915050565b6000600883026200042e7fffffffffffffffffffffffffffffffffffffffffffffffffffffffffffffffff82620003ef565b6200043a8683620003ef565b95508019841693508086168417925050509392505050565b6000819050919050565b6000819050919050565b600062000487620004816200047b8462000452565b6200045c565b62000452565b9050919050565b6000819050919050565b620004a38362000466565b620004bb620004b2826200048e565b848454620003fc565b825550505050565b600090565b620004d2620004c3565b620004df81848462000498565b505050565b5b818110156200050757620004fb600082620004c8565b600181019050620004e5565b5050565b601f82111562000556576200052081620003ca565b6200052b84620003df565b810160208510156200053b578190505b620005536200054a85620003df565b830182620004e4565b50505b505050565b600082821c905092915050565b60006200057b600019846008026200055b565b1980831691505092915050565b600062000596838362000568565b9150826002028217905092915050565b620005b1826200032c565b67ffffffffffffffff811115620005cd57620005cc62000337565b5b620005d9825462000395565b620005e68282856200050b565b600060209050601f8311600181146200061e576000841562000609578287015190505b62000615858262000588565b86555062000685565b601f1984166200062e86620003ca565b60005b82811015620006585784890151825560018201915060208501945060208101905062000631565b8683101562000678578489015162000674601f89168262000568565b8355505b6001600288020188555050505b505050505050565b60805160a051613f44620006ba600039600061085801526000818161067901526107090152613f446000f3fe608060405234801561001057600080fd5b50600436106101425760003560e01c80636352211e116100b857806395d89b411161007c57806395d89b4114610350578063a22cb4651461036e578063b88d4fde1461038a578063c87b56dd146103a6578063e985e9c5146103d6578063f2fde38b1461040657610142565b80636352211e146102be57806370a08231146102ee578063715018a61461031e5780638456cb59146103285780638da5cb5b1461033257610142565b806323b872dd1161010a57806323b872dd146102115780632a55205a1461022d5780633f4ba83a1461025e57806342842e0e1461026857806342966c68146102845780635c975abb146102a057610142565b806301ffc9a71461014757806306fdde0314610177578063081812fc14610195578063095ea7b3146101c5578063150b7a02146101e1575b600080fd5b610161600480360381019061015c9190612840565b610422565b60405161016e9190612888565b60405180910390f35b61017f610434565b60405161018c9190612933565b60405180910390f35b6101af60048036038101906101aa919061298b565b6104c6565b6040516101bc91906129f9565b60405180910390f35b6101df60048036038101906101da9190612a40565b61050c565b005b6101fb60048036038101906101f69190612ae5565b610623565b6040516102089190612b7c565b60405180910390f35b61022b60048036038101906102269190612b97565b61089c565b005b61024760048036038101906102429190612bea565b6108fc565b604051610255929190612c39565b60405180910390f35b610266610ae6565b005b610282600480360381019061027d9190612b97565b610af8565b005b61029e6004803603810190610299919061298b565b610b18565b005b6102a8610b74565b6040516102b59190612888565b60405180910390f35b6102d860048036038101906102d3919061298b565b610b8b565b6040516102e591906129f9565b60405180910390f35b61030860048036038101906103039190612c62565b610c11565b6040516103159190612c8f565b60405180910390f35b610326610cc8565b005b610330610cdc565b005b61033a610cee565b60405161034791906129f9565b60405180910390f35b610358610d18565b6040516103659190612933565b60405180910390f35b61038860048036038101906103839190612cd6565b610daa565b005b6103a4600480360381019061039f9190612e46565b610dc0565b005b6103c060048036038101906103bb919061298b565b610e22565b6040516103cd9190612933565b60405180910390f35b6103f060048036038101906103eb9190612ec9565b610e34565b6040516103fd9190612888565b60405180910390f35b610420600480360381019061041b9190612c62565b610ec8565b005b600061042d82610f4b565b9050919050565b60606000805461044390612f38565b80601f016020809104026020016040519081016040528092919081815260200182805461046f90612f38565b80156104bc5780601f10610491576101008083540402835291602001916104bc565b820191906000526020600020905b81548152906001019060200180831161049f57829003601f168201915b5050505050905090565b60006104d182610fc5565b6004600083815260200190815260200160002060009054906101000a900473ffffffffffffffffffffffffffffffffffffffff169050919050565b600061051782610b8b565b90508073ffffffffffffffffffffffffffffffffffffffff168373ffffffffffffffffffffffffffffffffffffffff1603610587576040517f08c379a000000000000000000000000000000000000000000000000000000000815260040161057e90612fdb565b60405180910390fd5b8073ffffffffffffffffffffffffffffffffffffffff166105a6611010565b73ffffffffffffffffffffffffffffffffffffffff1614806105d557506105d4816105cf611010565b610e34565b5b610614576040517f08c379a000000000000000000000000000000000000000000000000000000000815260040161060b9061306d565b60405180910390fd5b61061e8383611018565b505050565b600061062d6110d1565b60008084848080601f016020809104026020016040519081016040528093929190818152602001838380828437600081840152601f19601f8201169050808301925050505050505090507f000000000000000000000000000000000000000000000000000000000000000073ffffffffffffffffffffffffffffffffffffffff163373ffffffffffffffffffffffffffffffffffffffff1614610705576040517f08c379a00000000000000000000000000000000000000000000000000000000081526004016106fc906130d9565b60405180910390fd5b60007f000000000000000000000000000000000000000000000000000000000000000090508073ffffffffffffffffffffffffffffffffffffffff166342966c68886040518263ffffffff1660e01b81526004016107639190612c8f565b600060405180830381600087803b15801561077d57600080fd5b505af192505050801561078e575060015b6108025761079a613106565b806308c379a0036107c357506107ae613128565b806107b957506107c5565b60009350506107fd565b505b3d80600081146107f1576040519150601f19603f3d011682016040523d82523d6000602084013e6107f6565b606091505b5060009350505b610807565b600192505b82610847576040517f08c379a000000000000000000000000000000000000000000000000000000000815260040161083e90613204565b60405180910390fd5b610851888861111b565b61087c87897f0000000000000000000000000000000000000000000000000000000000000000611139565b61088687836112e0565b63150b7a0260e01b935050505095945050505050565b6108ad6108a7611010565b8261134d565b6108ec576040517f08c379a00000000000000000000000000000000000000000000000000000000081526004016108e390613296565b60405180910390fd5b6108f78383836113e2565b505050565b6000806000600960008681526020019081526020016000206040518060400160405290816000820160009054906101000a900473ffffffffffffffffffffffffffffffffffffffff1673ffffffffffffffffffffffffffffffffffffffff1673ffffffffffffffffffffffffffffffffffffffff1681526020016000820160149054906101000a90046bffffffffffffffffffffffff166bffffffffffffffffffffffff166bffffffffffffffffffffffff16815250509050600073ffffffffffffffffffffffffffffffffffffffff16816000015173ffffffffffffffffffffffffffffffffffffffff1603610a915760086040518060400160405290816000820160009054906101000a900473ffffffffffffffffffffffffffffffffffffffff1673ffffffffffffffffffffffffffffffffffffffff1673ffffffffffffffffffffffffffffffffffffffff1681526020016000820160149054906101000a90046bffffffffffffffffffffffff166bffffffffffffffffffffffff166bffffffffffffffffffffffff168152505090505b6000610a9b6116db565b6bffffffffffffffffffffffff1682602001516bffffffffffffffffffffffff1686610ac791906132e5565b610ad19190613356565b90508160000151819350935050509250929050565b610aee6116e5565b610af6611763565b565b610b1383838360405180602001604052806000815250610dc0565b505050565b610b29610b23611010565b8261134d565b610b68576040517f08c379a0000000000000000000000000000000000000000000000000000000008152600401610b5f90613296565b60405180910390fd5b610b71816117c6565b50565b6000600760009054906101000a900460ff16905090565b600080610b97836117d2565b9050600073ffffffffffffffffffffffffffffffffffffffff168173ffffffffffffffffffffffffffffffffffffffff1603610c08576040517f08c379a0000000000000000000000000000000000000000000000000000000008152600401610bff906133d3565b60405180910390fd5b80915050919050565b60008073ffffffffffffffffffffffffffffffffffffffff168273ffffffffffffffffffffffffffffffffffffffff1603610c81576040517f08c379a0000000000000000000000000000000000000000000000000000000008152600401610c7890613465565b60405180910390fd5b600360008373ffffffffffffffffffffffffffffffffffffffff1673ffffffffffffffffffffffffffffffffffffffff168152602001908152602001600020549050919050565b610cd06116e5565b610cda600061180f565b565b610ce46116e5565b610cec6118d5565b565b6000600760019054906101000a900473ffffffffffffffffffffffffffffffffffffffff16905090565b606060018054610d2790612f38565b80601f0160208091040260200160405190810160405280929190818152602001828054610d5390612f38565b8015610da05780601f10610d7557610100808354040283529160200191610da0565b820191906000526020600020905b815481529060010190602001808311610d8357829003601f168201915b5050505050905090565b610dbc610db5611010565b8383611938565b5050565b610dd1610dcb611010565b8361134d565b610e10576040517f08c379a0000000000000000000000000000000000000000000000000000000008152600401610e0790613296565b60405180910390fd5b610e1c84848484611aa4565b50505050565b6060610e2d82611b00565b9050919050565b6000600560008473ffffffffffffffffffffffffffffffffffffffff1673ffffffffffffffffffffffffffffffffffffffff16815260200190815260200160002060008373ffffffffffffffffffffffffffffffffffffffff1673ffffffffffffffffffffffffffffffffffffffff16815260200190815260200160002060009054906101000a900460ff16905092915050565b610ed06116e5565b600073ffffffffffffffffffffffffffffffffffffffff168173ffffffffffffffffffffffffffffffffffffffff1603610f3f576040517f08c379a0000000000000000000000000000000000000000000000000000000008152600401610f36906134f7565b60405180910390fd5b610f488161180f565b50565b60007f2a55205a000000000000000000000000000000000000000000000000000000007bffffffffffffffffffffffffffffffffffffffffffffffffffffffff1916827bffffffffffffffffffffffffffffffffffffffffffffffffffffffff19161480610fbe5750610fbd82611c12565b5b9050919050565b610fce81611cf4565b61100d576040517f08c379a0000000000000000000000000000000000000000000000000000000008152600401611004906133d3565b60405180910390fd5b50565b600033905090565b816004600083815260200190815260200160002060006101000a81548173ffffffffffffffffffffffffffffffffffffffff021916908373ffffffffffffffffffffffffffffffffffffffff160217905550808273ffffffffffffffffffffffffffffffffffffffff1661108b83610b8b565b73ffffffffffffffffffffffffffffffffffffffff167f8c5be1e5ebec7d5bd14f71427d1e84f3dd0314c0f7b2291e5b200ac8c7c3b92560405160405180910390a45050565b6110d9610b74565b15611119576040517f08c379a000000000000000000000000000000000000000000000000000000000815260040161111090613563565b60405180910390fd5b565b611135828260405180602001604052806000815250611d35565b5050565b6111416116db565b6bffffffffffffffffffffffff16816bffffffffffffffffffffffff16111561119f576040517f08c379a0000000000000000000000000000000000000000000000000000000008152600401611196906135f5565b60405180910390fd5b600073ffffffffffffffffffffffffffffffffffffffff168273ffffffffffffffffffffffffffffffffffffffff160361120e576040517f08c379a000000000000000000000000000000000000000000000000000000000815260040161120590613661565b60405180910390fd5b60405180604001604052808373ffffffffffffffffffffffffffffffffffffffff168152602001826bffffffffffffffffffffffff168152506009600085815260200190815260200160002060008201518160000160006101000a81548173ffffffffffffffffffffffffffffffffffffffff021916908373ffffffffffffffffffffffffffffffffffffffff16021790555060208201518160000160146101000a8154816bffffffffffffffffffffffff02191690836bffffffffffffffffffffffff160217905550905050505050565b6112e982611cf4565b611328576040517f08c379a000000000000000000000000000000000000000000000000000000000815260040161131f906136f3565b60405180910390fd5b8060066000848152602001908152602001600020908161134891906138bf565b505050565b60008061135983610b8b565b90508073ffffffffffffffffffffffffffffffffffffffff168473ffffffffffffffffffffffffffffffffffffffff16148061139b575061139a8185610e34565b5b806113d957508373ffffffffffffffffffffffffffffffffffffffff166113c1846104c6565b73ffffffffffffffffffffffffffffffffffffffff16145b91505092915050565b8273ffffffffffffffffffffffffffffffffffffffff1661140282610b8b565b73ffffffffffffffffffffffffffffffffffffffff1614611458576040517f08c379a000000000000000000000000000000000000000000000000000000000815260040161144f90613a03565b60405180910390fd5b600073ffffffffffffffffffffffffffffffffffffffff168273ffffffffffffffffffffffffffffffffffffffff16036114c7576040517f08c379a00000000000000000000000000000000000000000000000000000000081526004016114be90613a95565b60405180910390fd5b6114d48383836001611d90565b8273ffffffffffffffffffffffffffffffffffffffff166114f482610b8b565b73ffffffffffffffffffffffffffffffffffffffff161461154a576040517f08c379a000000000000000000000000000000000000000000000000000000000815260040161154190613a03565b60405180910390fd5b6004600082815260200190815260200160002060006101000a81549073ffffffffffffffffffffffffffffffffffffffff02191690556001600360008573ffffffffffffffffffffffffffffffffffffffff1673ffffffffffffffffffffffffffffffffffffffff168152602001908152602001600020600082825403925050819055506001600360008473ffffffffffffffffffffffffffffffffffffffff1673ffffffffffffffffffffffffffffffffffffffff16815260200190815260200160002060008282540192505081905550816002600083815260200190815260200160002060006101000a81548173ffffffffffffffffffffffffffffffffffffffff021916908373ffffffffffffffffffffffffffffffffffffffff160217905550808273ffffffffffffffffffffffffffffffffffffffff168473ffffffffffffffffffffffffffffffffffffffff167fddf252ad1be2c89b69c2b068fc378daa952ba7f163c4a11628f55a4df523b3ef60405160405180910390a46116d68383836001611eb6565b505050565b6000612710905090565b6116ed611010565b73ffffffffffffffffffffffffffffffffffffffff1661170b610cee565b73ffffffffffffffffffffffffffffffffffffffff1614611761576040517f08c379a000000000000000000000000000000000000000000000000000000000815260040161175890613b01565b60405180910390fd5b565b61176b611ebc565b6000600760006101000a81548160ff0219169083151502179055507f5db9ee0a495bf2e6ff9c91a7834c1ba4fdd244a5e8aa4e537bd38aeae4b073aa6117af611010565b6040516117bc91906129f9565b60405180910390a1565b6117cf81611f05565b50565b60006002600083815260200190815260200160002060009054906101000a900473ffffffffffffffffffffffffffffffffffffffff169050919050565b6000600760019054906101000a900473ffffffffffffffffffffffffffffffffffffffff16905081600760016101000a81548173ffffffffffffffffffffffffffffffffffffffff021916908373ffffffffffffffffffffffffffffffffffffffff1602179055508173ffffffffffffffffffffffffffffffffffffffff168173ffffffffffffffffffffffffffffffffffffffff167f8be0079c531659141344cd1fd0a4f28419497f9722a3daafe3b4186f6b6457e060405160405180910390a35050565b6118dd6110d1565b6001600760006101000a81548160ff0219169083151502179055507f62e78cea01bee320cd4e420270b5ea74000d11b0c9f74754ebdbfc544b05a258611921611010565b60405161192e91906129f9565b60405180910390a1565b8173ffffffffffffffffffffffffffffffffffffffff168373ffffffffffffffffffffffffffffffffffffffff16036119a6576040517f08c379a000000000000000000000000000000000000000000000000000000000815260040161199d90613b6d565b60405180910390fd5b80600560008573ffffffffffffffffffffffffffffffffffffffff1673ffffffffffffffffffffffffffffffffffffffff16815260200190815260200160002060008473ffffffffffffffffffffffffffffffffffffffff1673ffffffffffffffffffffffffffffffffffffffff16815260200190815260200160002060006101000a81548160ff0219169083151502179055508173ffffffffffffffffffffffffffffffffffffffff168373ffffffffffffffffffffffffffffffffffffffff167f17307eab39ab6107e8899845ad3d59bd9653f200f220920489ca2b5937696c3183604051611a979190612888565b60405180910390a3505050565b611aaf8484846113e2565b611abb84848484611f58565b611afa576040517f08c379a0000000000000000000000000000000000000000000000000000000008152600401611af190613bff565b60405180910390fd5b50505050565b6060611b0b82610fc5565b6000600660008481526020019081526020016000208054611b2b90612f38565b80601f0160208091040260200160405190810160405280929190818152602001828054611b5790612f38565b8015611ba45780601f10611b7957610100808354040283529160200191611ba4565b820191906000526020600020905b815481529060010190602001808311611b8757829003601f168201915b505050505090506000611bb56120df565b90506000815103611bca578192505050611c0d565b600082511115611bff578082604051602001611be7929190613c5b565b60405160208183030381529060405292505050611c0d565b611c08846120f6565b925050505b919050565b60007f80ac58cd000000000000000000000000000000000000000000000000000000007bffffffffffffffffffffffffffffffffffffffffffffffffffffffff1916827bffffffffffffffffffffffffffffffffffffffffffffffffffffffff19161480611cdd57507f5b5e139f000000000000000000000000000000000000000000000000000000007bffffffffffffffffffffffffffffffffffffffffffffffffffffffff1916827bffffffffffffffffffffffffffffffffffffffffffffffffffffffff1916145b80611ced5750611cec8261215e565b5b9050919050565b60008073ffffffffffffffffffffffffffffffffffffffff16611d16836117d2565b73ffffffffffffffffffffffffffffffffffffffff1614159050919050565b611d3f83836121c8565b611d4c6000848484611f58565b611d8b576040517f08c379a0000000000000000000000000000000000000000000000000000000008152600401611d8290613bff565b60405180910390fd5b505050565b6001811115611eb057600073ffffffffffffffffffffffffffffffffffffffff168473ffffffffffffffffffffffffffffffffffffffff1614611e245780600360008673ffffffffffffffffffffffffffffffffffffffff1673ffffffffffffffffffffffffffffffffffffffff1681526020019081526020016000206000828254611e1c9190613c7f565b925050819055505b600073ffffffffffffffffffffffffffffffffffffffff168373ffffffffffffffffffffffffffffffffffffffff1614611eaf5780600360008573ffffffffffffffffffffffffffffffffffffffff1673ffffffffffffffffffffffffffffffffffffffff1681526020019081526020016000206000828254611ea79190613cb3565b925050819055505b5b50505050565b50505050565b611ec4610b74565b611f03576040517f08c379a0000000000000000000000000000000000000000000000000000000008152600401611efa90613d33565b60405180910390fd5b565b611f0e816123e5565b6000600660008381526020019081526020016000208054611f2e90612f38565b905014611f5557600660008281526020019081526020016000206000611f549190612777565b5b50565b6000611f798473ffffffffffffffffffffffffffffffffffffffff16612533565b156120d2578373ffffffffffffffffffffffffffffffffffffffff1663150b7a02611fa2611010565b8786866040518563ffffffff1660e01b8152600401611fc49493929190613da8565b6020604051808303816000875af192505050801561200057506040513d601f19601f82011682018060405250810190611ffd9190613e09565b60015b612082573d8060008114612030576040519150601f19603f3d011682016040523d82523d6000602084013e612035565b606091505b50600081510361207a576040517f08c379a000000000000000000000000000000000000000000000000000000000815260040161207190613bff565b60405180910390fd5b805181602001fd5b63150b7a0260e01b7bffffffffffffffffffffffffffffffffffffffffffffffffffffffff1916817bffffffffffffffffffffffffffffffffffffffffffffffffffffffff1916149150506120d7565b600190505b949350505050565b606060405180602001604052806000815250905090565b606061210182610fc5565b600061210b6120df565b9050600081511161212b5760405180602001604052806000815250612156565b8061213584612556565b604051602001612146929190613c5b565b6040516020818303038152906040525b915050919050565b60007f01ffc9a7000000000000000000000000000000000000000000000000000000007bffffffffffffffffffffffffffffffffffffffffffffffffffffffff1916827bffffffffffffffffffffffffffffffffffffffffffffffffffffffff1916149050919050565b600073ffffffffffffffffffffffffffffffffffffffff168273ffffffffffffffffffffffffffffffffffffffff1603612237576040517f08c379a000000000000000000000000000000000000000000000000000000000815260040161222e90613e82565b60405180910390fd5b61224081611cf4565b15612280576040517f08c379a000000000000000000000000000000000000000000000000000000000815260040161227790613eee565b60405180910390fd5b61228e600083836001611d90565b61229781611cf4565b156122d7576040517f08c379a00000000000000000000000000000000000000000000000000000000081526004016122ce90613eee565b60405180910390fd5b6001600360008473ffffffffffffffffffffffffffffffffffffffff1673ffffffffffffffffffffffffffffffffffffffff16815260200190815260200160002060008282540192505081905550816002600083815260200190815260200160002060006101000a81548173ffffffffffffffffffffffffffffffffffffffff021916908373ffffffffffffffffffffffffffffffffffffffff160217905550808273ffffffffffffffffffffffffffffffffffffffff16600073ffffffffffffffffffffffffffffffffffffffff167fddf252ad1be2c89b69c2b068fc378daa952ba7f163c4a11628f55a4df523b3ef60405160405180910390a46123e1600083836001611eb6565b5050565b60006123f082610b8b565b9050612400816000846001611d90565b61240982610b8b565b90506004600083815260200190815260200160002060006101000a81549073ffffffffffffffffffffffffffffffffffffffff02191690556001600360008373ffffffffffffffffffffffffffffffffffffffff1673ffffffffffffffffffffffffffffffffffffffff168152602001908152602001600020600082825403925050819055506002600083815260200190815260200160002060006101000a81549073ffffffffffffffffffffffffffffffffffffffff021916905581600073ffffffffffffffffffffffffffffffffffffffff168273ffffffffffffffffffffffffffffffffffffffff167fddf252ad1be2c89b69c2b068fc378daa952ba7f163c4a11628f55a4df523b3ef60405160405180910390a461252f816000846001611eb6565b5050565b6000808273ffffffffffffffffffffffffffffffffffffffff163b119050919050565b60606000600161256584612624565b01905060008167ffffffffffffffff81111561258457612583612d1b565b5b6040519080825280601f01601f1916602001820160405280156125b65781602001600182028036833780820191505090505b509050600082602001820190505b600115612619578080600190039150507f3031323334353637383961626364656600000000000000000000000000000000600a86061a8153600a858161260d5761260c613327565b5b049450600085036125c4575b819350505050919050565b600080600090507a184f03e93ff9f4daa797ed6e38ed64bf6a1f0100000000000000008310612682577a184f03e93ff9f4daa797ed6e38ed64bf6a1f010000000000000000838161267857612677613327565b5b0492506040810190505b6d04ee2d6d415b85acef810000000083106126bf576d04ee2d6d415b85acef810000000083816126b5576126b4613327565b5b0492506020810190505b662386f26fc1000083106126ee57662386f26fc1000083816126e4576126e3613327565b5b0492506010810190505b6305f5e1008310612717576305f5e100838161270d5761270c613327565b5b0492506008810190505b612710831061273c57612710838161273257612731613327565b5b0492506004810190505b6064831061275f576064838161275557612754613327565b5b0492506002810190505b600a831061276e576001810190505b80915050919050565b50805461278390612f38565b6000825580601f1061279557506127b4565b601f0160209004906000526020600020908101906127b391906127b7565b5b50565b5b808211156127d05760008160009055506001016127b8565b5090565b6000604051905090565b600080fd5b600080fd5b60007fffffffff0000000000000000000000000000000000000000000000000000000082169050919050565b61281d816127e8565b811461282857600080fd5b50565b60008135905061283a81612814565b92915050565b600060208284031215612856576128556127de565b5b60006128648482850161282b565b91505092915050565b60008115159050919050565b6128828161286d565b82525050565b600060208201905061289d6000830184612879565b92915050565b600081519050919050565b600082825260208201905092915050565b60005b838110156128dd5780820151818401526020810190506128c2565b60008484015250505050565b6000601f19601f8301169050919050565b6000612905826128a3565b61290f81856128ae565b935061291f8185602086016128bf565b612928816128e9565b840191505092915050565b6000602082019050818103600083015261294d81846128fa565b905092915050565b6000819050919050565b61296881612955565b811461297357600080fd5b50565b6000813590506129858161295f565b92915050565b6000602082840312156129a1576129a06127de565b5b60006129af84828501612976565b91505092915050565b600073ffffffffffffffffffffffffffffffffffffffff82169050919050565b60006129e3826129b8565b9050919050565b6129f3816129d8565b82525050565b6000602082019050612a0e60008301846129ea565b92915050565b612a1d816129d8565b8114612a2857600080fd5b50565b600081359050612a3a81612a14565b92915050565b60008060408385031215612a5757612a566127de565b5b6000612a6585828601612a2b565b9250506020612a7685828601612976565b9150509250929050565b600080fd5b600080fd5b600080fd5b60008083601f840112612aa557612aa4612a80565b5b8235905067ffffffffffffffff811115612ac257612ac1612a85565b5b602083019150836001820283011115612ade57612add612a8a565b5b9250929050565b600080600080600060808688031215612b0157612b006127de565b5b6000612b0f88828901612a2b565b9550506020612b2088828901612a2b565b9450506040612b3188828901612976565b935050606086013567ffffffffffffffff811115612b5257612b516127e3565b5b612b5e88828901612a8f565b92509250509295509295909350565b612b76816127e8565b82525050565b6000602082019050612b916000830184612b6d565b92915050565b600080600060608486031215612bb057612baf6127de565b5b6000612bbe86828701612a2b565b9350506020612bcf86828701612a2b565b9250506040612be086828701612976565b9150509250925092565b60008060408385031215612c0157612c006127de565b5b6000612c0f85828601612976565b9250506020612c2085828601612976565b9150509250929050565b612c3381612955565b82525050565b6000604082019050612c4e60008301856129ea565b612c5b6020830184612c2a565b9392505050565b600060208284031215612c7857612c776127de565b5b6000612c8684828501612a2b565b91505092915050565b6000602082019050612ca46000830184612c2a565b92915050565b612cb38161286d565b8114612cbe57600080fd5b50565b600081359050612cd081612caa565b92915050565b60008060408385031215612ced57612cec6127de565b5b6000612cfb85828601612a2b565b9250506020612d0c85828601612cc1565b9150509250929050565b600080fd5b7f4e487b7100000000000000000000000000000000000000000000000000000000600052604160045260246000fd5b612d53826128e9565b810181811067ffffffffffffffff82111715612d7257612d71612d1b565b5b80604052505050565b6000612d856127d4565b9050612d918282612d4a565b919050565b600067ffffffffffffffff821115612db157612db0612d1b565b5b612dba826128e9565b9050602081019050919050565b82818337600083830152505050565b6000612de9612de484612d96565b612d7b565b905082815260208101848484011115612e0557612e04612d16565b5b612e10848285612dc7565b509392505050565b600082601f830112612e2d57612e2c612a80565b5b8135612e3d848260208601612dd6565b91505092915050565b60008060008060808587031215612e6057612e5f6127de565b5b6000612e6e87828801612a2b565b9450506020612e7f87828801612a2b565b9350506040612e9087828801612976565b925050606085013567ffffffffffffffff811115612eb157612eb06127e3565b5b612ebd87828801612e18565b91505092959194509250565b60008060408385031215612ee057612edf6127de565b5b6000612eee85828601612a2b565b9250506020612eff85828601612a2b565b9150509250929050565b7f4e487b7100000000000000000000000000000000000000000000000000000000600052602260045260246000fd5b60006002820490506001821680612f5057607f821691505b602082108103612f6357612f62612f09565b5b50919050565b7f4552433732313a20617070726f76616c20746f2063757272656e74206f776e6560008201527f7200000000000000000000000000000000000000000000000000000000000000602082015250565b6000612fc56021836128ae565b9150612fd082612f69565b604082019050919050565b60006020820190508181036000830152612ff481612fb8565b9050919050565b7f4552433732313a20617070726f76652063616c6c6572206973206e6f7420746f60008201527f6b656e206f776e6572206f7220617070726f76656420666f7220616c6c000000602082015250565b6000613057603d836128ae565b915061306282612ffb565b604082019050919050565b600060208201905081810360008301526130868161304a565b9050919050565b7f43616e2072656365697665206f6e6c792066726f6d204d696e74506173730000600082015250565b60006130c3601e836128ae565b91506130ce8261308d565b602082019050919050565b600060208201905081810360008301526130f2816130b6565b9050919050565b60008160e01c9050919050565b600060033d11156131255760046000803e6131226000516130f9565b90505b90565b600060443d106131b55761313a6127d4565b60043d036004823e80513d602482011167ffffffffffffffff821117156131625750506131b5565b808201805167ffffffffffffffff81111561318057505050506131b5565b80602083010160043d03850181111561319d5750505050506131b5565b6131ac82602001850186612d4a565b82955050505050505b90565b7f4d696e7450617373206e6f74206275726e656400000000000000000000000000600082015250565b60006131ee6013836128ae565b91506131f9826131b8565b602082019050919050565b6000602082019050818103600083015261321d816131e1565b9050919050565b7f4552433732313a2063616c6c6572206973206e6f7420746f6b656e206f776e6560008201527f72206f7220617070726f76656400000000000000000000000000000000000000602082015250565b6000613280602d836128ae565b915061328b82613224565b604082019050919050565b600060208201905081810360008301526132af81613273565b9050919050565b7f4e487b7100000000000000000000000000000000000000000000000000000000600052601160045260246000fd5b60006132f082612955565b91506132fb83612955565b925082820261330981612955565b915082820484148315176133205761331f6132b6565b5b5092915050565b7f4e487b7100000000000000000000000000000000000000000000000000000000600052601260045260246000fd5b600061336182612955565b915061336c83612955565b92508261337c5761337b613327565b5b828204905092915050565b7f4552433732313a20696e76616c696420746f6b656e2049440000000000000000600082015250565b60006133bd6018836128ae565b91506133c882613387565b602082019050919050565b600060208201905081810360008301526133ec816133b0565b9050919050565b7f4552433732313a2061646472657373207a65726f206973206e6f74206120766160008201527f6c6964206f776e65720000000000000000000000000000000000000000000000602082015250565b600061344f6029836128ae565b915061345a826133f3565b604082019050919050565b6000602082019050818103600083015261347e81613442565b9050919050565b7f4f776e61626c653a206e6577206f776e657220697320746865207a65726f206160008201527f6464726573730000000000000000000000000000000000000000000000000000602082015250565b60006134e16026836128ae565b91506134ec82613485565b604082019050919050565b60006020820190508181036000830152613510816134d4565b9050919050565b7f5061757361626c653a2070617573656400000000000000000000000000000000600082015250565b600061354d6010836128ae565b915061355882613517565b602082019050919050565b6000602082019050818103600083015261357c81613540565b9050919050565b7f455243323938313a20726f79616c7479206665652077696c6c2065786365656460008201527f2073616c65507269636500000000000000000000000000000000000000000000602082015250565b60006135df602a836128ae565b91506135ea82613583565b604082019050919050565b6000602082019050818103600083015261360e816135d2565b9050919050565b7f455243323938313a20496e76616c696420706172616d65746572730000000000600082015250565b600061364b601b836128ae565b915061365682613615565b602082019050919050565b6000602082019050818103600083015261367a8161363e565b9050919050565b7f45524337323155524953746f726167653a2055524920736574206f66206e6f6e60008201527f6578697374656e7420746f6b656e000000000000000000000000000000000000602082015250565b60006136dd602e836128ae565b91506136e882613681565b604082019050919050565b6000602082019050818103600083015261370c816136d0565b9050919050565b60008190508160005260206000209050919050565b60006020601f8301049050919050565b600082821b905092915050565b6000600883026137757fffffffffffffffffffffffffffffffffffffffffffffffffffffffffffffffff82613738565b61377f8683613738565b95508019841693508086168417925050509392505050565b6000819050919050565b60006137bc6137b76137b284612955565b613797565b612955565b9050919050565b6000819050919050565b6137d6836137a1565b6137ea6137e2826137c3565b848454613745565b825550505050565b600090565b6137ff6137f2565b61380a8184846137cd565b505050565b5b8181101561382e576138236000826137f7565b600181019050613810565b5050565b601f8211156138735761384481613713565b61384d84613728565b8101602085101561385c578190505b61387061386885613728565b83018261380f565b50505b505050565b600082821c905092915050565b600061389660001984600802613878565b1980831691505092915050565b60006138af8383613885565b9150826002028217905092915050565b6138c8826128a3565b67ffffffffffffffff8111156138e1576138e0612d1b565b5b6138eb8254612f38565b6138f6828285613832565b600060209050601f8311600181146139295760008415613917578287015190505b61392185826138a3565b865550613989565b601f19841661393786613713565b60005b8281101561395f5784890151825560018201915060208501945060208101905061393a565b8683101561397c5784890151613978601f891682613885565b8355505b6001600288020188555050505b505050505050565b7f4552433732313a207472616e736665722066726f6d20696e636f72726563742060008201527f6f776e6572000000000000000000000000000000000000000000000000000000602082015250565b60006139ed6025836128ae565b91506139f882613991565b604082019050919050565b60006020820190508181036000830152613a1c816139e0565b9050919050565b7f4552433732313a207472616e7366657220746f20746865207a65726f2061646460008201527f7265737300000000000000000000000000000000000000000000000000000000602082015250565b6000613a7f6024836128ae565b9150613a8a82613a23565b604082019050919050565b60006020820190508181036000830152613aae81613a72565b9050919050565b7f4f776e61626c653a2063616c6c6572206973206e6f7420746865206f776e6572600082015250565b6000613aeb6020836128ae565b9150613af682613ab5565b602082019050919050565b60006020820190508181036000830152613b1a81613ade565b9050919050565b7f4552433732313a20617070726f766520746f2063616c6c657200000000000000600082015250565b6000613b576019836128ae565b9150613b6282613b21565b602082019050919050565b60006020820190508181036000830152613b8681613b4a565b9050919050565b7f4552433732313a207472616e7366657220746f206e6f6e20455243373231526560008201527f63656976657220696d706c656d656e7465720000000000000000000000000000602082015250565b6000613be96032836128ae565b9150613bf482613b8d565b604082019050919050565b60006020820190508181036000830152613c1881613bdc565b9050919050565b600081905092915050565b6000613c35826128a3565b613c3f8185613c1f565b9350613c4f8185602086016128bf565b80840191505092915050565b6000613c678285613c2a565b9150613c738284613c2a565b91508190509392505050565b6000613c8a82612955565b9150613c9583612955565b9250828203905081811115613cad57613cac6132b6565b5b92915050565b6000613cbe82612955565b9150613cc983612955565b9250828201905080821115613ce157613ce06132b6565b5b92915050565b7f5061757361626c653a206e6f7420706175736564000000000000000000000000600082015250565b6000613d1d6014836128ae565b9150613d2882613ce7565b602082019050919050565b60006020820190508181036000830152613d4c81613d10565b9050919050565b600081519050919050565b600082825260208201905092915050565b6000613d7a82613d53565b613d848185613d5e565b9350613d948185602086016128bf565b613d9d816128e9565b840191505092915050565b6000608082019050613dbd60008301876129ea565b613dca60208301866129ea565b613dd76040830185612c2a565b8181036060830152613de98184613d6f565b905095945050505050565b600081519050613e0381612814565b92915050565b600060208284031215613e1f57613e1e6127de565b5b6000613e2d84828501613df4565b91505092915050565b7f4552433732313a206d696e7420746f20746865207a65726f2061646472657373600082015250565b6000613e6c6020836128ae565b9150613e7782613e36565b602082019050919050565b60006020820190508181036000830152613e9b81613e5f565b9050919050565b7f4552433732313a20746f6b656e20616c7265616479206d696e74656400000000600082015250565b6000613ed8601c836128ae565b9150613ee382613ea2565b602082019050919050565b60006020820190508181036000830152613f0781613ecb565b905091905056fea264697066735822122099989648352661a90b717cf858c3c6dfbc72bdd66d3d2e6434ca888449cf1fce64736f6c63430008110033",
  "linkReferences": {},
  "deployedLinkReferences": {}
}