{
  "_format": "hh-sol-artifact-1",
  "contractName": "MindfulNFT",
  "sourceName": "contracts/MindfulNFT.sol",
  "abi": [
    {
      "inputs": [
        {
          "internalType": "address",
          "name": "_systemAddress",
          "type": "address"
        },
        {
          "internalType": "address",
          "name": "_mintPass",
          "type": "address"
        },
        {
          "internalType": "uint96",
          "name": "_loyaltyFee",
          "type": "uint96"
        }
      ],
      "stateMutability": "nonpayable",
      "type": "constructor"
    },
    {
      "anonymous": false,
      "inputs": [
        {
          "indexed": true,
          "internalType": "address",
          "name": "owner",
          "type": "address"
        },
        {
          "indexed": true,
          "internalType": "address",
          "name": "approved",
          "type": "address"
        },
        {
          "indexed": true,
          "internalType": "uint256",
          "name": "tokenId",
          "type": "uint256"
        }
      ],
      "name": "Approval",
      "type": "event"
    },
    {
      "anonymous": false,
      "inputs": [
        {
          "indexed": true,
          "internalType": "address",
          "name": "owner",
          "type": "address"
        },
        {
          "indexed": true,
          "internalType": "address",
          "name": "operator",
          "type": "address"
        },
        {
          "indexed": false,
          "internalType": "bool",
          "name": "approved",
          "type": "bool"
        }
      ],
      "name": "ApprovalForAll",
      "type": "event"
    },
    {
      "anonymous": false,
      "inputs": [
        {
          "indexed": true,
          "internalType": "address",
          "name": "previousOwner",
          "type": "address"
        },
        {
          "indexed": true,
          "internalType": "address",
          "name": "newOwner",
          "type": "address"
        }
      ],
      "name": "OwnershipTransferred",
      "type": "event"
    },
    {
      "anonymous": false,
      "inputs": [
        {
          "indexed": false,
          "internalType": "address",
          "name": "account",
          "type": "address"
        }
      ],
      "name": "Paused",
      "type": "event"
    },
    {
      "anonymous": false,
      "inputs": [
        {
          "indexed": true,
          "internalType": "address",
          "name": "from",
          "type": "address"
        },
        {
          "indexed": true,
          "internalType": "address",
          "name": "to",
          "type": "address"
        },
        {
          "indexed": true,
          "internalType": "uint256",
          "name": "tokenId",
          "type": "uint256"
        }
      ],
      "name": "Transfer",
      "type": "event"
    },
    {
      "anonymous": false,
      "inputs": [
        {
          "indexed": false,
          "internalType": "address",
          "name": "account",
          "type": "address"
        }
      ],
      "name": "Unpaused",
      "type": "event"
    },
    {
      "anonymous": false,
      "inputs": [
        {
          "indexed": true,
          "internalType": "uint256",
          "name": "tokenId",
          "type": "uint256"
        }
      ],
      "name": "tokenIdMinted",
      "type": "event"
    },
    {
      "inputs": [
        {
          "internalType": "address",
          "name": "to",
          "type": "address"
        },
        {
          "internalType": "uint256",
          "name": "tokenId",
          "type": "uint256"
        }
      ],
      "name": "approve",
      "outputs": [],
      "stateMutability": "nonpayable",
      "type": "function"
    },
    {
      "inputs": [
        {
          "internalType": "address",
          "name": "owner",
          "type": "address"
        }
      ],
      "name": "balanceOf",
      "outputs": [
        {
          "internalType": "uint256",
          "name": "",
          "type": "uint256"
        }
      ],
      "stateMutability": "view",
      "type": "function"
    },
    {
      "inputs": [
        {
          "internalType": "uint256",
          "name": "tokenId",
          "type": "uint256"
        }
      ],
      "name": "burn",
      "outputs": [],
      "stateMutability": "nonpayable",
      "type": "function"
    },
    {
      "inputs": [
        {
          "internalType": "uint256",
          "name": "tokenId",
          "type": "uint256"
        }
      ],
      "name": "getApproved",
      "outputs": [
        {
          "internalType": "address",
          "name": "",
          "type": "address"
        }
      ],
      "stateMutability": "view",
      "type": "function"
    },
    {
      "inputs": [
        {
          "internalType": "bytes32",
          "name": "",
          "type": "bytes32"
        }
      ],
      "name": "hashUsed",
      "outputs": [
        {
          "internalType": "bool",
          "name": "",
          "type": "bool"
        }
      ],
      "stateMutability": "view",
      "type": "function"
    },
    {
      "inputs": [
        {
          "internalType": "address",
          "name": "owner",
          "type": "address"
        },
        {
          "internalType": "address",
          "name": "operator",
          "type": "address"
        }
      ],
      "name": "isApprovedForAll",
      "outputs": [
        {
          "internalType": "bool",
          "name": "",
          "type": "bool"
        }
      ],
      "stateMutability": "view",
      "type": "function"
    },
    {
      "inputs": [
        {
          "internalType": "bytes32",
          "name": "hash",
          "type": "bytes32"
        },
        {
          "internalType": "bytes",
          "name": "signature",
          "type": "bytes"
        },
        {
          "internalType": "uint256",
          "name": "tokenId",
          "type": "uint256"
        },
        {
          "internalType": "string",
          "name": "uri",
          "type": "string"
        },
        {
          "internalType": "address",
          "name": "to",
          "type": "address"
        }
      ],
      "name": "mintMindfulNFT",
      "outputs": [
        {
          "internalType": "uint256",
          "name": "",
          "type": "uint256"
        }
      ],
      "stateMutability": "nonpayable",
      "type": "function"
    },
    {
      "inputs": [],
      "name": "name",
      "outputs": [
        {
          "internalType": "string",
          "name": "",
          "type": "string"
        }
      ],
      "stateMutability": "view",
      "type": "function"
    },
    {
      "inputs": [
        {
          "internalType": "address",
          "name": "",
          "type": "address"
        },
        {
          "internalType": "address",
          "name": "_from",
          "type": "address"
        },
        {
          "internalType": "uint256",
          "name": "_tokenId",
          "type": "uint256"
        },
        {
          "internalType": "bytes",
          "name": "_data",
          "type": "bytes"
        }
      ],
      "name": "onERC721Received",
      "outputs": [
        {
          "internalType": "bytes4",
          "name": "",
          "type": "bytes4"
        }
      ],
      "stateMutability": "nonpayable",
      "type": "function"
    },
    {
      "inputs": [],
      "name": "owner",
      "outputs": [
        {
          "internalType": "address",
          "name": "",
          "type": "address"
        }
      ],
      "stateMutability": "view",
      "type": "function"
    },
    {
      "inputs": [
        {
          "internalType": "uint256",
          "name": "tokenId",
          "type": "uint256"
        }
      ],
      "name": "ownerOf",
      "outputs": [
        {
          "internalType": "address",
          "name": "",
          "type": "address"
        }
      ],
      "stateMutability": "view",
      "type": "function"
    },
    {
      "inputs": [],
      "name": "pause",
      "outputs": [],
      "stateMutability": "nonpayable",
      "type": "function"
    },
    {
      "inputs": [],
      "name": "paused",
      "outputs": [
        {
          "internalType": "bool",
          "name": "",
          "type": "bool"
        }
      ],
      "stateMutability": "view",
      "type": "function"
    },
    {
      "inputs": [],
      "name": "renounceOwnership",
      "outputs": [],
      "stateMutability": "nonpayable",
      "type": "function"
    },
    {
      "inputs": [
        {
          "internalType": "uint256",
          "name": "_tokenId",
          "type": "uint256"
        },
        {
          "internalType": "uint256",
          "name": "_salePrice",
          "type": "uint256"
        }
      ],
      "name": "royaltyInfo",
      "outputs": [
        {
          "internalType": "address",
          "name": "",
          "type": "address"
        },
        {
          "internalType": "uint256",
          "name": "",
          "type": "uint256"
        }
      ],
      "stateMutability": "view",
      "type": "function"
    },
    {
      "inputs": [
        {
          "internalType": "address",
          "name": "from",
          "type": "address"
        },
        {
          "internalType": "address",
          "name": "to",
          "type": "address"
        },
        {
          "internalType": "uint256",
          "name": "tokenId",
          "type": "uint256"
        }
      ],
      "name": "safeTransferFrom",
      "outputs": [],
      "stateMutability": "nonpayable",
      "type": "function"
    },
    {
      "inputs": [
        {
          "internalType": "address",
          "name": "from",
          "type": "address"
        },
        {
          "internalType": "address",
          "name": "to",
          "type": "address"
        },
        {
          "internalType": "uint256",
          "name": "tokenId",
          "type": "uint256"
        },
        {
          "internalType": "bytes",
          "name": "data",
          "type": "bytes"
        }
      ],
      "name": "safeTransferFrom",
      "outputs": [],
      "stateMutability": "nonpayable",
      "type": "function"
    },
    {
      "inputs": [
        {
          "internalType": "address",
          "name": "operator",
          "type": "address"
        },
        {
          "internalType": "bool",
          "name": "approved",
          "type": "bool"
        }
      ],
      "name": "setApprovalForAll",
      "outputs": [],
      "stateMutability": "nonpayable",
      "type": "function"
    },
    {
      "inputs": [
        {
          "internalType": "bytes4",
          "name": "interfaceId",
          "type": "bytes4"
        }
      ],
      "name": "supportsInterface",
      "outputs": [
        {
          "internalType": "bool",
          "name": "",
          "type": "bool"
        }
      ],
      "stateMutability": "view",
      "type": "function"
    },
    {
      "inputs": [],
      "name": "symbol",
      "outputs": [
        {
          "internalType": "string",
          "name": "",
          "type": "string"
        }
      ],
      "stateMutability": "view",
      "type": "function"
    },
    {
      "inputs": [
        {
          "internalType": "uint256",
          "name": "tokenId",
          "type": "uint256"
        }
      ],
      "name": "tokenURI",
      "outputs": [
        {
          "internalType": "string",
          "name": "",
          "type": "string"
        }
      ],
      "stateMutability": "view",
      "type": "function"
    },
    {
      "inputs": [
        {
          "internalType": "address",
          "name": "from",
          "type": "address"
        },
        {
          "internalType": "address",
          "name": "to",
          "type": "address"
        },
        {
          "internalType": "uint256",
          "name": "tokenId",
          "type": "uint256"
        }
      ],
      "name": "transferFrom",
      "outputs": [],
      "stateMutability": "nonpayable",
      "type": "function"
    },
    {
      "inputs": [
        {
          "internalType": "address",
          "name": "newOwner",
          "type": "address"
        }
      ],
      "name": "transferOwnership",
      "outputs": [],
      "stateMutability": "nonpayable",
      "type": "function"
    },
    {
      "inputs": [],
      "name": "unpause",
      "outputs": [],
      "stateMutability": "nonpayable",
      "type": "function"
    }
  ],
  "bytecode": "0x6101006040523480156200001257600080fd5b506040516200531d3803806200531d833981810160405281019062000038919062000357565b6040518060400160405280601181526020017f4d696e6466756c204f6365616e204e46540000000000000000000000000000008152506040518060400160405280600781526020017f4d494e4446554c000000000000000000000000000000000000000000000000008152508160009081620000b591906200062d565b508060019081620000c791906200062d565b5050506000600760006101000a81548160ff02191690831515021790555062000105620000f9620001d660201b60201c565b620001de60201b60201c565b6001600a819055508273ffffffffffffffffffffffffffffffffffffffff1660c08173ffffffffffffffffffffffffffffffffffffffff16815250508173ffffffffffffffffffffffffffffffffffffffff1660808173ffffffffffffffffffffffffffffffffffffffff1681525050806bffffffffffffffffffffffff1660a0816bffffffffffffffffffffffff16815250503373ffffffffffffffffffffffffffffffffffffffff1660e08173ffffffffffffffffffffffffffffffffffffffff168152505050505062000714565b600033905090565b6000600760019054906101000a900473ffffffffffffffffffffffffffffffffffffffff16905081600760016101000a81548173ffffffffffffffffffffffffffffffffffffffff021916908373ffffffffffffffffffffffffffffffffffffffff1602179055508173ffffffffffffffffffffffffffffffffffffffff168173ffffffffffffffffffffffffffffffffffffffff167f8be0079c531659141344cd1fd0a4f28419497f9722a3daafe3b4186f6b6457e060405160405180910390a35050565b600080fd5b600073ffffffffffffffffffffffffffffffffffffffff82169050919050565b6000620002d682620002a9565b9050919050565b620002e881620002c9565b8114620002f457600080fd5b50565b6000815190506200030881620002dd565b92915050565b60006bffffffffffffffffffffffff82169050919050565b62000331816200030e565b81146200033d57600080fd5b50565b600081519050620003518162000326565b92915050565b600080600060608486031215620003735762000372620002a4565b5b60006200038386828701620002f7565b93505060206200039686828701620002f7565b9250506040620003a98682870162000340565b9150509250925092565b600081519050919050565b7f4e487b7100000000000000000000000000000000000000000000000000000000600052604160045260246000fd5b7f4e487b7100000000000000000000000000000000000000000000000000000000600052602260045260246000fd5b600060028204905060018216806200043557607f821691505b6020821081036200044b576200044a620003ed565b5b50919050565b60008190508160005260206000209050919050565b60006020601f8301049050919050565b600082821b905092915050565b600060088302620004b57fffffffffffffffffffffffffffffffffffffffffffffffffffffffffffffffff8262000476565b620004c1868362000476565b95508019841693508086168417925050509392505050565b6000819050919050565b6000819050919050565b60006200050e620005086200050284620004d9565b620004e3565b620004d9565b9050919050565b6000819050919050565b6200052a83620004ed565b62000542620005398262000515565b84845462000483565b825550505050565b600090565b620005596200054a565b620005668184846200051f565b505050565b5b818110156200058e57620005826000826200054f565b6001810190506200056c565b5050565b601f821115620005dd57620005a78162000451565b620005b28462000466565b81016020851015620005c2578190505b620005da620005d18562000466565b8301826200056b565b50505b505050565b600082821c905092915050565b60006200060260001984600802620005e2565b1980831691505092915050565b60006200061d8383620005ef565b9150826002028217905092915050565b6200063882620003b3565b67ffffffffffffffff811115620006545762000653620003be565b5b6200066082546200041c565b6200066d82828562000592565b600060209050601f831160018114620006a5576000841562000690578287015190505b6200069c85826200060f565b8655506200070c565b601f198416620006b58662000451565b60005b82811015620006df57848901518255600182019150602085019450602081019050620006b8565b86831015620006ff5784890151620006fb601f891682620005ef565b8355505b6001600288020188555050505b505050505050565b60805160a05160c05160e051614bc16200075c6000396000610596015260006106b101526000818161079b0152610b9c0152600081816109bd0152610a4d0152614bc16000f3fe608060405234801561001057600080fd5b50600436106101585760003560e01c80635c975abb116100c357806395d89b411161007c57806395d89b41146103c6578063a22cb465146103e4578063b88d4fde14610400578063c87b56dd1461041c578063e985e9c51461044c578063f2fde38b1461047c57610158565b80635c975abb146103165780636352211e1461033457806370a0823114610364578063715018a6146103945780638456cb591461039e5780638da5cb5b146103a857610158565b806323b872dd1161011557806323b872dd146102575780632a55205a146102735780633f4ba83a146102a457806342842e0e146102ae57806342966c68146102ca578063533e62b6146102e657610158565b806301ffc9a71461015d57806306fdde031461018d578063081812fc146101ab57806308d12c2e146101db578063095ea7b31461020b578063150b7a0214610227575b600080fd5b61017760048036038101906101729190612efc565b610498565b6040516101849190612f44565b60405180910390f35b6101956104aa565b6040516101a29190612fef565b60405180910390f35b6101c560048036038101906101c09190613047565b61053c565b6040516101d291906130b5565b60405180910390f35b6101f560048036038101906101f091906131ed565b610582565b60405161020291906132b8565b60405180910390f35b610225600480360381019061022091906132d3565b610850565b005b610241600480360381019061023c9190613313565b610967565b60405161024e91906133aa565b60405180910390f35b610271600480360381019061026c91906133c5565b610be0565b005b61028d60048036038101906102889190613418565b610c40565b60405161029b929190613458565b60405180910390f35b6102ac610e2a565b005b6102c860048036038101906102c391906133c5565b610e3c565b005b6102e460048036038101906102df9190613047565b610e5c565b005b61030060048036038101906102fb9190613481565b610eb8565b60405161030d9190612f44565b60405180910390f35b61031e610ed8565b60405161032b9190612f44565b60405180910390f35b61034e60048036038101906103499190613047565b610eef565b60405161035b91906130b5565b60405180910390f35b61037e600480360381019061037991906134ae565b610f75565b60405161038b91906132b8565b60405180910390f35b61039c61102c565b005b6103a6611040565b005b6103b0611052565b6040516103bd91906130b5565b60405180910390f35b6103ce61107c565b6040516103db9190612fef565b60405180910390f35b6103fe60048036038101906103f99190613507565b61110e565b005b61041a60048036038101906104159190613677565b611124565b005b61043660048036038101906104319190613047565b611186565b6040516104439190612fef565b60405180910390f35b610466600480360381019061046191906136fa565b611198565b6040516104739190612f44565b60405180910390f35b610496600480360381019061049191906134ae565b61122c565b005b60006104a3826112af565b9050919050565b6060600080546104b990613769565b80601f01602080910402602001604051908101604052809291908181526020018280546104e590613769565b80156105325780601f1061050757610100808354040283529160200191610532565b820191906000526020600020905b81548152906001019060200180831161051557829003601f168201915b5050505050905090565b600061054782611329565b6004600083815260200190815260200160002060009054906101000a900473ffffffffffffffffffffffffffffffffffffffff169050919050565b600061058c611374565b6105946113be565b7f000000000000000000000000000000000000000000000000000000000000000073ffffffffffffffffffffffffffffffffffffffff163373ffffffffffffffffffffffffffffffffffffffff1614610622576040517f08c379a0000000000000000000000000000000000000000000000000000000008152600401610619906137e6565b60405180910390fd5b600b600089815260200190815260200160002060009054906101000a900460ff1615610683576040517f08c379a000000000000000000000000000000000000000000000000000000000815260040161067a90613852565b60405180910390fd5b6001600b60008a815260200190815260200160002060006101000a81548160ff0219169083151502179055507f000000000000000000000000000000000000000000000000000000000000000073ffffffffffffffffffffffffffffffffffffffff166107348989898080601f016020809104026020016040519081016040528093929190818152602001838380828437600081840152601f19601f8201169050808301925050505050505061140d565b73ffffffffffffffffffffffffffffffffffffffff161461078a576040517f08c379a0000000000000000000000000000000000000000000000000000000008152600401610781906138be565b60405180910390fd5b610794828661144c565b6107bf85337f000000000000000000000000000000000000000000000000000000000000000061146a565b61080d8585858080601f016020809104026020016040519081016040528093929190818152602001838380828437600081840152601f19601f82011690508083019250505050505050611611565b847fc1d4f2f9bfbbf8ceba443f4935f8ad0698acb0b335a8862c8d4319a408224c0960405160405180910390a284905061084561167e565b979650505050505050565b600061085b82610eef565b90508073ffffffffffffffffffffffffffffffffffffffff168373ffffffffffffffffffffffffffffffffffffffff16036108cb576040517f08c379a00000000000000000000000000000000000000000000000000000000081526004016108c290613950565b60405180910390fd5b8073ffffffffffffffffffffffffffffffffffffffff166108ea611688565b73ffffffffffffffffffffffffffffffffffffffff161480610919575061091881610913611688565b611198565b5b610958576040517f08c379a000000000000000000000000000000000000000000000000000000000815260040161094f906139e2565b60405180910390fd5b6109628383611690565b505050565b6000610971611374565b60008084848080601f016020809104026020016040519081016040528093929190818152602001838380828437600081840152601f19601f8201169050808301925050505050505090507f000000000000000000000000000000000000000000000000000000000000000073ffffffffffffffffffffffffffffffffffffffff163373ffffffffffffffffffffffffffffffffffffffff1614610a49576040517f08c379a0000000000000000000000000000000000000000000000000000000008152600401610a4090613a4e565b60405180910390fd5b60007f000000000000000000000000000000000000000000000000000000000000000090508073ffffffffffffffffffffffffffffffffffffffff166342966c68886040518263ffffffff1660e01b8152600401610aa791906132b8565b600060405180830381600087803b158015610ac157600080fd5b505af1925050508015610ad2575060015b610b4657610ade613a7b565b806308c379a003610b075750610af2613a9d565b80610afd5750610b09565b6000935050610b41565b505b3d8060008114610b35576040519150601f19603f3d011682016040523d82523d6000602084013e610b3a565b606091505b5060009350505b610b4b565b600192505b82610b8b576040517f08c379a0000000000000000000000000000000000000000000000000000000008152600401610b8290613b79565b60405180910390fd5b610b95888861144c565b610bc087897f000000000000000000000000000000000000000000000000000000000000000061146a565b610bca8783611611565b63150b7a0260e01b935050505095945050505050565b610bf1610beb611688565b82611749565b610c30576040517f08c379a0000000000000000000000000000000000000000000000000000000008152600401610c2790613c0b565b60405180910390fd5b610c3b8383836117de565b505050565b6000806000600960008681526020019081526020016000206040518060400160405290816000820160009054906101000a900473ffffffffffffffffffffffffffffffffffffffff1673ffffffffffffffffffffffffffffffffffffffff1673ffffffffffffffffffffffffffffffffffffffff1681526020016000820160149054906101000a90046bffffffffffffffffffffffff166bffffffffffffffffffffffff166bffffffffffffffffffffffff16815250509050600073ffffffffffffffffffffffffffffffffffffffff16816000015173ffffffffffffffffffffffffffffffffffffffff1603610dd55760086040518060400160405290816000820160009054906101000a900473ffffffffffffffffffffffffffffffffffffffff1673ffffffffffffffffffffffffffffffffffffffff1673ffffffffffffffffffffffffffffffffffffffff1681526020016000820160149054906101000a90046bffffffffffffffffffffffff166bffffffffffffffffffffffff166bffffffffffffffffffffffff168152505090505b6000610ddf611ad7565b6bffffffffffffffffffffffff1682602001516bffffffffffffffffffffffff1686610e0b9190613c5a565b610e159190613ccb565b90508160000151819350935050509250929050565b610e32611ae1565b610e3a611b5f565b565b610e5783838360405180602001604052806000815250611124565b505050565b610e6d610e67611688565b82611749565b610eac576040517f08c379a0000000000000000000000000000000000000000000000000000000008152600401610ea390613c0b565b60405180910390fd5b610eb581611bc2565b50565b600b6020528060005260406000206000915054906101000a900460ff1681565b6000600760009054906101000a900460ff16905090565b600080610efb83611bce565b9050600073ffffffffffffffffffffffffffffffffffffffff168173ffffffffffffffffffffffffffffffffffffffff1603610f6c576040517f08c379a0000000000000000000000000000000000000000000000000000000008152600401610f6390613d48565b60405180910390fd5b80915050919050565b60008073ffffffffffffffffffffffffffffffffffffffff168273ffffffffffffffffffffffffffffffffffffffff1603610fe5576040517f08c379a0000000000000000000000000000000000000000000000000000000008152600401610fdc90613dda565b60405180910390fd5b600360008373ffffffffffffffffffffffffffffffffffffffff1673ffffffffffffffffffffffffffffffffffffffff168152602001908152602001600020549050919050565b611034611ae1565b61103e6000611c0b565b565b611048611ae1565b611050611cd1565b565b6000600760019054906101000a900473ffffffffffffffffffffffffffffffffffffffff16905090565b60606001805461108b90613769565b80601f01602080910402602001604051908101604052809291908181526020018280546110b790613769565b80156111045780601f106110d957610100808354040283529160200191611104565b820191906000526020600020905b8154815290600101906020018083116110e757829003601f168201915b5050505050905090565b611120611119611688565b8383611d34565b5050565b61113561112f611688565b83611749565b611174576040517f08c379a000000000000000000000000000000000000000000000000000000000815260040161116b90613c0b565b60405180910390fd5b61118084848484611ea0565b50505050565b606061119182611efc565b9050919050565b6000600560008473ffffffffffffffffffffffffffffffffffffffff1673ffffffffffffffffffffffffffffffffffffffff16815260200190815260200160002060008373ffffffffffffffffffffffffffffffffffffffff1673ffffffffffffffffffffffffffffffffffffffff16815260200190815260200160002060009054906101000a900460ff16905092915050565b611234611ae1565b600073ffffffffffffffffffffffffffffffffffffffff168173ffffffffffffffffffffffffffffffffffffffff16036112a3576040517f08c379a000000000000000000000000000000000000000000000000000000000815260040161129a90613e6c565b60405180910390fd5b6112ac81611c0b565b50565b60007f2a55205a000000000000000000000000000000000000000000000000000000007bffffffffffffffffffffffffffffffffffffffffffffffffffffffff1916827bffffffffffffffffffffffffffffffffffffffffffffffffffffffff1916148061132257506113218261200e565b5b9050919050565b611332816120f0565b611371576040517f08c379a000000000000000000000000000000000000000000000000000000000815260040161136890613d48565b60405180910390fd5b50565b61137c610ed8565b156113bc576040517f08c379a00000000000000000000000000000000000000000000000000000000081526004016113b390613ed8565b60405180910390fd5b565b6002600a5403611403576040517f08c379a00000000000000000000000000000000000000000000000000000000081526004016113fa90613f44565b60405180910390fd5b6002600a81905550565b600080836040516020016114219190613fdc565b6040516020818303038152906040528051906020012090506114438184612131565b91505092915050565b611466828260405180602001604052806000815250612158565b5050565b611472611ad7565b6bffffffffffffffffffffffff16816bffffffffffffffffffffffff1611156114d0576040517f08c379a00000000000000000000000000000000000000000000000000000000081526004016114c790614074565b60405180910390fd5b600073ffffffffffffffffffffffffffffffffffffffff168273ffffffffffffffffffffffffffffffffffffffff160361153f576040517f08c379a0000000000000000000000000000000000000000000000000000000008152600401611536906140e0565b60405180910390fd5b60405180604001604052808373ffffffffffffffffffffffffffffffffffffffff168152602001826bffffffffffffffffffffffff168152506009600085815260200190815260200160002060008201518160000160006101000a81548173ffffffffffffffffffffffffffffffffffffffff021916908373ffffffffffffffffffffffffffffffffffffffff16021790555060208201518160000160146101000a8154816bffffffffffffffffffffffff02191690836bffffffffffffffffffffffff160217905550905050505050565b61161a826120f0565b611659576040517f08c379a000000000000000000000000000000000000000000000000000000000815260040161165090614172565b60405180910390fd5b80600660008481526020019081526020016000209081611679919061433e565b505050565b6001600a81905550565b600033905090565b816004600083815260200190815260200160002060006101000a81548173ffffffffffffffffffffffffffffffffffffffff021916908373ffffffffffffffffffffffffffffffffffffffff160217905550808273ffffffffffffffffffffffffffffffffffffffff1661170383610eef565b73ffffffffffffffffffffffffffffffffffffffff167f8c5be1e5ebec7d5bd14f71427d1e84f3dd0314c0f7b2291e5b200ac8c7c3b92560405160405180910390a45050565b60008061175583610eef565b90508073ffffffffffffffffffffffffffffffffffffffff168473ffffffffffffffffffffffffffffffffffffffff16148061179757506117968185611198565b5b806117d557508373ffffffffffffffffffffffffffffffffffffffff166117bd8461053c565b73ffffffffffffffffffffffffffffffffffffffff16145b91505092915050565b8273ffffffffffffffffffffffffffffffffffffffff166117fe82610eef565b73ffffffffffffffffffffffffffffffffffffffff1614611854576040517f08c379a000000000000000000000000000000000000000000000000000000000815260040161184b90614482565b60405180910390fd5b600073ffffffffffffffffffffffffffffffffffffffff168273ffffffffffffffffffffffffffffffffffffffff16036118c3576040517f08c379a00000000000000000000000000000000000000000000000000000000081526004016118ba90614514565b60405180910390fd5b6118d083838360016121b3565b8273ffffffffffffffffffffffffffffffffffffffff166118f082610eef565b73ffffffffffffffffffffffffffffffffffffffff1614611946576040517f08c379a000000000000000000000000000000000000000000000000000000000815260040161193d90614482565b60405180910390fd5b6004600082815260200190815260200160002060006101000a81549073ffffffffffffffffffffffffffffffffffffffff02191690556001600360008573ffffffffffffffffffffffffffffffffffffffff1673ffffffffffffffffffffffffffffffffffffffff168152602001908152602001600020600082825403925050819055506001600360008473ffffffffffffffffffffffffffffffffffffffff1673ffffffffffffffffffffffffffffffffffffffff16815260200190815260200160002060008282540192505081905550816002600083815260200190815260200160002060006101000a81548173ffffffffffffffffffffffffffffffffffffffff021916908373ffffffffffffffffffffffffffffffffffffffff160217905550808273ffffffffffffffffffffffffffffffffffffffff168473ffffffffffffffffffffffffffffffffffffffff167fddf252ad1be2c89b69c2b068fc378daa952ba7f163c4a11628f55a4df523b3ef60405160405180910390a4611ad283838360016122d9565b505050565b6000612710905090565b611ae9611688565b73ffffffffffffffffffffffffffffffffffffffff16611b07611052565b73ffffffffffffffffffffffffffffffffffffffff1614611b5d576040517f08c379a0000000000000000000000000000000000000000000000000000000008152600401611b5490614580565b60405180910390fd5b565b611b676122df565b6000600760006101000a81548160ff0219169083151502179055507f5db9ee0a495bf2e6ff9c91a7834c1ba4fdd244a5e8aa4e537bd38aeae4b073aa611bab611688565b604051611bb891906130b5565b60405180910390a1565b611bcb81612328565b50565b60006002600083815260200190815260200160002060009054906101000a900473ffffffffffffffffffffffffffffffffffffffff169050919050565b6000600760019054906101000a900473ffffffffffffffffffffffffffffffffffffffff16905081600760016101000a81548173ffffffffffffffffffffffffffffffffffffffff021916908373ffffffffffffffffffffffffffffffffffffffff1602179055508173ffffffffffffffffffffffffffffffffffffffff168173ffffffffffffffffffffffffffffffffffffffff167f8be0079c531659141344cd1fd0a4f28419497f9722a3daafe3b4186f6b6457e060405160405180910390a35050565b611cd9611374565b6001600760006101000a81548160ff0219169083151502179055507f62e78cea01bee320cd4e420270b5ea74000d11b0c9f74754ebdbfc544b05a258611d1d611688565b604051611d2a91906130b5565b60405180910390a1565b8173ffffffffffffffffffffffffffffffffffffffff168373ffffffffffffffffffffffffffffffffffffffff1603611da2576040517f08c379a0000000000000000000000000000000000000000000000000000000008152600401611d99906145ec565b60405180910390fd5b80600560008573ffffffffffffffffffffffffffffffffffffffff1673ffffffffffffffffffffffffffffffffffffffff16815260200190815260200160002060008473ffffffffffffffffffffffffffffffffffffffff1673ffffffffffffffffffffffffffffffffffffffff16815260200190815260200160002060006101000a81548160ff0219169083151502179055508173ffffffffffffffffffffffffffffffffffffffff168373ffffffffffffffffffffffffffffffffffffffff167f17307eab39ab6107e8899845ad3d59bd9653f200f220920489ca2b5937696c3183604051611e939190612f44565b60405180910390a3505050565b611eab8484846117de565b611eb78484848461237b565b611ef6576040517f08c379a0000000000000000000000000000000000000000000000000000000008152600401611eed9061467e565b60405180910390fd5b50505050565b6060611f0782611329565b6000600660008481526020019081526020016000208054611f2790613769565b80601f0160208091040260200160405190810160405280929190818152602001828054611f5390613769565b8015611fa05780601f10611f7557610100808354040283529160200191611fa0565b820191906000526020600020905b815481529060010190602001808311611f8357829003601f168201915b505050505090506000611fb1612502565b90506000815103611fc6578192505050612009565b600082511115611ffb578082604051602001611fe39291906146cf565b60405160208183030381529060405292505050612009565b61200484612519565b925050505b919050565b60007f80ac58cd000000000000000000000000000000000000000000000000000000007bffffffffffffffffffffffffffffffffffffffffffffffffffffffff1916827bffffffffffffffffffffffffffffffffffffffffffffffffffffffff191614806120d957507f5b5e139f000000000000000000000000000000000000000000000000000000007bffffffffffffffffffffffffffffffffffffffffffffffffffffffff1916827bffffffffffffffffffffffffffffffffffffffffffffffffffffffff1916145b806120e957506120e882612581565b5b9050919050565b60008073ffffffffffffffffffffffffffffffffffffffff1661211283611bce565b73ffffffffffffffffffffffffffffffffffffffff1614159050919050565b600080600061214085856125eb565b9150915061214d8161263c565b819250505092915050565b61216283836127a2565b61216f600084848461237b565b6121ae576040517f08c379a00000000000000000000000000000000000000000000000000000000081526004016121a59061467e565b60405180910390fd5b505050565b60018111156122d357600073ffffffffffffffffffffffffffffffffffffffff168473ffffffffffffffffffffffffffffffffffffffff16146122475780600360008673ffffffffffffffffffffffffffffffffffffffff1673ffffffffffffffffffffffffffffffffffffffff168152602001908152602001600020600082825461223f91906146f3565b925050819055505b600073ffffffffffffffffffffffffffffffffffffffff168373ffffffffffffffffffffffffffffffffffffffff16146122d25780600360008573ffffffffffffffffffffffffffffffffffffffff1673ffffffffffffffffffffffffffffffffffffffff16815260200190815260200160002060008282546122ca9190614727565b925050819055505b5b50505050565b50505050565b6122e7610ed8565b612326576040517f08c379a000000000000000000000000000000000000000000000000000000000815260040161231d906147a7565b60405180910390fd5b565b612331816129bf565b600060066000838152602001908152602001600020805461235190613769565b905014612378576006600082815260200190815260200160002060006123779190612e33565b5b50565b600061239c8473ffffffffffffffffffffffffffffffffffffffff16612b0d565b156124f5578373ffffffffffffffffffffffffffffffffffffffff1663150b7a026123c5611688565b8786866040518563ffffffff1660e01b81526004016123e7949392919061481c565b6020604051808303816000875af192505050801561242357506040513d601f19601f82011682018060405250810190612420919061487d565b60015b6124a5573d8060008114612453576040519150601f19603f3d011682016040523d82523d6000602084013e612458565b606091505b50600081510361249d576040517f08c379a00000000000000000000000000000000000000000000000000000000081526004016124949061467e565b60405180910390fd5b805181602001fd5b63150b7a0260e01b7bffffffffffffffffffffffffffffffffffffffffffffffffffffffff1916817bffffffffffffffffffffffffffffffffffffffffffffffffffffffff1916149150506124fa565b600190505b949350505050565b606060405180602001604052806000815250905090565b606061252482611329565b600061252e612502565b9050600081511161254e5760405180602001604052806000815250612579565b8061255884612b30565b6040516020016125699291906146cf565b6040516020818303038152906040525b915050919050565b60007f01ffc9a7000000000000000000000000000000000000000000000000000000007bffffffffffffffffffffffffffffffffffffffffffffffffffffffff1916827bffffffffffffffffffffffffffffffffffffffffffffffffffffffff1916149050919050565b600080604183510361262c5760008060006020860151925060408601519150606086015160001a905061262087828585612bfe565b94509450505050612635565b60006002915091505b9250929050565b600060048111156126505761264f6148aa565b5b816004811115612663576126626148aa565b5b031561279f576001600481111561267d5761267c6148aa565b5b8160048111156126905761268f6148aa565b5b036126d0576040517f08c379a00000000000000000000000000000000000000000000000000000000081526004016126c790614925565b60405180910390fd5b600260048111156126e4576126e36148aa565b5b8160048111156126f7576126f66148aa565b5b03612737576040517f08c379a000000000000000000000000000000000000000000000000000000000815260040161272e90614991565b60405180910390fd5b6003600481111561274b5761274a6148aa565b5b81600481111561275e5761275d6148aa565b5b0361279e576040517f08c379a000000000000000000000000000000000000000000000000000000000815260040161279590614a23565b60405180910390fd5b5b50565b600073ffffffffffffffffffffffffffffffffffffffff168273ffffffffffffffffffffffffffffffffffffffff1603612811576040517f08c379a000000000000000000000000000000000000000000000000000000000815260040161280890614a8f565b60405180910390fd5b61281a816120f0565b1561285a576040517f08c379a000000000000000000000000000000000000000000000000000000000815260040161285190614afb565b60405180910390fd5b6128686000838360016121b3565b612871816120f0565b156128b1576040517f08c379a00000000000000000000000000000000000000000000000000000000081526004016128a890614afb565b60405180910390fd5b6001600360008473ffffffffffffffffffffffffffffffffffffffff1673ffffffffffffffffffffffffffffffffffffffff16815260200190815260200160002060008282540192505081905550816002600083815260200190815260200160002060006101000a81548173ffffffffffffffffffffffffffffffffffffffff021916908373ffffffffffffffffffffffffffffffffffffffff160217905550808273ffffffffffffffffffffffffffffffffffffffff16600073ffffffffffffffffffffffffffffffffffffffff167fddf252ad1be2c89b69c2b068fc378daa952ba7f163c4a11628f55a4df523b3ef60405160405180910390a46129bb6000838360016122d9565b5050565b60006129ca82610eef565b90506129da8160008460016121b3565b6129e382610eef565b90506004600083815260200190815260200160002060006101000a81549073ffffffffffffffffffffffffffffffffffffffff02191690556001600360008373ffffffffffffffffffffffffffffffffffffffff1673ffffffffffffffffffffffffffffffffffffffff168152602001908152602001600020600082825403925050819055506002600083815260200190815260200160002060006101000a81549073ffffffffffffffffffffffffffffffffffffffff021916905581600073ffffffffffffffffffffffffffffffffffffffff168273ffffffffffffffffffffffffffffffffffffffff167fddf252ad1be2c89b69c2b068fc378daa952ba7f163c4a11628f55a4df523b3ef60405160405180910390a4612b098160008460016122d9565b5050565b6000808273ffffffffffffffffffffffffffffffffffffffff163b119050919050565b606060006001612b3f84612ce0565b01905060008167ffffffffffffffff811115612b5e57612b5d61354c565b5b6040519080825280601f01601f191660200182016040528015612b905781602001600182028036833780820191505090505b509050600082602001820190505b600115612bf3578080600190039150507f3031323334353637383961626364656600000000000000000000000000000000600a86061a8153600a8581612be757612be6613c9c565b5b04945060008503612b9e575b819350505050919050565b6000807f7fffffffffffffffffffffffffffffff5d576e7357a4501ddfe92f46681b20a08360001c1115612c39576000600391509150612cd7565b600060018787878760405160008152602001604052604051612c5e9493929190614b46565b6020604051602081039080840390855afa158015612c80573d6000803e3d6000fd5b505050602060405103519050600073ffffffffffffffffffffffffffffffffffffffff168173ffffffffffffffffffffffffffffffffffffffff1603612cce57600060019250925050612cd7565b80600092509250505b94509492505050565b600080600090507a184f03e93ff9f4daa797ed6e38ed64bf6a1f0100000000000000008310612d3e577a184f03e93ff9f4daa797ed6e38ed64bf6a1f0100000000000000008381612d3457612d33613c9c565b5b0492506040810190505b6d04ee2d6d415b85acef81000000008310612d7b576d04ee2d6d415b85acef81000000008381612d7157612d70613c9c565b5b0492506020810190505b662386f26fc100008310612daa57662386f26fc100008381612da057612d9f613c9c565b5b0492506010810190505b6305f5e1008310612dd3576305f5e1008381612dc957612dc8613c9c565b5b0492506008810190505b6127108310612df8576127108381612dee57612ded613c9c565b5b0492506004810190505b60648310612e1b5760648381612e1157612e10613c9c565b5b0492506002810190505b600a8310612e2a576001810190505b80915050919050565b508054612e3f90613769565b6000825580601f10612e515750612e70565b601f016020900490600052602060002090810190612e6f9190612e73565b5b50565b5b80821115612e8c576000816000905550600101612e74565b5090565b6000604051905090565b600080fd5b600080fd5b60007fffffffff0000000000000000000000000000000000000000000000000000000082169050919050565b612ed981612ea4565b8114612ee457600080fd5b50565b600081359050612ef681612ed0565b92915050565b600060208284031215612f1257612f11612e9a565b5b6000612f2084828501612ee7565b91505092915050565b60008115159050919050565b612f3e81612f29565b82525050565b6000602082019050612f596000830184612f35565b92915050565b600081519050919050565b600082825260208201905092915050565b60005b83811015612f99578082015181840152602081019050612f7e565b60008484015250505050565b6000601f19601f8301169050919050565b6000612fc182612f5f565b612fcb8185612f6a565b9350612fdb818560208601612f7b565b612fe481612fa5565b840191505092915050565b600060208201905081810360008301526130098184612fb6565b905092915050565b6000819050919050565b61302481613011565b811461302f57600080fd5b50565b6000813590506130418161301b565b92915050565b60006020828403121561305d5761305c612e9a565b5b600061306b84828501613032565b91505092915050565b600073ffffffffffffffffffffffffffffffffffffffff82169050919050565b600061309f82613074565b9050919050565b6130af81613094565b82525050565b60006020820190506130ca60008301846130a6565b92915050565b6000819050919050565b6130e3816130d0565b81146130ee57600080fd5b50565b600081359050613100816130da565b92915050565b600080fd5b600080fd5b600080fd5b60008083601f84011261312b5761312a613106565b5b8235905067ffffffffffffffff8111156131485761314761310b565b5b60208301915083600182028301111561316457613163613110565b5b9250929050565b60008083601f84011261318157613180613106565b5b8235905067ffffffffffffffff81111561319e5761319d61310b565b5b6020830191508360018202830111156131ba576131b9613110565b5b9250929050565b6131ca81613094565b81146131d557600080fd5b50565b6000813590506131e7816131c1565b92915050565b600080600080600080600060a0888a03121561320c5761320b612e9a565b5b600061321a8a828b016130f1565b975050602088013567ffffffffffffffff81111561323b5761323a612e9f565b5b6132478a828b01613115565b9650965050604061325a8a828b01613032565b945050606088013567ffffffffffffffff81111561327b5761327a612e9f565b5b6132878a828b0161316b565b9350935050608061329a8a828b016131d8565b91505092959891949750929550565b6132b281613011565b82525050565b60006020820190506132cd60008301846132a9565b92915050565b600080604083850312156132ea576132e9612e9a565b5b60006132f8858286016131d8565b925050602061330985828601613032565b9150509250929050565b60008060008060006080868803121561332f5761332e612e9a565b5b600061333d888289016131d8565b955050602061334e888289016131d8565b945050604061335f88828901613032565b935050606086013567ffffffffffffffff8111156133805761337f612e9f565b5b61338c88828901613115565b92509250509295509295909350565b6133a481612ea4565b82525050565b60006020820190506133bf600083018461339b565b92915050565b6000806000606084860312156133de576133dd612e9a565b5b60006133ec868287016131d8565b93505060206133fd868287016131d8565b925050604061340e86828701613032565b9150509250925092565b6000806040838503121561342f5761342e612e9a565b5b600061343d85828601613032565b925050602061344e85828601613032565b9150509250929050565b600060408201905061346d60008301856130a6565b61347a60208301846132a9565b9392505050565b60006020828403121561349757613496612e9a565b5b60006134a5848285016130f1565b91505092915050565b6000602082840312156134c4576134c3612e9a565b5b60006134d2848285016131d8565b91505092915050565b6134e481612f29565b81146134ef57600080fd5b50565b600081359050613501816134db565b92915050565b6000806040838503121561351e5761351d612e9a565b5b600061352c858286016131d8565b925050602061353d858286016134f2565b9150509250929050565b600080fd5b7f4e487b7100000000000000000000000000000000000000000000000000000000600052604160045260246000fd5b61358482612fa5565b810181811067ffffffffffffffff821117156135a3576135a261354c565b5b80604052505050565b60006135b6612e90565b90506135c2828261357b565b919050565b600067ffffffffffffffff8211156135e2576135e161354c565b5b6135eb82612fa5565b9050602081019050919050565b82818337600083830152505050565b600061361a613615846135c7565b6135ac565b90508281526020810184848401111561363657613635613547565b5b6136418482856135f8565b509392505050565b600082601f83011261365e5761365d613106565b5b813561366e848260208601613607565b91505092915050565b6000806000806080858703121561369157613690612e9a565b5b600061369f878288016131d8565b94505060206136b0878288016131d8565b93505060406136c187828801613032565b925050606085013567ffffffffffffffff8111156136e2576136e1612e9f565b5b6136ee87828801613649565b91505092959194509250565b6000806040838503121561371157613710612e9a565b5b600061371f858286016131d8565b9250506020613730858286016131d8565b9150509250929050565b7f4e487b7100000000000000000000000000000000000000000000000000000000600052602260045260246000fd5b6000600282049050600182168061378157607f821691505b6020821081036137945761379361373a565b5b50919050565b7f4d757374206265206f776e6572206f662074686520636f6e7472616374000000600082015250565b60006137d0601d83612f6a565b91506137db8261379a565b602082019050919050565b600060208201905081810360008301526137ff816137c3565b9050919050565b7f4861736820686173206265656e20757365640000000000000000000000000000600082015250565b600061383c601283612f6a565b915061384782613806565b602082019050919050565b6000602082019050818103600083015261386b8161382f565b9050919050565b7f5369676e6174757265204661696c656400000000000000000000000000000000600082015250565b60006138a8601083612f6a565b91506138b382613872565b602082019050919050565b600060208201905081810360008301526138d78161389b565b9050919050565b7f4552433732313a20617070726f76616c20746f2063757272656e74206f776e6560008201527f7200000000000000000000000000000000000000000000000000000000000000602082015250565b600061393a602183612f6a565b9150613945826138de565b604082019050919050565b600060208201905081810360008301526139698161392d565b9050919050565b7f4552433732313a20617070726f76652063616c6c6572206973206e6f7420746f60008201527f6b656e206f776e6572206f7220617070726f76656420666f7220616c6c000000602082015250565b60006139cc603d83612f6a565b91506139d782613970565b604082019050919050565b600060208201905081810360008301526139fb816139bf565b9050919050565b7f43616e2072656365697665206f6e6c792066726f6d204d696e74506173730000600082015250565b6000613a38601e83612f6a565b9150613a4382613a02565b602082019050919050565b60006020820190508181036000830152613a6781613a2b565b9050919050565b60008160e01c9050919050565b600060033d1115613a9a5760046000803e613a97600051613a6e565b90505b90565b600060443d10613b2a57613aaf612e90565b60043d036004823e80513d602482011167ffffffffffffffff82111715613ad7575050613b2a565b808201805167ffffffffffffffff811115613af55750505050613b2a565b80602083010160043d038501811115613b12575050505050613b2a565b613b218260200185018661357b565b82955050505050505b90565b7f4d696e7450617373206e6f74206275726e656400000000000000000000000000600082015250565b6000613b63601383612f6a565b9150613b6e82613b2d565b602082019050919050565b60006020820190508181036000830152613b9281613b56565b9050919050565b7f4552433732313a2063616c6c6572206973206e6f7420746f6b656e206f776e6560008201527f72206f7220617070726f76656400000000000000000000000000000000000000602082015250565b6000613bf5602d83612f6a565b9150613c0082613b99565b604082019050919050565b60006020820190508181036000830152613c2481613be8565b9050919050565b7f4e487b7100000000000000000000000000000000000000000000000000000000600052601160045260246000fd5b6000613c6582613011565b9150613c7083613011565b9250828202613c7e81613011565b91508282048414831517613c9557613c94613c2b565b5b5092915050565b7f4e487b7100000000000000000000000000000000000000000000000000000000600052601260045260246000fd5b6000613cd682613011565b9150613ce183613011565b925082613cf157613cf0613c9c565b5b828204905092915050565b7f4552433732313a20696e76616c696420746f6b656e2049440000000000000000600082015250565b6000613d32601883612f6a565b9150613d3d82613cfc565b602082019050919050565b60006020820190508181036000830152613d6181613d25565b9050919050565b7f4552433732313a2061646472657373207a65726f206973206e6f74206120766160008201527f6c6964206f776e65720000000000000000000000000000000000000000000000602082015250565b6000613dc4602983612f6a565b9150613dcf82613d68565b604082019050919050565b60006020820190508181036000830152613df381613db7565b9050919050565b7f4f776e61626c653a206e6577206f776e657220697320746865207a65726f206160008201527f6464726573730000000000000000000000000000000000000000000000000000602082015250565b6000613e56602683612f6a565b9150613e6182613dfa565b604082019050919050565b60006020820190508181036000830152613e8581613e49565b9050919050565b7f5061757361626c653a2070617573656400000000000000000000000000000000600082015250565b6000613ec2601083612f6a565b9150613ecd82613e8c565b602082019050919050565b60006020820190508181036000830152613ef181613eb5565b9050919050565b7f5265656e7472616e637947756172643a207265656e7472616e742063616c6c00600082015250565b6000613f2e601f83612f6a565b9150613f3982613ef8565b602082019050919050565b60006020820190508181036000830152613f5d81613f21565b9050919050565b600081905092915050565b7f19457468657265756d205369676e6564204d6573736167653a0a333200000000600082015250565b6000613fa5601c83613f64565b9150613fb082613f6f565b601c82019050919050565b6000819050919050565b613fd6613fd1826130d0565b613fbb565b82525050565b6000613fe782613f98565b9150613ff38284613fc5565b60208201915081905092915050565b7f455243323938313a20726f79616c7479206665652077696c6c2065786365656460008201527f2073616c65507269636500000000000000000000000000000000000000000000602082015250565b600061405e602a83612f6a565b915061406982614002565b604082019050919050565b6000602082019050818103600083015261408d81614051565b9050919050565b7f455243323938313a20496e76616c696420706172616d65746572730000000000600082015250565b60006140ca601b83612f6a565b91506140d582614094565b602082019050919050565b600060208201905081810360008301526140f9816140bd565b9050919050565b7f45524337323155524953746f726167653a2055524920736574206f66206e6f6e60008201527f6578697374656e7420746f6b656e000000000000000000000000000000000000602082015250565b600061415c602e83612f6a565b915061416782614100565b604082019050919050565b6000602082019050818103600083015261418b8161414f565b9050919050565b60008190508160005260206000209050919050565b60006020601f8301049050919050565b600082821b905092915050565b6000600883026141f47fffffffffffffffffffffffffffffffffffffffffffffffffffffffffffffffff826141b7565b6141fe86836141b7565b95508019841693508086168417925050509392505050565b6000819050919050565b600061423b61423661423184613011565b614216565b613011565b9050919050565b6000819050919050565b61425583614220565b61426961426182614242565b8484546141c4565b825550505050565b600090565b61427e614271565b61428981848461424c565b505050565b5b818110156142ad576142a2600082614276565b60018101905061428f565b5050565b601f8211156142f2576142c381614192565b6142cc846141a7565b810160208510156142db578190505b6142ef6142e7856141a7565b83018261428e565b50505b505050565b600082821c905092915050565b6000614315600019846008026142f7565b1980831691505092915050565b600061432e8383614304565b9150826002028217905092915050565b61434782612f5f565b67ffffffffffffffff8111156143605761435f61354c565b5b61436a8254613769565b6143758282856142b1565b600060209050601f8311600181146143a85760008415614396578287015190505b6143a08582614322565b865550614408565b601f1984166143b686614192565b60005b828110156143de578489015182556001820191506020850194506020810190506143b9565b868310156143fb57848901516143f7601f891682614304565b8355505b6001600288020188555050505b505050505050565b7f4552433732313a207472616e736665722066726f6d20696e636f72726563742060008201527f6f776e6572000000000000000000000000000000000000000000000000000000602082015250565b600061446c602583612f6a565b915061447782614410565b604082019050919050565b6000602082019050818103600083015261449b8161445f565b9050919050565b7f4552433732313a207472616e7366657220746f20746865207a65726f2061646460008201527f7265737300000000000000000000000000000000000000000000000000000000602082015250565b60006144fe602483612f6a565b9150614509826144a2565b604082019050919050565b6000602082019050818103600083015261452d816144f1565b9050919050565b7f4f776e61626c653a2063616c6c6572206973206e6f7420746865206f776e6572600082015250565b600061456a602083612f6a565b915061457582614534565b602082019050919050565b600060208201905081810360008301526145998161455d565b9050919050565b7f4552433732313a20617070726f766520746f2063616c6c657200000000000000600082015250565b60006145d6601983612f6a565b91506145e1826145a0565b602082019050919050565b60006020820190508181036000830152614605816145c9565b9050919050565b7f4552433732313a207472616e7366657220746f206e6f6e20455243373231526560008201527f63656976657220696d706c656d656e7465720000000000000000000000000000602082015250565b6000614668603283612f6a565b91506146738261460c565b604082019050919050565b600060208201905081810360008301526146978161465b565b9050919050565b60006146a982612f5f565b6146b38185613f64565b93506146c3818560208601612f7b565b80840191505092915050565b60006146db828561469e565b91506146e7828461469e565b91508190509392505050565b60006146fe82613011565b915061470983613011565b925082820390508181111561472157614720613c2b565b5b92915050565b600061473282613011565b915061473d83613011565b925082820190508082111561475557614754613c2b565b5b92915050565b7f5061757361626c653a206e6f7420706175736564000000000000000000000000600082015250565b6000614791601483612f6a565b915061479c8261475b565b602082019050919050565b600060208201905081810360008301526147c081614784565b9050919050565b600081519050919050565b600082825260208201905092915050565b60006147ee826147c7565b6147f881856147d2565b9350614808818560208601612f7b565b61481181612fa5565b840191505092915050565b600060808201905061483160008301876130a6565b61483e60208301866130a6565b61484b60408301856132a9565b818103606083015261485d81846147e3565b905095945050505050565b60008151905061487781612ed0565b92915050565b60006020828403121561489357614892612e9a565b5b60006148a184828501614868565b91505092915050565b7f4e487b7100000000000000000000000000000000000000000000000000000000600052602160045260246000fd5b7f45434453413a20696e76616c6964207369676e61747572650000000000000000600082015250565b600061490f601883612f6a565b915061491a826148d9565b602082019050919050565b6000602082019050818103600083015261493e81614902565b9050919050565b7f45434453413a20696e76616c6964207369676e6174757265206c656e67746800600082015250565b600061497b601f83612f6a565b915061498682614945565b602082019050919050565b600060208201905081810360008301526149aa8161496e565b9050919050565b7f45434453413a20696e76616c6964207369676e6174757265202773272076616c60008201527f7565000000000000000000000000000000000000000000000000000000000000602082015250565b6000614a0d602283612f6a565b9150614a18826149b1565b604082019050919050565b60006020820190508181036000830152614a3c81614a00565b9050919050565b7f4552433732313a206d696e7420746f20746865207a65726f2061646472657373600082015250565b6000614a79602083612f6a565b9150614a8482614a43565b602082019050919050565b60006020820190508181036000830152614aa881614a6c565b9050919050565b7f4552433732313a20746f6b656e20616c7265616479206d696e74656400000000600082015250565b6000614ae5601c83612f6a565b9150614af082614aaf565b602082019050919050565b60006020820190508181036000830152614b1481614ad8565b9050919050565b614b24816130d0565b82525050565b600060ff82169050919050565b614b4081614b2a565b82525050565b6000608082019050614b5b6000830187614b1b565b614b686020830186614b37565b614b756040830185614b1b565b614b826060830184614b1b565b9594505050505056fea2646970667358221220b5c0adef70f279a0efe903b8dc2994d5d0c91142521f0d4946880759377a4da064736f6c63430008110033",
  "linkReferences": {},
  "deployedLinkReferences": {}
}