{
  "_format": "hh-sol-artifact-1",
  "contractName": "MindfulNFT",
  "sourceName": "contracts/MindfulNFT.sol",
  "abi": [
    {
      "inputs": [
        {
          "internalType": "address",
          "name": "_mintPass",
          "type": "address"
        },
        {
          "internalType": "uint96",
          "name": "_loyaltyFee",
          "type": "uint96"
        }
      ],
      "stateMutability": "nonpayable",
      "type": "constructor"
    },
    {
      "inputs": [
        {
          "internalType": "address",
          "name": "operator",
          "type": "address"
        }
      ],
      "name": "OperatorNotAllowed",
      "type": "error"
    },
    {
      "anonymous": false,
      "inputs": [
        {
          "indexed": true,
          "internalType": "address",
          "name": "owner",
          "type": "address"
        },
        {
          "indexed": true,
          "internalType": "address",
          "name": "approved",
          "type": "address"
        },
        {
          "indexed": true,
          "internalType": "uint256",
          "name": "tokenId",
          "type": "uint256"
        }
      ],
      "name": "Approval",
      "type": "event"
    },
    {
      "anonymous": false,
      "inputs": [
        {
          "indexed": true,
          "internalType": "address",
          "name": "owner",
          "type": "address"
        },
        {
          "indexed": true,
          "internalType": "address",
          "name": "operator",
          "type": "address"
        },
        {
          "indexed": false,
          "internalType": "bool",
          "name": "approved",
          "type": "bool"
        }
      ],
      "name": "ApprovalForAll",
      "type": "event"
    },
    {
      "anonymous": false,
      "inputs": [
        {
          "indexed": true,
          "internalType": "address",
          "name": "previousOwner",
          "type": "address"
        },
        {
          "indexed": true,
          "internalType": "address",
          "name": "newOwner",
          "type": "address"
        }
      ],
      "name": "OwnershipTransferred",
      "type": "event"
    },
    {
      "anonymous": false,
      "inputs": [
        {
          "indexed": false,
          "internalType": "address",
          "name": "account",
          "type": "address"
        }
      ],
      "name": "Paused",
      "type": "event"
    },
    {
      "anonymous": false,
      "inputs": [
        {
          "indexed": true,
          "internalType": "address",
          "name": "from",
          "type": "address"
        },
        {
          "indexed": true,
          "internalType": "address",
          "name": "to",
          "type": "address"
        },
        {
          "indexed": true,
          "internalType": "uint256",
          "name": "tokenId",
          "type": "uint256"
        }
      ],
      "name": "Transfer",
      "type": "event"
    },
    {
      "anonymous": false,
      "inputs": [
        {
          "indexed": false,
          "internalType": "address",
          "name": "account",
          "type": "address"
        }
      ],
      "name": "Unpaused",
      "type": "event"
    },
    {
      "inputs": [],
      "name": "OPERATOR_FILTER_REGISTRY",
      "outputs": [
        {
          "internalType": "contract IOperatorFilterRegistry",
          "name": "",
          "type": "address"
        }
      ],
      "stateMutability": "view",
      "type": "function"
    },
    {
      "inputs": [
        {
          "internalType": "address",
          "name": "operator",
          "type": "address"
        },
        {
          "internalType": "uint256",
          "name": "tokenId",
          "type": "uint256"
        }
      ],
      "name": "approve",
      "outputs": [],
      "stateMutability": "nonpayable",
      "type": "function"
    },
    {
      "inputs": [
        {
          "internalType": "address",
          "name": "owner",
          "type": "address"
        }
      ],
      "name": "balanceOf",
      "outputs": [
        {
          "internalType": "uint256",
          "name": "",
          "type": "uint256"
        }
      ],
      "stateMutability": "view",
      "type": "function"
    },
    {
      "inputs": [
        {
          "internalType": "uint256",
          "name": "tokenId",
          "type": "uint256"
        }
      ],
      "name": "burn",
      "outputs": [],
      "stateMutability": "nonpayable",
      "type": "function"
    },
    {
      "inputs": [
        {
          "internalType": "uint256",
          "name": "tokenId",
          "type": "uint256"
        }
      ],
      "name": "getApproved",
      "outputs": [
        {
          "internalType": "address",
          "name": "",
          "type": "address"
        }
      ],
      "stateMutability": "view",
      "type": "function"
    },
    {
      "inputs": [
        {
          "internalType": "address",
          "name": "owner",
          "type": "address"
        },
        {
          "internalType": "address",
          "name": "operator",
          "type": "address"
        }
      ],
      "name": "isApprovedForAll",
      "outputs": [
        {
          "internalType": "bool",
          "name": "",
          "type": "bool"
        }
      ],
      "stateMutability": "view",
      "type": "function"
    },
    {
      "inputs": [],
      "name": "name",
      "outputs": [
        {
          "internalType": "string",
          "name": "",
          "type": "string"
        }
      ],
      "stateMutability": "view",
      "type": "function"
    },
    {
      "inputs": [
        {
          "internalType": "address",
          "name": "",
          "type": "address"
        },
        {
          "internalType": "address",
          "name": "_from",
          "type": "address"
        },
        {
          "internalType": "uint256",
          "name": "_tokenId",
          "type": "uint256"
        },
        {
          "internalType": "bytes",
          "name": "_data",
          "type": "bytes"
        }
      ],
      "name": "onERC721Received",
      "outputs": [
        {
          "internalType": "bytes4",
          "name": "",
          "type": "bytes4"
        }
      ],
      "stateMutability": "nonpayable",
      "type": "function"
    },
    {
      "inputs": [],
      "name": "owner",
      "outputs": [
        {
          "internalType": "address",
          "name": "",
          "type": "address"
        }
      ],
      "stateMutability": "view",
      "type": "function"
    },
    {
      "inputs": [
        {
          "internalType": "uint256",
          "name": "tokenId",
          "type": "uint256"
        }
      ],
      "name": "ownerOf",
      "outputs": [
        {
          "internalType": "address",
          "name": "",
          "type": "address"
        }
      ],
      "stateMutability": "view",
      "type": "function"
    },
    {
      "inputs": [],
      "name": "pause",
      "outputs": [],
      "stateMutability": "nonpayable",
      "type": "function"
    },
    {
      "inputs": [],
      "name": "paused",
      "outputs": [
        {
          "internalType": "bool",
          "name": "",
          "type": "bool"
        }
      ],
      "stateMutability": "view",
      "type": "function"
    },
    {
      "inputs": [],
      "name": "renounceOwnership",
      "outputs": [],
      "stateMutability": "nonpayable",
      "type": "function"
    },
    {
      "inputs": [
        {
          "internalType": "uint256",
          "name": "_tokenId",
          "type": "uint256"
        },
        {
          "internalType": "uint256",
          "name": "_salePrice",
          "type": "uint256"
        }
      ],
      "name": "royaltyInfo",
      "outputs": [
        {
          "internalType": "address",
          "name": "",
          "type": "address"
        },
        {
          "internalType": "uint256",
          "name": "",
          "type": "uint256"
        }
      ],
      "stateMutability": "view",
      "type": "function"
    },
    {
      "inputs": [
        {
          "internalType": "address",
          "name": "from",
          "type": "address"
        },
        {
          "internalType": "address",
          "name": "to",
          "type": "address"
        },
        {
          "internalType": "uint256",
          "name": "tokenId",
          "type": "uint256"
        }
      ],
      "name": "safeTransferFrom",
      "outputs": [],
      "stateMutability": "nonpayable",
      "type": "function"
    },
    {
      "inputs": [
        {
          "internalType": "address",
          "name": "from",
          "type": "address"
        },
        {
          "internalType": "address",
          "name": "to",
          "type": "address"
        },
        {
          "internalType": "uint256",
          "name": "tokenId",
          "type": "uint256"
        },
        {
          "internalType": "bytes",
          "name": "data",
          "type": "bytes"
        }
      ],
      "name": "safeTransferFrom",
      "outputs": [],
      "stateMutability": "nonpayable",
      "type": "function"
    },
    {
      "inputs": [
        {
          "internalType": "address",
          "name": "operator",
          "type": "address"
        },
        {
          "internalType": "bool",
          "name": "approved",
          "type": "bool"
        }
      ],
      "name": "setApprovalForAll",
      "outputs": [],
      "stateMutability": "nonpayable",
      "type": "function"
    },
    {
      "inputs": [
        {
          "internalType": "bytes4",
          "name": "interfaceId",
          "type": "bytes4"
        }
      ],
      "name": "supportsInterface",
      "outputs": [
        {
          "internalType": "bool",
          "name": "",
          "type": "bool"
        }
      ],
      "stateMutability": "view",
      "type": "function"
    },
    {
      "inputs": [],
      "name": "symbol",
      "outputs": [
        {
          "internalType": "string",
          "name": "",
          "type": "string"
        }
      ],
      "stateMutability": "view",
      "type": "function"
    },
    {
      "inputs": [
        {
          "internalType": "uint256",
          "name": "tokenId",
          "type": "uint256"
        }
      ],
      "name": "tokenURI",
      "outputs": [
        {
          "internalType": "string",
          "name": "",
          "type": "string"
        }
      ],
      "stateMutability": "view",
      "type": "function"
    },
    {
      "inputs": [
        {
          "internalType": "address",
          "name": "from",
          "type": "address"
        },
        {
          "internalType": "address",
          "name": "to",
          "type": "address"
        },
        {
          "internalType": "uint256",
          "name": "tokenId",
          "type": "uint256"
        }
      ],
      "name": "transferFrom",
      "outputs": [],
      "stateMutability": "nonpayable",
      "type": "function"
    },
    {
      "inputs": [
        {
          "internalType": "address",
          "name": "newOwner",
          "type": "address"
        }
      ],
      "name": "transferOwnership",
      "outputs": [],
      "stateMutability": "nonpayable",
      "type": "function"
    },
    {
      "inputs": [],
      "name": "unpause",
      "outputs": [],
      "stateMutability": "nonpayable",
      "type": "function"
    }
  ],
  "bytecode": "0x60806040523480156200001157600080fd5b5060405162004b9238038062004b9283398181016040528101906200003791906200050d565b733cc6cdda760b79bafa08df41ecfa224f810dceb660016040518060400160405280600a81526020017f4d696e6466756c4e4654000000000000000000000000000000000000000000008152506040518060400160405280600781526020017f4d494e4446554c000000000000000000000000000000000000000000000000008152508160009081620000cb9190620007ce565b508060019081620000dd9190620007ce565b5050506000600760006101000a81548160ff0219169083151502179055506200011b6200010f6200038c60201b60201c565b6200039460201b60201c565b60006daaeb6d7670e522a718067333cd4e73ffffffffffffffffffffffffffffffffffffffff163b111562000310578015620001d6576daaeb6d7670e522a718067333cd4e73ffffffffffffffffffffffffffffffffffffffff16637d3e3dbe30846040518363ffffffff1660e01b81526004016200019c929190620008c6565b600060405180830381600087803b158015620001b757600080fd5b505af1158015620001cc573d6000803e3d6000fd5b505050506200030f565b600073ffffffffffffffffffffffffffffffffffffffff168273ffffffffffffffffffffffffffffffffffffffff161462000290576daaeb6d7670e522a718067333cd4e73ffffffffffffffffffffffffffffffffffffffff1663a0af290330846040518363ffffffff1660e01b815260040162000256929190620008c6565b600060405180830381600087803b1580156200027157600080fd5b505af115801562000286573d6000803e3d6000fd5b505050506200030e565b6daaeb6d7670e522a718067333cd4e73ffffffffffffffffffffffffffffffffffffffff16634420e486306040518263ffffffff1660e01b8152600401620002d99190620008f3565b600060405180830381600087803b158015620002f457600080fd5b505af115801562000309573d6000803e3d6000fd5b505050505b5b5b505081600a60006101000a81548173ffffffffffffffffffffffffffffffffffffffff021916908373ffffffffffffffffffffffffffffffffffffffff16021790555080600a60146101000a8154816bffffffffffffffffffffffff02191690836bffffffffffffffffffffffff160217905550505062000910565b600033905090565b6000600760019054906101000a900473ffffffffffffffffffffffffffffffffffffffff16905081600760016101000a81548173ffffffffffffffffffffffffffffffffffffffff021916908373ffffffffffffffffffffffffffffffffffffffff1602179055508173ffffffffffffffffffffffffffffffffffffffff168173ffffffffffffffffffffffffffffffffffffffff167f8be0079c531659141344cd1fd0a4f28419497f9722a3daafe3b4186f6b6457e060405160405180910390a35050565b600080fd5b600073ffffffffffffffffffffffffffffffffffffffff82169050919050565b60006200048c826200045f565b9050919050565b6200049e816200047f565b8114620004aa57600080fd5b50565b600081519050620004be8162000493565b92915050565b60006bffffffffffffffffffffffff82169050919050565b620004e781620004c4565b8114620004f357600080fd5b50565b6000815190506200050781620004dc565b92915050565b600080604083850312156200052757620005266200045a565b5b60006200053785828601620004ad565b92505060206200054a85828601620004f6565b9150509250929050565b600081519050919050565b7f4e487b7100000000000000000000000000000000000000000000000000000000600052604160045260246000fd5b7f4e487b7100000000000000000000000000000000000000000000000000000000600052602260045260246000fd5b60006002820490506001821680620005d657607f821691505b602082108103620005ec57620005eb6200058e565b5b50919050565b60008190508160005260206000209050919050565b60006020601f8301049050919050565b600082821b905092915050565b600060088302620006567fffffffffffffffffffffffffffffffffffffffffffffffffffffffffffffffff8262000617565b62000662868362000617565b95508019841693508086168417925050509392505050565b6000819050919050565b6000819050919050565b6000620006af620006a9620006a3846200067a565b62000684565b6200067a565b9050919050565b6000819050919050565b620006cb836200068e565b620006e3620006da82620006b6565b84845462000624565b825550505050565b600090565b620006fa620006eb565b62000707818484620006c0565b505050565b5b818110156200072f5762000723600082620006f0565b6001810190506200070d565b5050565b601f8211156200077e576200074881620005f2565b620007538462000607565b8101602085101562000763578190505b6200077b620007728562000607565b8301826200070c565b50505b505050565b600082821c905092915050565b6000620007a36000198460080262000783565b1980831691505092915050565b6000620007be838362000790565b9150826002028217905092915050565b620007d98262000554565b67ffffffffffffffff811115620007f557620007f46200055f565b5b620008018254620005bd565b6200080e82828562000733565b600060209050601f83116001811462000846576000841562000831578287015190505b6200083d8582620007b0565b865550620008ad565b601f1984166200085686620005f2565b60005b82811015620008805784890151825560018201915060208501945060208101905062000859565b86831015620008a057848901516200089c601f89168262000790565b8355505b6001600288020188555050505b505050505050565b620008c0816200047f565b82525050565b6000604082019050620008dd6000830185620008b5565b620008ec6020830184620008b5565b9392505050565b60006020820190506200090a6000830184620008b5565b92915050565b61427280620009206000396000f3fe608060405234801561001057600080fd5b506004361061014d5760003560e01c80635c975abb116100c357806395d89b411161007c57806395d89b4114610379578063a22cb46514610397578063b88d4fde146103b3578063c87b56dd146103cf578063e985e9c5146103ff578063f2fde38b1461042f5761014d565b80635c975abb146102c95780636352211e146102e757806370a0823114610317578063715018a6146103475780638456cb59146103515780638da5cb5b1461035b5761014d565b806323b872dd1161011557806323b872dd1461021c5780632a55205a146102385780633f4ba83a1461026957806341f434341461027357806342842e0e1461029157806342966c68146102ad5761014d565b806301ffc9a71461015257806306fdde0314610182578063081812fc146101a0578063095ea7b3146101d0578063150b7a02146101ec575b600080fd5b61016c60048036038101906101679190612a93565b61044b565b6040516101799190612adb565b60405180910390f35b61018a61045d565b6040516101979190612b86565b60405180910390f35b6101ba60048036038101906101b59190612bde565b6104ef565b6040516101c79190612c4c565b60405180910390f35b6101ea60048036038101906101e59190612c93565b610535565b005b61020660048036038101906102019190612d38565b61054e565b6040516102139190612dcf565b60405180910390f35b61023660048036038101906102319190612dea565b6107c1565b005b610252600480360381019061024d9190612e3d565b610810565b604051610260929190612e8c565b60405180910390f35b6102716109fa565b005b61027b610a0c565b6040516102889190612f14565b60405180910390f35b6102ab60048036038101906102a69190612dea565b610a1e565b005b6102c760048036038101906102c29190612bde565b610a6d565b005b6102d1610ac9565b6040516102de9190612adb565b60405180910390f35b61030160048036038101906102fc9190612bde565b610ae0565b60405161030e9190612c4c565b60405180910390f35b610331600480360381019061032c9190612f2f565b610b66565b60405161033e9190612f5c565b60405180910390f35b61034f610c1d565b005b610359610c31565b005b610363610c43565b6040516103709190612c4c565b60405180910390f35b610381610c6d565b60405161038e9190612b86565b60405180910390f35b6103b160048036038101906103ac9190612fa3565b610cff565b005b6103cd60048036038101906103c89190613113565b610d18565b005b6103e960048036038101906103e49190612bde565b610d69565b6040516103f69190612b86565b60405180910390f35b61041960048036038101906104149190613196565b610d7b565b6040516104269190612adb565b60405180910390f35b61044960048036038101906104449190612f2f565b610e0f565b005b600061045682610e92565b9050919050565b60606000805461046c90613205565b80601f016020809104026020016040519081016040528092919081815260200182805461049890613205565b80156104e55780601f106104ba576101008083540402835291602001916104e5565b820191906000526020600020905b8154815290600101906020018083116104c857829003601f168201915b5050505050905090565b60006104fa82610f0c565b6004600083815260200190815260200160002060009054906101000a900473ffffffffffffffffffffffffffffffffffffffff169050919050565b8161053f81610f57565b6105498383611054565b505050565b60008060009050600084848080601f016020809104026020016040519081016040528093929190818152602001838380828437600081840152601f19601f820116905080830192505050505050509050600a60009054906101000a900473ffffffffffffffffffffffffffffffffffffffff1673ffffffffffffffffffffffffffffffffffffffff163373ffffffffffffffffffffffffffffffffffffffff161461062e576040517f08c379a000000000000000000000000000000000000000000000000000000000815260040161062590613282565b60405180910390fd5b6000600a60009054906101000a900473ffffffffffffffffffffffffffffffffffffffff1690508073ffffffffffffffffffffffffffffffffffffffff166342966c68886040518263ffffffff1660e01b815260040161068e9190612f5c565b600060405180830381600087803b1580156106a857600080fd5b505af19250505080156106b9575060015b61072d576106c56132af565b806308c379a0036106ee57506106d96132d1565b806106e457506106f0565b6000935050610728565b505b3d806000811461071c576040519150601f19603f3d011682016040523d82523d6000602084013e610721565b606091505b5060009350505b610732565b600192505b82610772576040517f08c379a0000000000000000000000000000000000000000000000000000000008152600401610769906133ad565b60405180910390fd5b61077c888861116b565b6107a18789600a60149054906101000a90046bffffffffffffffffffffffff16611189565b6107ab8783611330565b63150b7a0260e01b935050505095945050505050565b823373ffffffffffffffffffffffffffffffffffffffff168173ffffffffffffffffffffffffffffffffffffffff16146107ff576107fe33610f57565b5b61080a84848461139d565b50505050565b6000806000600960008681526020019081526020016000206040518060400160405290816000820160009054906101000a900473ffffffffffffffffffffffffffffffffffffffff1673ffffffffffffffffffffffffffffffffffffffff1673ffffffffffffffffffffffffffffffffffffffff1681526020016000820160149054906101000a90046bffffffffffffffffffffffff166bffffffffffffffffffffffff166bffffffffffffffffffffffff16815250509050600073ffffffffffffffffffffffffffffffffffffffff16816000015173ffffffffffffffffffffffffffffffffffffffff16036109a55760086040518060400160405290816000820160009054906101000a900473ffffffffffffffffffffffffffffffffffffffff1673ffffffffffffffffffffffffffffffffffffffff1673ffffffffffffffffffffffffffffffffffffffff1681526020016000820160149054906101000a90046bffffffffffffffffffffffff166bffffffffffffffffffffffff166bffffffffffffffffffffffff168152505090505b60006109af6113fd565b6bffffffffffffffffffffffff1682602001516bffffffffffffffffffffffff16866109db91906133fc565b6109e5919061346d565b90508160000151819350935050509250929050565b610a02611407565b610a0a611485565b565b6daaeb6d7670e522a718067333cd4e81565b823373ffffffffffffffffffffffffffffffffffffffff168173ffffffffffffffffffffffffffffffffffffffff1614610a5c57610a5b33610f57565b5b610a678484846114e8565b50505050565b610a7e610a78611508565b82611510565b610abd576040517f08c379a0000000000000000000000000000000000000000000000000000000008152600401610ab490613510565b60405180910390fd5b610ac6816115a5565b50565b6000600760009054906101000a900460ff16905090565b600080610aec836115b1565b9050600073ffffffffffffffffffffffffffffffffffffffff168173ffffffffffffffffffffffffffffffffffffffff1603610b5d576040517f08c379a0000000000000000000000000000000000000000000000000000000008152600401610b549061357c565b60405180910390fd5b80915050919050565b60008073ffffffffffffffffffffffffffffffffffffffff168273ffffffffffffffffffffffffffffffffffffffff1603610bd6576040517f08c379a0000000000000000000000000000000000000000000000000000000008152600401610bcd9061360e565b60405180910390fd5b600360008373ffffffffffffffffffffffffffffffffffffffff1673ffffffffffffffffffffffffffffffffffffffff168152602001908152602001600020549050919050565b610c25611407565b610c2f60006115ee565b565b610c39611407565b610c416116b4565b565b6000600760019054906101000a900473ffffffffffffffffffffffffffffffffffffffff16905090565b606060018054610c7c90613205565b80601f0160208091040260200160405190810160405280929190818152602001828054610ca890613205565b8015610cf55780601f10610cca57610100808354040283529160200191610cf5565b820191906000526020600020905b815481529060010190602001808311610cd857829003601f168201915b5050505050905090565b81610d0981610f57565b610d138383611717565b505050565b833373ffffffffffffffffffffffffffffffffffffffff168173ffffffffffffffffffffffffffffffffffffffff1614610d5657610d5533610f57565b5b610d628585858561172d565b5050505050565b6060610d748261178f565b9050919050565b6000600560008473ffffffffffffffffffffffffffffffffffffffff1673ffffffffffffffffffffffffffffffffffffffff16815260200190815260200160002060008373ffffffffffffffffffffffffffffffffffffffff1673ffffffffffffffffffffffffffffffffffffffff16815260200190815260200160002060009054906101000a900460ff16905092915050565b610e17611407565b600073ffffffffffffffffffffffffffffffffffffffff168173ffffffffffffffffffffffffffffffffffffffff1603610e86576040517f08c379a0000000000000000000000000000000000000000000000000000000008152600401610e7d906136a0565b60405180910390fd5b610e8f816115ee565b50565b60007f2a55205a000000000000000000000000000000000000000000000000000000007bffffffffffffffffffffffffffffffffffffffffffffffffffffffff1916827bffffffffffffffffffffffffffffffffffffffffffffffffffffffff19161480610f055750610f04826118a1565b5b9050919050565b610f1581611983565b610f54576040517f08c379a0000000000000000000000000000000000000000000000000000000008152600401610f4b9061357c565b60405180910390fd5b50565b60006daaeb6d7670e522a718067333cd4e73ffffffffffffffffffffffffffffffffffffffff163b1115611051576daaeb6d7670e522a718067333cd4e73ffffffffffffffffffffffffffffffffffffffff1663c617113430836040518363ffffffff1660e01b8152600401610fce9291906136c0565b602060405180830381865afa158015610feb573d6000803e3d6000fd5b505050506040513d601f19601f8201168201806040525081019061100f91906136fe565b61105057806040517fede71dcc0000000000000000000000000000000000000000000000000000000081526004016110479190612c4c565b60405180910390fd5b5b50565b600061105f82610ae0565b90508073ffffffffffffffffffffffffffffffffffffffff168373ffffffffffffffffffffffffffffffffffffffff16036110cf576040517f08c379a00000000000000000000000000000000000000000000000000000000081526004016110c69061379d565b60405180910390fd5b8073ffffffffffffffffffffffffffffffffffffffff166110ee611508565b73ffffffffffffffffffffffffffffffffffffffff16148061111d575061111c81611117611508565b610d7b565b5b61115c576040517f08c379a00000000000000000000000000000000000000000000000000000000081526004016111539061382f565b60405180910390fd5b61116683836119c4565b505050565b611185828260405180602001604052806000815250611a7d565b5050565b6111916113fd565b6bffffffffffffffffffffffff16816bffffffffffffffffffffffff1611156111ef576040517f08c379a00000000000000000000000000000000000000000000000000000000081526004016111e6906138c1565b60405180910390fd5b600073ffffffffffffffffffffffffffffffffffffffff168273ffffffffffffffffffffffffffffffffffffffff160361125e576040517f08c379a00000000000000000000000000000000000000000000000000000000081526004016112559061392d565b60405180910390fd5b60405180604001604052808373ffffffffffffffffffffffffffffffffffffffff168152602001826bffffffffffffffffffffffff168152506009600085815260200190815260200160002060008201518160000160006101000a81548173ffffffffffffffffffffffffffffffffffffffff021916908373ffffffffffffffffffffffffffffffffffffffff16021790555060208201518160000160146101000a8154816bffffffffffffffffffffffff02191690836bffffffffffffffffffffffff160217905550905050505050565b61133982611983565b611378576040517f08c379a000000000000000000000000000000000000000000000000000000000815260040161136f906139bf565b60405180910390fd5b806006600084815260200190815260200160002090816113989190613b81565b505050565b6113ae6113a8611508565b82611510565b6113ed576040517f08c379a00000000000000000000000000000000000000000000000000000000081526004016113e490613510565b60405180910390fd5b6113f8838383611ad8565b505050565b6000612710905090565b61140f611508565b73ffffffffffffffffffffffffffffffffffffffff1661142d610c43565b73ffffffffffffffffffffffffffffffffffffffff1614611483576040517f08c379a000000000000000000000000000000000000000000000000000000000815260040161147a90613c9f565b60405180910390fd5b565b61148d611dd1565b6000600760006101000a81548160ff0219169083151502179055507f5db9ee0a495bf2e6ff9c91a7834c1ba4fdd244a5e8aa4e537bd38aeae4b073aa6114d1611508565b6040516114de9190612c4c565b60405180910390a1565b61150383838360405180602001604052806000815250610d18565b505050565b600033905090565b60008061151c83610ae0565b90508073ffffffffffffffffffffffffffffffffffffffff168473ffffffffffffffffffffffffffffffffffffffff16148061155e575061155d8185610d7b565b5b8061159c57508373ffffffffffffffffffffffffffffffffffffffff16611584846104ef565b73ffffffffffffffffffffffffffffffffffffffff16145b91505092915050565b6115ae81611e1a565b50565b60006002600083815260200190815260200160002060009054906101000a900473ffffffffffffffffffffffffffffffffffffffff169050919050565b6000600760019054906101000a900473ffffffffffffffffffffffffffffffffffffffff16905081600760016101000a81548173ffffffffffffffffffffffffffffffffffffffff021916908373ffffffffffffffffffffffffffffffffffffffff1602179055508173ffffffffffffffffffffffffffffffffffffffff168173ffffffffffffffffffffffffffffffffffffffff167f8be0079c531659141344cd1fd0a4f28419497f9722a3daafe3b4186f6b6457e060405160405180910390a35050565b6116bc611e6d565b6001600760006101000a81548160ff0219169083151502179055507f62e78cea01bee320cd4e420270b5ea74000d11b0c9f74754ebdbfc544b05a258611700611508565b60405161170d9190612c4c565b60405180910390a1565b611729611722611508565b8383611eb7565b5050565b61173e611738611508565b83611510565b61177d576040517f08c379a000000000000000000000000000000000000000000000000000000000815260040161177490613510565b60405180910390fd5b61178984848484612023565b50505050565b606061179a82610f0c565b60006006600084815260200190815260200160002080546117ba90613205565b80601f01602080910402602001604051908101604052809291908181526020018280546117e690613205565b80156118335780601f1061180857610100808354040283529160200191611833565b820191906000526020600020905b81548152906001019060200180831161181657829003601f168201915b50505050509050600061184461207f565b9050600081510361185957819250505061189c565b60008251111561188e578082604051602001611876929190613cfb565b6040516020818303038152906040529250505061189c565b61189784612096565b925050505b919050565b60007f80ac58cd000000000000000000000000000000000000000000000000000000007bffffffffffffffffffffffffffffffffffffffffffffffffffffffff1916827bffffffffffffffffffffffffffffffffffffffffffffffffffffffff1916148061196c57507f5b5e139f000000000000000000000000000000000000000000000000000000007bffffffffffffffffffffffffffffffffffffffffffffffffffffffff1916827bffffffffffffffffffffffffffffffffffffffffffffffffffffffff1916145b8061197c575061197b826120fe565b5b9050919050565b60008073ffffffffffffffffffffffffffffffffffffffff166119a5836115b1565b73ffffffffffffffffffffffffffffffffffffffff1614159050919050565b816004600083815260200190815260200160002060006101000a81548173ffffffffffffffffffffffffffffffffffffffff021916908373ffffffffffffffffffffffffffffffffffffffff160217905550808273ffffffffffffffffffffffffffffffffffffffff16611a3783610ae0565b73ffffffffffffffffffffffffffffffffffffffff167f8c5be1e5ebec7d5bd14f71427d1e84f3dd0314c0f7b2291e5b200ac8c7c3b92560405160405180910390a45050565b611a878383612168565b611a946000848484612385565b611ad3576040517f08c379a0000000000000000000000000000000000000000000000000000000008152600401611aca90613d91565b60405180910390fd5b505050565b8273ffffffffffffffffffffffffffffffffffffffff16611af882610ae0565b73ffffffffffffffffffffffffffffffffffffffff1614611b4e576040517f08c379a0000000000000000000000000000000000000000000000000000000008152600401611b4590613e23565b60405180910390fd5b600073ffffffffffffffffffffffffffffffffffffffff168273ffffffffffffffffffffffffffffffffffffffff1603611bbd576040517f08c379a0000000000000000000000000000000000000000000000000000000008152600401611bb490613eb5565b60405180910390fd5b611bca838383600161250c565b8273ffffffffffffffffffffffffffffffffffffffff16611bea82610ae0565b73ffffffffffffffffffffffffffffffffffffffff1614611c40576040517f08c379a0000000000000000000000000000000000000000000000000000000008152600401611c3790613e23565b60405180910390fd5b6004600082815260200190815260200160002060006101000a81549073ffffffffffffffffffffffffffffffffffffffff02191690556001600360008573ffffffffffffffffffffffffffffffffffffffff1673ffffffffffffffffffffffffffffffffffffffff168152602001908152602001600020600082825403925050819055506001600360008473ffffffffffffffffffffffffffffffffffffffff1673ffffffffffffffffffffffffffffffffffffffff16815260200190815260200160002060008282540192505081905550816002600083815260200190815260200160002060006101000a81548173ffffffffffffffffffffffffffffffffffffffff021916908373ffffffffffffffffffffffffffffffffffffffff160217905550808273ffffffffffffffffffffffffffffffffffffffff168473ffffffffffffffffffffffffffffffffffffffff167fddf252ad1be2c89b69c2b068fc378daa952ba7f163c4a11628f55a4df523b3ef60405160405180910390a4611dcc8383836001612632565b505050565b611dd9610ac9565b611e18576040517f08c379a0000000000000000000000000000000000000000000000000000000008152600401611e0f90613f21565b60405180910390fd5b565b611e2381612638565b6000600660008381526020019081526020016000208054611e4390613205565b905014611e6a57600660008281526020019081526020016000206000611e6991906129ca565b5b50565b611e75610ac9565b15611eb5576040517f08c379a0000000000000000000000000000000000000000000000000000000008152600401611eac90613f8d565b60405180910390fd5b565b8173ffffffffffffffffffffffffffffffffffffffff168373ffffffffffffffffffffffffffffffffffffffff1603611f25576040517f08c379a0000000000000000000000000000000000000000000000000000000008152600401611f1c90613ff9565b60405180910390fd5b80600560008573ffffffffffffffffffffffffffffffffffffffff1673ffffffffffffffffffffffffffffffffffffffff16815260200190815260200160002060008473ffffffffffffffffffffffffffffffffffffffff1673ffffffffffffffffffffffffffffffffffffffff16815260200190815260200160002060006101000a81548160ff0219169083151502179055508173ffffffffffffffffffffffffffffffffffffffff168373ffffffffffffffffffffffffffffffffffffffff167f17307eab39ab6107e8899845ad3d59bd9653f200f220920489ca2b5937696c31836040516120169190612adb565b60405180910390a3505050565b61202e848484611ad8565b61203a84848484612385565b612079576040517f08c379a000000000000000000000000000000000000000000000000000000000815260040161207090613d91565b60405180910390fd5b50505050565b606060405180602001604052806000815250905090565b60606120a182610f0c565b60006120ab61207f565b905060008151116120cb57604051806020016040528060008152506120f6565b806120d584612786565b6040516020016120e6929190613cfb565b6040516020818303038152906040525b915050919050565b60007f01ffc9a7000000000000000000000000000000000000000000000000000000007bffffffffffffffffffffffffffffffffffffffffffffffffffffffff1916827bffffffffffffffffffffffffffffffffffffffffffffffffffffffff1916149050919050565b600073ffffffffffffffffffffffffffffffffffffffff168273ffffffffffffffffffffffffffffffffffffffff16036121d7576040517f08c379a00000000000000000000000000000000000000000000000000000000081526004016121ce90614065565b60405180910390fd5b6121e081611983565b15612220576040517f08c379a0000000000000000000000000000000000000000000000000000000008152600401612217906140d1565b60405180910390fd5b61222e60008383600161250c565b61223781611983565b15612277576040517f08c379a000000000000000000000000000000000000000000000000000000000815260040161226e906140d1565b60405180910390fd5b6001600360008473ffffffffffffffffffffffffffffffffffffffff1673ffffffffffffffffffffffffffffffffffffffff16815260200190815260200160002060008282540192505081905550816002600083815260200190815260200160002060006101000a81548173ffffffffffffffffffffffffffffffffffffffff021916908373ffffffffffffffffffffffffffffffffffffffff160217905550808273ffffffffffffffffffffffffffffffffffffffff16600073ffffffffffffffffffffffffffffffffffffffff167fddf252ad1be2c89b69c2b068fc378daa952ba7f163c4a11628f55a4df523b3ef60405160405180910390a4612381600083836001612632565b5050565b60006123a68473ffffffffffffffffffffffffffffffffffffffff16612854565b156124ff578373ffffffffffffffffffffffffffffffffffffffff1663150b7a026123cf611508565b8786866040518563ffffffff1660e01b81526004016123f19493929190614146565b6020604051808303816000875af192505050801561242d57506040513d601f19601f8201168201806040525081019061242a91906141a7565b60015b6124af573d806000811461245d576040519150601f19603f3d011682016040523d82523d6000602084013e612462565b606091505b5060008151036124a7576040517f08c379a000000000000000000000000000000000000000000000000000000000815260040161249e90613d91565b60405180910390fd5b805181602001fd5b63150b7a0260e01b7bffffffffffffffffffffffffffffffffffffffffffffffffffffffff1916817bffffffffffffffffffffffffffffffffffffffffffffffffffffffff191614915050612504565b600190505b949350505050565b600181111561262c57600073ffffffffffffffffffffffffffffffffffffffff168473ffffffffffffffffffffffffffffffffffffffff16146125a05780600360008673ffffffffffffffffffffffffffffffffffffffff1673ffffffffffffffffffffffffffffffffffffffff168152602001908152602001600020600082825461259891906141d4565b925050819055505b600073ffffffffffffffffffffffffffffffffffffffff168373ffffffffffffffffffffffffffffffffffffffff161461262b5780600360008573ffffffffffffffffffffffffffffffffffffffff1673ffffffffffffffffffffffffffffffffffffffff16815260200190815260200160002060008282546126239190614208565b925050819055505b5b50505050565b50505050565b600061264382610ae0565b905061265381600084600161250c565b61265c82610ae0565b90506004600083815260200190815260200160002060006101000a81549073ffffffffffffffffffffffffffffffffffffffff02191690556001600360008373ffffffffffffffffffffffffffffffffffffffff1673ffffffffffffffffffffffffffffffffffffffff168152602001908152602001600020600082825403925050819055506002600083815260200190815260200160002060006101000a81549073ffffffffffffffffffffffffffffffffffffffff021916905581600073ffffffffffffffffffffffffffffffffffffffff168273ffffffffffffffffffffffffffffffffffffffff167fddf252ad1be2c89b69c2b068fc378daa952ba7f163c4a11628f55a4df523b3ef60405160405180910390a4612782816000846001612632565b5050565b60606000600161279584612877565b01905060008167ffffffffffffffff8111156127b4576127b3612fe8565b5b6040519080825280601f01601f1916602001820160405280156127e65781602001600182028036833780820191505090505b509050600082602001820190505b600115612849578080600190039150507f3031323334353637383961626364656600000000000000000000000000000000600a86061a8153600a858161283d5761283c61343e565b5b049450600085036127f4575b819350505050919050565b6000808273ffffffffffffffffffffffffffffffffffffffff163b119050919050565b600080600090507a184f03e93ff9f4daa797ed6e38ed64bf6a1f01000000000000000083106128d5577a184f03e93ff9f4daa797ed6e38ed64bf6a1f01000000000000000083816128cb576128ca61343e565b5b0492506040810190505b6d04ee2d6d415b85acef81000000008310612912576d04ee2d6d415b85acef810000000083816129085761290761343e565b5b0492506020810190505b662386f26fc10000831061294157662386f26fc1000083816129375761293661343e565b5b0492506010810190505b6305f5e100831061296a576305f5e10083816129605761295f61343e565b5b0492506008810190505b612710831061298f5761271083816129855761298461343e565b5b0492506004810190505b606483106129b257606483816129a8576129a761343e565b5b0492506002810190505b600a83106129c1576001810190505b80915050919050565b5080546129d690613205565b6000825580601f106129e85750612a07565b601f016020900490600052602060002090810190612a069190612a0a565b5b50565b5b80821115612a23576000816000905550600101612a0b565b5090565b6000604051905090565b600080fd5b600080fd5b60007fffffffff0000000000000000000000000000000000000000000000000000000082169050919050565b612a7081612a3b565b8114612a7b57600080fd5b50565b600081359050612a8d81612a67565b92915050565b600060208284031215612aa957612aa8612a31565b5b6000612ab784828501612a7e565b91505092915050565b60008115159050919050565b612ad581612ac0565b82525050565b6000602082019050612af06000830184612acc565b92915050565b600081519050919050565b600082825260208201905092915050565b60005b83811015612b30578082015181840152602081019050612b15565b60008484015250505050565b6000601f19601f8301169050919050565b6000612b5882612af6565b612b628185612b01565b9350612b72818560208601612b12565b612b7b81612b3c565b840191505092915050565b60006020820190508181036000830152612ba08184612b4d565b905092915050565b6000819050919050565b612bbb81612ba8565b8114612bc657600080fd5b50565b600081359050612bd881612bb2565b92915050565b600060208284031215612bf457612bf3612a31565b5b6000612c0284828501612bc9565b91505092915050565b600073ffffffffffffffffffffffffffffffffffffffff82169050919050565b6000612c3682612c0b565b9050919050565b612c4681612c2b565b82525050565b6000602082019050612c616000830184612c3d565b92915050565b612c7081612c2b565b8114612c7b57600080fd5b50565b600081359050612c8d81612c67565b92915050565b60008060408385031215612caa57612ca9612a31565b5b6000612cb885828601612c7e565b9250506020612cc985828601612bc9565b9150509250929050565b600080fd5b600080fd5b600080fd5b60008083601f840112612cf857612cf7612cd3565b5b8235905067ffffffffffffffff811115612d1557612d14612cd8565b5b602083019150836001820283011115612d3157612d30612cdd565b5b9250929050565b600080600080600060808688031215612d5457612d53612a31565b5b6000612d6288828901612c7e565b9550506020612d7388828901612c7e565b9450506040612d8488828901612bc9565b935050606086013567ffffffffffffffff811115612da557612da4612a36565b5b612db188828901612ce2565b92509250509295509295909350565b612dc981612a3b565b82525050565b6000602082019050612de46000830184612dc0565b92915050565b600080600060608486031215612e0357612e02612a31565b5b6000612e1186828701612c7e565b9350506020612e2286828701612c7e565b9250506040612e3386828701612bc9565b9150509250925092565b60008060408385031215612e5457612e53612a31565b5b6000612e6285828601612bc9565b9250506020612e7385828601612bc9565b9150509250929050565b612e8681612ba8565b82525050565b6000604082019050612ea16000830185612c3d565b612eae6020830184612e7d565b9392505050565b6000819050919050565b6000612eda612ed5612ed084612c0b565b612eb5565b612c0b565b9050919050565b6000612eec82612ebf565b9050919050565b6000612efe82612ee1565b9050919050565b612f0e81612ef3565b82525050565b6000602082019050612f296000830184612f05565b92915050565b600060208284031215612f4557612f44612a31565b5b6000612f5384828501612c7e565b91505092915050565b6000602082019050612f716000830184612e7d565b92915050565b612f8081612ac0565b8114612f8b57600080fd5b50565b600081359050612f9d81612f77565b92915050565b60008060408385031215612fba57612fb9612a31565b5b6000612fc885828601612c7e565b9250506020612fd985828601612f8e565b9150509250929050565b600080fd5b7f4e487b7100000000000000000000000000000000000000000000000000000000600052604160045260246000fd5b61302082612b3c565b810181811067ffffffffffffffff8211171561303f5761303e612fe8565b5b80604052505050565b6000613052612a27565b905061305e8282613017565b919050565b600067ffffffffffffffff82111561307e5761307d612fe8565b5b61308782612b3c565b9050602081019050919050565b82818337600083830152505050565b60006130b66130b184613063565b613048565b9050828152602081018484840111156130d2576130d1612fe3565b5b6130dd848285613094565b509392505050565b600082601f8301126130fa576130f9612cd3565b5b813561310a8482602086016130a3565b91505092915050565b6000806000806080858703121561312d5761312c612a31565b5b600061313b87828801612c7e565b945050602061314c87828801612c7e565b935050604061315d87828801612bc9565b925050606085013567ffffffffffffffff81111561317e5761317d612a36565b5b61318a878288016130e5565b91505092959194509250565b600080604083850312156131ad576131ac612a31565b5b60006131bb85828601612c7e565b92505060206131cc85828601612c7e565b9150509250929050565b7f4e487b7100000000000000000000000000000000000000000000000000000000600052602260045260246000fd5b6000600282049050600182168061321d57607f821691505b6020821081036132305761322f6131d6565b5b50919050565b7f43616e2072656365697665206f6e6c792066726f6d204d696e74506173730000600082015250565b600061326c601e83612b01565b915061327782613236565b602082019050919050565b6000602082019050818103600083015261329b8161325f565b9050919050565b60008160e01c9050919050565b600060033d11156132ce5760046000803e6132cb6000516132a2565b90505b90565b600060443d1061335e576132e3612a27565b60043d036004823e80513d602482011167ffffffffffffffff8211171561330b57505061335e565b808201805167ffffffffffffffff811115613329575050505061335e565b80602083010160043d03850181111561334657505050505061335e565b61335582602001850186613017565b82955050505050505b90565b7f4d696e7450617373206e6f74206275726e656400000000000000000000000000600082015250565b6000613397601383612b01565b91506133a282613361565b602082019050919050565b600060208201905081810360008301526133c68161338a565b9050919050565b7f4e487b7100000000000000000000000000000000000000000000000000000000600052601160045260246000fd5b600061340782612ba8565b915061341283612ba8565b925082820261342081612ba8565b91508282048414831517613437576134366133cd565b5b5092915050565b7f4e487b7100000000000000000000000000000000000000000000000000000000600052601260045260246000fd5b600061347882612ba8565b915061348383612ba8565b9250826134935761349261343e565b5b828204905092915050565b7f4552433732313a2063616c6c6572206973206e6f7420746f6b656e206f776e6560008201527f72206f7220617070726f76656400000000000000000000000000000000000000602082015250565b60006134fa602d83612b01565b91506135058261349e565b604082019050919050565b60006020820190508181036000830152613529816134ed565b9050919050565b7f4552433732313a20696e76616c696420746f6b656e2049440000000000000000600082015250565b6000613566601883612b01565b915061357182613530565b602082019050919050565b6000602082019050818103600083015261359581613559565b9050919050565b7f4552433732313a2061646472657373207a65726f206973206e6f74206120766160008201527f6c6964206f776e65720000000000000000000000000000000000000000000000602082015250565b60006135f8602983612b01565b91506136038261359c565b604082019050919050565b60006020820190508181036000830152613627816135eb565b9050919050565b7f4f776e61626c653a206e6577206f776e657220697320746865207a65726f206160008201527f6464726573730000000000000000000000000000000000000000000000000000602082015250565b600061368a602683612b01565b91506136958261362e565b604082019050919050565b600060208201905081810360008301526136b98161367d565b9050919050565b60006040820190506136d56000830185612c3d565b6136e26020830184612c3d565b9392505050565b6000815190506136f881612f77565b92915050565b60006020828403121561371457613713612a31565b5b6000613722848285016136e9565b91505092915050565b7f4552433732313a20617070726f76616c20746f2063757272656e74206f776e6560008201527f7200000000000000000000000000000000000000000000000000000000000000602082015250565b6000613787602183612b01565b91506137928261372b565b604082019050919050565b600060208201905081810360008301526137b68161377a565b9050919050565b7f4552433732313a20617070726f76652063616c6c6572206973206e6f7420746f60008201527f6b656e206f776e6572206f7220617070726f76656420666f7220616c6c000000602082015250565b6000613819603d83612b01565b9150613824826137bd565b604082019050919050565b600060208201905081810360008301526138488161380c565b9050919050565b7f455243323938313a20726f79616c7479206665652077696c6c2065786365656460008201527f2073616c65507269636500000000000000000000000000000000000000000000602082015250565b60006138ab602a83612b01565b91506138b68261384f565b604082019050919050565b600060208201905081810360008301526138da8161389e565b9050919050565b7f455243323938313a20496e76616c696420706172616d65746572730000000000600082015250565b6000613917601b83612b01565b9150613922826138e1565b602082019050919050565b600060208201905081810360008301526139468161390a565b9050919050565b7f45524337323155524953746f726167653a2055524920736574206f66206e6f6e60008201527f6578697374656e7420746f6b656e000000000000000000000000000000000000602082015250565b60006139a9602e83612b01565b91506139b48261394d565b604082019050919050565b600060208201905081810360008301526139d88161399c565b9050919050565b60008190508160005260206000209050919050565b60006020601f8301049050919050565b600082821b905092915050565b600060088302613a417fffffffffffffffffffffffffffffffffffffffffffffffffffffffffffffffff82613a04565b613a4b8683613a04565b95508019841693508086168417925050509392505050565b6000613a7e613a79613a7484612ba8565b612eb5565b612ba8565b9050919050565b6000819050919050565b613a9883613a63565b613aac613aa482613a85565b848454613a11565b825550505050565b600090565b613ac1613ab4565b613acc818484613a8f565b505050565b5b81811015613af057613ae5600082613ab9565b600181019050613ad2565b5050565b601f821115613b3557613b06816139df565b613b0f846139f4565b81016020851015613b1e578190505b613b32613b2a856139f4565b830182613ad1565b50505b505050565b600082821c905092915050565b6000613b5860001984600802613b3a565b1980831691505092915050565b6000613b718383613b47565b9150826002028217905092915050565b613b8a82612af6565b67ffffffffffffffff811115613ba357613ba2612fe8565b5b613bad8254613205565b613bb8828285613af4565b600060209050601f831160018114613beb5760008415613bd9578287015190505b613be38582613b65565b865550613c4b565b601f198416613bf9866139df565b60005b82811015613c2157848901518255600182019150602085019450602081019050613bfc565b86831015613c3e5784890151613c3a601f891682613b47565b8355505b6001600288020188555050505b505050505050565b7f4f776e61626c653a2063616c6c6572206973206e6f7420746865206f776e6572600082015250565b6000613c89602083612b01565b9150613c9482613c53565b602082019050919050565b60006020820190508181036000830152613cb881613c7c565b9050919050565b600081905092915050565b6000613cd582612af6565b613cdf8185613cbf565b9350613cef818560208601612b12565b80840191505092915050565b6000613d078285613cca565b9150613d138284613cca565b91508190509392505050565b7f4552433732313a207472616e7366657220746f206e6f6e20455243373231526560008201527f63656976657220696d706c656d656e7465720000000000000000000000000000602082015250565b6000613d7b603283612b01565b9150613d8682613d1f565b604082019050919050565b60006020820190508181036000830152613daa81613d6e565b9050919050565b7f4552433732313a207472616e736665722066726f6d20696e636f72726563742060008201527f6f776e6572000000000000000000000000000000000000000000000000000000602082015250565b6000613e0d602583612b01565b9150613e1882613db1565b604082019050919050565b60006020820190508181036000830152613e3c81613e00565b9050919050565b7f4552433732313a207472616e7366657220746f20746865207a65726f2061646460008201527f7265737300000000000000000000000000000000000000000000000000000000602082015250565b6000613e9f602483612b01565b9150613eaa82613e43565b604082019050919050565b60006020820190508181036000830152613ece81613e92565b9050919050565b7f5061757361626c653a206e6f7420706175736564000000000000000000000000600082015250565b6000613f0b601483612b01565b9150613f1682613ed5565b602082019050919050565b60006020820190508181036000830152613f3a81613efe565b9050919050565b7f5061757361626c653a2070617573656400000000000000000000000000000000600082015250565b6000613f77601083612b01565b9150613f8282613f41565b602082019050919050565b60006020820190508181036000830152613fa681613f6a565b9050919050565b7f4552433732313a20617070726f766520746f2063616c6c657200000000000000600082015250565b6000613fe3601983612b01565b9150613fee82613fad565b602082019050919050565b6000602082019050818103600083015261401281613fd6565b9050919050565b7f4552433732313a206d696e7420746f20746865207a65726f2061646472657373600082015250565b600061404f602083612b01565b915061405a82614019565b602082019050919050565b6000602082019050818103600083015261407e81614042565b9050919050565b7f4552433732313a20746f6b656e20616c7265616479206d696e74656400000000600082015250565b60006140bb601c83612b01565b91506140c682614085565b602082019050919050565b600060208201905081810360008301526140ea816140ae565b9050919050565b600081519050919050565b600082825260208201905092915050565b6000614118826140f1565b61412281856140fc565b9350614132818560208601612b12565b61413b81612b3c565b840191505092915050565b600060808201905061415b6000830187612c3d565b6141686020830186612c3d565b6141756040830185612e7d565b8181036060830152614187818461410d565b905095945050505050565b6000815190506141a181612a67565b92915050565b6000602082840312156141bd576141bc612a31565b5b60006141cb84828501614192565b91505092915050565b60006141df82612ba8565b91506141ea83612ba8565b9250828203905081811115614202576142016133cd565b5b92915050565b600061421382612ba8565b915061421e83612ba8565b9250828201905080821115614236576142356133cd565b5b9291505056fea264697066735822122082b0afd15bf8d2f641a1eab72bd7897c60cc64c1c509d3fab5fd0219bb30cdc564736f6c63430008110033",
  "linkReferences": {},
  "deployedLinkReferences": {}
}