{
  "_format": "hh-sol-artifact-1",
  "contractName": "MindfulNFT",
  "sourceName": "contracts/MindfulNFT.sol",
  "abi": [
    {
      "inputs": [
        {
          "internalType": "address",
          "name": "_mintPass",
          "type": "address"
        },
        {
          "internalType": "uint96",
          "name": "_loyaltyFee",
          "type": "uint96"
        }
      ],
      "stateMutability": "nonpayable",
      "type": "constructor"
    },
    {
      "anonymous": false,
      "inputs": [
        {
          "indexed": true,
          "internalType": "address",
          "name": "owner",
          "type": "address"
        },
        {
          "indexed": true,
          "internalType": "address",
          "name": "approved",
          "type": "address"
        },
        {
          "indexed": true,
          "internalType": "uint256",
          "name": "tokenId",
          "type": "uint256"
        }
      ],
      "name": "Approval",
      "type": "event"
    },
    {
      "anonymous": false,
      "inputs": [
        {
          "indexed": true,
          "internalType": "address",
          "name": "owner",
          "type": "address"
        },
        {
          "indexed": true,
          "internalType": "address",
          "name": "operator",
          "type": "address"
        },
        {
          "indexed": false,
          "internalType": "bool",
          "name": "approved",
          "type": "bool"
        }
      ],
      "name": "ApprovalForAll",
      "type": "event"
    },
    {
      "anonymous": false,
      "inputs": [
        {
          "indexed": true,
          "internalType": "address",
          "name": "previousOwner",
          "type": "address"
        },
        {
          "indexed": true,
          "internalType": "address",
          "name": "newOwner",
          "type": "address"
        }
      ],
      "name": "OwnershipTransferred",
      "type": "event"
    },
    {
      "anonymous": false,
      "inputs": [
        {
          "indexed": false,
          "internalType": "address",
          "name": "account",
          "type": "address"
        }
      ],
      "name": "Paused",
      "type": "event"
    },
    {
      "anonymous": false,
      "inputs": [
        {
          "indexed": true,
          "internalType": "address",
          "name": "from",
          "type": "address"
        },
        {
          "indexed": true,
          "internalType": "address",
          "name": "to",
          "type": "address"
        },
        {
          "indexed": true,
          "internalType": "uint256",
          "name": "tokenId",
          "type": "uint256"
        }
      ],
      "name": "Transfer",
      "type": "event"
    },
    {
      "anonymous": false,
      "inputs": [
        {
          "indexed": false,
          "internalType": "address",
          "name": "account",
          "type": "address"
        }
      ],
      "name": "Unpaused",
      "type": "event"
    },
    {
      "inputs": [
        {
          "internalType": "address",
          "name": "to",
          "type": "address"
        },
        {
          "internalType": "uint256",
          "name": "tokenId",
          "type": "uint256"
        }
      ],
      "name": "approve",
      "outputs": [],
      "stateMutability": "nonpayable",
      "type": "function"
    },
    {
      "inputs": [
        {
          "internalType": "address",
          "name": "owner",
          "type": "address"
        }
      ],
      "name": "balanceOf",
      "outputs": [
        {
          "internalType": "uint256",
          "name": "",
          "type": "uint256"
        }
      ],
      "stateMutability": "view",
      "type": "function"
    },
    {
      "inputs": [
        {
          "internalType": "uint256",
          "name": "tokenId",
          "type": "uint256"
        }
      ],
      "name": "burn",
      "outputs": [],
      "stateMutability": "nonpayable",
      "type": "function"
    },
    {
      "inputs": [
        {
          "internalType": "uint256",
          "name": "tokenId",
          "type": "uint256"
        }
      ],
      "name": "getApproved",
      "outputs": [
        {
          "internalType": "address",
          "name": "",
          "type": "address"
        }
      ],
      "stateMutability": "view",
      "type": "function"
    },
    {
      "inputs": [
        {
          "internalType": "address",
          "name": "owner",
          "type": "address"
        },
        {
          "internalType": "address",
          "name": "operator",
          "type": "address"
        }
      ],
      "name": "isApprovedForAll",
      "outputs": [
        {
          "internalType": "bool",
          "name": "",
          "type": "bool"
        }
      ],
      "stateMutability": "view",
      "type": "function"
    },
    {
      "inputs": [],
      "name": "name",
      "outputs": [
        {
          "internalType": "string",
          "name": "",
          "type": "string"
        }
      ],
      "stateMutability": "view",
      "type": "function"
    },
    {
      "inputs": [
        {
          "internalType": "address",
          "name": "",
          "type": "address"
        },
        {
          "internalType": "address",
          "name": "_from",
          "type": "address"
        },
        {
          "internalType": "uint256",
          "name": "_tokenId",
          "type": "uint256"
        },
        {
          "internalType": "bytes",
          "name": "_data",
          "type": "bytes"
        }
      ],
      "name": "onERC721Received",
      "outputs": [
        {
          "internalType": "bytes4",
          "name": "",
          "type": "bytes4"
        }
      ],
      "stateMutability": "nonpayable",
      "type": "function"
    },
    {
      "inputs": [],
      "name": "owner",
      "outputs": [
        {
          "internalType": "address",
          "name": "",
          "type": "address"
        }
      ],
      "stateMutability": "view",
      "type": "function"
    },
    {
      "inputs": [
        {
          "internalType": "uint256",
          "name": "tokenId",
          "type": "uint256"
        }
      ],
      "name": "ownerOf",
      "outputs": [
        {
          "internalType": "address",
          "name": "",
          "type": "address"
        }
      ],
      "stateMutability": "view",
      "type": "function"
    },
    {
      "inputs": [],
      "name": "pause",
      "outputs": [],
      "stateMutability": "nonpayable",
      "type": "function"
    },
    {
      "inputs": [],
      "name": "paused",
      "outputs": [
        {
          "internalType": "bool",
          "name": "",
          "type": "bool"
        }
      ],
      "stateMutability": "view",
      "type": "function"
    },
    {
      "inputs": [],
      "name": "renounceOwnership",
      "outputs": [],
      "stateMutability": "nonpayable",
      "type": "function"
    },
    {
      "inputs": [
        {
          "internalType": "uint256",
          "name": "_tokenId",
          "type": "uint256"
        },
        {
          "internalType": "uint256",
          "name": "_salePrice",
          "type": "uint256"
        }
      ],
      "name": "royaltyInfo",
      "outputs": [
        {
          "internalType": "address",
          "name": "",
          "type": "address"
        },
        {
          "internalType": "uint256",
          "name": "",
          "type": "uint256"
        }
      ],
      "stateMutability": "view",
      "type": "function"
    },
    {
      "inputs": [
        {
          "internalType": "address",
          "name": "from",
          "type": "address"
        },
        {
          "internalType": "address",
          "name": "to",
          "type": "address"
        },
        {
          "internalType": "uint256",
          "name": "tokenId",
          "type": "uint256"
        }
      ],
      "name": "safeTransferFrom",
      "outputs": [],
      "stateMutability": "nonpayable",
      "type": "function"
    },
    {
      "inputs": [
        {
          "internalType": "address",
          "name": "from",
          "type": "address"
        },
        {
          "internalType": "address",
          "name": "to",
          "type": "address"
        },
        {
          "internalType": "uint256",
          "name": "tokenId",
          "type": "uint256"
        },
        {
          "internalType": "bytes",
          "name": "data",
          "type": "bytes"
        }
      ],
      "name": "safeTransferFrom",
      "outputs": [],
      "stateMutability": "nonpayable",
      "type": "function"
    },
    {
      "inputs": [
        {
          "internalType": "address",
          "name": "operator",
          "type": "address"
        },
        {
          "internalType": "bool",
          "name": "approved",
          "type": "bool"
        }
      ],
      "name": "setApprovalForAll",
      "outputs": [],
      "stateMutability": "nonpayable",
      "type": "function"
    },
    {
      "inputs": [
        {
          "internalType": "bytes4",
          "name": "interfaceId",
          "type": "bytes4"
        }
      ],
      "name": "supportsInterface",
      "outputs": [
        {
          "internalType": "bool",
          "name": "",
          "type": "bool"
        }
      ],
      "stateMutability": "view",
      "type": "function"
    },
    {
      "inputs": [],
      "name": "symbol",
      "outputs": [
        {
          "internalType": "string",
          "name": "",
          "type": "string"
        }
      ],
      "stateMutability": "view",
      "type": "function"
    },
    {
      "inputs": [
        {
          "internalType": "uint256",
          "name": "tokenId",
          "type": "uint256"
        }
      ],
      "name": "tokenURI",
      "outputs": [
        {
          "internalType": "string",
          "name": "",
          "type": "string"
        }
      ],
      "stateMutability": "view",
      "type": "function"
    },
    {
      "inputs": [
        {
          "internalType": "address",
          "name": "from",
          "type": "address"
        },
        {
          "internalType": "address",
          "name": "to",
          "type": "address"
        },
        {
          "internalType": "uint256",
          "name": "tokenId",
          "type": "uint256"
        }
      ],
      "name": "transferFrom",
      "outputs": [],
      "stateMutability": "nonpayable",
      "type": "function"
    },
    {
      "inputs": [
        {
          "internalType": "address",
          "name": "newOwner",
          "type": "address"
        }
      ],
      "name": "transferOwnership",
      "outputs": [],
      "stateMutability": "nonpayable",
      "type": "function"
    },
    {
      "inputs": [],
      "name": "unpause",
      "outputs": [],
      "stateMutability": "nonpayable",
      "type": "function"
    }
  ],
  "bytecode": "0x60806040523480156200001157600080fd5b50604051620045f5380380620045f58339818101604052810190620000379190620002ff565b6040518060400160405280600a81526020017f4d696e6466756c4e4654000000000000000000000000000000000000000000008152506040518060400160405280600781526020017f4d494e4446554c000000000000000000000000000000000000000000000000008152508160009081620000b49190620005c0565b508060019081620000c69190620005c0565b5050506000600760006101000a81548160ff02191690831515021790555062000104620000f86200017e60201b60201c565b6200018660201b60201c565b81600a60006101000a81548173ffffffffffffffffffffffffffffffffffffffff021916908373ffffffffffffffffffffffffffffffffffffffff16021790555080600a60146101000a8154816bffffffffffffffffffffffff02191690836bffffffffffffffffffffffff1602179055505050620006a7565b600033905090565b6000600760019054906101000a900473ffffffffffffffffffffffffffffffffffffffff16905081600760016101000a81548173ffffffffffffffffffffffffffffffffffffffff021916908373ffffffffffffffffffffffffffffffffffffffff1602179055508173ffffffffffffffffffffffffffffffffffffffff168173ffffffffffffffffffffffffffffffffffffffff167f8be0079c531659141344cd1fd0a4f28419497f9722a3daafe3b4186f6b6457e060405160405180910390a35050565b600080fd5b600073ffffffffffffffffffffffffffffffffffffffff82169050919050565b60006200027e8262000251565b9050919050565b620002908162000271565b81146200029c57600080fd5b50565b600081519050620002b08162000285565b92915050565b60006bffffffffffffffffffffffff82169050919050565b620002d981620002b6565b8114620002e557600080fd5b50565b600081519050620002f981620002ce565b92915050565b600080604083850312156200031957620003186200024c565b5b600062000329858286016200029f565b92505060206200033c85828601620002e8565b9150509250929050565b600081519050919050565b7f4e487b7100000000000000000000000000000000000000000000000000000000600052604160045260246000fd5b7f4e487b7100000000000000000000000000000000000000000000000000000000600052602260045260246000fd5b60006002820490506001821680620003c857607f821691505b602082108103620003de57620003dd62000380565b5b50919050565b60008190508160005260206000209050919050565b60006020601f8301049050919050565b600082821b905092915050565b600060088302620004487fffffffffffffffffffffffffffffffffffffffffffffffffffffffffffffffff8262000409565b62000454868362000409565b95508019841693508086168417925050509392505050565b6000819050919050565b6000819050919050565b6000620004a16200049b62000495846200046c565b62000476565b6200046c565b9050919050565b6000819050919050565b620004bd8362000480565b620004d5620004cc82620004a8565b84845462000416565b825550505050565b600090565b620004ec620004dd565b620004f9818484620004b2565b505050565b5b81811015620005215762000515600082620004e2565b600181019050620004ff565b5050565b601f82111562000570576200053a81620003e4565b6200054584620003f9565b8101602085101562000555578190505b6200056d6200056485620003f9565b830182620004fe565b50505b505050565b600082821c905092915050565b6000620005956000198460080262000575565b1980831691505092915050565b6000620005b0838362000582565b9150826002028217905092915050565b620005cb8262000346565b67ffffffffffffffff811115620005e757620005e662000351565b5b620005f38254620003af565b6200060082828562000525565b600060209050601f83116001811462000638576000841562000623578287015190505b6200062f8582620005a2565b8655506200069f565b601f1984166200064886620003e4565b60005b8281101562000672578489015182556001820191506020850194506020810190506200064b565b868310156200069257848901516200068e601f89168262000582565b8355505b6001600288020188555050505b505050505050565b613f3e80620006b76000396000f3fe608060405234801561001057600080fd5b50600436106101425760003560e01c80636352211e116100b857806395d89b411161007c57806395d89b4114610350578063a22cb4651461036e578063b88d4fde1461038a578063c87b56dd146103a6578063e985e9c5146103d6578063f2fde38b1461040657610142565b80636352211e146102be57806370a08231146102ee578063715018a61461031e5780638456cb59146103285780638da5cb5b1461033257610142565b806323b872dd1161010a57806323b872dd146102115780632a55205a1461022d5780633f4ba83a1461025e57806342842e0e1461026857806342966c68146102845780635c975abb146102a057610142565b806301ffc9a71461014757806306fdde0314610177578063081812fc14610195578063095ea7b3146101c5578063150b7a02146101e1575b600080fd5b610161600480360381019061015c919061283a565b610422565b60405161016e9190612882565b60405180910390f35b61017f610434565b60405161018c919061292d565b60405180910390f35b6101af60048036038101906101aa9190612985565b6104c6565b6040516101bc91906129f3565b60405180910390f35b6101df60048036038101906101da9190612a3a565b61050c565b005b6101fb60048036038101906101f69190612adf565b610623565b6040516102089190612b76565b60405180910390f35b61022b60048036038101906102269190612b91565b610896565b005b61024760048036038101906102429190612be4565b6108f6565b604051610255929190612c33565b60405180910390f35b610266610ae0565b005b610282600480360381019061027d9190612b91565b610af2565b005b61029e60048036038101906102999190612985565b610b12565b005b6102a8610b6e565b6040516102b59190612882565b60405180910390f35b6102d860048036038101906102d39190612985565b610b85565b6040516102e591906129f3565b60405180910390f35b61030860048036038101906103039190612c5c565b610c0b565b6040516103159190612c89565b60405180910390f35b610326610cc2565b005b610330610cd6565b005b61033a610ce8565b60405161034791906129f3565b60405180910390f35b610358610d12565b604051610365919061292d565b60405180910390f35b61038860048036038101906103839190612cd0565b610da4565b005b6103a4600480360381019061039f9190612e40565b610dba565b005b6103c060048036038101906103bb9190612985565b610e1c565b6040516103cd919061292d565b60405180910390f35b6103f060048036038101906103eb9190612ec3565b610e2e565b6040516103fd9190612882565b60405180910390f35b610420600480360381019061041b9190612c5c565b610ec2565b005b600061042d82610f45565b9050919050565b60606000805461044390612f32565b80601f016020809104026020016040519081016040528092919081815260200182805461046f90612f32565b80156104bc5780601f10610491576101008083540402835291602001916104bc565b820191906000526020600020905b81548152906001019060200180831161049f57829003601f168201915b5050505050905090565b60006104d182610fbf565b6004600083815260200190815260200160002060009054906101000a900473ffffffffffffffffffffffffffffffffffffffff169050919050565b600061051782610b85565b90508073ffffffffffffffffffffffffffffffffffffffff168373ffffffffffffffffffffffffffffffffffffffff1603610587576040517f08c379a000000000000000000000000000000000000000000000000000000000815260040161057e90612fd5565b60405180910390fd5b8073ffffffffffffffffffffffffffffffffffffffff166105a661100a565b73ffffffffffffffffffffffffffffffffffffffff1614806105d557506105d4816105cf61100a565b610e2e565b5b610614576040517f08c379a000000000000000000000000000000000000000000000000000000000815260040161060b90613067565b60405180910390fd5b61061e8383611012565b505050565b60008060009050600084848080601f016020809104026020016040519081016040528093929190818152602001838380828437600081840152601f19601f820116905080830192505050505050509050600a60009054906101000a900473ffffffffffffffffffffffffffffffffffffffff1673ffffffffffffffffffffffffffffffffffffffff163373ffffffffffffffffffffffffffffffffffffffff1614610703576040517f08c379a00000000000000000000000000000000000000000000000000000000081526004016106fa906130d3565b60405180910390fd5b6000600a60009054906101000a900473ffffffffffffffffffffffffffffffffffffffff1690508073ffffffffffffffffffffffffffffffffffffffff166342966c68886040518263ffffffff1660e01b81526004016107639190612c89565b600060405180830381600087803b15801561077d57600080fd5b505af192505050801561078e575060015b6108025761079a613100565b806308c379a0036107c357506107ae613122565b806107b957506107c5565b60009350506107fd565b505b3d80600081146107f1576040519150601f19603f3d011682016040523d82523d6000602084013e6107f6565b606091505b5060009350505b610807565b600192505b82610847576040517f08c379a000000000000000000000000000000000000000000000000000000000815260040161083e906131fe565b60405180910390fd5b61085188886110cb565b6108768789600a60149054906101000a90046bffffffffffffffffffffffff166110e9565b6108808783611290565b63150b7a0260e01b935050505095945050505050565b6108a76108a161100a565b826112fd565b6108e6576040517f08c379a00000000000000000000000000000000000000000000000000000000081526004016108dd90613290565b60405180910390fd5b6108f1838383611392565b505050565b6000806000600960008681526020019081526020016000206040518060400160405290816000820160009054906101000a900473ffffffffffffffffffffffffffffffffffffffff1673ffffffffffffffffffffffffffffffffffffffff1673ffffffffffffffffffffffffffffffffffffffff1681526020016000820160149054906101000a90046bffffffffffffffffffffffff166bffffffffffffffffffffffff166bffffffffffffffffffffffff16815250509050600073ffffffffffffffffffffffffffffffffffffffff16816000015173ffffffffffffffffffffffffffffffffffffffff1603610a8b5760086040518060400160405290816000820160009054906101000a900473ffffffffffffffffffffffffffffffffffffffff1673ffffffffffffffffffffffffffffffffffffffff1673ffffffffffffffffffffffffffffffffffffffff1681526020016000820160149054906101000a90046bffffffffffffffffffffffff166bffffffffffffffffffffffff166bffffffffffffffffffffffff168152505090505b6000610a9561168b565b6bffffffffffffffffffffffff1682602001516bffffffffffffffffffffffff1686610ac191906132df565b610acb9190613350565b90508160000151819350935050509250929050565b610ae8611695565b610af0611713565b565b610b0d83838360405180602001604052806000815250610dba565b505050565b610b23610b1d61100a565b826112fd565b610b62576040517f08c379a0000000000000000000000000000000000000000000000000000000008152600401610b5990613290565b60405180910390fd5b610b6b81611776565b50565b6000600760009054906101000a900460ff16905090565b600080610b9183611782565b9050600073ffffffffffffffffffffffffffffffffffffffff168173ffffffffffffffffffffffffffffffffffffffff1603610c02576040517f08c379a0000000000000000000000000000000000000000000000000000000008152600401610bf9906133cd565b60405180910390fd5b80915050919050565b60008073ffffffffffffffffffffffffffffffffffffffff168273ffffffffffffffffffffffffffffffffffffffff1603610c7b576040517f08c379a0000000000000000000000000000000000000000000000000000000008152600401610c729061345f565b60405180910390fd5b600360008373ffffffffffffffffffffffffffffffffffffffff1673ffffffffffffffffffffffffffffffffffffffff168152602001908152602001600020549050919050565b610cca611695565b610cd460006117bf565b565b610cde611695565b610ce6611885565b565b6000600760019054906101000a900473ffffffffffffffffffffffffffffffffffffffff16905090565b606060018054610d2190612f32565b80601f0160208091040260200160405190810160405280929190818152602001828054610d4d90612f32565b8015610d9a5780601f10610d6f57610100808354040283529160200191610d9a565b820191906000526020600020905b815481529060010190602001808311610d7d57829003601f168201915b5050505050905090565b610db6610daf61100a565b83836118e8565b5050565b610dcb610dc561100a565b836112fd565b610e0a576040517f08c379a0000000000000000000000000000000000000000000000000000000008152600401610e0190613290565b60405180910390fd5b610e1684848484611a54565b50505050565b6060610e2782611ab0565b9050919050565b6000600560008473ffffffffffffffffffffffffffffffffffffffff1673ffffffffffffffffffffffffffffffffffffffff16815260200190815260200160002060008373ffffffffffffffffffffffffffffffffffffffff1673ffffffffffffffffffffffffffffffffffffffff16815260200190815260200160002060009054906101000a900460ff16905092915050565b610eca611695565b600073ffffffffffffffffffffffffffffffffffffffff168173ffffffffffffffffffffffffffffffffffffffff1603610f39576040517f08c379a0000000000000000000000000000000000000000000000000000000008152600401610f30906134f1565b60405180910390fd5b610f42816117bf565b50565b60007f2a55205a000000000000000000000000000000000000000000000000000000007bffffffffffffffffffffffffffffffffffffffffffffffffffffffff1916827bffffffffffffffffffffffffffffffffffffffffffffffffffffffff19161480610fb85750610fb782611bc2565b5b9050919050565b610fc881611ca4565b611007576040517f08c379a0000000000000000000000000000000000000000000000000000000008152600401610ffe906133cd565b60405180910390fd5b50565b600033905090565b816004600083815260200190815260200160002060006101000a81548173ffffffffffffffffffffffffffffffffffffffff021916908373ffffffffffffffffffffffffffffffffffffffff160217905550808273ffffffffffffffffffffffffffffffffffffffff1661108583610b85565b73ffffffffffffffffffffffffffffffffffffffff167f8c5be1e5ebec7d5bd14f71427d1e84f3dd0314c0f7b2291e5b200ac8c7c3b92560405160405180910390a45050565b6110e5828260405180602001604052806000815250611ce5565b5050565b6110f161168b565b6bffffffffffffffffffffffff16816bffffffffffffffffffffffff16111561114f576040517f08c379a000000000000000000000000000000000000000000000000000000000815260040161114690613583565b60405180910390fd5b600073ffffffffffffffffffffffffffffffffffffffff168273ffffffffffffffffffffffffffffffffffffffff16036111be576040517f08c379a00000000000000000000000000000000000000000000000000000000081526004016111b5906135ef565b60405180910390fd5b60405180604001604052808373ffffffffffffffffffffffffffffffffffffffff168152602001826bffffffffffffffffffffffff168152506009600085815260200190815260200160002060008201518160000160006101000a81548173ffffffffffffffffffffffffffffffffffffffff021916908373ffffffffffffffffffffffffffffffffffffffff16021790555060208201518160000160146101000a8154816bffffffffffffffffffffffff02191690836bffffffffffffffffffffffff160217905550905050505050565b61129982611ca4565b6112d8576040517f08c379a00000000000000000000000000000000000000000000000000000000081526004016112cf90613681565b60405180910390fd5b806006600084815260200190815260200160002090816112f8919061384d565b505050565b60008061130983610b85565b90508073ffffffffffffffffffffffffffffffffffffffff168473ffffffffffffffffffffffffffffffffffffffff16148061134b575061134a8185610e2e565b5b8061138957508373ffffffffffffffffffffffffffffffffffffffff16611371846104c6565b73ffffffffffffffffffffffffffffffffffffffff16145b91505092915050565b8273ffffffffffffffffffffffffffffffffffffffff166113b282610b85565b73ffffffffffffffffffffffffffffffffffffffff1614611408576040517f08c379a00000000000000000000000000000000000000000000000000000000081526004016113ff90613991565b60405180910390fd5b600073ffffffffffffffffffffffffffffffffffffffff168273ffffffffffffffffffffffffffffffffffffffff1603611477576040517f08c379a000000000000000000000000000000000000000000000000000000000815260040161146e90613a23565b60405180910390fd5b6114848383836001611d40565b8273ffffffffffffffffffffffffffffffffffffffff166114a482610b85565b73ffffffffffffffffffffffffffffffffffffffff16146114fa576040517f08c379a00000000000000000000000000000000000000000000000000000000081526004016114f190613991565b60405180910390fd5b6004600082815260200190815260200160002060006101000a81549073ffffffffffffffffffffffffffffffffffffffff02191690556001600360008573ffffffffffffffffffffffffffffffffffffffff1673ffffffffffffffffffffffffffffffffffffffff168152602001908152602001600020600082825403925050819055506001600360008473ffffffffffffffffffffffffffffffffffffffff1673ffffffffffffffffffffffffffffffffffffffff16815260200190815260200160002060008282540192505081905550816002600083815260200190815260200160002060006101000a81548173ffffffffffffffffffffffffffffffffffffffff021916908373ffffffffffffffffffffffffffffffffffffffff160217905550808273ffffffffffffffffffffffffffffffffffffffff168473ffffffffffffffffffffffffffffffffffffffff167fddf252ad1be2c89b69c2b068fc378daa952ba7f163c4a11628f55a4df523b3ef60405160405180910390a46116868383836001611e66565b505050565b6000612710905090565b61169d61100a565b73ffffffffffffffffffffffffffffffffffffffff166116bb610ce8565b73ffffffffffffffffffffffffffffffffffffffff1614611711576040517f08c379a000000000000000000000000000000000000000000000000000000000815260040161170890613a8f565b60405180910390fd5b565b61171b611e6c565b6000600760006101000a81548160ff0219169083151502179055507f5db9ee0a495bf2e6ff9c91a7834c1ba4fdd244a5e8aa4e537bd38aeae4b073aa61175f61100a565b60405161176c91906129f3565b60405180910390a1565b61177f81611eb5565b50565b60006002600083815260200190815260200160002060009054906101000a900473ffffffffffffffffffffffffffffffffffffffff169050919050565b6000600760019054906101000a900473ffffffffffffffffffffffffffffffffffffffff16905081600760016101000a81548173ffffffffffffffffffffffffffffffffffffffff021916908373ffffffffffffffffffffffffffffffffffffffff1602179055508173ffffffffffffffffffffffffffffffffffffffff168173ffffffffffffffffffffffffffffffffffffffff167f8be0079c531659141344cd1fd0a4f28419497f9722a3daafe3b4186f6b6457e060405160405180910390a35050565b61188d611f08565b6001600760006101000a81548160ff0219169083151502179055507f62e78cea01bee320cd4e420270b5ea74000d11b0c9f74754ebdbfc544b05a2586118d161100a565b6040516118de91906129f3565b60405180910390a1565b8173ffffffffffffffffffffffffffffffffffffffff168373ffffffffffffffffffffffffffffffffffffffff1603611956576040517f08c379a000000000000000000000000000000000000000000000000000000000815260040161194d90613afb565b60405180910390fd5b80600560008573ffffffffffffffffffffffffffffffffffffffff1673ffffffffffffffffffffffffffffffffffffffff16815260200190815260200160002060008473ffffffffffffffffffffffffffffffffffffffff1673ffffffffffffffffffffffffffffffffffffffff16815260200190815260200160002060006101000a81548160ff0219169083151502179055508173ffffffffffffffffffffffffffffffffffffffff168373ffffffffffffffffffffffffffffffffffffffff167f17307eab39ab6107e8899845ad3d59bd9653f200f220920489ca2b5937696c3183604051611a479190612882565b60405180910390a3505050565b611a5f848484611392565b611a6b84848484611f52565b611aaa576040517f08c379a0000000000000000000000000000000000000000000000000000000008152600401611aa190613b8d565b60405180910390fd5b50505050565b6060611abb82610fbf565b6000600660008481526020019081526020016000208054611adb90612f32565b80601f0160208091040260200160405190810160405280929190818152602001828054611b0790612f32565b8015611b545780601f10611b2957610100808354040283529160200191611b54565b820191906000526020600020905b815481529060010190602001808311611b3757829003601f168201915b505050505090506000611b656120d9565b90506000815103611b7a578192505050611bbd565b600082511115611baf578082604051602001611b97929190613be9565b60405160208183030381529060405292505050611bbd565b611bb8846120f0565b925050505b919050565b60007f80ac58cd000000000000000000000000000000000000000000000000000000007bffffffffffffffffffffffffffffffffffffffffffffffffffffffff1916827bffffffffffffffffffffffffffffffffffffffffffffffffffffffff19161480611c8d57507f5b5e139f000000000000000000000000000000000000000000000000000000007bffffffffffffffffffffffffffffffffffffffffffffffffffffffff1916827bffffffffffffffffffffffffffffffffffffffffffffffffffffffff1916145b80611c9d5750611c9c82612158565b5b9050919050565b60008073ffffffffffffffffffffffffffffffffffffffff16611cc683611782565b73ffffffffffffffffffffffffffffffffffffffff1614159050919050565b611cef83836121c2565b611cfc6000848484611f52565b611d3b576040517f08c379a0000000000000000000000000000000000000000000000000000000008152600401611d3290613b8d565b60405180910390fd5b505050565b6001811115611e6057600073ffffffffffffffffffffffffffffffffffffffff168473ffffffffffffffffffffffffffffffffffffffff1614611dd45780600360008673ffffffffffffffffffffffffffffffffffffffff1673ffffffffffffffffffffffffffffffffffffffff1681526020019081526020016000206000828254611dcc9190613c0d565b925050819055505b600073ffffffffffffffffffffffffffffffffffffffff168373ffffffffffffffffffffffffffffffffffffffff1614611e5f5780600360008573ffffffffffffffffffffffffffffffffffffffff1673ffffffffffffffffffffffffffffffffffffffff1681526020019081526020016000206000828254611e579190613c41565b925050819055505b5b50505050565b50505050565b611e74610b6e565b611eb3576040517f08c379a0000000000000000000000000000000000000000000000000000000008152600401611eaa90613cc1565b60405180910390fd5b565b611ebe816123df565b6000600660008381526020019081526020016000208054611ede90612f32565b905014611f0557600660008281526020019081526020016000206000611f049190612771565b5b50565b611f10610b6e565b15611f50576040517f08c379a0000000000000000000000000000000000000000000000000000000008152600401611f4790613d2d565b60405180910390fd5b565b6000611f738473ffffffffffffffffffffffffffffffffffffffff1661252d565b156120cc578373ffffffffffffffffffffffffffffffffffffffff1663150b7a02611f9c61100a565b8786866040518563ffffffff1660e01b8152600401611fbe9493929190613da2565b6020604051808303816000875af1925050508015611ffa57506040513d601f19601f82011682018060405250810190611ff79190613e03565b60015b61207c573d806000811461202a576040519150601f19603f3d011682016040523d82523d6000602084013e61202f565b606091505b506000815103612074576040517f08c379a000000000000000000000000000000000000000000000000000000000815260040161206b90613b8d565b60405180910390fd5b805181602001fd5b63150b7a0260e01b7bffffffffffffffffffffffffffffffffffffffffffffffffffffffff1916817bffffffffffffffffffffffffffffffffffffffffffffffffffffffff1916149150506120d1565b600190505b949350505050565b606060405180602001604052806000815250905090565b60606120fb82610fbf565b60006121056120d9565b905060008151116121255760405180602001604052806000815250612150565b8061212f84612550565b604051602001612140929190613be9565b6040516020818303038152906040525b915050919050565b60007f01ffc9a7000000000000000000000000000000000000000000000000000000007bffffffffffffffffffffffffffffffffffffffffffffffffffffffff1916827bffffffffffffffffffffffffffffffffffffffffffffffffffffffff1916149050919050565b600073ffffffffffffffffffffffffffffffffffffffff168273ffffffffffffffffffffffffffffffffffffffff1603612231576040517f08c379a000000000000000000000000000000000000000000000000000000000815260040161222890613e7c565b60405180910390fd5b61223a81611ca4565b1561227a576040517f08c379a000000000000000000000000000000000000000000000000000000000815260040161227190613ee8565b60405180910390fd5b612288600083836001611d40565b61229181611ca4565b156122d1576040517f08c379a00000000000000000000000000000000000000000000000000000000081526004016122c890613ee8565b60405180910390fd5b6001600360008473ffffffffffffffffffffffffffffffffffffffff1673ffffffffffffffffffffffffffffffffffffffff16815260200190815260200160002060008282540192505081905550816002600083815260200190815260200160002060006101000a81548173ffffffffffffffffffffffffffffffffffffffff021916908373ffffffffffffffffffffffffffffffffffffffff160217905550808273ffffffffffffffffffffffffffffffffffffffff16600073ffffffffffffffffffffffffffffffffffffffff167fddf252ad1be2c89b69c2b068fc378daa952ba7f163c4a11628f55a4df523b3ef60405160405180910390a46123db600083836001611e66565b5050565b60006123ea82610b85565b90506123fa816000846001611d40565b61240382610b85565b90506004600083815260200190815260200160002060006101000a81549073ffffffffffffffffffffffffffffffffffffffff02191690556001600360008373ffffffffffffffffffffffffffffffffffffffff1673ffffffffffffffffffffffffffffffffffffffff168152602001908152602001600020600082825403925050819055506002600083815260200190815260200160002060006101000a81549073ffffffffffffffffffffffffffffffffffffffff021916905581600073ffffffffffffffffffffffffffffffffffffffff168273ffffffffffffffffffffffffffffffffffffffff167fddf252ad1be2c89b69c2b068fc378daa952ba7f163c4a11628f55a4df523b3ef60405160405180910390a4612529816000846001611e66565b5050565b6000808273ffffffffffffffffffffffffffffffffffffffff163b119050919050565b60606000600161255f8461261e565b01905060008167ffffffffffffffff81111561257e5761257d612d15565b5b6040519080825280601f01601f1916602001820160405280156125b05781602001600182028036833780820191505090505b509050600082602001820190505b600115612613578080600190039150507f3031323334353637383961626364656600000000000000000000000000000000600a86061a8153600a858161260757612606613321565b5b049450600085036125be575b819350505050919050565b600080600090507a184f03e93ff9f4daa797ed6e38ed64bf6a1f010000000000000000831061267c577a184f03e93ff9f4daa797ed6e38ed64bf6a1f010000000000000000838161267257612671613321565b5b0492506040810190505b6d04ee2d6d415b85acef810000000083106126b9576d04ee2d6d415b85acef810000000083816126af576126ae613321565b5b0492506020810190505b662386f26fc1000083106126e857662386f26fc1000083816126de576126dd613321565b5b0492506010810190505b6305f5e1008310612711576305f5e100838161270757612706613321565b5b0492506008810190505b612710831061273657612710838161272c5761272b613321565b5b0492506004810190505b60648310612759576064838161274f5761274e613321565b5b0492506002810190505b600a8310612768576001810190505b80915050919050565b50805461277d90612f32565b6000825580601f1061278f57506127ae565b601f0160209004906000526020600020908101906127ad91906127b1565b5b50565b5b808211156127ca5760008160009055506001016127b2565b5090565b6000604051905090565b600080fd5b600080fd5b60007fffffffff0000000000000000000000000000000000000000000000000000000082169050919050565b612817816127e2565b811461282257600080fd5b50565b6000813590506128348161280e565b92915050565b6000602082840312156128505761284f6127d8565b5b600061285e84828501612825565b91505092915050565b60008115159050919050565b61287c81612867565b82525050565b60006020820190506128976000830184612873565b92915050565b600081519050919050565b600082825260208201905092915050565b60005b838110156128d75780820151818401526020810190506128bc565b60008484015250505050565b6000601f19601f8301169050919050565b60006128ff8261289d565b61290981856128a8565b93506129198185602086016128b9565b612922816128e3565b840191505092915050565b6000602082019050818103600083015261294781846128f4565b905092915050565b6000819050919050565b6129628161294f565b811461296d57600080fd5b50565b60008135905061297f81612959565b92915050565b60006020828403121561299b5761299a6127d8565b5b60006129a984828501612970565b91505092915050565b600073ffffffffffffffffffffffffffffffffffffffff82169050919050565b60006129dd826129b2565b9050919050565b6129ed816129d2565b82525050565b6000602082019050612a0860008301846129e4565b92915050565b612a17816129d2565b8114612a2257600080fd5b50565b600081359050612a3481612a0e565b92915050565b60008060408385031215612a5157612a506127d8565b5b6000612a5f85828601612a25565b9250506020612a7085828601612970565b9150509250929050565b600080fd5b600080fd5b600080fd5b60008083601f840112612a9f57612a9e612a7a565b5b8235905067ffffffffffffffff811115612abc57612abb612a7f565b5b602083019150836001820283011115612ad857612ad7612a84565b5b9250929050565b600080600080600060808688031215612afb57612afa6127d8565b5b6000612b0988828901612a25565b9550506020612b1a88828901612a25565b9450506040612b2b88828901612970565b935050606086013567ffffffffffffffff811115612b4c57612b4b6127dd565b5b612b5888828901612a89565b92509250509295509295909350565b612b70816127e2565b82525050565b6000602082019050612b8b6000830184612b67565b92915050565b600080600060608486031215612baa57612ba96127d8565b5b6000612bb886828701612a25565b9350506020612bc986828701612a25565b9250506040612bda86828701612970565b9150509250925092565b60008060408385031215612bfb57612bfa6127d8565b5b6000612c0985828601612970565b9250506020612c1a85828601612970565b9150509250929050565b612c2d8161294f565b82525050565b6000604082019050612c4860008301856129e4565b612c556020830184612c24565b9392505050565b600060208284031215612c7257612c716127d8565b5b6000612c8084828501612a25565b91505092915050565b6000602082019050612c9e6000830184612c24565b92915050565b612cad81612867565b8114612cb857600080fd5b50565b600081359050612cca81612ca4565b92915050565b60008060408385031215612ce757612ce66127d8565b5b6000612cf585828601612a25565b9250506020612d0685828601612cbb565b9150509250929050565b600080fd5b7f4e487b7100000000000000000000000000000000000000000000000000000000600052604160045260246000fd5b612d4d826128e3565b810181811067ffffffffffffffff82111715612d6c57612d6b612d15565b5b80604052505050565b6000612d7f6127ce565b9050612d8b8282612d44565b919050565b600067ffffffffffffffff821115612dab57612daa612d15565b5b612db4826128e3565b9050602081019050919050565b82818337600083830152505050565b6000612de3612dde84612d90565b612d75565b905082815260208101848484011115612dff57612dfe612d10565b5b612e0a848285612dc1565b509392505050565b600082601f830112612e2757612e26612a7a565b5b8135612e37848260208601612dd0565b91505092915050565b60008060008060808587031215612e5a57612e596127d8565b5b6000612e6887828801612a25565b9450506020612e7987828801612a25565b9350506040612e8a87828801612970565b925050606085013567ffffffffffffffff811115612eab57612eaa6127dd565b5b612eb787828801612e12565b91505092959194509250565b60008060408385031215612eda57612ed96127d8565b5b6000612ee885828601612a25565b9250506020612ef985828601612a25565b9150509250929050565b7f4e487b7100000000000000000000000000000000000000000000000000000000600052602260045260246000fd5b60006002820490506001821680612f4a57607f821691505b602082108103612f5d57612f5c612f03565b5b50919050565b7f4552433732313a20617070726f76616c20746f2063757272656e74206f776e6560008201527f7200000000000000000000000000000000000000000000000000000000000000602082015250565b6000612fbf6021836128a8565b9150612fca82612f63565b604082019050919050565b60006020820190508181036000830152612fee81612fb2565b9050919050565b7f4552433732313a20617070726f76652063616c6c6572206973206e6f7420746f60008201527f6b656e206f776e6572206f7220617070726f76656420666f7220616c6c000000602082015250565b6000613051603d836128a8565b915061305c82612ff5565b604082019050919050565b6000602082019050818103600083015261308081613044565b9050919050565b7f43616e2072656365697665206f6e6c792066726f6d204d696e74506173730000600082015250565b60006130bd601e836128a8565b91506130c882613087565b602082019050919050565b600060208201905081810360008301526130ec816130b0565b9050919050565b60008160e01c9050919050565b600060033d111561311f5760046000803e61311c6000516130f3565b90505b90565b600060443d106131af576131346127ce565b60043d036004823e80513d602482011167ffffffffffffffff8211171561315c5750506131af565b808201805167ffffffffffffffff81111561317a57505050506131af565b80602083010160043d0385018111156131975750505050506131af565b6131a682602001850186612d44565b82955050505050505b90565b7f4d696e7450617373206e6f74206275726e656400000000000000000000000000600082015250565b60006131e86013836128a8565b91506131f3826131b2565b602082019050919050565b60006020820190508181036000830152613217816131db565b9050919050565b7f4552433732313a2063616c6c6572206973206e6f7420746f6b656e206f776e6560008201527f72206f7220617070726f76656400000000000000000000000000000000000000602082015250565b600061327a602d836128a8565b91506132858261321e565b604082019050919050565b600060208201905081810360008301526132a98161326d565b9050919050565b7f4e487b7100000000000000000000000000000000000000000000000000000000600052601160045260246000fd5b60006132ea8261294f565b91506132f58361294f565b92508282026133038161294f565b9150828204841483151761331a576133196132b0565b5b5092915050565b7f4e487b7100000000000000000000000000000000000000000000000000000000600052601260045260246000fd5b600061335b8261294f565b91506133668361294f565b92508261337657613375613321565b5b828204905092915050565b7f4552433732313a20696e76616c696420746f6b656e2049440000000000000000600082015250565b60006133b76018836128a8565b91506133c282613381565b602082019050919050565b600060208201905081810360008301526133e6816133aa565b9050919050565b7f4552433732313a2061646472657373207a65726f206973206e6f74206120766160008201527f6c6964206f776e65720000000000000000000000000000000000000000000000602082015250565b60006134496029836128a8565b9150613454826133ed565b604082019050919050565b600060208201905081810360008301526134788161343c565b9050919050565b7f4f776e61626c653a206e6577206f776e657220697320746865207a65726f206160008201527f6464726573730000000000000000000000000000000000000000000000000000602082015250565b60006134db6026836128a8565b91506134e68261347f565b604082019050919050565b6000602082019050818103600083015261350a816134ce565b9050919050565b7f455243323938313a20726f79616c7479206665652077696c6c2065786365656460008201527f2073616c65507269636500000000000000000000000000000000000000000000602082015250565b600061356d602a836128a8565b915061357882613511565b604082019050919050565b6000602082019050818103600083015261359c81613560565b9050919050565b7f455243323938313a20496e76616c696420706172616d65746572730000000000600082015250565b60006135d9601b836128a8565b91506135e4826135a3565b602082019050919050565b60006020820190508181036000830152613608816135cc565b9050919050565b7f45524337323155524953746f726167653a2055524920736574206f66206e6f6e60008201527f6578697374656e7420746f6b656e000000000000000000000000000000000000602082015250565b600061366b602e836128a8565b91506136768261360f565b604082019050919050565b6000602082019050818103600083015261369a8161365e565b9050919050565b60008190508160005260206000209050919050565b60006020601f8301049050919050565b600082821b905092915050565b6000600883026137037fffffffffffffffffffffffffffffffffffffffffffffffffffffffffffffffff826136c6565b61370d86836136c6565b95508019841693508086168417925050509392505050565b6000819050919050565b600061374a6137456137408461294f565b613725565b61294f565b9050919050565b6000819050919050565b6137648361372f565b61377861377082613751565b8484546136d3565b825550505050565b600090565b61378d613780565b61379881848461375b565b505050565b5b818110156137bc576137b1600082613785565b60018101905061379e565b5050565b601f821115613801576137d2816136a1565b6137db846136b6565b810160208510156137ea578190505b6137fe6137f6856136b6565b83018261379d565b50505b505050565b600082821c905092915050565b600061382460001984600802613806565b1980831691505092915050565b600061383d8383613813565b9150826002028217905092915050565b6138568261289d565b67ffffffffffffffff81111561386f5761386e612d15565b5b6138798254612f32565b6138848282856137c0565b600060209050601f8311600181146138b757600084156138a5578287015190505b6138af8582613831565b865550613917565b601f1984166138c5866136a1565b60005b828110156138ed578489015182556001820191506020850194506020810190506138c8565b8683101561390a5784890151613906601f891682613813565b8355505b6001600288020188555050505b505050505050565b7f4552433732313a207472616e736665722066726f6d20696e636f72726563742060008201527f6f776e6572000000000000000000000000000000000000000000000000000000602082015250565b600061397b6025836128a8565b91506139868261391f565b604082019050919050565b600060208201905081810360008301526139aa8161396e565b9050919050565b7f4552433732313a207472616e7366657220746f20746865207a65726f2061646460008201527f7265737300000000000000000000000000000000000000000000000000000000602082015250565b6000613a0d6024836128a8565b9150613a18826139b1565b604082019050919050565b60006020820190508181036000830152613a3c81613a00565b9050919050565b7f4f776e61626c653a2063616c6c6572206973206e6f7420746865206f776e6572600082015250565b6000613a796020836128a8565b9150613a8482613a43565b602082019050919050565b60006020820190508181036000830152613aa881613a6c565b9050919050565b7f4552433732313a20617070726f766520746f2063616c6c657200000000000000600082015250565b6000613ae56019836128a8565b9150613af082613aaf565b602082019050919050565b60006020820190508181036000830152613b1481613ad8565b9050919050565b7f4552433732313a207472616e7366657220746f206e6f6e20455243373231526560008201527f63656976657220696d706c656d656e7465720000000000000000000000000000602082015250565b6000613b776032836128a8565b9150613b8282613b1b565b604082019050919050565b60006020820190508181036000830152613ba681613b6a565b9050919050565b600081905092915050565b6000613bc38261289d565b613bcd8185613bad565b9350613bdd8185602086016128b9565b80840191505092915050565b6000613bf58285613bb8565b9150613c018284613bb8565b91508190509392505050565b6000613c188261294f565b9150613c238361294f565b9250828203905081811115613c3b57613c3a6132b0565b5b92915050565b6000613c4c8261294f565b9150613c578361294f565b9250828201905080821115613c6f57613c6e6132b0565b5b92915050565b7f5061757361626c653a206e6f7420706175736564000000000000000000000000600082015250565b6000613cab6014836128a8565b9150613cb682613c75565b602082019050919050565b60006020820190508181036000830152613cda81613c9e565b9050919050565b7f5061757361626c653a2070617573656400000000000000000000000000000000600082015250565b6000613d176010836128a8565b9150613d2282613ce1565b602082019050919050565b60006020820190508181036000830152613d4681613d0a565b9050919050565b600081519050919050565b600082825260208201905092915050565b6000613d7482613d4d565b613d7e8185613d58565b9350613d8e8185602086016128b9565b613d97816128e3565b840191505092915050565b6000608082019050613db760008301876129e4565b613dc460208301866129e4565b613dd16040830185612c24565b8181036060830152613de38184613d69565b905095945050505050565b600081519050613dfd8161280e565b92915050565b600060208284031215613e1957613e186127d8565b5b6000613e2784828501613dee565b91505092915050565b7f4552433732313a206d696e7420746f20746865207a65726f2061646472657373600082015250565b6000613e666020836128a8565b9150613e7182613e30565b602082019050919050565b60006020820190508181036000830152613e9581613e59565b9050919050565b7f4552433732313a20746f6b656e20616c7265616479206d696e74656400000000600082015250565b6000613ed2601c836128a8565b9150613edd82613e9c565b602082019050919050565b60006020820190508181036000830152613f0181613ec5565b905091905056fea2646970667358221220266744b0c370adc3d0a5fba6e529a6dfdca4fd2e63542ccd595728c02af2920b64736f6c63430008110033",
  "linkReferences": {},
  "deployedLinkReferences": {}
}