{
  "_format": "hh-sol-artifact-1",
  "contractName": "MintPassNFT",
  "sourceName": "contracts/MintPass.sol",
  "abi": [
    {
      "inputs": [
        {
          "internalType": "address",
          "name": "_systemAddress",
          "type": "address"
        },
        {
          "internalType": "address",
          "name": "_mintingFeeRecipient1",
          "type": "address"
        },
        {
          "internalType": "address",
          "name": "_mintingFeeRecipient2",
          "type": "address"
        },
        {
          "internalType": "address",
          "name": "_mintingFeeRecipient3",
          "type": "address"
        },
        {
          "internalType": "uint256",
          "name": "_mintingFee",
          "type": "uint256"
        },
        {
          "internalType": "uint96",
          "name": "_loyaltyFee",
          "type": "uint96"
        }
      ],
      "stateMutability": "nonpayable",
      "type": "constructor"
    },
    {
      "anonymous": false,
      "inputs": [
        {
          "indexed": true,
          "internalType": "address",
          "name": "owner",
          "type": "address"
        },
        {
          "indexed": true,
          "internalType": "address",
          "name": "approved",
          "type": "address"
        },
        {
          "indexed": true,
          "internalType": "uint256",
          "name": "tokenId",
          "type": "uint256"
        }
      ],
      "name": "Approval",
      "type": "event"
    },
    {
      "anonymous": false,
      "inputs": [
        {
          "indexed": true,
          "internalType": "address",
          "name": "owner",
          "type": "address"
        },
        {
          "indexed": true,
          "internalType": "address",
          "name": "operator",
          "type": "address"
        },
        {
          "indexed": false,
          "internalType": "bool",
          "name": "approved",
          "type": "bool"
        }
      ],
      "name": "ApprovalForAll",
      "type": "event"
    },
    {
      "anonymous": false,
      "inputs": [
        {
          "indexed": true,
          "internalType": "address",
          "name": "previousOwner",
          "type": "address"
        },
        {
          "indexed": true,
          "internalType": "address",
          "name": "newOwner",
          "type": "address"
        }
      ],
      "name": "OwnershipTransferred",
      "type": "event"
    },
    {
      "anonymous": false,
      "inputs": [
        {
          "indexed": false,
          "internalType": "address",
          "name": "account",
          "type": "address"
        }
      ],
      "name": "Paused",
      "type": "event"
    },
    {
      "anonymous": false,
      "inputs": [
        {
          "indexed": true,
          "internalType": "address",
          "name": "from",
          "type": "address"
        },
        {
          "indexed": true,
          "internalType": "address",
          "name": "to",
          "type": "address"
        },
        {
          "indexed": true,
          "internalType": "uint256",
          "name": "tokenId",
          "type": "uint256"
        }
      ],
      "name": "Transfer",
      "type": "event"
    },
    {
      "anonymous": false,
      "inputs": [
        {
          "indexed": false,
          "internalType": "address",
          "name": "account",
          "type": "address"
        }
      ],
      "name": "Unpaused",
      "type": "event"
    },
    {
      "anonymous": false,
      "inputs": [
        {
          "indexed": true,
          "internalType": "uint256",
          "name": "mintingFee",
          "type": "uint256"
        }
      ],
      "name": "mintingFeeSet",
      "type": "event"
    },
    {
      "anonymous": false,
      "inputs": [
        {
          "indexed": true,
          "internalType": "uint256",
          "name": "tokenId",
          "type": "uint256"
        }
      ],
      "name": "tokenIdMinted",
      "type": "event"
    },
    {
      "inputs": [
        {
          "internalType": "address",
          "name": "to",
          "type": "address"
        },
        {
          "internalType": "uint256",
          "name": "tokenId",
          "type": "uint256"
        }
      ],
      "name": "approve",
      "outputs": [],
      "stateMutability": "nonpayable",
      "type": "function"
    },
    {
      "inputs": [
        {
          "internalType": "address",
          "name": "owner",
          "type": "address"
        }
      ],
      "name": "balanceOf",
      "outputs": [
        {
          "internalType": "uint256",
          "name": "",
          "type": "uint256"
        }
      ],
      "stateMutability": "view",
      "type": "function"
    },
    {
      "inputs": [
        {
          "internalType": "uint256",
          "name": "tokenId",
          "type": "uint256"
        }
      ],
      "name": "burn",
      "outputs": [],
      "stateMutability": "nonpayable",
      "type": "function"
    },
    {
      "inputs": [
        {
          "internalType": "uint256",
          "name": "tokenId",
          "type": "uint256"
        }
      ],
      "name": "getApproved",
      "outputs": [
        {
          "internalType": "address",
          "name": "",
          "type": "address"
        }
      ],
      "stateMutability": "view",
      "type": "function"
    },
    {
      "inputs": [],
      "name": "getLastMintingFeeChangeTime",
      "outputs": [
        {
          "internalType": "uint256",
          "name": "",
          "type": "uint256"
        }
      ],
      "stateMutability": "view",
      "type": "function"
    },
    {
      "inputs": [],
      "name": "getMintingFee",
      "outputs": [
        {
          "internalType": "uint256",
          "name": "",
          "type": "uint256"
        }
      ],
      "stateMutability": "view",
      "type": "function"
    },
    {
      "inputs": [
        {
          "internalType": "bytes32",
          "name": "",
          "type": "bytes32"
        }
      ],
      "name": "hashUsed",
      "outputs": [
        {
          "internalType": "bool",
          "name": "",
          "type": "bool"
        }
      ],
      "stateMutability": "view",
      "type": "function"
    },
    {
      "inputs": [
        {
          "internalType": "address",
          "name": "owner",
          "type": "address"
        },
        {
          "internalType": "address",
          "name": "operator",
          "type": "address"
        }
      ],
      "name": "isApprovedForAll",
      "outputs": [
        {
          "internalType": "bool",
          "name": "",
          "type": "bool"
        }
      ],
      "stateMutability": "view",
      "type": "function"
    },
    {
      "inputs": [],
      "name": "lockDuration",
      "outputs": [
        {
          "internalType": "uint256",
          "name": "",
          "type": "uint256"
        }
      ],
      "stateMutability": "view",
      "type": "function"
    },
    {
      "inputs": [
        {
          "internalType": "bytes32",
          "name": "hash",
          "type": "bytes32"
        },
        {
          "internalType": "bytes",
          "name": "signature",
          "type": "bytes"
        },
        {
          "internalType": "string",
          "name": "uri",
          "type": "string"
        }
      ],
      "name": "mintMintPass",
      "outputs": [
        {
          "internalType": "uint256",
          "name": "",
          "type": "uint256"
        }
      ],
      "stateMutability": "payable",
      "type": "function"
    },
    {
      "inputs": [],
      "name": "name",
      "outputs": [
        {
          "internalType": "string",
          "name": "",
          "type": "string"
        }
      ],
      "stateMutability": "view",
      "type": "function"
    },
    {
      "inputs": [],
      "name": "owner",
      "outputs": [
        {
          "internalType": "address",
          "name": "",
          "type": "address"
        }
      ],
      "stateMutability": "view",
      "type": "function"
    },
    {
      "inputs": [
        {
          "internalType": "uint256",
          "name": "tokenId",
          "type": "uint256"
        }
      ],
      "name": "ownerOf",
      "outputs": [
        {
          "internalType": "address",
          "name": "",
          "type": "address"
        }
      ],
      "stateMutability": "view",
      "type": "function"
    },
    {
      "inputs": [],
      "name": "pause",
      "outputs": [],
      "stateMutability": "nonpayable",
      "type": "function"
    },
    {
      "inputs": [],
      "name": "paused",
      "outputs": [
        {
          "internalType": "bool",
          "name": "",
          "type": "bool"
        }
      ],
      "stateMutability": "view",
      "type": "function"
    },
    {
      "inputs": [],
      "name": "renounceOwnership",
      "outputs": [],
      "stateMutability": "nonpayable",
      "type": "function"
    },
    {
      "inputs": [
        {
          "internalType": "uint256",
          "name": "_tokenId",
          "type": "uint256"
        },
        {
          "internalType": "uint256",
          "name": "_salePrice",
          "type": "uint256"
        }
      ],
      "name": "royaltyInfo",
      "outputs": [
        {
          "internalType": "address",
          "name": "",
          "type": "address"
        },
        {
          "internalType": "uint256",
          "name": "",
          "type": "uint256"
        }
      ],
      "stateMutability": "view",
      "type": "function"
    },
    {
      "inputs": [
        {
          "internalType": "address",
          "name": "from",
          "type": "address"
        },
        {
          "internalType": "address",
          "name": "to",
          "type": "address"
        },
        {
          "internalType": "uint256",
          "name": "tokenId",
          "type": "uint256"
        }
      ],
      "name": "safeTransferFrom",
      "outputs": [],
      "stateMutability": "nonpayable",
      "type": "function"
    },
    {
      "inputs": [
        {
          "internalType": "address",
          "name": "from",
          "type": "address"
        },
        {
          "internalType": "address",
          "name": "to",
          "type": "address"
        },
        {
          "internalType": "uint256",
          "name": "tokenId",
          "type": "uint256"
        },
        {
          "internalType": "bytes",
          "name": "data",
          "type": "bytes"
        }
      ],
      "name": "safeTransferFrom",
      "outputs": [],
      "stateMutability": "nonpayable",
      "type": "function"
    },
    {
      "inputs": [
        {
          "internalType": "address",
          "name": "operator",
          "type": "address"
        },
        {
          "internalType": "bool",
          "name": "approved",
          "type": "bool"
        }
      ],
      "name": "setApprovalForAll",
      "outputs": [],
      "stateMutability": "nonpayable",
      "type": "function"
    },
    {
      "inputs": [
        {
          "internalType": "uint256",
          "name": "_mintingFee",
          "type": "uint256"
        }
      ],
      "name": "setMintingFee",
      "outputs": [],
      "stateMutability": "nonpayable",
      "type": "function"
    },
    {
      "inputs": [
        {
          "internalType": "bytes4",
          "name": "interfaceId",
          "type": "bytes4"
        }
      ],
      "name": "supportsInterface",
      "outputs": [
        {
          "internalType": "bool",
          "name": "",
          "type": "bool"
        }
      ],
      "stateMutability": "view",
      "type": "function"
    },
    {
      "inputs": [],
      "name": "symbol",
      "outputs": [
        {
          "internalType": "string",
          "name": "",
          "type": "string"
        }
      ],
      "stateMutability": "view",
      "type": "function"
    },
    {
      "inputs": [
        {
          "internalType": "uint256",
          "name": "tokenId",
          "type": "uint256"
        }
      ],
      "name": "tokenURI",
      "outputs": [
        {
          "internalType": "string",
          "name": "",
          "type": "string"
        }
      ],
      "stateMutability": "view",
      "type": "function"
    },
    {
      "inputs": [
        {
          "internalType": "address",
          "name": "from",
          "type": "address"
        },
        {
          "internalType": "address",
          "name": "to",
          "type": "address"
        },
        {
          "internalType": "uint256",
          "name": "tokenId",
          "type": "uint256"
        }
      ],
      "name": "transferFrom",
      "outputs": [],
      "stateMutability": "nonpayable",
      "type": "function"
    },
    {
      "inputs": [
        {
          "internalType": "address",
          "name": "newOwner",
          "type": "address"
        }
      ],
      "name": "transferOwnership",
      "outputs": [],
      "stateMutability": "nonpayable",
      "type": "function"
    },
    {
      "inputs": [],
      "name": "unpause",
      "outputs": [],
      "stateMutability": "nonpayable",
      "type": "function"
    }
  ],
  "bytecode": "0x6101406040523480156200001257600080fd5b50604051620057093803806200570983398181016040528101906200003891906200040d565b6040518060400160405280601781526020017f4d696e6466756c204f6365616e204d696e7420506173730000000000000000008152506040518060400160405280600581526020017f4d504153530000000000000000000000000000000000000000000000000000008152508160009081620000b5919062000719565b508060019081620000c7919062000719565b5050506000600760006101000a81548160ff02191690831515021790555062000105620000f96200025160201b60201c565b6200025960201b60201c565b6001600a819055503373ffffffffffffffffffffffffffffffffffffffff166101208173ffffffffffffffffffffffffffffffffffffffff16815250508573ffffffffffffffffffffffffffffffffffffffff1660808173ffffffffffffffffffffffffffffffffffffffff16815250508473ffffffffffffffffffffffffffffffffffffffff1660a08173ffffffffffffffffffffffffffffffffffffffff16815250508373ffffffffffffffffffffffffffffffffffffffff1660c08173ffffffffffffffffffffffffffffffffffffffff16815250508273ffffffffffffffffffffffffffffffffffffffff1660e08173ffffffffffffffffffffffffffffffffffffffff168152505081600b81905550806bffffffffffffffffffffffff16610100816bffffffffffffffffffffffff168152505042600d8190555050505050505062000800565b600033905090565b6000600760019054906101000a900473ffffffffffffffffffffffffffffffffffffffff16905081600760016101000a81548173ffffffffffffffffffffffffffffffffffffffff021916908373ffffffffffffffffffffffffffffffffffffffff1602179055508173ffffffffffffffffffffffffffffffffffffffff168173ffffffffffffffffffffffffffffffffffffffff167f8be0079c531659141344cd1fd0a4f28419497f9722a3daafe3b4186f6b6457e060405160405180910390a35050565b600080fd5b600073ffffffffffffffffffffffffffffffffffffffff82169050919050565b6000620003518262000324565b9050919050565b620003638162000344565b81146200036f57600080fd5b50565b600081519050620003838162000358565b92915050565b6000819050919050565b6200039e8162000389565b8114620003aa57600080fd5b50565b600081519050620003be8162000393565b92915050565b60006bffffffffffffffffffffffff82169050919050565b620003e781620003c4565b8114620003f357600080fd5b50565b6000815190506200040781620003dc565b92915050565b60008060008060008060c087890312156200042d576200042c6200031f565b5b60006200043d89828a0162000372565b96505060206200045089828a0162000372565b95505060406200046389828a0162000372565b94505060606200047689828a0162000372565b93505060806200048989828a01620003ad565b92505060a06200049c89828a01620003f6565b9150509295509295509295565b600081519050919050565b7f4e487b7100000000000000000000000000000000000000000000000000000000600052604160045260246000fd5b7f4e487b7100000000000000000000000000000000000000000000000000000000600052602260045260246000fd5b600060028204905060018216806200052b57607f821691505b602082108103620005415762000540620004e3565b5b50919050565b60008190508160005260206000209050919050565b60006020601f8301049050919050565b600082821b905092915050565b600060088302620005ab7fffffffffffffffffffffffffffffffffffffffffffffffffffffffffffffffff826200056c565b620005b786836200056c565b95508019841693508086168417925050509392505050565b6000819050919050565b6000620005fa620005f4620005ee8462000389565b620005cf565b62000389565b9050919050565b6000819050919050565b6200061683620005d9565b6200062e620006258262000601565b84845462000579565b825550505050565b600090565b6200064562000636565b620006528184846200060b565b505050565b5b818110156200067a576200066e6000826200063b565b60018101905062000658565b5050565b601f821115620006c957620006938162000547565b6200069e846200055c565b81016020851015620006ae578190505b620006c6620006bd856200055c565b83018262000657565b50505b505050565b600082821c905092915050565b6000620006ee60001984600802620006ce565b1980831691505092915050565b6000620007098383620006db565b9150826002028217905092915050565b6200072482620004a9565b67ffffffffffffffff81111562000740576200073f620004b4565b5b6200074c825462000512565b620007598282856200067e565b600060209050601f8311600181146200079157600084156200077c578287015190505b620007888582620006fb565b865550620007f8565b601f198416620007a18662000547565b60005b82811015620007cb57848901518255600182019150602085019450602081019050620007a4565b86831015620007eb5784890151620007e7601f891682620006db565b8355505b6001600288020188555050505b505050505050565b60805160a05160c05160e0516101005161012051614eb96200085060003960006108950152600061124c0152600061119601526000611133015260006110d001526000610f920152614eb96000f3fe60806040526004361061019c5760003560e01c80635c975abb116100ec578063a22cb4651161008a578063b88d4fde11610064578063b88d4fde146105a8578063c87b56dd146105d1578063e985e9c51461060e578063f2fde38b1461064b5761019c565b8063a22cb46514610524578063af1fc29a1461054d578063b59d88a91461057d5761019c565b8063715018a6116100c6578063715018a6146104a05780638456cb59146104b75780638da5cb5b146104ce57806395d89b41146104f95761019c565b80635c975abb146103fb5780636352211e1461042657806370a08231146104635761019c565b806323b872dd116101595780633f4ba83a116101335780633f4ba83a1461035557806342842e0e1461036c57806342966c6814610395578063533e62b6146103be5761019c565b806323b872dd146102c35780632a55205a146102ec5780633d2e42701461032a5761019c565b806301ffc9a7146101a157806304554443146101de57806306fdde0314610209578063081812fc14610234578063095ea7b314610271578063238a47091461029a575b600080fd5b3480156101ad57600080fd5b506101c860048036038101906101c391906131d6565b610674565b6040516101d5919061321e565b60405180910390f35b3480156101ea57600080fd5b506101f3610686565b6040516102009190613252565b60405180910390f35b34801561021557600080fd5b5061021e61068d565b60405161022b91906132fd565b60405180910390f35b34801561024057600080fd5b5061025b6004803603810190610256919061334b565b61071f565b60405161026891906133b9565b60405180910390f35b34801561027d57600080fd5b5061029860048036038101906102939190613400565b610765565b005b3480156102a657600080fd5b506102c160048036038101906102bc919061334b565b61087c565b005b3480156102cf57600080fd5b506102ea60048036038101906102e59190613440565b6109a3565b005b3480156102f857600080fd5b50610313600480360381019061030e9190613493565b610a03565b6040516103219291906134d3565b60405180910390f35b34801561033657600080fd5b5061033f610bed565b60405161034c9190613252565b60405180910390f35b34801561036157600080fd5b5061036a610bf7565b005b34801561037857600080fd5b50610393600480360381019061038e9190613440565b610c09565b005b3480156103a157600080fd5b506103bc60048036038101906103b7919061334b565b610c29565b005b3480156103ca57600080fd5b506103e560048036038101906103e09190613532565b610c85565b6040516103f2919061321e565b60405180910390f35b34801561040757600080fd5b50610410610ca5565b60405161041d919061321e565b60405180910390f35b34801561043257600080fd5b5061044d6004803603810190610448919061334b565b610cbc565b60405161045a91906133b9565b60405180910390f35b34801561046f57600080fd5b5061048a6004803603810190610485919061355f565b610d42565b6040516104979190613252565b60405180910390f35b3480156104ac57600080fd5b506104b5610df9565b005b3480156104c357600080fd5b506104cc610e0d565b005b3480156104da57600080fd5b506104e3610e1f565b6040516104f091906133b9565b60405180910390f35b34801561050557600080fd5b5061050e610e49565b60405161051b91906132fd565b60405180910390f35b34801561053057600080fd5b5061054b600480360381019061054691906135b8565b610edb565b005b610567600480360381019061056291906136b3565b610ef1565b6040516105749190613252565b60405180910390f35b34801561058957600080fd5b50610592611300565b60405161059f9190613252565b60405180910390f35b3480156105b457600080fd5b506105cf60048036038101906105ca9190613878565b61130a565b005b3480156105dd57600080fd5b506105f860048036038101906105f3919061334b565b61136c565b60405161060591906132fd565b60405180910390f35b34801561061a57600080fd5b50610635600480360381019061063091906138fb565b61137e565b604051610642919061321e565b60405180910390f35b34801561065757600080fd5b50610672600480360381019061066d919061355f565b611412565b005b600061067f82611495565b9050919050565b6202a30081565b60606000805461069c9061396a565b80601f01602080910402602001604051908101604052809291908181526020018280546106c89061396a565b80156107155780601f106106ea57610100808354040283529160200191610715565b820191906000526020600020905b8154815290600101906020018083116106f857829003601f168201915b5050505050905090565b600061072a8261150f565b6004600083815260200190815260200160002060009054906101000a900473ffffffffffffffffffffffffffffffffffffffff169050919050565b600061077082610cbc565b90508073ffffffffffffffffffffffffffffffffffffffff168373ffffffffffffffffffffffffffffffffffffffff16036107e0576040517f08c379a00000000000000000000000000000000000000000000000000000000081526004016107d790613a0d565b60405180910390fd5b8073ffffffffffffffffffffffffffffffffffffffff166107ff61155a565b73ffffffffffffffffffffffffffffffffffffffff16148061082e575061082d8161082861155a565b61137e565b5b61086d576040517f08c379a000000000000000000000000000000000000000000000000000000000815260040161086490613a9f565b60405180910390fd5b6108778383611562565b505050565b3373ffffffffffffffffffffffffffffffffffffffff167f000000000000000000000000000000000000000000000000000000000000000073ffffffffffffffffffffffffffffffffffffffff161461090a576040517f08c379a000000000000000000000000000000000000000000000000000000000815260040161090190613b31565b60405180910390fd5b60006202a300600d5461091d9190613b80565b905080421015610962576040517f08c379a000000000000000000000000000000000000000000000000000000000815260040161095990613c26565b60405180910390fd5b81600b8190555042600d81905550600b547fb7dc7fc51d92cc56d5672b168da215df112695513b8fab8f940258699cec492960405160405180910390a25050565b6109b46109ae61155a565b8261161b565b6109f3576040517f08c379a00000000000000000000000000000000000000000000000000000000081526004016109ea90613cb8565b60405180910390fd5b6109fe8383836116b0565b505050565b6000806000600960008681526020019081526020016000206040518060400160405290816000820160009054906101000a900473ffffffffffffffffffffffffffffffffffffffff1673ffffffffffffffffffffffffffffffffffffffff1673ffffffffffffffffffffffffffffffffffffffff1681526020016000820160149054906101000a90046bffffffffffffffffffffffff166bffffffffffffffffffffffff166bffffffffffffffffffffffff16815250509050600073ffffffffffffffffffffffffffffffffffffffff16816000015173ffffffffffffffffffffffffffffffffffffffff1603610b985760086040518060400160405290816000820160009054906101000a900473ffffffffffffffffffffffffffffffffffffffff1673ffffffffffffffffffffffffffffffffffffffff1673ffffffffffffffffffffffffffffffffffffffff1681526020016000820160149054906101000a90046bffffffffffffffffffffffff166bffffffffffffffffffffffff166bffffffffffffffffffffffff168152505090505b6000610ba26119a9565b6bffffffffffffffffffffffff1682602001516bffffffffffffffffffffffff1686610bce9190613cd8565b610bd89190613d49565b90508160000151819350935050509250929050565b6000600d54905090565b610bff6119b3565b610c07611a31565b565b610c248383836040518060200160405280600081525061130a565b505050565b610c3a610c3461155a565b8261161b565b610c79576040517f08c379a0000000000000000000000000000000000000000000000000000000008152600401610c7090613cb8565b60405180910390fd5b610c8281611a94565b50565b600e6020528060005260406000206000915054906101000a900460ff1681565b6000600760009054906101000a900460ff16905090565b600080610cc883611aa0565b9050600073ffffffffffffffffffffffffffffffffffffffff168173ffffffffffffffffffffffffffffffffffffffff1603610d39576040517f08c379a0000000000000000000000000000000000000000000000000000000008152600401610d3090613dc6565b60405180910390fd5b80915050919050565b60008073ffffffffffffffffffffffffffffffffffffffff168273ffffffffffffffffffffffffffffffffffffffff1603610db2576040517f08c379a0000000000000000000000000000000000000000000000000000000008152600401610da990613e58565b60405180910390fd5b600360008373ffffffffffffffffffffffffffffffffffffffff1673ffffffffffffffffffffffffffffffffffffffff168152602001908152602001600020549050919050565b610e016119b3565b610e0b6000611add565b565b610e156119b3565b610e1d611ba3565b565b6000600760019054906101000a900473ffffffffffffffffffffffffffffffffffffffff16905090565b606060018054610e589061396a565b80601f0160208091040260200160405190810160405280929190818152602001828054610e849061396a565b8015610ed15780601f10610ea657610100808354040283529160200191610ed1565b820191906000526020600020905b815481529060010190602001808311610eb457829003601f168201915b5050505050905090565b610eed610ee661155a565b8383611c06565b5050565b6000610efb611d72565b610f03611dbc565b600e600087815260200190815260200160002060009054906101000a900460ff1615610f64576040517f08c379a0000000000000000000000000000000000000000000000000000000008152600401610f5b90613ec4565b60405180910390fd5b6001600e600088815260200190815260200160002060006101000a81548160ff0219169083151502179055507f000000000000000000000000000000000000000000000000000000000000000073ffffffffffffffffffffffffffffffffffffffff166110158787878080601f016020809104026020016040519081016040528093929190818152602001838380828437600081840152601f19601f82011690508083019250505050505050611e0b565b73ffffffffffffffffffffffffffffffffffffffff161461106b576040517f08c379a000000000000000000000000000000000000000000000000000000000815260040161106290613f30565b60405180910390fd5b600b543410156110b0576040517f08c379a00000000000000000000000000000000000000000000000000000000081526004016110a790613fc2565b60405180910390fd5b6111136064603c600b546110c49190613cd8565b6110ce9190613d49565b7f000000000000000000000000000000000000000000000000000000000000000073ffffffffffffffffffffffffffffffffffffffff16611e4a90919063ffffffff16565b6111766064600f600b546111279190613cd8565b6111319190613d49565b7f000000000000000000000000000000000000000000000000000000000000000073ffffffffffffffffffffffffffffffffffffffff16611e4a90919063ffffffff16565b6111d960646019600b5461118a9190613cd8565b6111949190613d49565b7f000000000000000000000000000000000000000000000000000000000000000073ffffffffffffffffffffffffffffffffffffffff16611e4a90919063ffffffff16565b600b5434111561121a57611219600b54346111f49190613fe2565b3373ffffffffffffffffffffffffffffffffffffffff16611e4a90919063ffffffff16565b5b6000600c54905061122b3382611f3e565b6001600c600082825461123e9190613b80565b9250508190555061127081337f0000000000000000000000000000000000000000000000000000000000000000611f5c565b6112be8185858080601f016020809104026020016040519081016040528093929190818152602001838380828437600081840152601f19601f82011690508083019250505050505050612103565b807fc1d4f2f9bfbbf8ceba443f4935f8ad0698acb0b335a8862c8d4319a408224c0960405160405180910390a2809150506112f7612170565b95945050505050565b6000600b54905090565b61131b61131561155a565b8361161b565b61135a576040517f08c379a000000000000000000000000000000000000000000000000000000000815260040161135190613cb8565b60405180910390fd5b6113668484848461217a565b50505050565b6060611377826121d6565b9050919050565b6000600560008473ffffffffffffffffffffffffffffffffffffffff1673ffffffffffffffffffffffffffffffffffffffff16815260200190815260200160002060008373ffffffffffffffffffffffffffffffffffffffff1673ffffffffffffffffffffffffffffffffffffffff16815260200190815260200160002060009054906101000a900460ff16905092915050565b61141a6119b3565b600073ffffffffffffffffffffffffffffffffffffffff168173ffffffffffffffffffffffffffffffffffffffff1603611489576040517f08c379a000000000000000000000000000000000000000000000000000000000815260040161148090614088565b60405180910390fd5b61149281611add565b50565b60007f2a55205a000000000000000000000000000000000000000000000000000000007bffffffffffffffffffffffffffffffffffffffffffffffffffffffff1916827bffffffffffffffffffffffffffffffffffffffffffffffffffffffff191614806115085750611507826122e8565b5b9050919050565b611518816123ca565b611557576040517f08c379a000000000000000000000000000000000000000000000000000000000815260040161154e90613dc6565b60405180910390fd5b50565b600033905090565b816004600083815260200190815260200160002060006101000a81548173ffffffffffffffffffffffffffffffffffffffff021916908373ffffffffffffffffffffffffffffffffffffffff160217905550808273ffffffffffffffffffffffffffffffffffffffff166115d583610cbc565b73ffffffffffffffffffffffffffffffffffffffff167f8c5be1e5ebec7d5bd14f71427d1e84f3dd0314c0f7b2291e5b200ac8c7c3b92560405160405180910390a45050565b60008061162783610cbc565b90508073ffffffffffffffffffffffffffffffffffffffff168473ffffffffffffffffffffffffffffffffffffffff1614806116695750611668818561137e565b5b806116a757508373ffffffffffffffffffffffffffffffffffffffff1661168f8461071f565b73ffffffffffffffffffffffffffffffffffffffff16145b91505092915050565b8273ffffffffffffffffffffffffffffffffffffffff166116d082610cbc565b73ffffffffffffffffffffffffffffffffffffffff1614611726576040517f08c379a000000000000000000000000000000000000000000000000000000000815260040161171d9061411a565b60405180910390fd5b600073ffffffffffffffffffffffffffffffffffffffff168273ffffffffffffffffffffffffffffffffffffffff1603611795576040517f08c379a000000000000000000000000000000000000000000000000000000000815260040161178c906141ac565b60405180910390fd5b6117a2838383600161240b565b8273ffffffffffffffffffffffffffffffffffffffff166117c282610cbc565b73ffffffffffffffffffffffffffffffffffffffff1614611818576040517f08c379a000000000000000000000000000000000000000000000000000000000815260040161180f9061411a565b60405180910390fd5b6004600082815260200190815260200160002060006101000a81549073ffffffffffffffffffffffffffffffffffffffff02191690556001600360008573ffffffffffffffffffffffffffffffffffffffff1673ffffffffffffffffffffffffffffffffffffffff168152602001908152602001600020600082825403925050819055506001600360008473ffffffffffffffffffffffffffffffffffffffff1673ffffffffffffffffffffffffffffffffffffffff16815260200190815260200160002060008282540192505081905550816002600083815260200190815260200160002060006101000a81548173ffffffffffffffffffffffffffffffffffffffff021916908373ffffffffffffffffffffffffffffffffffffffff160217905550808273ffffffffffffffffffffffffffffffffffffffff168473ffffffffffffffffffffffffffffffffffffffff167fddf252ad1be2c89b69c2b068fc378daa952ba7f163c4a11628f55a4df523b3ef60405160405180910390a46119a48383836001612531565b505050565b6000612710905090565b6119bb61155a565b73ffffffffffffffffffffffffffffffffffffffff166119d9610e1f565b73ffffffffffffffffffffffffffffffffffffffff1614611a2f576040517f08c379a0000000000000000000000000000000000000000000000000000000008152600401611a2690614218565b60405180910390fd5b565b611a39612537565b6000600760006101000a81548160ff0219169083151502179055507f5db9ee0a495bf2e6ff9c91a7834c1ba4fdd244a5e8aa4e537bd38aeae4b073aa611a7d61155a565b604051611a8a91906133b9565b60405180910390a1565b611a9d81612580565b50565b60006002600083815260200190815260200160002060009054906101000a900473ffffffffffffffffffffffffffffffffffffffff169050919050565b6000600760019054906101000a900473ffffffffffffffffffffffffffffffffffffffff16905081600760016101000a81548173ffffffffffffffffffffffffffffffffffffffff021916908373ffffffffffffffffffffffffffffffffffffffff1602179055508173ffffffffffffffffffffffffffffffffffffffff168173ffffffffffffffffffffffffffffffffffffffff167f8be0079c531659141344cd1fd0a4f28419497f9722a3daafe3b4186f6b6457e060405160405180910390a35050565b611bab611d72565b6001600760006101000a81548160ff0219169083151502179055507f62e78cea01bee320cd4e420270b5ea74000d11b0c9f74754ebdbfc544b05a258611bef61155a565b604051611bfc91906133b9565b60405180910390a1565b8173ffffffffffffffffffffffffffffffffffffffff168373ffffffffffffffffffffffffffffffffffffffff1603611c74576040517f08c379a0000000000000000000000000000000000000000000000000000000008152600401611c6b90614284565b60405180910390fd5b80600560008573ffffffffffffffffffffffffffffffffffffffff1673ffffffffffffffffffffffffffffffffffffffff16815260200190815260200160002060008473ffffffffffffffffffffffffffffffffffffffff1673ffffffffffffffffffffffffffffffffffffffff16815260200190815260200160002060006101000a81548160ff0219169083151502179055508173ffffffffffffffffffffffffffffffffffffffff168373ffffffffffffffffffffffffffffffffffffffff167f17307eab39ab6107e8899845ad3d59bd9653f200f220920489ca2b5937696c3183604051611d65919061321e565b60405180910390a3505050565b611d7a610ca5565b15611dba576040517f08c379a0000000000000000000000000000000000000000000000000000000008152600401611db1906142f0565b60405180910390fd5b565b6002600a5403611e01576040517f08c379a0000000000000000000000000000000000000000000000000000000008152600401611df89061435c565b60405180910390fd5b6002600a81905550565b60008083604051602001611e1f91906143f4565b604051602081830303815290604052805190602001209050611e4181846125d3565b91505092915050565b80471015611e8d576040517f08c379a0000000000000000000000000000000000000000000000000000000008152600401611e8490614466565b60405180910390fd5b60008273ffffffffffffffffffffffffffffffffffffffff1682604051611eb3906144b7565b60006040518083038185875af1925050503d8060008114611ef0576040519150601f19603f3d011682016040523d82523d6000602084013e611ef5565b606091505b5050905080611f39576040517f08c379a0000000000000000000000000000000000000000000000000000000008152600401611f309061453e565b60405180910390fd5b505050565b611f588282604051806020016040528060008152506125fa565b5050565b611f646119a9565b6bffffffffffffffffffffffff16816bffffffffffffffffffffffff161115611fc2576040517f08c379a0000000000000000000000000000000000000000000000000000000008152600401611fb9906145d0565b60405180910390fd5b600073ffffffffffffffffffffffffffffffffffffffff168273ffffffffffffffffffffffffffffffffffffffff1603612031576040517f08c379a00000000000000000000000000000000000000000000000000000000081526004016120289061463c565b60405180910390fd5b60405180604001604052808373ffffffffffffffffffffffffffffffffffffffff168152602001826bffffffffffffffffffffffff168152506009600085815260200190815260200160002060008201518160000160006101000a81548173ffffffffffffffffffffffffffffffffffffffff021916908373ffffffffffffffffffffffffffffffffffffffff16021790555060208201518160000160146101000a8154816bffffffffffffffffffffffff02191690836bffffffffffffffffffffffff160217905550905050505050565b61210c826123ca565b61214b576040517f08c379a0000000000000000000000000000000000000000000000000000000008152600401612142906146ce565b60405180910390fd5b8060066000848152602001908152602001600020908161216b919061489a565b505050565b6001600a81905550565b6121858484846116b0565b61219184848484612655565b6121d0576040517f08c379a00000000000000000000000000000000000000000000000000000000081526004016121c7906149de565b60405180910390fd5b50505050565b60606121e18261150f565b60006006600084815260200190815260200160002080546122019061396a565b80601f016020809104026020016040519081016040528092919081815260200182805461222d9061396a565b801561227a5780601f1061224f5761010080835404028352916020019161227a565b820191906000526020600020905b81548152906001019060200180831161225d57829003601f168201915b50505050509050600061228b6127dc565b905060008151036122a05781925050506122e3565b6000825111156122d55780826040516020016122bd929190614a2f565b604051602081830303815290604052925050506122e3565b6122de846127f3565b925050505b919050565b60007f80ac58cd000000000000000000000000000000000000000000000000000000007bffffffffffffffffffffffffffffffffffffffffffffffffffffffff1916827bffffffffffffffffffffffffffffffffffffffffffffffffffffffff191614806123b357507f5b5e139f000000000000000000000000000000000000000000000000000000007bffffffffffffffffffffffffffffffffffffffffffffffffffffffff1916827bffffffffffffffffffffffffffffffffffffffffffffffffffffffff1916145b806123c357506123c28261285b565b5b9050919050565b60008073ffffffffffffffffffffffffffffffffffffffff166123ec83611aa0565b73ffffffffffffffffffffffffffffffffffffffff1614159050919050565b600181111561252b57600073ffffffffffffffffffffffffffffffffffffffff168473ffffffffffffffffffffffffffffffffffffffff161461249f5780600360008673ffffffffffffffffffffffffffffffffffffffff1673ffffffffffffffffffffffffffffffffffffffff16815260200190815260200160002060008282546124979190613fe2565b925050819055505b600073ffffffffffffffffffffffffffffffffffffffff168373ffffffffffffffffffffffffffffffffffffffff161461252a5780600360008573ffffffffffffffffffffffffffffffffffffffff1673ffffffffffffffffffffffffffffffffffffffff16815260200190815260200160002060008282546125229190613b80565b925050819055505b5b50505050565b50505050565b61253f610ca5565b61257e576040517f08c379a000000000000000000000000000000000000000000000000000000000815260040161257590614a9f565b60405180910390fd5b565b612589816128c5565b60006006600083815260200190815260200160002080546125a99061396a565b9050146125d0576006600082815260200190815260200160002060006125cf919061310d565b5b50565b60008060006125e28585612a13565b915091506125ef81612a64565b819250505092915050565b6126048383612bca565b6126116000848484612655565b612650576040517f08c379a0000000000000000000000000000000000000000000000000000000008152600401612647906149de565b60405180910390fd5b505050565b60006126768473ffffffffffffffffffffffffffffffffffffffff16612de7565b156127cf578373ffffffffffffffffffffffffffffffffffffffff1663150b7a0261269f61155a565b8786866040518563ffffffff1660e01b81526004016126c19493929190614b14565b6020604051808303816000875af19250505080156126fd57506040513d601f19601f820116820180604052508101906126fa9190614b75565b60015b61277f573d806000811461272d576040519150601f19603f3d011682016040523d82523d6000602084013e612732565b606091505b506000815103612777576040517f08c379a000000000000000000000000000000000000000000000000000000000815260040161276e906149de565b60405180910390fd5b805181602001fd5b63150b7a0260e01b7bffffffffffffffffffffffffffffffffffffffffffffffffffffffff1916817bffffffffffffffffffffffffffffffffffffffffffffffffffffffff1916149150506127d4565b600190505b949350505050565b606060405180602001604052806000815250905090565b60606127fe8261150f565b60006128086127dc565b905060008151116128285760405180602001604052806000815250612853565b8061283284612e0a565b604051602001612843929190614a2f565b6040516020818303038152906040525b915050919050565b60007f01ffc9a7000000000000000000000000000000000000000000000000000000007bffffffffffffffffffffffffffffffffffffffffffffffffffffffff1916827bffffffffffffffffffffffffffffffffffffffffffffffffffffffff1916149050919050565b60006128d082610cbc565b90506128e081600084600161240b565b6128e982610cbc565b90506004600083815260200190815260200160002060006101000a81549073ffffffffffffffffffffffffffffffffffffffff02191690556001600360008373ffffffffffffffffffffffffffffffffffffffff1673ffffffffffffffffffffffffffffffffffffffff168152602001908152602001600020600082825403925050819055506002600083815260200190815260200160002060006101000a81549073ffffffffffffffffffffffffffffffffffffffff021916905581600073ffffffffffffffffffffffffffffffffffffffff168273ffffffffffffffffffffffffffffffffffffffff167fddf252ad1be2c89b69c2b068fc378daa952ba7f163c4a11628f55a4df523b3ef60405160405180910390a4612a0f816000846001612531565b5050565b6000806041835103612a545760008060006020860151925060408601519150606086015160001a9050612a4887828585612ed8565b94509450505050612a5d565b60006002915091505b9250929050565b60006004811115612a7857612a77614ba2565b5b816004811115612a8b57612a8a614ba2565b5b0315612bc75760016004811115612aa557612aa4614ba2565b5b816004811115612ab857612ab7614ba2565b5b03612af8576040517f08c379a0000000000000000000000000000000000000000000000000000000008152600401612aef90614c1d565b60405180910390fd5b60026004811115612b0c57612b0b614ba2565b5b816004811115612b1f57612b1e614ba2565b5b03612b5f576040517f08c379a0000000000000000000000000000000000000000000000000000000008152600401612b5690614c89565b60405180910390fd5b60036004811115612b7357612b72614ba2565b5b816004811115612b8657612b85614ba2565b5b03612bc6576040517f08c379a0000000000000000000000000000000000000000000000000000000008152600401612bbd90614d1b565b60405180910390fd5b5b50565b600073ffffffffffffffffffffffffffffffffffffffff168273ffffffffffffffffffffffffffffffffffffffff1603612c39576040517f08c379a0000000000000000000000000000000000000000000000000000000008152600401612c3090614d87565b60405180910390fd5b612c42816123ca565b15612c82576040517f08c379a0000000000000000000000000000000000000000000000000000000008152600401612c7990614df3565b60405180910390fd5b612c9060008383600161240b565b612c99816123ca565b15612cd9576040517f08c379a0000000000000000000000000000000000000000000000000000000008152600401612cd090614df3565b60405180910390fd5b6001600360008473ffffffffffffffffffffffffffffffffffffffff1673ffffffffffffffffffffffffffffffffffffffff16815260200190815260200160002060008282540192505081905550816002600083815260200190815260200160002060006101000a81548173ffffffffffffffffffffffffffffffffffffffff021916908373ffffffffffffffffffffffffffffffffffffffff160217905550808273ffffffffffffffffffffffffffffffffffffffff16600073ffffffffffffffffffffffffffffffffffffffff167fddf252ad1be2c89b69c2b068fc378daa952ba7f163c4a11628f55a4df523b3ef60405160405180910390a4612de3600083836001612531565b5050565b6000808273ffffffffffffffffffffffffffffffffffffffff163b119050919050565b606060006001612e1984612fba565b01905060008167ffffffffffffffff811115612e3857612e3761374d565b5b6040519080825280601f01601f191660200182016040528015612e6a5781602001600182028036833780820191505090505b509050600082602001820190505b600115612ecd578080600190039150507f3031323334353637383961626364656600000000000000000000000000000000600a86061a8153600a8581612ec157612ec0613d1a565b5b04945060008503612e78575b819350505050919050565b6000807f7fffffffffffffffffffffffffffffff5d576e7357a4501ddfe92f46681b20a08360001c1115612f13576000600391509150612fb1565b600060018787878760405160008152602001604052604051612f389493929190614e3e565b6020604051602081039080840390855afa158015612f5a573d6000803e3d6000fd5b505050602060405103519050600073ffffffffffffffffffffffffffffffffffffffff168173ffffffffffffffffffffffffffffffffffffffff1603612fa857600060019250925050612fb1565b80600092509250505b94509492505050565b600080600090507a184f03e93ff9f4daa797ed6e38ed64bf6a1f0100000000000000008310613018577a184f03e93ff9f4daa797ed6e38ed64bf6a1f010000000000000000838161300e5761300d613d1a565b5b0492506040810190505b6d04ee2d6d415b85acef81000000008310613055576d04ee2d6d415b85acef8100000000838161304b5761304a613d1a565b5b0492506020810190505b662386f26fc10000831061308457662386f26fc10000838161307a57613079613d1a565b5b0492506010810190505b6305f5e10083106130ad576305f5e10083816130a3576130a2613d1a565b5b0492506008810190505b61271083106130d25761271083816130c8576130c7613d1a565b5b0492506004810190505b606483106130f557606483816130eb576130ea613d1a565b5b0492506002810190505b600a8310613104576001810190505b80915050919050565b5080546131199061396a565b6000825580601f1061312b575061314a565b601f016020900490600052602060002090810190613149919061314d565b5b50565b5b8082111561316657600081600090555060010161314e565b5090565b6000604051905090565b600080fd5b600080fd5b60007fffffffff0000000000000000000000000000000000000000000000000000000082169050919050565b6131b38161317e565b81146131be57600080fd5b50565b6000813590506131d0816131aa565b92915050565b6000602082840312156131ec576131eb613174565b5b60006131fa848285016131c1565b91505092915050565b60008115159050919050565b61321881613203565b82525050565b6000602082019050613233600083018461320f565b92915050565b6000819050919050565b61324c81613239565b82525050565b60006020820190506132676000830184613243565b92915050565b600081519050919050565b600082825260208201905092915050565b60005b838110156132a757808201518184015260208101905061328c565b60008484015250505050565b6000601f19601f8301169050919050565b60006132cf8261326d565b6132d98185613278565b93506132e9818560208601613289565b6132f2816132b3565b840191505092915050565b6000602082019050818103600083015261331781846132c4565b905092915050565b61332881613239565b811461333357600080fd5b50565b6000813590506133458161331f565b92915050565b60006020828403121561336157613360613174565b5b600061336f84828501613336565b91505092915050565b600073ffffffffffffffffffffffffffffffffffffffff82169050919050565b60006133a382613378565b9050919050565b6133b381613398565b82525050565b60006020820190506133ce60008301846133aa565b92915050565b6133dd81613398565b81146133e857600080fd5b50565b6000813590506133fa816133d4565b92915050565b6000806040838503121561341757613416613174565b5b6000613425858286016133eb565b925050602061343685828601613336565b9150509250929050565b60008060006060848603121561345957613458613174565b5b6000613467868287016133eb565b9350506020613478868287016133eb565b925050604061348986828701613336565b9150509250925092565b600080604083850312156134aa576134a9613174565b5b60006134b885828601613336565b92505060206134c985828601613336565b9150509250929050565b60006040820190506134e860008301856133aa565b6134f56020830184613243565b9392505050565b6000819050919050565b61350f816134fc565b811461351a57600080fd5b50565b60008135905061352c81613506565b92915050565b60006020828403121561354857613547613174565b5b60006135568482850161351d565b91505092915050565b60006020828403121561357557613574613174565b5b6000613583848285016133eb565b91505092915050565b61359581613203565b81146135a057600080fd5b50565b6000813590506135b28161358c565b92915050565b600080604083850312156135cf576135ce613174565b5b60006135dd858286016133eb565b92505060206135ee858286016135a3565b9150509250929050565b600080fd5b600080fd5b600080fd5b60008083601f84011261361d5761361c6135f8565b5b8235905067ffffffffffffffff81111561363a576136396135fd565b5b60208301915083600182028301111561365657613655613602565b5b9250929050565b60008083601f840112613673576136726135f8565b5b8235905067ffffffffffffffff8111156136905761368f6135fd565b5b6020830191508360018202830111156136ac576136ab613602565b5b9250929050565b6000806000806000606086880312156136cf576136ce613174565b5b60006136dd8882890161351d565b955050602086013567ffffffffffffffff8111156136fe576136fd613179565b5b61370a88828901613607565b9450945050604086013567ffffffffffffffff81111561372d5761372c613179565b5b6137398882890161365d565b92509250509295509295909350565b600080fd5b7f4e487b7100000000000000000000000000000000000000000000000000000000600052604160045260246000fd5b613785826132b3565b810181811067ffffffffffffffff821117156137a4576137a361374d565b5b80604052505050565b60006137b761316a565b90506137c3828261377c565b919050565b600067ffffffffffffffff8211156137e3576137e261374d565b5b6137ec826132b3565b9050602081019050919050565b82818337600083830152505050565b600061381b613816846137c8565b6137ad565b90508281526020810184848401111561383757613836613748565b5b6138428482856137f9565b509392505050565b600082601f83011261385f5761385e6135f8565b5b813561386f848260208601613808565b91505092915050565b6000806000806080858703121561389257613891613174565b5b60006138a0878288016133eb565b94505060206138b1878288016133eb565b93505060406138c287828801613336565b925050606085013567ffffffffffffffff8111156138e3576138e2613179565b5b6138ef8782880161384a565b91505092959194509250565b6000806040838503121561391257613911613174565b5b6000613920858286016133eb565b9250506020613931858286016133eb565b9150509250929050565b7f4e487b7100000000000000000000000000000000000000000000000000000000600052602260045260246000fd5b6000600282049050600182168061398257607f821691505b6020821081036139955761399461393b565b5b50919050565b7f4552433732313a20617070726f76616c20746f2063757272656e74206f776e6560008201527f7200000000000000000000000000000000000000000000000000000000000000602082015250565b60006139f7602183613278565b9150613a028261399b565b604082019050919050565b60006020820190508181036000830152613a26816139ea565b9050919050565b7f4552433732313a20617070726f76652063616c6c6572206973206e6f7420746f60008201527f6b656e206f776e6572206f7220617070726f76656420666f7220616c6c000000602082015250565b6000613a89603d83613278565b9150613a9482613a2d565b604082019050919050565b60006020820190508181036000830152613ab881613a7c565b9050919050565b7f4d75737420626520436f6e7472616374204f776e657220746f2063616c6c207460008201527f68652066756e6374696f6e000000000000000000000000000000000000000000602082015250565b6000613b1b602b83613278565b9150613b2682613abf565b604082019050919050565b60006020820190508181036000830152613b4a81613b0e565b9050919050565b7f4e487b7100000000000000000000000000000000000000000000000000000000600052601160045260246000fd5b6000613b8b82613239565b9150613b9683613239565b9250828201905080821115613bae57613bad613b51565b5b92915050565b7f4e65656420746f20776169742032206d696e75746573206265666f726520636860008201527f616e6765206d696e74696e672066656520616761696e00000000000000000000602082015250565b6000613c10603683613278565b9150613c1b82613bb4565b604082019050919050565b60006020820190508181036000830152613c3f81613c03565b9050919050565b7f4552433732313a2063616c6c6572206973206e6f7420746f6b656e206f776e6560008201527f72206f7220617070726f76656400000000000000000000000000000000000000602082015250565b6000613ca2602d83613278565b9150613cad82613c46565b604082019050919050565b60006020820190508181036000830152613cd181613c95565b9050919050565b6000613ce382613239565b9150613cee83613239565b9250828202613cfc81613239565b91508282048414831517613d1357613d12613b51565b5b5092915050565b7f4e487b7100000000000000000000000000000000000000000000000000000000600052601260045260246000fd5b6000613d5482613239565b9150613d5f83613239565b925082613d6f57613d6e613d1a565b5b828204905092915050565b7f4552433732313a20696e76616c696420746f6b656e2049440000000000000000600082015250565b6000613db0601883613278565b9150613dbb82613d7a565b602082019050919050565b60006020820190508181036000830152613ddf81613da3565b9050919050565b7f4552433732313a2061646472657373207a65726f206973206e6f74206120766160008201527f6c6964206f776e65720000000000000000000000000000000000000000000000602082015250565b6000613e42602983613278565b9150613e4d82613de6565b604082019050919050565b60006020820190508181036000830152613e7181613e35565b9050919050565b7f4861736820686173206265656e20757365640000000000000000000000000000600082015250565b6000613eae601283613278565b9150613eb982613e78565b602082019050919050565b60006020820190508181036000830152613edd81613ea1565b9050919050565b7f5369676e6174757265204661696c656400000000000000000000000000000000600082015250565b6000613f1a601083613278565b9150613f2582613ee4565b602082019050919050565b60006020820190508181036000830152613f4981613f0d565b9050919050565b7f4e6f7420656e6f756768204d415449432073656e743b20636865636b2070726960008201527f6365210000000000000000000000000000000000000000000000000000000000602082015250565b6000613fac602383613278565b9150613fb782613f50565b604082019050919050565b60006020820190508181036000830152613fdb81613f9f565b9050919050565b6000613fed82613239565b9150613ff883613239565b92508282039050818111156140105761400f613b51565b5b92915050565b7f4f776e61626c653a206e6577206f776e657220697320746865207a65726f206160008201527f6464726573730000000000000000000000000000000000000000000000000000602082015250565b6000614072602683613278565b915061407d82614016565b604082019050919050565b600060208201905081810360008301526140a181614065565b9050919050565b7f4552433732313a207472616e736665722066726f6d20696e636f72726563742060008201527f6f776e6572000000000000000000000000000000000000000000000000000000602082015250565b6000614104602583613278565b915061410f826140a8565b604082019050919050565b60006020820190508181036000830152614133816140f7565b9050919050565b7f4552433732313a207472616e7366657220746f20746865207a65726f2061646460008201527f7265737300000000000000000000000000000000000000000000000000000000602082015250565b6000614196602483613278565b91506141a18261413a565b604082019050919050565b600060208201905081810360008301526141c581614189565b9050919050565b7f4f776e61626c653a2063616c6c6572206973206e6f7420746865206f776e6572600082015250565b6000614202602083613278565b915061420d826141cc565b602082019050919050565b60006020820190508181036000830152614231816141f5565b9050919050565b7f4552433732313a20617070726f766520746f2063616c6c657200000000000000600082015250565b600061426e601983613278565b915061427982614238565b602082019050919050565b6000602082019050818103600083015261429d81614261565b9050919050565b7f5061757361626c653a2070617573656400000000000000000000000000000000600082015250565b60006142da601083613278565b91506142e5826142a4565b602082019050919050565b60006020820190508181036000830152614309816142cd565b9050919050565b7f5265656e7472616e637947756172643a207265656e7472616e742063616c6c00600082015250565b6000614346601f83613278565b915061435182614310565b602082019050919050565b6000602082019050818103600083015261437581614339565b9050919050565b600081905092915050565b7f19457468657265756d205369676e6564204d6573736167653a0a333200000000600082015250565b60006143bd601c8361437c565b91506143c882614387565b601c82019050919050565b6000819050919050565b6143ee6143e9826134fc565b6143d3565b82525050565b60006143ff826143b0565b915061440b82846143dd565b60208201915081905092915050565b7f416464726573733a20696e73756666696369656e742062616c616e6365000000600082015250565b6000614450601d83613278565b915061445b8261441a565b602082019050919050565b6000602082019050818103600083015261447f81614443565b9050919050565b600081905092915050565b50565b60006144a1600083614486565b91506144ac82614491565b600082019050919050565b60006144c282614494565b9150819050919050565b7f416464726573733a20756e61626c6520746f2073656e642076616c75652c207260008201527f6563697069656e74206d61792068617665207265766572746564000000000000602082015250565b6000614528603a83613278565b9150614533826144cc565b604082019050919050565b600060208201905081810360008301526145578161451b565b9050919050565b7f455243323938313a20726f79616c7479206665652077696c6c2065786365656460008201527f2073616c65507269636500000000000000000000000000000000000000000000602082015250565b60006145ba602a83613278565b91506145c58261455e565b604082019050919050565b600060208201905081810360008301526145e9816145ad565b9050919050565b7f455243323938313a20496e76616c696420706172616d65746572730000000000600082015250565b6000614626601b83613278565b9150614631826145f0565b602082019050919050565b6000602082019050818103600083015261465581614619565b9050919050565b7f45524337323155524953746f726167653a2055524920736574206f66206e6f6e60008201527f6578697374656e7420746f6b656e000000000000000000000000000000000000602082015250565b60006146b8602e83613278565b91506146c38261465c565b604082019050919050565b600060208201905081810360008301526146e7816146ab565b9050919050565b60008190508160005260206000209050919050565b60006020601f8301049050919050565b600082821b905092915050565b6000600883026147507fffffffffffffffffffffffffffffffffffffffffffffffffffffffffffffffff82614713565b61475a8683614713565b95508019841693508086168417925050509392505050565b6000819050919050565b600061479761479261478d84613239565b614772565b613239565b9050919050565b6000819050919050565b6147b18361477c565b6147c56147bd8261479e565b848454614720565b825550505050565b600090565b6147da6147cd565b6147e58184846147a8565b505050565b5b81811015614809576147fe6000826147d2565b6001810190506147eb565b5050565b601f82111561484e5761481f816146ee565b61482884614703565b81016020851015614837578190505b61484b61484385614703565b8301826147ea565b50505b505050565b600082821c905092915050565b600061487160001984600802614853565b1980831691505092915050565b600061488a8383614860565b9150826002028217905092915050565b6148a38261326d565b67ffffffffffffffff8111156148bc576148bb61374d565b5b6148c6825461396a565b6148d182828561480d565b600060209050601f83116001811461490457600084156148f2578287015190505b6148fc858261487e565b865550614964565b601f198416614912866146ee565b60005b8281101561493a57848901518255600182019150602085019450602081019050614915565b868310156149575784890151614953601f891682614860565b8355505b6001600288020188555050505b505050505050565b7f4552433732313a207472616e7366657220746f206e6f6e20455243373231526560008201527f63656976657220696d706c656d656e7465720000000000000000000000000000602082015250565b60006149c8603283613278565b91506149d38261496c565b604082019050919050565b600060208201905081810360008301526149f7816149bb565b9050919050565b6000614a098261326d565b614a13818561437c565b9350614a23818560208601613289565b80840191505092915050565b6000614a3b82856149fe565b9150614a4782846149fe565b91508190509392505050565b7f5061757361626c653a206e6f7420706175736564000000000000000000000000600082015250565b6000614a89601483613278565b9150614a9482614a53565b602082019050919050565b60006020820190508181036000830152614ab881614a7c565b9050919050565b600081519050919050565b600082825260208201905092915050565b6000614ae682614abf565b614af08185614aca565b9350614b00818560208601613289565b614b09816132b3565b840191505092915050565b6000608082019050614b2960008301876133aa565b614b3660208301866133aa565b614b436040830185613243565b8181036060830152614b558184614adb565b905095945050505050565b600081519050614b6f816131aa565b92915050565b600060208284031215614b8b57614b8a613174565b5b6000614b9984828501614b60565b91505092915050565b7f4e487b7100000000000000000000000000000000000000000000000000000000600052602160045260246000fd5b7f45434453413a20696e76616c6964207369676e61747572650000000000000000600082015250565b6000614c07601883613278565b9150614c1282614bd1565b602082019050919050565b60006020820190508181036000830152614c3681614bfa565b9050919050565b7f45434453413a20696e76616c6964207369676e6174757265206c656e67746800600082015250565b6000614c73601f83613278565b9150614c7e82614c3d565b602082019050919050565b60006020820190508181036000830152614ca281614c66565b9050919050565b7f45434453413a20696e76616c6964207369676e6174757265202773272076616c60008201527f7565000000000000000000000000000000000000000000000000000000000000602082015250565b6000614d05602283613278565b9150614d1082614ca9565b604082019050919050565b60006020820190508181036000830152614d3481614cf8565b9050919050565b7f4552433732313a206d696e7420746f20746865207a65726f2061646472657373600082015250565b6000614d71602083613278565b9150614d7c82614d3b565b602082019050919050565b60006020820190508181036000830152614da081614d64565b9050919050565b7f4552433732313a20746f6b656e20616c7265616479206d696e74656400000000600082015250565b6000614ddd601c83613278565b9150614de882614da7565b602082019050919050565b60006020820190508181036000830152614e0c81614dd0565b9050919050565b614e1c816134fc565b82525050565b600060ff82169050919050565b614e3881614e22565b82525050565b6000608082019050614e536000830187614e13565b614e606020830186614e2f565b614e6d6040830185614e13565b614e7a6060830184614e13565b9594505050505056fea26469706673582212203550b752197532d2f3b45efa1d06e8e0fd901da14fe82d6544450bc7afecf6bd64736f6c63430008110033",
  "linkReferences": {},
  "deployedLinkReferences": {}
}