{
  "_format": "hh-sol-artifact-1",
  "contractName": "MintPassNFT",
  "sourceName": "contracts/MintPass.sol",
  "abi": [
    {
      "inputs": [
        {
          "internalType": "address",
          "name": "_systemAddress",
          "type": "address"
        },
        {
          "internalType": "address",
          "name": "_mintingFeeRecipient",
          "type": "address"
        },
        {
          "internalType": "uint256",
          "name": "_mintingFee",
          "type": "uint256"
        },
        {
          "internalType": "uint96",
          "name": "_loyaltyFee",
          "type": "uint96"
        }
      ],
      "stateMutability": "nonpayable",
      "type": "constructor"
    },
    {
      "anonymous": false,
      "inputs": [
        {
          "indexed": true,
          "internalType": "address",
          "name": "owner",
          "type": "address"
        },
        {
          "indexed": true,
          "internalType": "address",
          "name": "approved",
          "type": "address"
        },
        {
          "indexed": true,
          "internalType": "uint256",
          "name": "tokenId",
          "type": "uint256"
        }
      ],
      "name": "Approval",
      "type": "event"
    },
    {
      "anonymous": false,
      "inputs": [
        {
          "indexed": true,
          "internalType": "address",
          "name": "owner",
          "type": "address"
        },
        {
          "indexed": true,
          "internalType": "address",
          "name": "operator",
          "type": "address"
        },
        {
          "indexed": false,
          "internalType": "bool",
          "name": "approved",
          "type": "bool"
        }
      ],
      "name": "ApprovalForAll",
      "type": "event"
    },
    {
      "anonymous": false,
      "inputs": [
        {
          "indexed": true,
          "internalType": "address",
          "name": "previousOwner",
          "type": "address"
        },
        {
          "indexed": true,
          "internalType": "address",
          "name": "newOwner",
          "type": "address"
        }
      ],
      "name": "OwnershipTransferred",
      "type": "event"
    },
    {
      "anonymous": false,
      "inputs": [
        {
          "indexed": false,
          "internalType": "address",
          "name": "account",
          "type": "address"
        }
      ],
      "name": "Paused",
      "type": "event"
    },
    {
      "anonymous": false,
      "inputs": [
        {
          "indexed": true,
          "internalType": "address",
          "name": "from",
          "type": "address"
        },
        {
          "indexed": true,
          "internalType": "address",
          "name": "to",
          "type": "address"
        },
        {
          "indexed": true,
          "internalType": "uint256",
          "name": "tokenId",
          "type": "uint256"
        }
      ],
      "name": "Transfer",
      "type": "event"
    },
    {
      "anonymous": false,
      "inputs": [
        {
          "indexed": false,
          "internalType": "address",
          "name": "account",
          "type": "address"
        }
      ],
      "name": "Unpaused",
      "type": "event"
    },
    {
      "anonymous": false,
      "inputs": [
        {
          "indexed": true,
          "internalType": "uint256",
          "name": "mintingFee",
          "type": "uint256"
        }
      ],
      "name": "mintingFeeSet",
      "type": "event"
    },
    {
      "anonymous": false,
      "inputs": [
        {
          "indexed": true,
          "internalType": "uint256",
          "name": "tokenId",
          "type": "uint256"
        }
      ],
      "name": "tokenIdMinted",
      "type": "event"
    },
    {
      "inputs": [
        {
          "internalType": "address",
          "name": "to",
          "type": "address"
        },
        {
          "internalType": "uint256",
          "name": "tokenId",
          "type": "uint256"
        }
      ],
      "name": "approve",
      "outputs": [],
      "stateMutability": "nonpayable",
      "type": "function"
    },
    {
      "inputs": [
        {
          "internalType": "address",
          "name": "owner",
          "type": "address"
        }
      ],
      "name": "balanceOf",
      "outputs": [
        {
          "internalType": "uint256",
          "name": "",
          "type": "uint256"
        }
      ],
      "stateMutability": "view",
      "type": "function"
    },
    {
      "inputs": [
        {
          "internalType": "uint256",
          "name": "tokenId",
          "type": "uint256"
        }
      ],
      "name": "burn",
      "outputs": [],
      "stateMutability": "nonpayable",
      "type": "function"
    },
    {
      "inputs": [
        {
          "internalType": "uint256",
          "name": "tokenId",
          "type": "uint256"
        }
      ],
      "name": "getApproved",
      "outputs": [
        {
          "internalType": "address",
          "name": "",
          "type": "address"
        }
      ],
      "stateMutability": "view",
      "type": "function"
    },
    {
      "inputs": [],
      "name": "getLastMintingFeeChangeTime",
      "outputs": [
        {
          "internalType": "uint256",
          "name": "",
          "type": "uint256"
        }
      ],
      "stateMutability": "view",
      "type": "function"
    },
    {
      "inputs": [],
      "name": "getMintingFee",
      "outputs": [
        {
          "internalType": "uint256",
          "name": "",
          "type": "uint256"
        }
      ],
      "stateMutability": "view",
      "type": "function"
    },
    {
      "inputs": [
        {
          "internalType": "bytes32",
          "name": "",
          "type": "bytes32"
        }
      ],
      "name": "hashUsed",
      "outputs": [
        {
          "internalType": "bool",
          "name": "",
          "type": "bool"
        }
      ],
      "stateMutability": "view",
      "type": "function"
    },
    {
      "inputs": [
        {
          "internalType": "address",
          "name": "owner",
          "type": "address"
        },
        {
          "internalType": "address",
          "name": "operator",
          "type": "address"
        }
      ],
      "name": "isApprovedForAll",
      "outputs": [
        {
          "internalType": "bool",
          "name": "",
          "type": "bool"
        }
      ],
      "stateMutability": "view",
      "type": "function"
    },
    {
      "inputs": [],
      "name": "lockDuration",
      "outputs": [
        {
          "internalType": "uint256",
          "name": "",
          "type": "uint256"
        }
      ],
      "stateMutability": "view",
      "type": "function"
    },
    {
      "inputs": [
        {
          "internalType": "bytes32",
          "name": "hash",
          "type": "bytes32"
        },
        {
          "internalType": "bytes",
          "name": "signature",
          "type": "bytes"
        },
        {
          "internalType": "uint256",
          "name": "tokenId",
          "type": "uint256"
        },
        {
          "internalType": "string",
          "name": "uri",
          "type": "string"
        }
      ],
      "name": "mintMintPass",
      "outputs": [
        {
          "internalType": "uint256",
          "name": "",
          "type": "uint256"
        }
      ],
      "stateMutability": "payable",
      "type": "function"
    },
    {
      "inputs": [],
      "name": "name",
      "outputs": [
        {
          "internalType": "string",
          "name": "",
          "type": "string"
        }
      ],
      "stateMutability": "view",
      "type": "function"
    },
    {
      "inputs": [],
      "name": "owner",
      "outputs": [
        {
          "internalType": "address",
          "name": "",
          "type": "address"
        }
      ],
      "stateMutability": "view",
      "type": "function"
    },
    {
      "inputs": [
        {
          "internalType": "uint256",
          "name": "tokenId",
          "type": "uint256"
        }
      ],
      "name": "ownerOf",
      "outputs": [
        {
          "internalType": "address",
          "name": "",
          "type": "address"
        }
      ],
      "stateMutability": "view",
      "type": "function"
    },
    {
      "inputs": [],
      "name": "pause",
      "outputs": [],
      "stateMutability": "nonpayable",
      "type": "function"
    },
    {
      "inputs": [],
      "name": "paused",
      "outputs": [
        {
          "internalType": "bool",
          "name": "",
          "type": "bool"
        }
      ],
      "stateMutability": "view",
      "type": "function"
    },
    {
      "inputs": [],
      "name": "renounceOwnership",
      "outputs": [],
      "stateMutability": "nonpayable",
      "type": "function"
    },
    {
      "inputs": [
        {
          "internalType": "uint256",
          "name": "_tokenId",
          "type": "uint256"
        },
        {
          "internalType": "uint256",
          "name": "_salePrice",
          "type": "uint256"
        }
      ],
      "name": "royaltyInfo",
      "outputs": [
        {
          "internalType": "address",
          "name": "",
          "type": "address"
        },
        {
          "internalType": "uint256",
          "name": "",
          "type": "uint256"
        }
      ],
      "stateMutability": "view",
      "type": "function"
    },
    {
      "inputs": [
        {
          "internalType": "address",
          "name": "from",
          "type": "address"
        },
        {
          "internalType": "address",
          "name": "to",
          "type": "address"
        },
        {
          "internalType": "uint256",
          "name": "tokenId",
          "type": "uint256"
        }
      ],
      "name": "safeTransferFrom",
      "outputs": [],
      "stateMutability": "nonpayable",
      "type": "function"
    },
    {
      "inputs": [
        {
          "internalType": "address",
          "name": "from",
          "type": "address"
        },
        {
          "internalType": "address",
          "name": "to",
          "type": "address"
        },
        {
          "internalType": "uint256",
          "name": "tokenId",
          "type": "uint256"
        },
        {
          "internalType": "bytes",
          "name": "data",
          "type": "bytes"
        }
      ],
      "name": "safeTransferFrom",
      "outputs": [],
      "stateMutability": "nonpayable",
      "type": "function"
    },
    {
      "inputs": [
        {
          "internalType": "address",
          "name": "operator",
          "type": "address"
        },
        {
          "internalType": "bool",
          "name": "approved",
          "type": "bool"
        }
      ],
      "name": "setApprovalForAll",
      "outputs": [],
      "stateMutability": "nonpayable",
      "type": "function"
    },
    {
      "inputs": [
        {
          "internalType": "uint256",
          "name": "_mintingFee",
          "type": "uint256"
        }
      ],
      "name": "setMintingFee",
      "outputs": [],
      "stateMutability": "nonpayable",
      "type": "function"
    },
    {
      "inputs": [
        {
          "internalType": "bytes4",
          "name": "interfaceId",
          "type": "bytes4"
        }
      ],
      "name": "supportsInterface",
      "outputs": [
        {
          "internalType": "bool",
          "name": "",
          "type": "bool"
        }
      ],
      "stateMutability": "view",
      "type": "function"
    },
    {
      "inputs": [],
      "name": "symbol",
      "outputs": [
        {
          "internalType": "string",
          "name": "",
          "type": "string"
        }
      ],
      "stateMutability": "view",
      "type": "function"
    },
    {
      "inputs": [
        {
          "internalType": "uint256",
          "name": "tokenId",
          "type": "uint256"
        }
      ],
      "name": "tokenURI",
      "outputs": [
        {
          "internalType": "string",
          "name": "",
          "type": "string"
        }
      ],
      "stateMutability": "view",
      "type": "function"
    },
    {
      "inputs": [
        {
          "internalType": "address",
          "name": "from",
          "type": "address"
        },
        {
          "internalType": "address",
          "name": "to",
          "type": "address"
        },
        {
          "internalType": "uint256",
          "name": "tokenId",
          "type": "uint256"
        }
      ],
      "name": "transferFrom",
      "outputs": [],
      "stateMutability": "nonpayable",
      "type": "function"
    },
    {
      "inputs": [
        {
          "internalType": "address",
          "name": "newOwner",
          "type": "address"
        }
      ],
      "name": "transferOwnership",
      "outputs": [],
      "stateMutability": "nonpayable",
      "type": "function"
    },
    {
      "inputs": [],
      "name": "unpause",
      "outputs": [],
      "stateMutability": "nonpayable",
      "type": "function"
    }
  ],
  "bytecode": "0x6101006040523480156200001257600080fd5b5060405162005570380380620055708339818101604052810190620000389190620003a1565b6040518060400160405280601781526020017f4d696e6466756c204f6365616e204d696e7420506173730000000000000000008152506040518060400160405280600581526020017f4d504153530000000000000000000000000000000000000000000000000000008152508160009081620000b5919062000683565b508060019081620000c7919062000683565b5050506000600760006101000a81548160ff02191690831515021790555062000105620000f9620001e560201b60201c565b620001ed60201b60201c565b6001600a819055503373ffffffffffffffffffffffffffffffffffffffff1660e08173ffffffffffffffffffffffffffffffffffffffff16815250508373ffffffffffffffffffffffffffffffffffffffff1660808173ffffffffffffffffffffffffffffffffffffffff16815250508273ffffffffffffffffffffffffffffffffffffffff1660a08173ffffffffffffffffffffffffffffffffffffffff168152505081600b81905550806bffffffffffffffffffffffff1660c0816bffffffffffffffffffffffff168152505042600c81905550505050506200076a565b600033905090565b6000600760019054906101000a900473ffffffffffffffffffffffffffffffffffffffff16905081600760016101000a81548173ffffffffffffffffffffffffffffffffffffffff021916908373ffffffffffffffffffffffffffffffffffffffff1602179055508173ffffffffffffffffffffffffffffffffffffffff168173ffffffffffffffffffffffffffffffffffffffff167f8be0079c531659141344cd1fd0a4f28419497f9722a3daafe3b4186f6b6457e060405160405180910390a35050565b600080fd5b600073ffffffffffffffffffffffffffffffffffffffff82169050919050565b6000620002e582620002b8565b9050919050565b620002f781620002d8565b81146200030357600080fd5b50565b6000815190506200031781620002ec565b92915050565b6000819050919050565b62000332816200031d565b81146200033e57600080fd5b50565b600081519050620003528162000327565b92915050565b60006bffffffffffffffffffffffff82169050919050565b6200037b8162000358565b81146200038757600080fd5b50565b6000815190506200039b8162000370565b92915050565b60008060008060808587031215620003be57620003bd620002b3565b5b6000620003ce8782880162000306565b9450506020620003e18782880162000306565b9350506040620003f48782880162000341565b925050606062000407878288016200038a565b91505092959194509250565b600081519050919050565b7f4e487b7100000000000000000000000000000000000000000000000000000000600052604160045260246000fd5b7f4e487b7100000000000000000000000000000000000000000000000000000000600052602260045260246000fd5b600060028204905060018216806200049557607f821691505b602082108103620004ab57620004aa6200044d565b5b50919050565b60008190508160005260206000209050919050565b60006020601f8301049050919050565b600082821b905092915050565b600060088302620005157fffffffffffffffffffffffffffffffffffffffffffffffffffffffffffffffff82620004d6565b620005218683620004d6565b95508019841693508086168417925050509392505050565b6000819050919050565b6000620005646200055e62000558846200031d565b62000539565b6200031d565b9050919050565b6000819050919050565b620005808362000543565b620005986200058f826200056b565b848454620004e3565b825550505050565b600090565b620005af620005a0565b620005bc81848462000575565b505050565b5b81811015620005e457620005d8600082620005a5565b600181019050620005c2565b5050565b601f8211156200063357620005fd81620004b1565b6200060884620004c6565b8101602085101562000618578190505b620006306200062785620004c6565b830182620005c1565b50505b505050565b600082821c905092915050565b6000620006586000198460080262000638565b1980831691505092915050565b600062000673838362000645565b9150826002028217905092915050565b6200068e8262000413565b67ffffffffffffffff811115620006aa57620006a96200041e565b5b620006b682546200047c565b620006c3828285620005e8565b600060209050601f831160018114620006fb5760008415620006e6578287015190505b620006f2858262000665565b86555062000762565b601f1984166200070b86620004b1565b60005b8281101562000735578489015182556001820191506020850194506020810190506200070e565b8683101562000755578489015162000751601f89168262000645565b8355505b6001600288020188555050505b505050505050565b60805160a05160c05160e051614dcc620007a4600039600061089501526000610f0101526000610e6c01526000610d460152614dcc6000f3fe60806040526004361061019c5760003560e01c80635571b948116100ec57806395d89b411161008a578063b88d4fde11610064578063b88d4fde146105a8578063c87b56dd146105d1578063e985e9c51461060e578063f2fde38b1461064b5761019c565b806395d89b4114610529578063a22cb46514610554578063b59d88a91461057d5761019c565b806370a08231116100c657806370a0823114610493578063715018a6146104d05780638456cb59146104e75780638da5cb5b146104fe5761019c565b80635571b948146103fb5780635c975abb1461042b5780636352211e146104565761019c565b806323b872dd116101595780633f4ba83a116101335780633f4ba83a1461035557806342842e0e1461036c57806342966c6814610395578063533e62b6146103be5761019c565b806323b872dd146102c35780632a55205a146102ec5780633d2e42701461032a5761019c565b806301ffc9a7146101a157806304554443146101de57806306fdde0314610209578063081812fc14610234578063095ea7b314610271578063238a47091461029a575b600080fd5b3480156101ad57600080fd5b506101c860048036038101906101c391906130d7565b610674565b6040516101d5919061311f565b60405180910390f35b3480156101ea57600080fd5b506101f3610686565b6040516102009190613153565b60405180910390f35b34801561021557600080fd5b5061021e61068d565b60405161022b91906131fe565b60405180910390f35b34801561024057600080fd5b5061025b6004803603810190610256919061324c565b61071f565b60405161026891906132ba565b60405180910390f35b34801561027d57600080fd5b5061029860048036038101906102939190613301565b610765565b005b3480156102a657600080fd5b506102c160048036038101906102bc919061324c565b61087c565b005b3480156102cf57600080fd5b506102ea60048036038101906102e59190613341565b6109a3565b005b3480156102f857600080fd5b50610313600480360381019061030e9190613394565b610a03565b6040516103219291906133d4565b60405180910390f35b34801561033657600080fd5b5061033f610bed565b60405161034c9190613153565b60405180910390f35b34801561036157600080fd5b5061036a610bf7565b005b34801561037857600080fd5b50610393600480360381019061038e9190613341565b610c09565b005b3480156103a157600080fd5b506103bc60048036038101906103b7919061324c565b610c29565b005b3480156103ca57600080fd5b506103e560048036038101906103e09190613433565b610c85565b6040516103f2919061311f565b60405180910390f35b6104156004803603810190610410919061351b565b610ca5565b6040516104229190613153565b60405180910390f35b34801561043757600080fd5b50610440610fb5565b60405161044d919061311f565b60405180910390f35b34801561046257600080fd5b5061047d6004803603810190610478919061324c565b610fcc565b60405161048a91906132ba565b60405180910390f35b34801561049f57600080fd5b506104ba60048036038101906104b591906135c2565b611052565b6040516104c79190613153565b60405180910390f35b3480156104dc57600080fd5b506104e5611109565b005b3480156104f357600080fd5b506104fc61111d565b005b34801561050a57600080fd5b5061051361112f565b60405161052091906132ba565b60405180910390f35b34801561053557600080fd5b5061053e611159565b60405161054b91906131fe565b60405180910390f35b34801561056057600080fd5b5061057b6004803603810190610576919061361b565b6111eb565b005b34801561058957600080fd5b50610592611201565b60405161059f9190613153565b60405180910390f35b3480156105b457600080fd5b506105cf60048036038101906105ca919061378b565b61120b565b005b3480156105dd57600080fd5b506105f860048036038101906105f3919061324c565b61126d565b60405161060591906131fe565b60405180910390f35b34801561061a57600080fd5b506106356004803603810190610630919061380e565b61127f565b604051610642919061311f565b60405180910390f35b34801561065757600080fd5b50610672600480360381019061066d91906135c2565b611313565b005b600061067f82611396565b9050919050565b6202a30081565b60606000805461069c9061387d565b80601f01602080910402602001604051908101604052809291908181526020018280546106c89061387d565b80156107155780601f106106ea57610100808354040283529160200191610715565b820191906000526020600020905b8154815290600101906020018083116106f857829003601f168201915b5050505050905090565b600061072a82611410565b6004600083815260200190815260200160002060009054906101000a900473ffffffffffffffffffffffffffffffffffffffff169050919050565b600061077082610fcc565b90508073ffffffffffffffffffffffffffffffffffffffff168373ffffffffffffffffffffffffffffffffffffffff16036107e0576040517f08c379a00000000000000000000000000000000000000000000000000000000081526004016107d790613920565b60405180910390fd5b8073ffffffffffffffffffffffffffffffffffffffff166107ff61145b565b73ffffffffffffffffffffffffffffffffffffffff16148061082e575061082d8161082861145b565b61127f565b5b61086d576040517f08c379a0000000000000000000000000000000000000000000000000000000008152600401610864906139b2565b60405180910390fd5b6108778383611463565b505050565b3373ffffffffffffffffffffffffffffffffffffffff167f000000000000000000000000000000000000000000000000000000000000000073ffffffffffffffffffffffffffffffffffffffff161461090a576040517f08c379a000000000000000000000000000000000000000000000000000000000815260040161090190613a44565b60405180910390fd5b60006202a300600c5461091d9190613a93565b905080421015610962576040517f08c379a000000000000000000000000000000000000000000000000000000000815260040161095990613b39565b60405180910390fd5b81600b8190555042600c81905550600b547fb7dc7fc51d92cc56d5672b168da215df112695513b8fab8f940258699cec492960405160405180910390a25050565b6109b46109ae61145b565b8261151c565b6109f3576040517f08c379a00000000000000000000000000000000000000000000000000000000081526004016109ea90613bcb565b60405180910390fd5b6109fe8383836115b1565b505050565b6000806000600960008681526020019081526020016000206040518060400160405290816000820160009054906101000a900473ffffffffffffffffffffffffffffffffffffffff1673ffffffffffffffffffffffffffffffffffffffff1673ffffffffffffffffffffffffffffffffffffffff1681526020016000820160149054906101000a90046bffffffffffffffffffffffff166bffffffffffffffffffffffff166bffffffffffffffffffffffff16815250509050600073ffffffffffffffffffffffffffffffffffffffff16816000015173ffffffffffffffffffffffffffffffffffffffff1603610b985760086040518060400160405290816000820160009054906101000a900473ffffffffffffffffffffffffffffffffffffffff1673ffffffffffffffffffffffffffffffffffffffff1673ffffffffffffffffffffffffffffffffffffffff1681526020016000820160149054906101000a90046bffffffffffffffffffffffff166bffffffffffffffffffffffff166bffffffffffffffffffffffff168152505090505b6000610ba26118aa565b6bffffffffffffffffffffffff1682602001516bffffffffffffffffffffffff1686610bce9190613beb565b610bd89190613c5c565b90508160000151819350935050509250929050565b6000600c54905090565b610bff6118b4565b610c07611932565b565b610c248383836040518060200160405280600081525061120b565b505050565b610c3a610c3461145b565b8261151c565b610c79576040517f08c379a0000000000000000000000000000000000000000000000000000000008152600401610c7090613bcb565b60405180910390fd5b610c8281611995565b50565b600d6020528060005260406000206000915054906101000a900460ff1681565b6000610caf6119a1565b610cb76119eb565b600d600088815260200190815260200160002060009054906101000a900460ff1615610d18576040517f08c379a0000000000000000000000000000000000000000000000000000000008152600401610d0f90613cd9565b60405180910390fd5b6001600d600089815260200190815260200160002060006101000a81548160ff0219169083151502179055507f000000000000000000000000000000000000000000000000000000000000000073ffffffffffffffffffffffffffffffffffffffff16610dc98888888080601f016020809104026020016040519081016040528093929190818152602001838380828437600081840152601f19601f82011690508083019250505050505050611a3a565b73ffffffffffffffffffffffffffffffffffffffff1614610e1f576040517f08c379a0000000000000000000000000000000000000000000000000000000008152600401610e1690613d45565b60405180910390fd5b600b54341015610e64576040517f08c379a0000000000000000000000000000000000000000000000000000000008152600401610e5b90613dd7565b60405180910390fd5b610eaf600b547f000000000000000000000000000000000000000000000000000000000000000073ffffffffffffffffffffffffffffffffffffffff16611a7990919063ffffffff16565b600b54341115610ef057610eef600b5434610eca9190613df7565b3373ffffffffffffffffffffffffffffffffffffffff16611a7990919063ffffffff16565b5b610efa3385611b6d565b610f2584337f0000000000000000000000000000000000000000000000000000000000000000611b8b565b610f738484848080601f016020809104026020016040519081016040528093929190818152602001838380828437600081840152601f19601f82011690508083019250505050505050611d32565b837fc1d4f2f9bfbbf8ceba443f4935f8ad0698acb0b335a8862c8d4319a408224c0960405160405180910390a2839050610fab611d9f565b9695505050505050565b6000600760009054906101000a900460ff16905090565b600080610fd883611da9565b9050600073ffffffffffffffffffffffffffffffffffffffff168173ffffffffffffffffffffffffffffffffffffffff1603611049576040517f08c379a000000000000000000000000000000000000000000000000000000000815260040161104090613e77565b60405180910390fd5b80915050919050565b60008073ffffffffffffffffffffffffffffffffffffffff168273ffffffffffffffffffffffffffffffffffffffff16036110c2576040517f08c379a00000000000000000000000000000000000000000000000000000000081526004016110b990613f09565b60405180910390fd5b600360008373ffffffffffffffffffffffffffffffffffffffff1673ffffffffffffffffffffffffffffffffffffffff168152602001908152602001600020549050919050565b6111116118b4565b61111b6000611de6565b565b6111256118b4565b61112d611eac565b565b6000600760019054906101000a900473ffffffffffffffffffffffffffffffffffffffff16905090565b6060600180546111689061387d565b80601f01602080910402602001604051908101604052809291908181526020018280546111949061387d565b80156111e15780601f106111b6576101008083540402835291602001916111e1565b820191906000526020600020905b8154815290600101906020018083116111c457829003601f168201915b5050505050905090565b6111fd6111f661145b565b8383611f0f565b5050565b6000600b54905090565b61121c61121661145b565b8361151c565b61125b576040517f08c379a000000000000000000000000000000000000000000000000000000000815260040161125290613bcb565b60405180910390fd5b6112678484848461207b565b50505050565b6060611278826120d7565b9050919050565b6000600560008473ffffffffffffffffffffffffffffffffffffffff1673ffffffffffffffffffffffffffffffffffffffff16815260200190815260200160002060008373ffffffffffffffffffffffffffffffffffffffff1673ffffffffffffffffffffffffffffffffffffffff16815260200190815260200160002060009054906101000a900460ff16905092915050565b61131b6118b4565b600073ffffffffffffffffffffffffffffffffffffffff168173ffffffffffffffffffffffffffffffffffffffff160361138a576040517f08c379a000000000000000000000000000000000000000000000000000000000815260040161138190613f9b565b60405180910390fd5b61139381611de6565b50565b60007f2a55205a000000000000000000000000000000000000000000000000000000007bffffffffffffffffffffffffffffffffffffffffffffffffffffffff1916827bffffffffffffffffffffffffffffffffffffffffffffffffffffffff191614806114095750611408826121e9565b5b9050919050565b611419816122cb565b611458576040517f08c379a000000000000000000000000000000000000000000000000000000000815260040161144f90613e77565b60405180910390fd5b50565b600033905090565b816004600083815260200190815260200160002060006101000a81548173ffffffffffffffffffffffffffffffffffffffff021916908373ffffffffffffffffffffffffffffffffffffffff160217905550808273ffffffffffffffffffffffffffffffffffffffff166114d683610fcc565b73ffffffffffffffffffffffffffffffffffffffff167f8c5be1e5ebec7d5bd14f71427d1e84f3dd0314c0f7b2291e5b200ac8c7c3b92560405160405180910390a45050565b60008061152883610fcc565b90508073ffffffffffffffffffffffffffffffffffffffff168473ffffffffffffffffffffffffffffffffffffffff16148061156a5750611569818561127f565b5b806115a857508373ffffffffffffffffffffffffffffffffffffffff166115908461071f565b73ffffffffffffffffffffffffffffffffffffffff16145b91505092915050565b8273ffffffffffffffffffffffffffffffffffffffff166115d182610fcc565b73ffffffffffffffffffffffffffffffffffffffff1614611627576040517f08c379a000000000000000000000000000000000000000000000000000000000815260040161161e9061402d565b60405180910390fd5b600073ffffffffffffffffffffffffffffffffffffffff168273ffffffffffffffffffffffffffffffffffffffff1603611696576040517f08c379a000000000000000000000000000000000000000000000000000000000815260040161168d906140bf565b60405180910390fd5b6116a3838383600161230c565b8273ffffffffffffffffffffffffffffffffffffffff166116c382610fcc565b73ffffffffffffffffffffffffffffffffffffffff1614611719576040517f08c379a00000000000000000000000000000000000000000000000000000000081526004016117109061402d565b60405180910390fd5b6004600082815260200190815260200160002060006101000a81549073ffffffffffffffffffffffffffffffffffffffff02191690556001600360008573ffffffffffffffffffffffffffffffffffffffff1673ffffffffffffffffffffffffffffffffffffffff168152602001908152602001600020600082825403925050819055506001600360008473ffffffffffffffffffffffffffffffffffffffff1673ffffffffffffffffffffffffffffffffffffffff16815260200190815260200160002060008282540192505081905550816002600083815260200190815260200160002060006101000a81548173ffffffffffffffffffffffffffffffffffffffff021916908373ffffffffffffffffffffffffffffffffffffffff160217905550808273ffffffffffffffffffffffffffffffffffffffff168473ffffffffffffffffffffffffffffffffffffffff167fddf252ad1be2c89b69c2b068fc378daa952ba7f163c4a11628f55a4df523b3ef60405160405180910390a46118a58383836001612432565b505050565b6000612710905090565b6118bc61145b565b73ffffffffffffffffffffffffffffffffffffffff166118da61112f565b73ffffffffffffffffffffffffffffffffffffffff1614611930576040517f08c379a00000000000000000000000000000000000000000000000000000000081526004016119279061412b565b60405180910390fd5b565b61193a612438565b6000600760006101000a81548160ff0219169083151502179055507f5db9ee0a495bf2e6ff9c91a7834c1ba4fdd244a5e8aa4e537bd38aeae4b073aa61197e61145b565b60405161198b91906132ba565b60405180910390a1565b61199e81612481565b50565b6119a9610fb5565b156119e9576040517f08c379a00000000000000000000000000000000000000000000000000000000081526004016119e090614197565b60405180910390fd5b565b6002600a5403611a30576040517f08c379a0000000000000000000000000000000000000000000000000000000008152600401611a2790614203565b60405180910390fd5b6002600a81905550565b60008083604051602001611a4e919061429b565b604051602081830303815290604052805190602001209050611a7081846124d4565b91505092915050565b80471015611abc576040517f08c379a0000000000000000000000000000000000000000000000000000000008152600401611ab39061430d565b60405180910390fd5b60008273ffffffffffffffffffffffffffffffffffffffff1682604051611ae29061435e565b60006040518083038185875af1925050503d8060008114611b1f576040519150601f19603f3d011682016040523d82523d6000602084013e611b24565b606091505b5050905080611b68576040517f08c379a0000000000000000000000000000000000000000000000000000000008152600401611b5f906143e5565b60405180910390fd5b505050565b611b878282604051806020016040528060008152506124fb565b5050565b611b936118aa565b6bffffffffffffffffffffffff16816bffffffffffffffffffffffff161115611bf1576040517f08c379a0000000000000000000000000000000000000000000000000000000008152600401611be890614477565b60405180910390fd5b600073ffffffffffffffffffffffffffffffffffffffff168273ffffffffffffffffffffffffffffffffffffffff1603611c60576040517f08c379a0000000000000000000000000000000000000000000000000000000008152600401611c57906144e3565b60405180910390fd5b60405180604001604052808373ffffffffffffffffffffffffffffffffffffffff168152602001826bffffffffffffffffffffffff168152506009600085815260200190815260200160002060008201518160000160006101000a81548173ffffffffffffffffffffffffffffffffffffffff021916908373ffffffffffffffffffffffffffffffffffffffff16021790555060208201518160000160146101000a8154816bffffffffffffffffffffffff02191690836bffffffffffffffffffffffff160217905550905050505050565b611d3b826122cb565b611d7a576040517f08c379a0000000000000000000000000000000000000000000000000000000008152600401611d7190614575565b60405180910390fd5b80600660008481526020019081526020016000209081611d9a9190614741565b505050565b6001600a81905550565b60006002600083815260200190815260200160002060009054906101000a900473ffffffffffffffffffffffffffffffffffffffff169050919050565b6000600760019054906101000a900473ffffffffffffffffffffffffffffffffffffffff16905081600760016101000a81548173ffffffffffffffffffffffffffffffffffffffff021916908373ffffffffffffffffffffffffffffffffffffffff1602179055508173ffffffffffffffffffffffffffffffffffffffff168173ffffffffffffffffffffffffffffffffffffffff167f8be0079c531659141344cd1fd0a4f28419497f9722a3daafe3b4186f6b6457e060405160405180910390a35050565b611eb46119a1565b6001600760006101000a81548160ff0219169083151502179055507f62e78cea01bee320cd4e420270b5ea74000d11b0c9f74754ebdbfc544b05a258611ef861145b565b604051611f0591906132ba565b60405180910390a1565b8173ffffffffffffffffffffffffffffffffffffffff168373ffffffffffffffffffffffffffffffffffffffff1603611f7d576040517f08c379a0000000000000000000000000000000000000000000000000000000008152600401611f749061485f565b60405180910390fd5b80600560008573ffffffffffffffffffffffffffffffffffffffff1673ffffffffffffffffffffffffffffffffffffffff16815260200190815260200160002060008473ffffffffffffffffffffffffffffffffffffffff1673ffffffffffffffffffffffffffffffffffffffff16815260200190815260200160002060006101000a81548160ff0219169083151502179055508173ffffffffffffffffffffffffffffffffffffffff168373ffffffffffffffffffffffffffffffffffffffff167f17307eab39ab6107e8899845ad3d59bd9653f200f220920489ca2b5937696c318360405161206e919061311f565b60405180910390a3505050565b6120868484846115b1565b61209284848484612556565b6120d1576040517f08c379a00000000000000000000000000000000000000000000000000000000081526004016120c8906148f1565b60405180910390fd5b50505050565b60606120e282611410565b60006006600084815260200190815260200160002080546121029061387d565b80601f016020809104026020016040519081016040528092919081815260200182805461212e9061387d565b801561217b5780601f106121505761010080835404028352916020019161217b565b820191906000526020600020905b81548152906001019060200180831161215e57829003601f168201915b50505050509050600061218c6126dd565b905060008151036121a15781925050506121e4565b6000825111156121d65780826040516020016121be929190614942565b604051602081830303815290604052925050506121e4565b6121df846126f4565b925050505b919050565b60007f80ac58cd000000000000000000000000000000000000000000000000000000007bffffffffffffffffffffffffffffffffffffffffffffffffffffffff1916827bffffffffffffffffffffffffffffffffffffffffffffffffffffffff191614806122b457507f5b5e139f000000000000000000000000000000000000000000000000000000007bffffffffffffffffffffffffffffffffffffffffffffffffffffffff1916827bffffffffffffffffffffffffffffffffffffffffffffffffffffffff1916145b806122c457506122c38261275c565b5b9050919050565b60008073ffffffffffffffffffffffffffffffffffffffff166122ed83611da9565b73ffffffffffffffffffffffffffffffffffffffff1614159050919050565b600181111561242c57600073ffffffffffffffffffffffffffffffffffffffff168473ffffffffffffffffffffffffffffffffffffffff16146123a05780600360008673ffffffffffffffffffffffffffffffffffffffff1673ffffffffffffffffffffffffffffffffffffffff16815260200190815260200160002060008282546123989190613df7565b925050819055505b600073ffffffffffffffffffffffffffffffffffffffff168373ffffffffffffffffffffffffffffffffffffffff161461242b5780600360008573ffffffffffffffffffffffffffffffffffffffff1673ffffffffffffffffffffffffffffffffffffffff16815260200190815260200160002060008282546124239190613a93565b925050819055505b5b50505050565b50505050565b612440610fb5565b61247f576040517f08c379a0000000000000000000000000000000000000000000000000000000008152600401612476906149b2565b60405180910390fd5b565b61248a816127c6565b60006006600083815260200190815260200160002080546124aa9061387d565b9050146124d1576006600082815260200190815260200160002060006124d0919061300e565b5b50565b60008060006124e38585612914565b915091506124f081612965565b819250505092915050565b6125058383612acb565b6125126000848484612556565b612551576040517f08c379a0000000000000000000000000000000000000000000000000000000008152600401612548906148f1565b60405180910390fd5b505050565b60006125778473ffffffffffffffffffffffffffffffffffffffff16612ce8565b156126d0578373ffffffffffffffffffffffffffffffffffffffff1663150b7a026125a061145b565b8786866040518563ffffffff1660e01b81526004016125c29493929190614a27565b6020604051808303816000875af19250505080156125fe57506040513d601f19601f820116820180604052508101906125fb9190614a88565b60015b612680573d806000811461262e576040519150601f19603f3d011682016040523d82523d6000602084013e612633565b606091505b506000815103612678576040517f08c379a000000000000000000000000000000000000000000000000000000000815260040161266f906148f1565b60405180910390fd5b805181602001fd5b63150b7a0260e01b7bffffffffffffffffffffffffffffffffffffffffffffffffffffffff1916817bffffffffffffffffffffffffffffffffffffffffffffffffffffffff1916149150506126d5565b600190505b949350505050565b606060405180602001604052806000815250905090565b60606126ff82611410565b60006127096126dd565b905060008151116127295760405180602001604052806000815250612754565b8061273384612d0b565b604051602001612744929190614942565b6040516020818303038152906040525b915050919050565b60007f01ffc9a7000000000000000000000000000000000000000000000000000000007bffffffffffffffffffffffffffffffffffffffffffffffffffffffff1916827bffffffffffffffffffffffffffffffffffffffffffffffffffffffff1916149050919050565b60006127d182610fcc565b90506127e181600084600161230c565b6127ea82610fcc565b90506004600083815260200190815260200160002060006101000a81549073ffffffffffffffffffffffffffffffffffffffff02191690556001600360008373ffffffffffffffffffffffffffffffffffffffff1673ffffffffffffffffffffffffffffffffffffffff168152602001908152602001600020600082825403925050819055506002600083815260200190815260200160002060006101000a81549073ffffffffffffffffffffffffffffffffffffffff021916905581600073ffffffffffffffffffffffffffffffffffffffff168273ffffffffffffffffffffffffffffffffffffffff167fddf252ad1be2c89b69c2b068fc378daa952ba7f163c4a11628f55a4df523b3ef60405160405180910390a4612910816000846001612432565b5050565b60008060418351036129555760008060006020860151925060408601519150606086015160001a905061294987828585612dd9565b9450945050505061295e565b60006002915091505b9250929050565b6000600481111561297957612978614ab5565b5b81600481111561298c5761298b614ab5565b5b0315612ac857600160048111156129a6576129a5614ab5565b5b8160048111156129b9576129b8614ab5565b5b036129f9576040517f08c379a00000000000000000000000000000000000000000000000000000000081526004016129f090614b30565b60405180910390fd5b60026004811115612a0d57612a0c614ab5565b5b816004811115612a2057612a1f614ab5565b5b03612a60576040517f08c379a0000000000000000000000000000000000000000000000000000000008152600401612a5790614b9c565b60405180910390fd5b60036004811115612a7457612a73614ab5565b5b816004811115612a8757612a86614ab5565b5b03612ac7576040517f08c379a0000000000000000000000000000000000000000000000000000000008152600401612abe90614c2e565b60405180910390fd5b5b50565b600073ffffffffffffffffffffffffffffffffffffffff168273ffffffffffffffffffffffffffffffffffffffff1603612b3a576040517f08c379a0000000000000000000000000000000000000000000000000000000008152600401612b3190614c9a565b60405180910390fd5b612b43816122cb565b15612b83576040517f08c379a0000000000000000000000000000000000000000000000000000000008152600401612b7a90614d06565b60405180910390fd5b612b9160008383600161230c565b612b9a816122cb565b15612bda576040517f08c379a0000000000000000000000000000000000000000000000000000000008152600401612bd190614d06565b60405180910390fd5b6001600360008473ffffffffffffffffffffffffffffffffffffffff1673ffffffffffffffffffffffffffffffffffffffff16815260200190815260200160002060008282540192505081905550816002600083815260200190815260200160002060006101000a81548173ffffffffffffffffffffffffffffffffffffffff021916908373ffffffffffffffffffffffffffffffffffffffff160217905550808273ffffffffffffffffffffffffffffffffffffffff16600073ffffffffffffffffffffffffffffffffffffffff167fddf252ad1be2c89b69c2b068fc378daa952ba7f163c4a11628f55a4df523b3ef60405160405180910390a4612ce4600083836001612432565b5050565b6000808273ffffffffffffffffffffffffffffffffffffffff163b119050919050565b606060006001612d1a84612ebb565b01905060008167ffffffffffffffff811115612d3957612d38613660565b5b6040519080825280601f01601f191660200182016040528015612d6b5781602001600182028036833780820191505090505b509050600082602001820190505b600115612dce578080600190039150507f3031323334353637383961626364656600000000000000000000000000000000600a86061a8153600a8581612dc257612dc1613c2d565b5b04945060008503612d79575b819350505050919050565b6000807f7fffffffffffffffffffffffffffffff5d576e7357a4501ddfe92f46681b20a08360001c1115612e14576000600391509150612eb2565b600060018787878760405160008152602001604052604051612e399493929190614d51565b6020604051602081039080840390855afa158015612e5b573d6000803e3d6000fd5b505050602060405103519050600073ffffffffffffffffffffffffffffffffffffffff168173ffffffffffffffffffffffffffffffffffffffff1603612ea957600060019250925050612eb2565b80600092509250505b94509492505050565b600080600090507a184f03e93ff9f4daa797ed6e38ed64bf6a1f0100000000000000008310612f19577a184f03e93ff9f4daa797ed6e38ed64bf6a1f0100000000000000008381612f0f57612f0e613c2d565b5b0492506040810190505b6d04ee2d6d415b85acef81000000008310612f56576d04ee2d6d415b85acef81000000008381612f4c57612f4b613c2d565b5b0492506020810190505b662386f26fc100008310612f8557662386f26fc100008381612f7b57612f7a613c2d565b5b0492506010810190505b6305f5e1008310612fae576305f5e1008381612fa457612fa3613c2d565b5b0492506008810190505b6127108310612fd3576127108381612fc957612fc8613c2d565b5b0492506004810190505b60648310612ff65760648381612fec57612feb613c2d565b5b0492506002810190505b600a8310613005576001810190505b80915050919050565b50805461301a9061387d565b6000825580601f1061302c575061304b565b601f01602090049060005260206000209081019061304a919061304e565b5b50565b5b8082111561306757600081600090555060010161304f565b5090565b6000604051905090565b600080fd5b600080fd5b60007fffffffff0000000000000000000000000000000000000000000000000000000082169050919050565b6130b48161307f565b81146130bf57600080fd5b50565b6000813590506130d1816130ab565b92915050565b6000602082840312156130ed576130ec613075565b5b60006130fb848285016130c2565b91505092915050565b60008115159050919050565b61311981613104565b82525050565b60006020820190506131346000830184613110565b92915050565b6000819050919050565b61314d8161313a565b82525050565b60006020820190506131686000830184613144565b92915050565b600081519050919050565b600082825260208201905092915050565b60005b838110156131a857808201518184015260208101905061318d565b60008484015250505050565b6000601f19601f8301169050919050565b60006131d08261316e565b6131da8185613179565b93506131ea81856020860161318a565b6131f3816131b4565b840191505092915050565b6000602082019050818103600083015261321881846131c5565b905092915050565b6132298161313a565b811461323457600080fd5b50565b60008135905061324681613220565b92915050565b60006020828403121561326257613261613075565b5b600061327084828501613237565b91505092915050565b600073ffffffffffffffffffffffffffffffffffffffff82169050919050565b60006132a482613279565b9050919050565b6132b481613299565b82525050565b60006020820190506132cf60008301846132ab565b92915050565b6132de81613299565b81146132e957600080fd5b50565b6000813590506132fb816132d5565b92915050565b6000806040838503121561331857613317613075565b5b6000613326858286016132ec565b925050602061333785828601613237565b9150509250929050565b60008060006060848603121561335a57613359613075565b5b6000613368868287016132ec565b9350506020613379868287016132ec565b925050604061338a86828701613237565b9150509250925092565b600080604083850312156133ab576133aa613075565b5b60006133b985828601613237565b92505060206133ca85828601613237565b9150509250929050565b60006040820190506133e960008301856132ab565b6133f66020830184613144565b9392505050565b6000819050919050565b613410816133fd565b811461341b57600080fd5b50565b60008135905061342d81613407565b92915050565b60006020828403121561344957613448613075565b5b60006134578482850161341e565b91505092915050565b600080fd5b600080fd5b600080fd5b60008083601f84011261348557613484613460565b5b8235905067ffffffffffffffff8111156134a2576134a1613465565b5b6020830191508360018202830111156134be576134bd61346a565b5b9250929050565b60008083601f8401126134db576134da613460565b5b8235905067ffffffffffffffff8111156134f8576134f7613465565b5b6020830191508360018202830111156135145761351361346a565b5b9250929050565b6000806000806000806080878903121561353857613537613075565b5b600061354689828a0161341e565b965050602087013567ffffffffffffffff8111156135675761356661307a565b5b61357389828a0161346f565b9550955050604061358689828a01613237565b935050606087013567ffffffffffffffff8111156135a7576135a661307a565b5b6135b389828a016134c5565b92509250509295509295509295565b6000602082840312156135d8576135d7613075565b5b60006135e6848285016132ec565b91505092915050565b6135f881613104565b811461360357600080fd5b50565b600081359050613615816135ef565b92915050565b6000806040838503121561363257613631613075565b5b6000613640858286016132ec565b925050602061365185828601613606565b9150509250929050565b600080fd5b7f4e487b7100000000000000000000000000000000000000000000000000000000600052604160045260246000fd5b613698826131b4565b810181811067ffffffffffffffff821117156136b7576136b6613660565b5b80604052505050565b60006136ca61306b565b90506136d6828261368f565b919050565b600067ffffffffffffffff8211156136f6576136f5613660565b5b6136ff826131b4565b9050602081019050919050565b82818337600083830152505050565b600061372e613729846136db565b6136c0565b90508281526020810184848401111561374a5761374961365b565b5b61375584828561370c565b509392505050565b600082601f83011261377257613771613460565b5b813561378284826020860161371b565b91505092915050565b600080600080608085870312156137a5576137a4613075565b5b60006137b3878288016132ec565b94505060206137c4878288016132ec565b93505060406137d587828801613237565b925050606085013567ffffffffffffffff8111156137f6576137f561307a565b5b6138028782880161375d565b91505092959194509250565b6000806040838503121561382557613824613075565b5b6000613833858286016132ec565b9250506020613844858286016132ec565b9150509250929050565b7f4e487b7100000000000000000000000000000000000000000000000000000000600052602260045260246000fd5b6000600282049050600182168061389557607f821691505b6020821081036138a8576138a761384e565b5b50919050565b7f4552433732313a20617070726f76616c20746f2063757272656e74206f776e6560008201527f7200000000000000000000000000000000000000000000000000000000000000602082015250565b600061390a602183613179565b9150613915826138ae565b604082019050919050565b60006020820190508181036000830152613939816138fd565b9050919050565b7f4552433732313a20617070726f76652063616c6c6572206973206e6f7420746f60008201527f6b656e206f776e6572206f7220617070726f76656420666f7220616c6c000000602082015250565b600061399c603d83613179565b91506139a782613940565b604082019050919050565b600060208201905081810360008301526139cb8161398f565b9050919050565b7f4d75737420626520436f6e7472616374204f776e657220746f2063616c6c207460008201527f68652066756e6374696f6e000000000000000000000000000000000000000000602082015250565b6000613a2e602b83613179565b9150613a39826139d2565b604082019050919050565b60006020820190508181036000830152613a5d81613a21565b9050919050565b7f4e487b7100000000000000000000000000000000000000000000000000000000600052601160045260246000fd5b6000613a9e8261313a565b9150613aa98361313a565b9250828201905080821115613ac157613ac0613a64565b5b92915050565b7f4e65656420746f20776169742032206d696e75746573206265666f726520636860008201527f616e6765206d696e74696e672066656520616761696e00000000000000000000602082015250565b6000613b23603683613179565b9150613b2e82613ac7565b604082019050919050565b60006020820190508181036000830152613b5281613b16565b9050919050565b7f4552433732313a2063616c6c6572206973206e6f7420746f6b656e206f776e6560008201527f72206f7220617070726f76656400000000000000000000000000000000000000602082015250565b6000613bb5602d83613179565b9150613bc082613b59565b604082019050919050565b60006020820190508181036000830152613be481613ba8565b9050919050565b6000613bf68261313a565b9150613c018361313a565b9250828202613c0f8161313a565b91508282048414831517613c2657613c25613a64565b5b5092915050565b7f4e487b7100000000000000000000000000000000000000000000000000000000600052601260045260246000fd5b6000613c678261313a565b9150613c728361313a565b925082613c8257613c81613c2d565b5b828204905092915050565b7f4861736820686173206265656e20757365640000000000000000000000000000600082015250565b6000613cc3601283613179565b9150613cce82613c8d565b602082019050919050565b60006020820190508181036000830152613cf281613cb6565b9050919050565b7f5369676e6174757265204661696c656400000000000000000000000000000000600082015250565b6000613d2f601083613179565b9150613d3a82613cf9565b602082019050919050565b60006020820190508181036000830152613d5e81613d22565b9050919050565b7f4e6f7420656e6f756768204d415449432073656e743b20636865636b2070726960008201527f6365210000000000000000000000000000000000000000000000000000000000602082015250565b6000613dc1602383613179565b9150613dcc82613d65565b604082019050919050565b60006020820190508181036000830152613df081613db4565b9050919050565b6000613e028261313a565b9150613e0d8361313a565b9250828203905081811115613e2557613e24613a64565b5b92915050565b7f4552433732313a20696e76616c696420746f6b656e2049440000000000000000600082015250565b6000613e61601883613179565b9150613e6c82613e2b565b602082019050919050565b60006020820190508181036000830152613e9081613e54565b9050919050565b7f4552433732313a2061646472657373207a65726f206973206e6f74206120766160008201527f6c6964206f776e65720000000000000000000000000000000000000000000000602082015250565b6000613ef3602983613179565b9150613efe82613e97565b604082019050919050565b60006020820190508181036000830152613f2281613ee6565b9050919050565b7f4f776e61626c653a206e6577206f776e657220697320746865207a65726f206160008201527f6464726573730000000000000000000000000000000000000000000000000000602082015250565b6000613f85602683613179565b9150613f9082613f29565b604082019050919050565b60006020820190508181036000830152613fb481613f78565b9050919050565b7f4552433732313a207472616e736665722066726f6d20696e636f72726563742060008201527f6f776e6572000000000000000000000000000000000000000000000000000000602082015250565b6000614017602583613179565b915061402282613fbb565b604082019050919050565b600060208201905081810360008301526140468161400a565b9050919050565b7f4552433732313a207472616e7366657220746f20746865207a65726f2061646460008201527f7265737300000000000000000000000000000000000000000000000000000000602082015250565b60006140a9602483613179565b91506140b48261404d565b604082019050919050565b600060208201905081810360008301526140d88161409c565b9050919050565b7f4f776e61626c653a2063616c6c6572206973206e6f7420746865206f776e6572600082015250565b6000614115602083613179565b9150614120826140df565b602082019050919050565b6000602082019050818103600083015261414481614108565b9050919050565b7f5061757361626c653a2070617573656400000000000000000000000000000000600082015250565b6000614181601083613179565b915061418c8261414b565b602082019050919050565b600060208201905081810360008301526141b081614174565b9050919050565b7f5265656e7472616e637947756172643a207265656e7472616e742063616c6c00600082015250565b60006141ed601f83613179565b91506141f8826141b7565b602082019050919050565b6000602082019050818103600083015261421c816141e0565b9050919050565b600081905092915050565b7f19457468657265756d205369676e6564204d6573736167653a0a333200000000600082015250565b6000614264601c83614223565b915061426f8261422e565b601c82019050919050565b6000819050919050565b614295614290826133fd565b61427a565b82525050565b60006142a682614257565b91506142b28284614284565b60208201915081905092915050565b7f416464726573733a20696e73756666696369656e742062616c616e6365000000600082015250565b60006142f7601d83613179565b9150614302826142c1565b602082019050919050565b60006020820190508181036000830152614326816142ea565b9050919050565b600081905092915050565b50565b600061434860008361432d565b915061435382614338565b600082019050919050565b60006143698261433b565b9150819050919050565b7f416464726573733a20756e61626c6520746f2073656e642076616c75652c207260008201527f6563697069656e74206d61792068617665207265766572746564000000000000602082015250565b60006143cf603a83613179565b91506143da82614373565b604082019050919050565b600060208201905081810360008301526143fe816143c2565b9050919050565b7f455243323938313a20726f79616c7479206665652077696c6c2065786365656460008201527f2073616c65507269636500000000000000000000000000000000000000000000602082015250565b6000614461602a83613179565b915061446c82614405565b604082019050919050565b6000602082019050818103600083015261449081614454565b9050919050565b7f455243323938313a20496e76616c696420706172616d65746572730000000000600082015250565b60006144cd601b83613179565b91506144d882614497565b602082019050919050565b600060208201905081810360008301526144fc816144c0565b9050919050565b7f45524337323155524953746f726167653a2055524920736574206f66206e6f6e60008201527f6578697374656e7420746f6b656e000000000000000000000000000000000000602082015250565b600061455f602e83613179565b915061456a82614503565b604082019050919050565b6000602082019050818103600083015261458e81614552565b9050919050565b60008190508160005260206000209050919050565b60006020601f8301049050919050565b600082821b905092915050565b6000600883026145f77fffffffffffffffffffffffffffffffffffffffffffffffffffffffffffffffff826145ba565b61460186836145ba565b95508019841693508086168417925050509392505050565b6000819050919050565b600061463e6146396146348461313a565b614619565b61313a565b9050919050565b6000819050919050565b61465883614623565b61466c61466482614645565b8484546145c7565b825550505050565b600090565b614681614674565b61468c81848461464f565b505050565b5b818110156146b0576146a5600082614679565b600181019050614692565b5050565b601f8211156146f5576146c681614595565b6146cf846145aa565b810160208510156146de578190505b6146f26146ea856145aa565b830182614691565b50505b505050565b600082821c905092915050565b6000614718600019846008026146fa565b1980831691505092915050565b60006147318383614707565b9150826002028217905092915050565b61474a8261316e565b67ffffffffffffffff81111561476357614762613660565b5b61476d825461387d565b6147788282856146b4565b600060209050601f8311600181146147ab5760008415614799578287015190505b6147a38582614725565b86555061480b565b601f1984166147b986614595565b60005b828110156147e1578489015182556001820191506020850194506020810190506147bc565b868310156147fe57848901516147fa601f891682614707565b8355505b6001600288020188555050505b505050505050565b7f4552433732313a20617070726f766520746f2063616c6c657200000000000000600082015250565b6000614849601983613179565b915061485482614813565b602082019050919050565b600060208201905081810360008301526148788161483c565b9050919050565b7f4552433732313a207472616e7366657220746f206e6f6e20455243373231526560008201527f63656976657220696d706c656d656e7465720000000000000000000000000000602082015250565b60006148db603283613179565b91506148e68261487f565b604082019050919050565b6000602082019050818103600083015261490a816148ce565b9050919050565b600061491c8261316e565b6149268185614223565b935061493681856020860161318a565b80840191505092915050565b600061494e8285614911565b915061495a8284614911565b91508190509392505050565b7f5061757361626c653a206e6f7420706175736564000000000000000000000000600082015250565b600061499c601483613179565b91506149a782614966565b602082019050919050565b600060208201905081810360008301526149cb8161498f565b9050919050565b600081519050919050565b600082825260208201905092915050565b60006149f9826149d2565b614a0381856149dd565b9350614a1381856020860161318a565b614a1c816131b4565b840191505092915050565b6000608082019050614a3c60008301876132ab565b614a4960208301866132ab565b614a566040830185613144565b8181036060830152614a6881846149ee565b905095945050505050565b600081519050614a82816130ab565b92915050565b600060208284031215614a9e57614a9d613075565b5b6000614aac84828501614a73565b91505092915050565b7f4e487b7100000000000000000000000000000000000000000000000000000000600052602160045260246000fd5b7f45434453413a20696e76616c6964207369676e61747572650000000000000000600082015250565b6000614b1a601883613179565b9150614b2582614ae4565b602082019050919050565b60006020820190508181036000830152614b4981614b0d565b9050919050565b7f45434453413a20696e76616c6964207369676e6174757265206c656e67746800600082015250565b6000614b86601f83613179565b9150614b9182614b50565b602082019050919050565b60006020820190508181036000830152614bb581614b79565b9050919050565b7f45434453413a20696e76616c6964207369676e6174757265202773272076616c60008201527f7565000000000000000000000000000000000000000000000000000000000000602082015250565b6000614c18602283613179565b9150614c2382614bbc565b604082019050919050565b60006020820190508181036000830152614c4781614c0b565b9050919050565b7f4552433732313a206d696e7420746f20746865207a65726f2061646472657373600082015250565b6000614c84602083613179565b9150614c8f82614c4e565b602082019050919050565b60006020820190508181036000830152614cb381614c77565b9050919050565b7f4552433732313a20746f6b656e20616c7265616479206d696e74656400000000600082015250565b6000614cf0601c83613179565b9150614cfb82614cba565b602082019050919050565b60006020820190508181036000830152614d1f81614ce3565b9050919050565b614d2f816133fd565b82525050565b600060ff82169050919050565b614d4b81614d35565b82525050565b6000608082019050614d666000830187614d26565b614d736020830186614d42565b614d806040830185614d26565b614d8d6060830184614d26565b9594505050505056fea2646970667358221220e39ec9e0b45601d9bfc9d4f8182aa2268bfcdc529f4a81d6caf562d5317d8ec364736f6c63430008110033",
  "linkReferences": {},
  "deployedLinkReferences": {}
}