{
  "_format": "hh-sol-artifact-1",
  "contractName": "MintPassNFT",
  "sourceName": "contracts/MintPass.sol",
  "abi": [
    {
      "inputs": [
        {
          "internalType": "address",
          "name": "_systemAddress",
          "type": "address"
        },
        {
          "internalType": "address",
          "name": "_mintingFeeRecipient",
          "type": "address"
        },
        {
          "internalType": "uint256",
          "name": "_mintingFee",
          "type": "uint256"
        },
        {
          "internalType": "uint96",
          "name": "_loyaltyFee",
          "type": "uint96"
        }
      ],
      "stateMutability": "nonpayable",
      "type": "constructor"
    },
    {
      "anonymous": false,
      "inputs": [
        {
          "indexed": true,
          "internalType": "address",
          "name": "owner",
          "type": "address"
        },
        {
          "indexed": true,
          "internalType": "address",
          "name": "approved",
          "type": "address"
        },
        {
          "indexed": true,
          "internalType": "uint256",
          "name": "tokenId",
          "type": "uint256"
        }
      ],
      "name": "Approval",
      "type": "event"
    },
    {
      "anonymous": false,
      "inputs": [
        {
          "indexed": true,
          "internalType": "address",
          "name": "owner",
          "type": "address"
        },
        {
          "indexed": true,
          "internalType": "address",
          "name": "operator",
          "type": "address"
        },
        {
          "indexed": false,
          "internalType": "bool",
          "name": "approved",
          "type": "bool"
        }
      ],
      "name": "ApprovalForAll",
      "type": "event"
    },
    {
      "anonymous": false,
      "inputs": [
        {
          "indexed": true,
          "internalType": "address",
          "name": "previousOwner",
          "type": "address"
        },
        {
          "indexed": true,
          "internalType": "address",
          "name": "newOwner",
          "type": "address"
        }
      ],
      "name": "OwnershipTransferred",
      "type": "event"
    },
    {
      "anonymous": false,
      "inputs": [
        {
          "indexed": false,
          "internalType": "address",
          "name": "account",
          "type": "address"
        }
      ],
      "name": "Paused",
      "type": "event"
    },
    {
      "anonymous": false,
      "inputs": [
        {
          "indexed": true,
          "internalType": "address",
          "name": "from",
          "type": "address"
        },
        {
          "indexed": true,
          "internalType": "address",
          "name": "to",
          "type": "address"
        },
        {
          "indexed": true,
          "internalType": "uint256",
          "name": "tokenId",
          "type": "uint256"
        }
      ],
      "name": "Transfer",
      "type": "event"
    },
    {
      "anonymous": false,
      "inputs": [
        {
          "indexed": false,
          "internalType": "address",
          "name": "account",
          "type": "address"
        }
      ],
      "name": "Unpaused",
      "type": "event"
    },
    {
      "anonymous": false,
      "inputs": [
        {
          "indexed": true,
          "internalType": "uint256",
          "name": "tokenId",
          "type": "uint256"
        }
      ],
      "name": "tokenIdMinted",
      "type": "event"
    },
    {
      "inputs": [
        {
          "internalType": "address",
          "name": "to",
          "type": "address"
        },
        {
          "internalType": "uint256",
          "name": "tokenId",
          "type": "uint256"
        }
      ],
      "name": "approve",
      "outputs": [],
      "stateMutability": "nonpayable",
      "type": "function"
    },
    {
      "inputs": [
        {
          "internalType": "address",
          "name": "owner",
          "type": "address"
        }
      ],
      "name": "balanceOf",
      "outputs": [
        {
          "internalType": "uint256",
          "name": "",
          "type": "uint256"
        }
      ],
      "stateMutability": "view",
      "type": "function"
    },
    {
      "inputs": [
        {
          "internalType": "uint256",
          "name": "tokenId",
          "type": "uint256"
        }
      ],
      "name": "burn",
      "outputs": [],
      "stateMutability": "nonpayable",
      "type": "function"
    },
    {
      "inputs": [
        {
          "internalType": "uint256",
          "name": "tokenId",
          "type": "uint256"
        }
      ],
      "name": "getApproved",
      "outputs": [
        {
          "internalType": "address",
          "name": "",
          "type": "address"
        }
      ],
      "stateMutability": "view",
      "type": "function"
    },
    {
      "inputs": [],
      "name": "getMintingFee",
      "outputs": [
        {
          "internalType": "uint256",
          "name": "",
          "type": "uint256"
        }
      ],
      "stateMutability": "view",
      "type": "function"
    },
    {
      "inputs": [
        {
          "internalType": "address",
          "name": "owner",
          "type": "address"
        },
        {
          "internalType": "address",
          "name": "operator",
          "type": "address"
        }
      ],
      "name": "isApprovedForAll",
      "outputs": [
        {
          "internalType": "bool",
          "name": "",
          "type": "bool"
        }
      ],
      "stateMutability": "view",
      "type": "function"
    },
    {
      "inputs": [
        {
          "internalType": "bytes32",
          "name": "hash",
          "type": "bytes32"
        },
        {
          "internalType": "bytes",
          "name": "signature",
          "type": "bytes"
        },
        {
          "internalType": "string",
          "name": "uri",
          "type": "string"
        }
      ],
      "name": "mintMintPass",
      "outputs": [
        {
          "internalType": "uint256",
          "name": "",
          "type": "uint256"
        }
      ],
      "stateMutability": "payable",
      "type": "function"
    },
    {
      "inputs": [],
      "name": "name",
      "outputs": [
        {
          "internalType": "string",
          "name": "",
          "type": "string"
        }
      ],
      "stateMutability": "view",
      "type": "function"
    },
    {
      "inputs": [],
      "name": "owner",
      "outputs": [
        {
          "internalType": "address",
          "name": "",
          "type": "address"
        }
      ],
      "stateMutability": "view",
      "type": "function"
    },
    {
      "inputs": [
        {
          "internalType": "uint256",
          "name": "tokenId",
          "type": "uint256"
        }
      ],
      "name": "ownerOf",
      "outputs": [
        {
          "internalType": "address",
          "name": "",
          "type": "address"
        }
      ],
      "stateMutability": "view",
      "type": "function"
    },
    {
      "inputs": [],
      "name": "pause",
      "outputs": [],
      "stateMutability": "nonpayable",
      "type": "function"
    },
    {
      "inputs": [],
      "name": "paused",
      "outputs": [
        {
          "internalType": "bool",
          "name": "",
          "type": "bool"
        }
      ],
      "stateMutability": "view",
      "type": "function"
    },
    {
      "inputs": [],
      "name": "renounceOwnership",
      "outputs": [],
      "stateMutability": "nonpayable",
      "type": "function"
    },
    {
      "inputs": [
        {
          "internalType": "uint256",
          "name": "_tokenId",
          "type": "uint256"
        },
        {
          "internalType": "uint256",
          "name": "_salePrice",
          "type": "uint256"
        }
      ],
      "name": "royaltyInfo",
      "outputs": [
        {
          "internalType": "address",
          "name": "",
          "type": "address"
        },
        {
          "internalType": "uint256",
          "name": "",
          "type": "uint256"
        }
      ],
      "stateMutability": "view",
      "type": "function"
    },
    {
      "inputs": [
        {
          "internalType": "address",
          "name": "from",
          "type": "address"
        },
        {
          "internalType": "address",
          "name": "to",
          "type": "address"
        },
        {
          "internalType": "uint256",
          "name": "tokenId",
          "type": "uint256"
        }
      ],
      "name": "safeTransferFrom",
      "outputs": [],
      "stateMutability": "nonpayable",
      "type": "function"
    },
    {
      "inputs": [
        {
          "internalType": "address",
          "name": "from",
          "type": "address"
        },
        {
          "internalType": "address",
          "name": "to",
          "type": "address"
        },
        {
          "internalType": "uint256",
          "name": "tokenId",
          "type": "uint256"
        },
        {
          "internalType": "bytes",
          "name": "data",
          "type": "bytes"
        }
      ],
      "name": "safeTransferFrom",
      "outputs": [],
      "stateMutability": "nonpayable",
      "type": "function"
    },
    {
      "inputs": [
        {
          "internalType": "address",
          "name": "operator",
          "type": "address"
        },
        {
          "internalType": "bool",
          "name": "approved",
          "type": "bool"
        }
      ],
      "name": "setApprovalForAll",
      "outputs": [],
      "stateMutability": "nonpayable",
      "type": "function"
    },
    {
      "inputs": [
        {
          "internalType": "uint256",
          "name": "_mintingFee",
          "type": "uint256"
        }
      ],
      "name": "setMintingFee",
      "outputs": [],
      "stateMutability": "nonpayable",
      "type": "function"
    },
    {
      "inputs": [
        {
          "internalType": "bytes4",
          "name": "interfaceId",
          "type": "bytes4"
        }
      ],
      "name": "supportsInterface",
      "outputs": [
        {
          "internalType": "bool",
          "name": "",
          "type": "bool"
        }
      ],
      "stateMutability": "view",
      "type": "function"
    },
    {
      "inputs": [],
      "name": "symbol",
      "outputs": [
        {
          "internalType": "string",
          "name": "",
          "type": "string"
        }
      ],
      "stateMutability": "view",
      "type": "function"
    },
    {
      "inputs": [
        {
          "internalType": "uint256",
          "name": "tokenId",
          "type": "uint256"
        }
      ],
      "name": "tokenURI",
      "outputs": [
        {
          "internalType": "string",
          "name": "",
          "type": "string"
        }
      ],
      "stateMutability": "view",
      "type": "function"
    },
    {
      "inputs": [
        {
          "internalType": "address",
          "name": "from",
          "type": "address"
        },
        {
          "internalType": "address",
          "name": "to",
          "type": "address"
        },
        {
          "internalType": "uint256",
          "name": "tokenId",
          "type": "uint256"
        }
      ],
      "name": "transferFrom",
      "outputs": [],
      "stateMutability": "nonpayable",
      "type": "function"
    },
    {
      "inputs": [
        {
          "internalType": "address",
          "name": "newOwner",
          "type": "address"
        }
      ],
      "name": "transferOwnership",
      "outputs": [],
      "stateMutability": "nonpayable",
      "type": "function"
    },
    {
      "inputs": [],
      "name": "unpause",
      "outputs": [],
      "stateMutability": "nonpayable",
      "type": "function"
    }
  ],
  "bytecode": "0x60806040523480156200001157600080fd5b5060405162004d8f38038062004d8f8339818101604052810190620000379190620003c5565b6040518060400160405280600881526020017f4d696e74506173730000000000000000000000000000000000000000000000008152506040518060400160405280600581526020017f4d504153530000000000000000000000000000000000000000000000000000008152508160009081620000b49190620006a7565b508060019081620000c69190620006a7565b5050506000600760006101000a81548160ff02191690831515021790555062000104620000f86200020960201b60201c565b6200021160201b60201c565b33600e600c6101000a81548173ffffffffffffffffffffffffffffffffffffffff021916908373ffffffffffffffffffffffffffffffffffffffff16021790555083600b60006101000a81548173ffffffffffffffffffffffffffffffffffffffff021916908373ffffffffffffffffffffffffffffffffffffffff16021790555082600c60006101000a81548173ffffffffffffffffffffffffffffffffffffffff021916908373ffffffffffffffffffffffffffffffffffffffff16021790555081600d8190555080600e60006101000a8154816bffffffffffffffffffffffff02191690836bffffffffffffffffffffffff160217905550505050506200078e565b600033905090565b6000600760019054906101000a900473ffffffffffffffffffffffffffffffffffffffff16905081600760016101000a81548173ffffffffffffffffffffffffffffffffffffffff021916908373ffffffffffffffffffffffffffffffffffffffff1602179055508173ffffffffffffffffffffffffffffffffffffffff168173ffffffffffffffffffffffffffffffffffffffff167f8be0079c531659141344cd1fd0a4f28419497f9722a3daafe3b4186f6b6457e060405160405180910390a35050565b600080fd5b600073ffffffffffffffffffffffffffffffffffffffff82169050919050565b60006200030982620002dc565b9050919050565b6200031b81620002fc565b81146200032757600080fd5b50565b6000815190506200033b8162000310565b92915050565b6000819050919050565b620003568162000341565b81146200036257600080fd5b50565b60008151905062000376816200034b565b92915050565b60006bffffffffffffffffffffffff82169050919050565b6200039f816200037c565b8114620003ab57600080fd5b50565b600081519050620003bf8162000394565b92915050565b60008060008060808587031215620003e257620003e1620002d7565b5b6000620003f2878288016200032a565b945050602062000405878288016200032a565b9350506040620004188782880162000365565b92505060606200042b87828801620003ae565b91505092959194509250565b600081519050919050565b7f4e487b7100000000000000000000000000000000000000000000000000000000600052604160045260246000fd5b7f4e487b7100000000000000000000000000000000000000000000000000000000600052602260045260246000fd5b60006002820490506001821680620004b957607f821691505b602082108103620004cf57620004ce62000471565b5b50919050565b60008190508160005260206000209050919050565b60006020601f8301049050919050565b600082821b905092915050565b600060088302620005397fffffffffffffffffffffffffffffffffffffffffffffffffffffffffffffffff82620004fa565b620005458683620004fa565b95508019841693508086168417925050509392505050565b6000819050919050565b600062000588620005826200057c8462000341565b6200055d565b62000341565b9050919050565b6000819050919050565b620005a48362000567565b620005bc620005b3826200058f565b84845462000507565b825550505050565b600090565b620005d3620005c4565b620005e081848462000599565b505050565b5b818110156200060857620005fc600082620005c9565b600181019050620005e6565b5050565b601f82111562000657576200062181620004d5565b6200062c84620004ea565b810160208510156200063c578190505b620006546200064b85620004ea565b830182620005e5565b50505b505050565b600082821c905092915050565b60006200067c600019846008026200065c565b1980831691505092915050565b600062000697838362000669565b9150826002028217905092915050565b620006b28262000437565b67ffffffffffffffff811115620006ce57620006cd62000442565b5b620006da8254620004a0565b620006e78282856200060c565b600060209050601f8311600181146200071f57600084156200070a578287015190505b62000716858262000689565b86555062000786565b601f1984166200072f86620004d5565b60005b82811015620007595784890151825560018201915060208501945060208101905062000732565b8683101562000779578489015162000775601f89168262000669565b8355505b6001600288020188555050505b505050505050565b6145f1806200079e6000396000f3fe60806040526004361061014b5760003560e01c806370a08231116100b6578063af1fc29a1161006f578063af1fc29a14610469578063b59d88a914610499578063b88d4fde146104c4578063c87b56dd146104ed578063e985e9c51461052a578063f2fde38b146105675761014b565b806370a082311461037f578063715018a6146103bc5780638456cb59146103d35780638da5cb5b146103ea57806395d89b4114610415578063a22cb465146104405761014b565b80632a55205a116101085780632a55205a146102705780633f4ba83a146102ae57806342842e0e146102c557806342966c68146102ee5780635c975abb146103175780636352211e146103425761014b565b806301ffc9a71461015057806306fdde031461018d578063081812fc146101b8578063095ea7b3146101f5578063238a47091461021e57806323b872dd14610247575b600080fd5b34801561015c57600080fd5b5061017760048036038101906101729190612c9a565b610590565b6040516101849190612ce2565b60405180910390f35b34801561019957600080fd5b506101a26105a2565b6040516101af9190612d8d565b60405180910390f35b3480156101c457600080fd5b506101df60048036038101906101da9190612de5565b610634565b6040516101ec9190612e53565b60405180910390f35b34801561020157600080fd5b5061021c60048036038101906102179190612e9a565b61067a565b005b34801561022a57600080fd5b5061024560048036038101906102409190612de5565b610791565b005b34801561025357600080fd5b5061026e60048036038101906102699190612eda565b6107f5565b005b34801561027c57600080fd5b5061029760048036038101906102929190612f2d565b610855565b6040516102a5929190612f7c565b60405180910390f35b3480156102ba57600080fd5b506102c3610a3f565b005b3480156102d157600080fd5b506102ec60048036038101906102e79190612eda565b610a51565b005b3480156102fa57600080fd5b5061031560048036038101906103109190612de5565b610a71565b005b34801561032357600080fd5b5061032c610acd565b6040516103399190612ce2565b60405180910390f35b34801561034e57600080fd5b5061036960048036038101906103649190612de5565b610ae4565b6040516103769190612e53565b60405180910390f35b34801561038b57600080fd5b506103a660048036038101906103a19190612fa5565b610b6a565b6040516103b39190612fd2565b60405180910390f35b3480156103c857600080fd5b506103d1610c21565b005b3480156103df57600080fd5b506103e8610c35565b005b3480156103f657600080fd5b506103ff610c47565b60405161040c9190612e53565b60405180910390f35b34801561042157600080fd5b5061042a610c71565b6040516104379190612d8d565b60405180910390f35b34801561044c57600080fd5b5061046760048036038101906104629190613019565b610d03565b005b610483600480360381019061047e9190613265565b610d19565b6040516104909190612fd2565b60405180910390f35b3480156104a557600080fd5b506104ae610eed565b6040516104bb9190612fd2565b60405180910390f35b3480156104d057600080fd5b506104eb60048036038101906104e691906132f0565b610ef7565b005b3480156104f957600080fd5b50610514600480360381019061050f9190612de5565b610f59565b6040516105219190612d8d565b60405180910390f35b34801561053657600080fd5b50610551600480360381019061054c9190613373565b610f6b565b60405161055e9190612ce2565b60405180910390f35b34801561057357600080fd5b5061058e60048036038101906105899190612fa5565b610fff565b005b600061059b82611082565b9050919050565b6060600080546105b1906133e2565b80601f01602080910402602001604051908101604052809291908181526020018280546105dd906133e2565b801561062a5780601f106105ff5761010080835404028352916020019161062a565b820191906000526020600020905b81548152906001019060200180831161060d57829003601f168201915b5050505050905090565b600061063f826110fc565b6004600083815260200190815260200160002060009054906101000a900473ffffffffffffffffffffffffffffffffffffffff169050919050565b600061068582610ae4565b90508073ffffffffffffffffffffffffffffffffffffffff168373ffffffffffffffffffffffffffffffffffffffff16036106f5576040517f08c379a00000000000000000000000000000000000000000000000000000000081526004016106ec90613485565b60405180910390fd5b8073ffffffffffffffffffffffffffffffffffffffff16610714611147565b73ffffffffffffffffffffffffffffffffffffffff16148061074357506107428161073d611147565b610f6b565b5b610782576040517f08c379a000000000000000000000000000000000000000000000000000000000815260040161077990613517565b60405180910390fd5b61078c838361114f565b505050565b3373ffffffffffffffffffffffffffffffffffffffff16600e600c9054906101000a900473ffffffffffffffffffffffffffffffffffffffff1673ffffffffffffffffffffffffffffffffffffffff16146107eb57600080fd5b80600d8190555050565b610806610800611147565b82611208565b610845576040517f08c379a000000000000000000000000000000000000000000000000000000000815260040161083c906135a9565b60405180910390fd5b61085083838361129d565b505050565b6000806000600960008681526020019081526020016000206040518060400160405290816000820160009054906101000a900473ffffffffffffffffffffffffffffffffffffffff1673ffffffffffffffffffffffffffffffffffffffff1673ffffffffffffffffffffffffffffffffffffffff1681526020016000820160149054906101000a90046bffffffffffffffffffffffff166bffffffffffffffffffffffff166bffffffffffffffffffffffff16815250509050600073ffffffffffffffffffffffffffffffffffffffff16816000015173ffffffffffffffffffffffffffffffffffffffff16036109ea5760086040518060400160405290816000820160009054906101000a900473ffffffffffffffffffffffffffffffffffffffff1673ffffffffffffffffffffffffffffffffffffffff1673ffffffffffffffffffffffffffffffffffffffff1681526020016000820160149054906101000a90046bffffffffffffffffffffffff166bffffffffffffffffffffffff166bffffffffffffffffffffffff168152505090505b60006109f4611596565b6bffffffffffffffffffffffff1682602001516bffffffffffffffffffffffff1686610a2091906135f8565b610a2a9190613669565b90508160000151819350935050509250929050565b610a476115a0565b610a4f61161e565b565b610a6c83838360405180602001604052806000815250610ef7565b505050565b610a82610a7c611147565b82611208565b610ac1576040517f08c379a0000000000000000000000000000000000000000000000000000000008152600401610ab8906135a9565b60405180910390fd5b610aca81611681565b50565b6000600760009054906101000a900460ff16905090565b600080610af08361168d565b9050600073ffffffffffffffffffffffffffffffffffffffff168173ffffffffffffffffffffffffffffffffffffffff1603610b61576040517f08c379a0000000000000000000000000000000000000000000000000000000008152600401610b58906136e6565b60405180910390fd5b80915050919050565b60008073ffffffffffffffffffffffffffffffffffffffff168273ffffffffffffffffffffffffffffffffffffffff1603610bda576040517f08c379a0000000000000000000000000000000000000000000000000000000008152600401610bd190613778565b60405180910390fd5b600360008373ffffffffffffffffffffffffffffffffffffffff1673ffffffffffffffffffffffffffffffffffffffff168152602001908152602001600020549050919050565b610c296115a0565b610c3360006116ca565b565b610c3d6115a0565b610c45611790565b565b6000600760019054906101000a900473ffffffffffffffffffffffffffffffffffffffff16905090565b606060018054610c80906133e2565b80601f0160208091040260200160405190810160405280929190818152602001828054610cac906133e2565b8015610cf95780601f10610cce57610100808354040283529160200191610cf9565b820191906000526020600020905b815481529060010190602001808311610cdc57829003601f168201915b5050505050905090565b610d15610d0e611147565b83836117f3565b5050565b6000600b60009054906101000a900473ffffffffffffffffffffffffffffffffffffffff1673ffffffffffffffffffffffffffffffffffffffff16610d5e858561195f565b73ffffffffffffffffffffffffffffffffffffffff1614610db4576040517f08c379a0000000000000000000000000000000000000000000000000000000008152600401610dab906137e4565b60405180910390fd5b600d54341015610df9576040517f08c379a0000000000000000000000000000000000000000000000000000000008152600401610df090613876565b60405180910390fd5b600c60009054906101000a900473ffffffffffffffffffffffffffffffffffffffff1673ffffffffffffffffffffffffffffffffffffffff166108fc600d549081150290604051600060405180830381858888f19350505050158015610e63573d6000803e3d6000fd5b506000610e70600a61199e565b9050610e7c600a6119ac565b610e8633826119c2565b610eab8133600e60009054906101000a90046bffffffffffffffffffffffff166119e0565b610eb58184611b87565b807fc1d4f2f9bfbbf8ceba443f4935f8ad0698acb0b335a8862c8d4319a408224c0960405160405180910390a2809150509392505050565b6000600d54905090565b610f08610f02611147565b83611208565b610f47576040517f08c379a0000000000000000000000000000000000000000000000000000000008152600401610f3e906135a9565b60405180910390fd5b610f5384848484611bf4565b50505050565b6060610f6482611c50565b9050919050565b6000600560008473ffffffffffffffffffffffffffffffffffffffff1673ffffffffffffffffffffffffffffffffffffffff16815260200190815260200160002060008373ffffffffffffffffffffffffffffffffffffffff1673ffffffffffffffffffffffffffffffffffffffff16815260200190815260200160002060009054906101000a900460ff16905092915050565b6110076115a0565b600073ffffffffffffffffffffffffffffffffffffffff168173ffffffffffffffffffffffffffffffffffffffff1603611076576040517f08c379a000000000000000000000000000000000000000000000000000000000815260040161106d90613908565b60405180910390fd5b61107f816116ca565b50565b60007f2a55205a000000000000000000000000000000000000000000000000000000007bffffffffffffffffffffffffffffffffffffffffffffffffffffffff1916827bffffffffffffffffffffffffffffffffffffffffffffffffffffffff191614806110f557506110f482611d62565b5b9050919050565b61110581611e44565b611144576040517f08c379a000000000000000000000000000000000000000000000000000000000815260040161113b906136e6565b60405180910390fd5b50565b600033905090565b816004600083815260200190815260200160002060006101000a81548173ffffffffffffffffffffffffffffffffffffffff021916908373ffffffffffffffffffffffffffffffffffffffff160217905550808273ffffffffffffffffffffffffffffffffffffffff166111c283610ae4565b73ffffffffffffffffffffffffffffffffffffffff167f8c5be1e5ebec7d5bd14f71427d1e84f3dd0314c0f7b2291e5b200ac8c7c3b92560405160405180910390a45050565b60008061121483610ae4565b90508073ffffffffffffffffffffffffffffffffffffffff168473ffffffffffffffffffffffffffffffffffffffff16148061125657506112558185610f6b565b5b8061129457508373ffffffffffffffffffffffffffffffffffffffff1661127c84610634565b73ffffffffffffffffffffffffffffffffffffffff16145b91505092915050565b8273ffffffffffffffffffffffffffffffffffffffff166112bd82610ae4565b73ffffffffffffffffffffffffffffffffffffffff1614611313576040517f08c379a000000000000000000000000000000000000000000000000000000000815260040161130a9061399a565b60405180910390fd5b600073ffffffffffffffffffffffffffffffffffffffff168273ffffffffffffffffffffffffffffffffffffffff1603611382576040517f08c379a000000000000000000000000000000000000000000000000000000000815260040161137990613a2c565b60405180910390fd5b61138f8383836001611e85565b8273ffffffffffffffffffffffffffffffffffffffff166113af82610ae4565b73ffffffffffffffffffffffffffffffffffffffff1614611405576040517f08c379a00000000000000000000000000000000000000000000000000000000081526004016113fc9061399a565b60405180910390fd5b6004600082815260200190815260200160002060006101000a81549073ffffffffffffffffffffffffffffffffffffffff02191690556001600360008573ffffffffffffffffffffffffffffffffffffffff1673ffffffffffffffffffffffffffffffffffffffff168152602001908152602001600020600082825403925050819055506001600360008473ffffffffffffffffffffffffffffffffffffffff1673ffffffffffffffffffffffffffffffffffffffff16815260200190815260200160002060008282540192505081905550816002600083815260200190815260200160002060006101000a81548173ffffffffffffffffffffffffffffffffffffffff021916908373ffffffffffffffffffffffffffffffffffffffff160217905550808273ffffffffffffffffffffffffffffffffffffffff168473ffffffffffffffffffffffffffffffffffffffff167fddf252ad1be2c89b69c2b068fc378daa952ba7f163c4a11628f55a4df523b3ef60405160405180910390a46115918383836001611fab565b505050565b6000612710905090565b6115a8611147565b73ffffffffffffffffffffffffffffffffffffffff166115c6610c47565b73ffffffffffffffffffffffffffffffffffffffff161461161c576040517f08c379a000000000000000000000000000000000000000000000000000000000815260040161161390613a98565b60405180910390fd5b565b611626611fb1565b6000600760006101000a81548160ff0219169083151502179055507f5db9ee0a495bf2e6ff9c91a7834c1ba4fdd244a5e8aa4e537bd38aeae4b073aa61166a611147565b6040516116779190612e53565b60405180910390a1565b61168a81611ffa565b50565b60006002600083815260200190815260200160002060009054906101000a900473ffffffffffffffffffffffffffffffffffffffff169050919050565b6000600760019054906101000a900473ffffffffffffffffffffffffffffffffffffffff16905081600760016101000a81548173ffffffffffffffffffffffffffffffffffffffff021916908373ffffffffffffffffffffffffffffffffffffffff1602179055508173ffffffffffffffffffffffffffffffffffffffff168173ffffffffffffffffffffffffffffffffffffffff167f8be0079c531659141344cd1fd0a4f28419497f9722a3daafe3b4186f6b6457e060405160405180910390a35050565b61179861204d565b6001600760006101000a81548160ff0219169083151502179055507f62e78cea01bee320cd4e420270b5ea74000d11b0c9f74754ebdbfc544b05a2586117dc611147565b6040516117e99190612e53565b60405180910390a1565b8173ffffffffffffffffffffffffffffffffffffffff168373ffffffffffffffffffffffffffffffffffffffff1603611861576040517f08c379a000000000000000000000000000000000000000000000000000000000815260040161185890613b04565b60405180910390fd5b80600560008573ffffffffffffffffffffffffffffffffffffffff1673ffffffffffffffffffffffffffffffffffffffff16815260200190815260200160002060008473ffffffffffffffffffffffffffffffffffffffff1673ffffffffffffffffffffffffffffffffffffffff16815260200190815260200160002060006101000a81548160ff0219169083151502179055508173ffffffffffffffffffffffffffffffffffffffff168373ffffffffffffffffffffffffffffffffffffffff167f17307eab39ab6107e8899845ad3d59bd9653f200f220920489ca2b5937696c31836040516119529190612ce2565b60405180910390a3505050565b600080836040516020016119739190613b9c565b6040516020818303038152906040528051906020012090506119958184612097565b91505092915050565b600081600001549050919050565b6001816000016000828254019250508190555050565b6119dc8282604051806020016040528060008152506120be565b5050565b6119e8611596565b6bffffffffffffffffffffffff16816bffffffffffffffffffffffff161115611a46576040517f08c379a0000000000000000000000000000000000000000000000000000000008152600401611a3d90613c34565b60405180910390fd5b600073ffffffffffffffffffffffffffffffffffffffff168273ffffffffffffffffffffffffffffffffffffffff1603611ab5576040517f08c379a0000000000000000000000000000000000000000000000000000000008152600401611aac90613ca0565b60405180910390fd5b60405180604001604052808373ffffffffffffffffffffffffffffffffffffffff168152602001826bffffffffffffffffffffffff168152506009600085815260200190815260200160002060008201518160000160006101000a81548173ffffffffffffffffffffffffffffffffffffffff021916908373ffffffffffffffffffffffffffffffffffffffff16021790555060208201518160000160146101000a8154816bffffffffffffffffffffffff02191690836bffffffffffffffffffffffff160217905550905050505050565b611b9082611e44565b611bcf576040517f08c379a0000000000000000000000000000000000000000000000000000000008152600401611bc690613d32565b60405180910390fd5b80600660008481526020019081526020016000209081611bef9190613efe565b505050565b611bff84848461129d565b611c0b84848484612119565b611c4a576040517f08c379a0000000000000000000000000000000000000000000000000000000008152600401611c4190614042565b60405180910390fd5b50505050565b6060611c5b826110fc565b6000600660008481526020019081526020016000208054611c7b906133e2565b80601f0160208091040260200160405190810160405280929190818152602001828054611ca7906133e2565b8015611cf45780601f10611cc957610100808354040283529160200191611cf4565b820191906000526020600020905b815481529060010190602001808311611cd757829003601f168201915b505050505090506000611d056122a0565b90506000815103611d1a578192505050611d5d565b600082511115611d4f578082604051602001611d37929190614093565b60405160208183030381529060405292505050611d5d565b611d58846122b7565b925050505b919050565b60007f80ac58cd000000000000000000000000000000000000000000000000000000007bffffffffffffffffffffffffffffffffffffffffffffffffffffffff1916827bffffffffffffffffffffffffffffffffffffffffffffffffffffffff19161480611e2d57507f5b5e139f000000000000000000000000000000000000000000000000000000007bffffffffffffffffffffffffffffffffffffffffffffffffffffffff1916827bffffffffffffffffffffffffffffffffffffffffffffffffffffffff1916145b80611e3d5750611e3c8261231f565b5b9050919050565b60008073ffffffffffffffffffffffffffffffffffffffff16611e668361168d565b73ffffffffffffffffffffffffffffffffffffffff1614159050919050565b6001811115611fa557600073ffffffffffffffffffffffffffffffffffffffff168473ffffffffffffffffffffffffffffffffffffffff1614611f195780600360008673ffffffffffffffffffffffffffffffffffffffff1673ffffffffffffffffffffffffffffffffffffffff1681526020019081526020016000206000828254611f1191906140b7565b925050819055505b600073ffffffffffffffffffffffffffffffffffffffff168373ffffffffffffffffffffffffffffffffffffffff1614611fa45780600360008573ffffffffffffffffffffffffffffffffffffffff1673ffffffffffffffffffffffffffffffffffffffff1681526020019081526020016000206000828254611f9c91906140eb565b925050819055505b5b50505050565b50505050565b611fb9610acd565b611ff8576040517f08c379a0000000000000000000000000000000000000000000000000000000008152600401611fef9061416b565b60405180910390fd5b565b61200381612389565b6000600660008381526020019081526020016000208054612023906133e2565b90501461204a576006600082815260200190815260200160002060006120499190612bd1565b5b50565b612055610acd565b15612095576040517f08c379a000000000000000000000000000000000000000000000000000000000815260040161208c906141d7565b60405180910390fd5b565b60008060006120a685856124d7565b915091506120b381612528565b819250505092915050565b6120c8838361268e565b6120d56000848484612119565b612114576040517f08c379a000000000000000000000000000000000000000000000000000000000815260040161210b90614042565b60405180910390fd5b505050565b600061213a8473ffffffffffffffffffffffffffffffffffffffff166128ab565b15612293578373ffffffffffffffffffffffffffffffffffffffff1663150b7a02612163611147565b8786866040518563ffffffff1660e01b8152600401612185949392919061424c565b6020604051808303816000875af19250505080156121c157506040513d601f19601f820116820180604052508101906121be91906142ad565b60015b612243573d80600081146121f1576040519150601f19603f3d011682016040523d82523d6000602084013e6121f6565b606091505b50600081510361223b576040517f08c379a000000000000000000000000000000000000000000000000000000000815260040161223290614042565b60405180910390fd5b805181602001fd5b63150b7a0260e01b7bffffffffffffffffffffffffffffffffffffffffffffffffffffffff1916817bffffffffffffffffffffffffffffffffffffffffffffffffffffffff191614915050612298565b600190505b949350505050565b606060405180602001604052806000815250905090565b60606122c2826110fc565b60006122cc6122a0565b905060008151116122ec5760405180602001604052806000815250612317565b806122f6846128ce565b604051602001612307929190614093565b6040516020818303038152906040525b915050919050565b60007f01ffc9a7000000000000000000000000000000000000000000000000000000007bffffffffffffffffffffffffffffffffffffffffffffffffffffffff1916827bffffffffffffffffffffffffffffffffffffffffffffffffffffffff1916149050919050565b600061239482610ae4565b90506123a4816000846001611e85565b6123ad82610ae4565b90506004600083815260200190815260200160002060006101000a81549073ffffffffffffffffffffffffffffffffffffffff02191690556001600360008373ffffffffffffffffffffffffffffffffffffffff1673ffffffffffffffffffffffffffffffffffffffff168152602001908152602001600020600082825403925050819055506002600083815260200190815260200160002060006101000a81549073ffffffffffffffffffffffffffffffffffffffff021916905581600073ffffffffffffffffffffffffffffffffffffffff168273ffffffffffffffffffffffffffffffffffffffff167fddf252ad1be2c89b69c2b068fc378daa952ba7f163c4a11628f55a4df523b3ef60405160405180910390a46124d3816000846001611fab565b5050565b60008060418351036125185760008060006020860151925060408601519150606086015160001a905061250c8782858561299c565b94509450505050612521565b60006002915091505b9250929050565b6000600481111561253c5761253b6142da565b5b81600481111561254f5761254e6142da565b5b031561268b5760016004811115612569576125686142da565b5b81600481111561257c5761257b6142da565b5b036125bc576040517f08c379a00000000000000000000000000000000000000000000000000000000081526004016125b390614355565b60405180910390fd5b600260048111156125d0576125cf6142da565b5b8160048111156125e3576125e26142da565b5b03612623576040517f08c379a000000000000000000000000000000000000000000000000000000000815260040161261a906143c1565b60405180910390fd5b60036004811115612637576126366142da565b5b81600481111561264a576126496142da565b5b0361268a576040517f08c379a000000000000000000000000000000000000000000000000000000000815260040161268190614453565b60405180910390fd5b5b50565b600073ffffffffffffffffffffffffffffffffffffffff168273ffffffffffffffffffffffffffffffffffffffff16036126fd576040517f08c379a00000000000000000000000000000000000000000000000000000000081526004016126f4906144bf565b60405180910390fd5b61270681611e44565b15612746576040517f08c379a000000000000000000000000000000000000000000000000000000000815260040161273d9061452b565b60405180910390fd5b612754600083836001611e85565b61275d81611e44565b1561279d576040517f08c379a00000000000000000000000000000000000000000000000000000000081526004016127949061452b565b60405180910390fd5b6001600360008473ffffffffffffffffffffffffffffffffffffffff1673ffffffffffffffffffffffffffffffffffffffff16815260200190815260200160002060008282540192505081905550816002600083815260200190815260200160002060006101000a81548173ffffffffffffffffffffffffffffffffffffffff021916908373ffffffffffffffffffffffffffffffffffffffff160217905550808273ffffffffffffffffffffffffffffffffffffffff16600073ffffffffffffffffffffffffffffffffffffffff167fddf252ad1be2c89b69c2b068fc378daa952ba7f163c4a11628f55a4df523b3ef60405160405180910390a46128a7600083836001611fab565b5050565b6000808273ffffffffffffffffffffffffffffffffffffffff163b119050919050565b6060600060016128dd84612a7e565b01905060008167ffffffffffffffff8111156128fc576128fb613099565b5b6040519080825280601f01601f19166020018201604052801561292e5781602001600182028036833780820191505090505b509050600082602001820190505b600115612991578080600190039150507f3031323334353637383961626364656600000000000000000000000000000000600a86061a8153600a85816129855761298461363a565b5b0494506000850361293c575b819350505050919050565b6000807f7fffffffffffffffffffffffffffffff5d576e7357a4501ddfe92f46681b20a08360001c11156129d7576000600391509150612a75565b6000600187878787604051600081526020016040526040516129fc9493929190614576565b6020604051602081039080840390855afa158015612a1e573d6000803e3d6000fd5b505050602060405103519050600073ffffffffffffffffffffffffffffffffffffffff168173ffffffffffffffffffffffffffffffffffffffff1603612a6c57600060019250925050612a75565b80600092509250505b94509492505050565b600080600090507a184f03e93ff9f4daa797ed6e38ed64bf6a1f0100000000000000008310612adc577a184f03e93ff9f4daa797ed6e38ed64bf6a1f0100000000000000008381612ad257612ad161363a565b5b0492506040810190505b6d04ee2d6d415b85acef81000000008310612b19576d04ee2d6d415b85acef81000000008381612b0f57612b0e61363a565b5b0492506020810190505b662386f26fc100008310612b4857662386f26fc100008381612b3e57612b3d61363a565b5b0492506010810190505b6305f5e1008310612b71576305f5e1008381612b6757612b6661363a565b5b0492506008810190505b6127108310612b96576127108381612b8c57612b8b61363a565b5b0492506004810190505b60648310612bb95760648381612baf57612bae61363a565b5b0492506002810190505b600a8310612bc8576001810190505b80915050919050565b508054612bdd906133e2565b6000825580601f10612bef5750612c0e565b601f016020900490600052602060002090810190612c0d9190612c11565b5b50565b5b80821115612c2a576000816000905550600101612c12565b5090565b6000604051905090565b600080fd5b600080fd5b60007fffffffff0000000000000000000000000000000000000000000000000000000082169050919050565b612c7781612c42565b8114612c8257600080fd5b50565b600081359050612c9481612c6e565b92915050565b600060208284031215612cb057612caf612c38565b5b6000612cbe84828501612c85565b91505092915050565b60008115159050919050565b612cdc81612cc7565b82525050565b6000602082019050612cf76000830184612cd3565b92915050565b600081519050919050565b600082825260208201905092915050565b60005b83811015612d37578082015181840152602081019050612d1c565b60008484015250505050565b6000601f19601f8301169050919050565b6000612d5f82612cfd565b612d698185612d08565b9350612d79818560208601612d19565b612d8281612d43565b840191505092915050565b60006020820190508181036000830152612da78184612d54565b905092915050565b6000819050919050565b612dc281612daf565b8114612dcd57600080fd5b50565b600081359050612ddf81612db9565b92915050565b600060208284031215612dfb57612dfa612c38565b5b6000612e0984828501612dd0565b91505092915050565b600073ffffffffffffffffffffffffffffffffffffffff82169050919050565b6000612e3d82612e12565b9050919050565b612e4d81612e32565b82525050565b6000602082019050612e686000830184612e44565b92915050565b612e7781612e32565b8114612e8257600080fd5b50565b600081359050612e9481612e6e565b92915050565b60008060408385031215612eb157612eb0612c38565b5b6000612ebf85828601612e85565b9250506020612ed085828601612dd0565b9150509250929050565b600080600060608486031215612ef357612ef2612c38565b5b6000612f0186828701612e85565b9350506020612f1286828701612e85565b9250506040612f2386828701612dd0565b9150509250925092565b60008060408385031215612f4457612f43612c38565b5b6000612f5285828601612dd0565b9250506020612f6385828601612dd0565b9150509250929050565b612f7681612daf565b82525050565b6000604082019050612f916000830185612e44565b612f9e6020830184612f6d565b9392505050565b600060208284031215612fbb57612fba612c38565b5b6000612fc984828501612e85565b91505092915050565b6000602082019050612fe76000830184612f6d565b92915050565b612ff681612cc7565b811461300157600080fd5b50565b60008135905061301381612fed565b92915050565b600080604083850312156130305761302f612c38565b5b600061303e85828601612e85565b925050602061304f85828601613004565b9150509250929050565b6000819050919050565b61306c81613059565b811461307757600080fd5b50565b60008135905061308981613063565b92915050565b600080fd5b600080fd5b7f4e487b7100000000000000000000000000000000000000000000000000000000600052604160045260246000fd5b6130d182612d43565b810181811067ffffffffffffffff821117156130f0576130ef613099565b5b80604052505050565b6000613103612c2e565b905061310f82826130c8565b919050565b600067ffffffffffffffff82111561312f5761312e613099565b5b61313882612d43565b9050602081019050919050565b82818337600083830152505050565b600061316761316284613114565b6130f9565b90508281526020810184848401111561318357613182613094565b5b61318e848285613145565b509392505050565b600082601f8301126131ab576131aa61308f565b5b81356131bb848260208601613154565b91505092915050565b600067ffffffffffffffff8211156131df576131de613099565b5b6131e882612d43565b9050602081019050919050565b6000613208613203846131c4565b6130f9565b90508281526020810184848401111561322457613223613094565b5b61322f848285613145565b509392505050565b600082601f83011261324c5761324b61308f565b5b813561325c8482602086016131f5565b91505092915050565b60008060006060848603121561327e5761327d612c38565b5b600061328c8682870161307a565b935050602084013567ffffffffffffffff8111156132ad576132ac612c3d565b5b6132b986828701613196565b925050604084013567ffffffffffffffff8111156132da576132d9612c3d565b5b6132e686828701613237565b9150509250925092565b6000806000806080858703121561330a57613309612c38565b5b600061331887828801612e85565b945050602061332987828801612e85565b935050604061333a87828801612dd0565b925050606085013567ffffffffffffffff81111561335b5761335a612c3d565b5b61336787828801613196565b91505092959194509250565b6000806040838503121561338a57613389612c38565b5b600061339885828601612e85565b92505060206133a985828601612e85565b9150509250929050565b7f4e487b7100000000000000000000000000000000000000000000000000000000600052602260045260246000fd5b600060028204905060018216806133fa57607f821691505b60208210810361340d5761340c6133b3565b5b50919050565b7f4552433732313a20617070726f76616c20746f2063757272656e74206f776e6560008201527f7200000000000000000000000000000000000000000000000000000000000000602082015250565b600061346f602183612d08565b915061347a82613413565b604082019050919050565b6000602082019050818103600083015261349e81613462565b9050919050565b7f4552433732313a20617070726f76652063616c6c6572206973206e6f7420746f60008201527f6b656e206f776e6572206f7220617070726f76656420666f7220616c6c000000602082015250565b6000613501603d83612d08565b915061350c826134a5565b604082019050919050565b60006020820190508181036000830152613530816134f4565b9050919050565b7f4552433732313a2063616c6c6572206973206e6f7420746f6b656e206f776e6560008201527f72206f7220617070726f76656400000000000000000000000000000000000000602082015250565b6000613593602d83612d08565b915061359e82613537565b604082019050919050565b600060208201905081810360008301526135c281613586565b9050919050565b7f4e487b7100000000000000000000000000000000000000000000000000000000600052601160045260246000fd5b600061360382612daf565b915061360e83612daf565b925082820261361c81612daf565b91508282048414831517613633576136326135c9565b5b5092915050565b7f4e487b7100000000000000000000000000000000000000000000000000000000600052601260045260246000fd5b600061367482612daf565b915061367f83612daf565b92508261368f5761368e61363a565b5b828204905092915050565b7f4552433732313a20696e76616c696420746f6b656e2049440000000000000000600082015250565b60006136d0601883612d08565b91506136db8261369a565b602082019050919050565b600060208201905081810360008301526136ff816136c3565b9050919050565b7f4552433732313a2061646472657373207a65726f206973206e6f74206120766160008201527f6c6964206f776e65720000000000000000000000000000000000000000000000602082015250565b6000613762602983612d08565b915061376d82613706565b604082019050919050565b6000602082019050818103600083015261379181613755565b9050919050565b7f5369676e6174757265204661696c656400000000000000000000000000000000600082015250565b60006137ce601083612d08565b91506137d982613798565b602082019050919050565b600060208201905081810360008301526137fd816137c1565b9050919050565b7f4e6f7420656e6f756768204d415449432073656e743b20636865636b2070726960008201527f6365210000000000000000000000000000000000000000000000000000000000602082015250565b6000613860602383612d08565b915061386b82613804565b604082019050919050565b6000602082019050818103600083015261388f81613853565b9050919050565b7f4f776e61626c653a206e6577206f776e657220697320746865207a65726f206160008201527f6464726573730000000000000000000000000000000000000000000000000000602082015250565b60006138f2602683612d08565b91506138fd82613896565b604082019050919050565b60006020820190508181036000830152613921816138e5565b9050919050565b7f4552433732313a207472616e736665722066726f6d20696e636f72726563742060008201527f6f776e6572000000000000000000000000000000000000000000000000000000602082015250565b6000613984602583612d08565b915061398f82613928565b604082019050919050565b600060208201905081810360008301526139b381613977565b9050919050565b7f4552433732313a207472616e7366657220746f20746865207a65726f2061646460008201527f7265737300000000000000000000000000000000000000000000000000000000602082015250565b6000613a16602483612d08565b9150613a21826139ba565b604082019050919050565b60006020820190508181036000830152613a4581613a09565b9050919050565b7f4f776e61626c653a2063616c6c6572206973206e6f7420746865206f776e6572600082015250565b6000613a82602083612d08565b9150613a8d82613a4c565b602082019050919050565b60006020820190508181036000830152613ab181613a75565b9050919050565b7f4552433732313a20617070726f766520746f2063616c6c657200000000000000600082015250565b6000613aee601983612d08565b9150613af982613ab8565b602082019050919050565b60006020820190508181036000830152613b1d81613ae1565b9050919050565b600081905092915050565b7f19457468657265756d205369676e6564204d6573736167653a0a333200000000600082015250565b6000613b65601c83613b24565b9150613b7082613b2f565b601c82019050919050565b6000819050919050565b613b96613b9182613059565b613b7b565b82525050565b6000613ba782613b58565b9150613bb38284613b85565b60208201915081905092915050565b7f455243323938313a20726f79616c7479206665652077696c6c2065786365656460008201527f2073616c65507269636500000000000000000000000000000000000000000000602082015250565b6000613c1e602a83612d08565b9150613c2982613bc2565b604082019050919050565b60006020820190508181036000830152613c4d81613c11565b9050919050565b7f455243323938313a20496e76616c696420706172616d65746572730000000000600082015250565b6000613c8a601b83612d08565b9150613c9582613c54565b602082019050919050565b60006020820190508181036000830152613cb981613c7d565b9050919050565b7f45524337323155524953746f726167653a2055524920736574206f66206e6f6e60008201527f6578697374656e7420746f6b656e000000000000000000000000000000000000602082015250565b6000613d1c602e83612d08565b9150613d2782613cc0565b604082019050919050565b60006020820190508181036000830152613d4b81613d0f565b9050919050565b60008190508160005260206000209050919050565b60006020601f8301049050919050565b600082821b905092915050565b600060088302613db47fffffffffffffffffffffffffffffffffffffffffffffffffffffffffffffffff82613d77565b613dbe8683613d77565b95508019841693508086168417925050509392505050565b6000819050919050565b6000613dfb613df6613df184612daf565b613dd6565b612daf565b9050919050565b6000819050919050565b613e1583613de0565b613e29613e2182613e02565b848454613d84565b825550505050565b600090565b613e3e613e31565b613e49818484613e0c565b505050565b5b81811015613e6d57613e62600082613e36565b600181019050613e4f565b5050565b601f821115613eb257613e8381613d52565b613e8c84613d67565b81016020851015613e9b578190505b613eaf613ea785613d67565b830182613e4e565b50505b505050565b600082821c905092915050565b6000613ed560001984600802613eb7565b1980831691505092915050565b6000613eee8383613ec4565b9150826002028217905092915050565b613f0782612cfd565b67ffffffffffffffff811115613f2057613f1f613099565b5b613f2a82546133e2565b613f35828285613e71565b600060209050601f831160018114613f685760008415613f56578287015190505b613f608582613ee2565b865550613fc8565b601f198416613f7686613d52565b60005b82811015613f9e57848901518255600182019150602085019450602081019050613f79565b86831015613fbb5784890151613fb7601f891682613ec4565b8355505b6001600288020188555050505b505050505050565b7f4552433732313a207472616e7366657220746f206e6f6e20455243373231526560008201527f63656976657220696d706c656d656e7465720000000000000000000000000000602082015250565b600061402c603283612d08565b915061403782613fd0565b604082019050919050565b6000602082019050818103600083015261405b8161401f565b9050919050565b600061406d82612cfd565b6140778185613b24565b9350614087818560208601612d19565b80840191505092915050565b600061409f8285614062565b91506140ab8284614062565b91508190509392505050565b60006140c282612daf565b91506140cd83612daf565b92508282039050818111156140e5576140e46135c9565b5b92915050565b60006140f682612daf565b915061410183612daf565b9250828201905080821115614119576141186135c9565b5b92915050565b7f5061757361626c653a206e6f7420706175736564000000000000000000000000600082015250565b6000614155601483612d08565b91506141608261411f565b602082019050919050565b6000602082019050818103600083015261418481614148565b9050919050565b7f5061757361626c653a2070617573656400000000000000000000000000000000600082015250565b60006141c1601083612d08565b91506141cc8261418b565b602082019050919050565b600060208201905081810360008301526141f0816141b4565b9050919050565b600081519050919050565b600082825260208201905092915050565b600061421e826141f7565b6142288185614202565b9350614238818560208601612d19565b61424181612d43565b840191505092915050565b60006080820190506142616000830187612e44565b61426e6020830186612e44565b61427b6040830185612f6d565b818103606083015261428d8184614213565b905095945050505050565b6000815190506142a781612c6e565b92915050565b6000602082840312156142c3576142c2612c38565b5b60006142d184828501614298565b91505092915050565b7f4e487b7100000000000000000000000000000000000000000000000000000000600052602160045260246000fd5b7f45434453413a20696e76616c6964207369676e61747572650000000000000000600082015250565b600061433f601883612d08565b915061434a82614309565b602082019050919050565b6000602082019050818103600083015261436e81614332565b9050919050565b7f45434453413a20696e76616c6964207369676e6174757265206c656e67746800600082015250565b60006143ab601f83612d08565b91506143b682614375565b602082019050919050565b600060208201905081810360008301526143da8161439e565b9050919050565b7f45434453413a20696e76616c6964207369676e6174757265202773272076616c60008201527f7565000000000000000000000000000000000000000000000000000000000000602082015250565b600061443d602283612d08565b9150614448826143e1565b604082019050919050565b6000602082019050818103600083015261446c81614430565b9050919050565b7f4552433732313a206d696e7420746f20746865207a65726f2061646472657373600082015250565b60006144a9602083612d08565b91506144b482614473565b602082019050919050565b600060208201905081810360008301526144d88161449c565b9050919050565b7f4552433732313a20746f6b656e20616c7265616479206d696e74656400000000600082015250565b6000614515601c83612d08565b9150614520826144df565b602082019050919050565b6000602082019050818103600083015261454481614508565b9050919050565b61455481613059565b82525050565b600060ff82169050919050565b6145708161455a565b82525050565b600060808201905061458b600083018761454b565b6145986020830186614567565b6145a5604083018561454b565b6145b2606083018461454b565b9594505050505056fea26469706673582212200795e340f2d57ca19375c5f55c4152300a5a617da5d01d2414814dd806bd2dff64736f6c63430008110033",
  "linkReferences": {},
  "deployedLinkReferences": {}
}