{
  "_format": "hh-sol-artifact-1",
  "contractName": "MintPassNFT",
  "sourceName": "contracts/MintPass.sol",
  "abi": [
    {
      "inputs": [
        {
          "internalType": "address",
          "name": "_systemAddress",
          "type": "address"
        },
        {
          "internalType": "address",
          "name": "_mintingFeeRecipient",
          "type": "address"
        },
        {
          "internalType": "uint256",
          "name": "_mintingFee",
          "type": "uint256"
        },
        {
          "internalType": "uint96",
          "name": "_loyaltyFee",
          "type": "uint96"
        }
      ],
      "stateMutability": "nonpayable",
      "type": "constructor"
    },
    {
      "inputs": [
        {
          "internalType": "address",
          "name": "operator",
          "type": "address"
        }
      ],
      "name": "OperatorNotAllowed",
      "type": "error"
    },
    {
      "anonymous": false,
      "inputs": [
        {
          "indexed": true,
          "internalType": "address",
          "name": "owner",
          "type": "address"
        },
        {
          "indexed": true,
          "internalType": "address",
          "name": "approved",
          "type": "address"
        },
        {
          "indexed": true,
          "internalType": "uint256",
          "name": "tokenId",
          "type": "uint256"
        }
      ],
      "name": "Approval",
      "type": "event"
    },
    {
      "anonymous": false,
      "inputs": [
        {
          "indexed": true,
          "internalType": "address",
          "name": "owner",
          "type": "address"
        },
        {
          "indexed": true,
          "internalType": "address",
          "name": "operator",
          "type": "address"
        },
        {
          "indexed": false,
          "internalType": "bool",
          "name": "approved",
          "type": "bool"
        }
      ],
      "name": "ApprovalForAll",
      "type": "event"
    },
    {
      "anonymous": false,
      "inputs": [
        {
          "indexed": true,
          "internalType": "address",
          "name": "previousOwner",
          "type": "address"
        },
        {
          "indexed": true,
          "internalType": "address",
          "name": "newOwner",
          "type": "address"
        }
      ],
      "name": "OwnershipTransferred",
      "type": "event"
    },
    {
      "anonymous": false,
      "inputs": [
        {
          "indexed": false,
          "internalType": "address",
          "name": "account",
          "type": "address"
        }
      ],
      "name": "Paused",
      "type": "event"
    },
    {
      "anonymous": false,
      "inputs": [
        {
          "indexed": true,
          "internalType": "address",
          "name": "from",
          "type": "address"
        },
        {
          "indexed": true,
          "internalType": "address",
          "name": "to",
          "type": "address"
        },
        {
          "indexed": true,
          "internalType": "uint256",
          "name": "tokenId",
          "type": "uint256"
        }
      ],
      "name": "Transfer",
      "type": "event"
    },
    {
      "anonymous": false,
      "inputs": [
        {
          "indexed": false,
          "internalType": "address",
          "name": "account",
          "type": "address"
        }
      ],
      "name": "Unpaused",
      "type": "event"
    },
    {
      "anonymous": false,
      "inputs": [
        {
          "indexed": true,
          "internalType": "uint256",
          "name": "tokenId",
          "type": "uint256"
        }
      ],
      "name": "tokenIdMinted",
      "type": "event"
    },
    {
      "inputs": [],
      "name": "OPERATOR_FILTER_REGISTRY",
      "outputs": [
        {
          "internalType": "contract IOperatorFilterRegistry",
          "name": "",
          "type": "address"
        }
      ],
      "stateMutability": "view",
      "type": "function"
    },
    {
      "inputs": [
        {
          "internalType": "address",
          "name": "operator",
          "type": "address"
        },
        {
          "internalType": "uint256",
          "name": "tokenId",
          "type": "uint256"
        }
      ],
      "name": "approve",
      "outputs": [],
      "stateMutability": "nonpayable",
      "type": "function"
    },
    {
      "inputs": [
        {
          "internalType": "address",
          "name": "owner",
          "type": "address"
        }
      ],
      "name": "balanceOf",
      "outputs": [
        {
          "internalType": "uint256",
          "name": "",
          "type": "uint256"
        }
      ],
      "stateMutability": "view",
      "type": "function"
    },
    {
      "inputs": [
        {
          "internalType": "uint256",
          "name": "tokenId",
          "type": "uint256"
        }
      ],
      "name": "burn",
      "outputs": [],
      "stateMutability": "nonpayable",
      "type": "function"
    },
    {
      "inputs": [
        {
          "internalType": "uint256",
          "name": "tokenId",
          "type": "uint256"
        }
      ],
      "name": "getApproved",
      "outputs": [
        {
          "internalType": "address",
          "name": "",
          "type": "address"
        }
      ],
      "stateMutability": "view",
      "type": "function"
    },
    {
      "inputs": [
        {
          "internalType": "address",
          "name": "owner",
          "type": "address"
        },
        {
          "internalType": "address",
          "name": "operator",
          "type": "address"
        }
      ],
      "name": "isApprovedForAll",
      "outputs": [
        {
          "internalType": "bool",
          "name": "",
          "type": "bool"
        }
      ],
      "stateMutability": "view",
      "type": "function"
    },
    {
      "inputs": [
        {
          "internalType": "bytes32",
          "name": "hash",
          "type": "bytes32"
        },
        {
          "internalType": "bytes",
          "name": "signature",
          "type": "bytes"
        },
        {
          "internalType": "string",
          "name": "uri",
          "type": "string"
        }
      ],
      "name": "mintMintPass",
      "outputs": [
        {
          "internalType": "uint256",
          "name": "",
          "type": "uint256"
        }
      ],
      "stateMutability": "payable",
      "type": "function"
    },
    {
      "inputs": [],
      "name": "name",
      "outputs": [
        {
          "internalType": "string",
          "name": "",
          "type": "string"
        }
      ],
      "stateMutability": "view",
      "type": "function"
    },
    {
      "inputs": [],
      "name": "owner",
      "outputs": [
        {
          "internalType": "address",
          "name": "",
          "type": "address"
        }
      ],
      "stateMutability": "view",
      "type": "function"
    },
    {
      "inputs": [
        {
          "internalType": "uint256",
          "name": "tokenId",
          "type": "uint256"
        }
      ],
      "name": "ownerOf",
      "outputs": [
        {
          "internalType": "address",
          "name": "",
          "type": "address"
        }
      ],
      "stateMutability": "view",
      "type": "function"
    },
    {
      "inputs": [],
      "name": "pause",
      "outputs": [],
      "stateMutability": "nonpayable",
      "type": "function"
    },
    {
      "inputs": [],
      "name": "paused",
      "outputs": [
        {
          "internalType": "bool",
          "name": "",
          "type": "bool"
        }
      ],
      "stateMutability": "view",
      "type": "function"
    },
    {
      "inputs": [],
      "name": "renounceOwnership",
      "outputs": [],
      "stateMutability": "nonpayable",
      "type": "function"
    },
    {
      "inputs": [
        {
          "internalType": "uint256",
          "name": "_tokenId",
          "type": "uint256"
        },
        {
          "internalType": "uint256",
          "name": "_salePrice",
          "type": "uint256"
        }
      ],
      "name": "royaltyInfo",
      "outputs": [
        {
          "internalType": "address",
          "name": "",
          "type": "address"
        },
        {
          "internalType": "uint256",
          "name": "",
          "type": "uint256"
        }
      ],
      "stateMutability": "view",
      "type": "function"
    },
    {
      "inputs": [
        {
          "internalType": "address",
          "name": "from",
          "type": "address"
        },
        {
          "internalType": "address",
          "name": "to",
          "type": "address"
        },
        {
          "internalType": "uint256",
          "name": "tokenId",
          "type": "uint256"
        }
      ],
      "name": "safeTransferFrom",
      "outputs": [],
      "stateMutability": "nonpayable",
      "type": "function"
    },
    {
      "inputs": [
        {
          "internalType": "address",
          "name": "from",
          "type": "address"
        },
        {
          "internalType": "address",
          "name": "to",
          "type": "address"
        },
        {
          "internalType": "uint256",
          "name": "tokenId",
          "type": "uint256"
        },
        {
          "internalType": "bytes",
          "name": "data",
          "type": "bytes"
        }
      ],
      "name": "safeTransferFrom",
      "outputs": [],
      "stateMutability": "nonpayable",
      "type": "function"
    },
    {
      "inputs": [
        {
          "internalType": "address",
          "name": "operator",
          "type": "address"
        },
        {
          "internalType": "bool",
          "name": "approved",
          "type": "bool"
        }
      ],
      "name": "setApprovalForAll",
      "outputs": [],
      "stateMutability": "nonpayable",
      "type": "function"
    },
    {
      "inputs": [
        {
          "internalType": "bytes4",
          "name": "interfaceId",
          "type": "bytes4"
        }
      ],
      "name": "supportsInterface",
      "outputs": [
        {
          "internalType": "bool",
          "name": "",
          "type": "bool"
        }
      ],
      "stateMutability": "view",
      "type": "function"
    },
    {
      "inputs": [],
      "name": "symbol",
      "outputs": [
        {
          "internalType": "string",
          "name": "",
          "type": "string"
        }
      ],
      "stateMutability": "view",
      "type": "function"
    },
    {
      "inputs": [
        {
          "internalType": "uint256",
          "name": "tokenId",
          "type": "uint256"
        }
      ],
      "name": "tokenURI",
      "outputs": [
        {
          "internalType": "string",
          "name": "",
          "type": "string"
        }
      ],
      "stateMutability": "view",
      "type": "function"
    },
    {
      "inputs": [
        {
          "internalType": "address",
          "name": "from",
          "type": "address"
        },
        {
          "internalType": "address",
          "name": "to",
          "type": "address"
        },
        {
          "internalType": "uint256",
          "name": "tokenId",
          "type": "uint256"
        }
      ],
      "name": "transferFrom",
      "outputs": [],
      "stateMutability": "nonpayable",
      "type": "function"
    },
    {
      "inputs": [
        {
          "internalType": "address",
          "name": "newOwner",
          "type": "address"
        }
      ],
      "name": "transferOwnership",
      "outputs": [],
      "stateMutability": "nonpayable",
      "type": "function"
    },
    {
      "inputs": [],
      "name": "unpause",
      "outputs": [],
      "stateMutability": "nonpayable",
      "type": "function"
    }
  ],
  "bytecode": "0x60806040523480156200001157600080fd5b506040516200522038038062005220833981810160405281019062000037919062000592565b733cc6cdda760b79bafa08df41ecfa224f810dceb660016040518060400160405280600881526020017f4d696e74506173730000000000000000000000000000000000000000000000008152506040518060400160405280600581526020017f4d504153530000000000000000000000000000000000000000000000000000008152508160009081620000cb919062000874565b508060019081620000dd919062000874565b5050506000600760006101000a81548160ff0219169083151502179055506200011b6200010f620003d660201b60201c565b620003de60201b60201c565b60006daaeb6d7670e522a718067333cd4e73ffffffffffffffffffffffffffffffffffffffff163b111562000310578015620001d6576daaeb6d7670e522a718067333cd4e73ffffffffffffffffffffffffffffffffffffffff16637d3e3dbe30846040518363ffffffff1660e01b81526004016200019c9291906200096c565b600060405180830381600087803b158015620001b757600080fd5b505af1158015620001cc573d6000803e3d6000fd5b505050506200030f565b600073ffffffffffffffffffffffffffffffffffffffff168273ffffffffffffffffffffffffffffffffffffffff161462000290576daaeb6d7670e522a718067333cd4e73ffffffffffffffffffffffffffffffffffffffff1663a0af290330846040518363ffffffff1660e01b8152600401620002569291906200096c565b600060405180830381600087803b1580156200027157600080fd5b505af115801562000286573d6000803e3d6000fd5b505050506200030e565b6daaeb6d7670e522a718067333cd4e73ffffffffffffffffffffffffffffffffffffffff16634420e486306040518263ffffffff1660e01b8152600401620002d9919062000999565b600060405180830381600087803b158015620002f457600080fd5b505af115801562000309573d6000803e3d6000fd5b505050505b5b5b505083600b60006101000a81548173ffffffffffffffffffffffffffffffffffffffff021916908373ffffffffffffffffffffffffffffffffffffffff16021790555082600c60006101000a81548173ffffffffffffffffffffffffffffffffffffffff021916908373ffffffffffffffffffffffffffffffffffffffff16021790555081600d8190555080600e60006101000a8154816bffffffffffffffffffffffff02191690836bffffffffffffffffffffffff16021790555050505050620009b6565b600033905090565b6000600760019054906101000a900473ffffffffffffffffffffffffffffffffffffffff16905081600760016101000a81548173ffffffffffffffffffffffffffffffffffffffff021916908373ffffffffffffffffffffffffffffffffffffffff1602179055508173ffffffffffffffffffffffffffffffffffffffff168173ffffffffffffffffffffffffffffffffffffffff167f8be0079c531659141344cd1fd0a4f28419497f9722a3daafe3b4186f6b6457e060405160405180910390a35050565b600080fd5b600073ffffffffffffffffffffffffffffffffffffffff82169050919050565b6000620004d682620004a9565b9050919050565b620004e881620004c9565b8114620004f457600080fd5b50565b6000815190506200050881620004dd565b92915050565b6000819050919050565b62000523816200050e565b81146200052f57600080fd5b50565b600081519050620005438162000518565b92915050565b60006bffffffffffffffffffffffff82169050919050565b6200056c8162000549565b81146200057857600080fd5b50565b6000815190506200058c8162000561565b92915050565b60008060008060808587031215620005af57620005ae620004a4565b5b6000620005bf87828801620004f7565b9450506020620005d287828801620004f7565b9350506040620005e58782880162000532565b9250506060620005f8878288016200057b565b91505092959194509250565b600081519050919050565b7f4e487b7100000000000000000000000000000000000000000000000000000000600052604160045260246000fd5b7f4e487b7100000000000000000000000000000000000000000000000000000000600052602260045260246000fd5b600060028204905060018216806200068657607f821691505b6020821081036200069c576200069b6200063e565b5b50919050565b60008190508160005260206000209050919050565b60006020601f8301049050919050565b600082821b905092915050565b600060088302620007067fffffffffffffffffffffffffffffffffffffffffffffffffffffffffffffffff82620006c7565b620007128683620006c7565b95508019841693508086168417925050509392505050565b6000819050919050565b6000620007556200074f62000749846200050e565b6200072a565b6200050e565b9050919050565b6000819050919050565b620007718362000734565b6200078962000780826200075c565b848454620006d4565b825550505050565b600090565b620007a062000791565b620007ad81848462000766565b505050565b5b81811015620007d557620007c960008262000796565b600181019050620007b3565b5050565b601f8211156200082457620007ee81620006a2565b620007f984620006b7565b8101602085101562000809578190505b620008216200081885620006b7565b830182620007b2565b50505b505050565b600082821c905092915050565b6000620008496000198460080262000829565b1980831691505092915050565b600062000864838362000836565b9150826002028217905092915050565b6200087f8262000604565b67ffffffffffffffff8111156200089b576200089a6200060f565b5b620008a782546200066d565b620008b4828285620007d9565b600060209050601f831160018114620008ec5760008415620008d7578287015190505b620008e3858262000856565b86555062000953565b601f198416620008fc86620006a2565b60005b828110156200092657848901518255600182019150602085019450602081019050620008ff565b8683101562000946578489015162000942601f89168262000836565b8355505b6001600288020188555050505b505050505050565b6200096681620004c9565b82525050565b60006040820190506200098360008301856200095b565b6200099260208301846200095b565b9392505050565b6000602082019050620009b060008301846200095b565b92915050565b61485a80620009c66000396000f3fe6080604052600436106101405760003560e01c80636352211e116100b6578063a22cb4651161006f578063a22cb46514610437578063af1fc29a14610460578063b88d4fde14610490578063c87b56dd146104b9578063e985e9c5146104f6578063f2fde38b1461053357610140565b80636352211e1461033957806370a0823114610376578063715018a6146103b35780638456cb59146103ca5780638da5cb5b146103e157806395d89b411461040c57610140565b80632a55205a116101085780632a55205a1461023c5780633f4ba83a1461027a57806341f434341461029157806342842e0e146102bc57806342966c68146102e55780635c975abb1461030e57610140565b806301ffc9a71461014557806306fdde0314610182578063081812fc146101ad578063095ea7b3146101ea57806323b872dd14610213575b600080fd5b34801561015157600080fd5b5061016c60048036038101906101679190612e28565b61055c565b6040516101799190612e70565b60405180910390f35b34801561018e57600080fd5b5061019761056e565b6040516101a49190612f1b565b60405180910390f35b3480156101b957600080fd5b506101d460048036038101906101cf9190612f73565b610600565b6040516101e19190612fe1565b60405180910390f35b3480156101f657600080fd5b50610211600480360381019061020c9190613028565b610646565b005b34801561021f57600080fd5b5061023a60048036038101906102359190613068565b61065f565b005b34801561024857600080fd5b50610263600480360381019061025e91906130bb565b6106ae565b60405161027192919061310a565b60405180910390f35b34801561028657600080fd5b5061028f610898565b005b34801561029d57600080fd5b506102a66108aa565b6040516102b39190613192565b60405180910390f35b3480156102c857600080fd5b506102e360048036038101906102de9190613068565b6108bc565b005b3480156102f157600080fd5b5061030c60048036038101906103079190612f73565b61090b565b005b34801561031a57600080fd5b50610323610967565b6040516103309190612e70565b60405180910390f35b34801561034557600080fd5b50610360600480360381019061035b9190612f73565b61097e565b60405161036d9190612fe1565b60405180910390f35b34801561038257600080fd5b5061039d600480360381019061039891906131ad565b610a04565b6040516103aa91906131da565b60405180910390f35b3480156103bf57600080fd5b506103c8610abb565b005b3480156103d657600080fd5b506103df610acf565b005b3480156103ed57600080fd5b506103f6610ae1565b6040516104039190612fe1565b60405180910390f35b34801561041857600080fd5b50610421610b0b565b60405161042e9190612f1b565b60405180910390f35b34801561044357600080fd5b5061045e60048036038101906104599190613221565b610b9d565b005b61047a6004803603810190610475919061346d565b610bb6565b60405161048791906131da565b60405180910390f35b34801561049c57600080fd5b506104b760048036038101906104b291906134f8565b610d8a565b005b3480156104c557600080fd5b506104e060048036038101906104db9190612f73565b610ddb565b6040516104ed9190612f1b565b60405180910390f35b34801561050257600080fd5b5061051d6004803603810190610518919061357b565b610ded565b60405161052a9190612e70565b60405180910390f35b34801561053f57600080fd5b5061055a600480360381019061055591906131ad565b610e81565b005b600061056782610f04565b9050919050565b60606000805461057d906135ea565b80601f01602080910402602001604051908101604052809291908181526020018280546105a9906135ea565b80156105f65780601f106105cb576101008083540402835291602001916105f6565b820191906000526020600020905b8154815290600101906020018083116105d957829003601f168201915b5050505050905090565b600061060b82610f7e565b6004600083815260200190815260200160002060009054906101000a900473ffffffffffffffffffffffffffffffffffffffff169050919050565b8161065081610fc9565b61065a83836110c6565b505050565b823373ffffffffffffffffffffffffffffffffffffffff168173ffffffffffffffffffffffffffffffffffffffff161461069d5761069c33610fc9565b5b6106a88484846111dd565b50505050565b6000806000600960008681526020019081526020016000206040518060400160405290816000820160009054906101000a900473ffffffffffffffffffffffffffffffffffffffff1673ffffffffffffffffffffffffffffffffffffffff1673ffffffffffffffffffffffffffffffffffffffff1681526020016000820160149054906101000a90046bffffffffffffffffffffffff166bffffffffffffffffffffffff166bffffffffffffffffffffffff16815250509050600073ffffffffffffffffffffffffffffffffffffffff16816000015173ffffffffffffffffffffffffffffffffffffffff16036108435760086040518060400160405290816000820160009054906101000a900473ffffffffffffffffffffffffffffffffffffffff1673ffffffffffffffffffffffffffffffffffffffff1673ffffffffffffffffffffffffffffffffffffffff1681526020016000820160149054906101000a90046bffffffffffffffffffffffff166bffffffffffffffffffffffff166bffffffffffffffffffffffff168152505090505b600061084d61123d565b6bffffffffffffffffffffffff1682602001516bffffffffffffffffffffffff1686610879919061364a565b61088391906136bb565b90508160000151819350935050509250929050565b6108a0611247565b6108a86112c5565b565b6daaeb6d7670e522a718067333cd4e81565b823373ffffffffffffffffffffffffffffffffffffffff168173ffffffffffffffffffffffffffffffffffffffff16146108fa576108f933610fc9565b5b610905848484611328565b50505050565b61091c610916611348565b82611350565b61095b576040517f08c379a00000000000000000000000000000000000000000000000000000000081526004016109529061375e565b60405180910390fd5b610964816113e5565b50565b6000600760009054906101000a900460ff16905090565b60008061098a836113f1565b9050600073ffffffffffffffffffffffffffffffffffffffff168173ffffffffffffffffffffffffffffffffffffffff16036109fb576040517f08c379a00000000000000000000000000000000000000000000000000000000081526004016109f2906137ca565b60405180910390fd5b80915050919050565b60008073ffffffffffffffffffffffffffffffffffffffff168273ffffffffffffffffffffffffffffffffffffffff1603610a74576040517f08c379a0000000000000000000000000000000000000000000000000000000008152600401610a6b9061385c565b60405180910390fd5b600360008373ffffffffffffffffffffffffffffffffffffffff1673ffffffffffffffffffffffffffffffffffffffff168152602001908152602001600020549050919050565b610ac3611247565b610acd600061142e565b565b610ad7611247565b610adf6114f4565b565b6000600760019054906101000a900473ffffffffffffffffffffffffffffffffffffffff16905090565b606060018054610b1a906135ea565b80601f0160208091040260200160405190810160405280929190818152602001828054610b46906135ea565b8015610b935780601f10610b6857610100808354040283529160200191610b93565b820191906000526020600020905b815481529060010190602001808311610b7657829003601f168201915b5050505050905090565b81610ba781610fc9565b610bb18383611557565b505050565b6000600b60009054906101000a900473ffffffffffffffffffffffffffffffffffffffff1673ffffffffffffffffffffffffffffffffffffffff16610bfb858561156d565b73ffffffffffffffffffffffffffffffffffffffff1614610c51576040517f08c379a0000000000000000000000000000000000000000000000000000000008152600401610c48906138c8565b60405180910390fd5b600d54341015610c96576040517f08c379a0000000000000000000000000000000000000000000000000000000008152600401610c8d9061395a565b60405180910390fd5b600c60009054906101000a900473ffffffffffffffffffffffffffffffffffffffff1673ffffffffffffffffffffffffffffffffffffffff166108fc600d549081150290604051600060405180830381858888f19350505050158015610d00573d6000803e3d6000fd5b506000610d0d600a6115ac565b9050610d19600a6115ba565b610d2333826115d0565b610d488133600e60009054906101000a90046bffffffffffffffffffffffff166115ee565b610d528184611795565b807fc1d4f2f9bfbbf8ceba443f4935f8ad0698acb0b335a8862c8d4319a408224c0960405160405180910390a2809150509392505050565b833373ffffffffffffffffffffffffffffffffffffffff168173ffffffffffffffffffffffffffffffffffffffff1614610dc857610dc733610fc9565b5b610dd485858585611802565b5050505050565b6060610de682611864565b9050919050565b6000600560008473ffffffffffffffffffffffffffffffffffffffff1673ffffffffffffffffffffffffffffffffffffffff16815260200190815260200160002060008373ffffffffffffffffffffffffffffffffffffffff1673ffffffffffffffffffffffffffffffffffffffff16815260200190815260200160002060009054906101000a900460ff16905092915050565b610e89611247565b600073ffffffffffffffffffffffffffffffffffffffff168173ffffffffffffffffffffffffffffffffffffffff1603610ef8576040517f08c379a0000000000000000000000000000000000000000000000000000000008152600401610eef906139ec565b60405180910390fd5b610f018161142e565b50565b60007f2a55205a000000000000000000000000000000000000000000000000000000007bffffffffffffffffffffffffffffffffffffffffffffffffffffffff1916827bffffffffffffffffffffffffffffffffffffffffffffffffffffffff19161480610f775750610f7682611976565b5b9050919050565b610f8781611a58565b610fc6576040517f08c379a0000000000000000000000000000000000000000000000000000000008152600401610fbd906137ca565b60405180910390fd5b50565b60006daaeb6d7670e522a718067333cd4e73ffffffffffffffffffffffffffffffffffffffff163b11156110c3576daaeb6d7670e522a718067333cd4e73ffffffffffffffffffffffffffffffffffffffff1663c617113430836040518363ffffffff1660e01b8152600401611040929190613a0c565b602060405180830381865afa15801561105d573d6000803e3d6000fd5b505050506040513d601f19601f820116820180604052508101906110819190613a4a565b6110c257806040517fede71dcc0000000000000000000000000000000000000000000000000000000081526004016110b99190612fe1565b60405180910390fd5b5b50565b60006110d18261097e565b90508073ffffffffffffffffffffffffffffffffffffffff168373ffffffffffffffffffffffffffffffffffffffff1603611141576040517f08c379a000000000000000000000000000000000000000000000000000000000815260040161113890613ae9565b60405180910390fd5b8073ffffffffffffffffffffffffffffffffffffffff16611160611348565b73ffffffffffffffffffffffffffffffffffffffff16148061118f575061118e81611189611348565b610ded565b5b6111ce576040517f08c379a00000000000000000000000000000000000000000000000000000000081526004016111c590613b7b565b60405180910390fd5b6111d88383611a99565b505050565b6111ee6111e8611348565b82611350565b61122d576040517f08c379a00000000000000000000000000000000000000000000000000000000081526004016112249061375e565b60405180910390fd5b611238838383611b52565b505050565b6000612710905090565b61124f611348565b73ffffffffffffffffffffffffffffffffffffffff1661126d610ae1565b73ffffffffffffffffffffffffffffffffffffffff16146112c3576040517f08c379a00000000000000000000000000000000000000000000000000000000081526004016112ba90613be7565b60405180910390fd5b565b6112cd611e4b565b6000600760006101000a81548160ff0219169083151502179055507f5db9ee0a495bf2e6ff9c91a7834c1ba4fdd244a5e8aa4e537bd38aeae4b073aa611311611348565b60405161131e9190612fe1565b60405180910390a1565b61134383838360405180602001604052806000815250610d8a565b505050565b600033905090565b60008061135c8361097e565b90508073ffffffffffffffffffffffffffffffffffffffff168473ffffffffffffffffffffffffffffffffffffffff16148061139e575061139d8185610ded565b5b806113dc57508373ffffffffffffffffffffffffffffffffffffffff166113c484610600565b73ffffffffffffffffffffffffffffffffffffffff16145b91505092915050565b6113ee81611e94565b50565b60006002600083815260200190815260200160002060009054906101000a900473ffffffffffffffffffffffffffffffffffffffff169050919050565b6000600760019054906101000a900473ffffffffffffffffffffffffffffffffffffffff16905081600760016101000a81548173ffffffffffffffffffffffffffffffffffffffff021916908373ffffffffffffffffffffffffffffffffffffffff1602179055508173ffffffffffffffffffffffffffffffffffffffff168173ffffffffffffffffffffffffffffffffffffffff167f8be0079c531659141344cd1fd0a4f28419497f9722a3daafe3b4186f6b6457e060405160405180910390a35050565b6114fc611ee7565b6001600760006101000a81548160ff0219169083151502179055507f62e78cea01bee320cd4e420270b5ea74000d11b0c9f74754ebdbfc544b05a258611540611348565b60405161154d9190612fe1565b60405180910390a1565b611569611562611348565b8383611f31565b5050565b600080836040516020016115819190613c7f565b6040516020818303038152906040528051906020012090506115a3818461209d565b91505092915050565b600081600001549050919050565b6001816000016000828254019250508190555050565b6115ea8282604051806020016040528060008152506120c4565b5050565b6115f661123d565b6bffffffffffffffffffffffff16816bffffffffffffffffffffffff161115611654576040517f08c379a000000000000000000000000000000000000000000000000000000000815260040161164b90613d17565b60405180910390fd5b600073ffffffffffffffffffffffffffffffffffffffff168273ffffffffffffffffffffffffffffffffffffffff16036116c3576040517f08c379a00000000000000000000000000000000000000000000000000000000081526004016116ba90613d83565b60405180910390fd5b60405180604001604052808373ffffffffffffffffffffffffffffffffffffffff168152602001826bffffffffffffffffffffffff168152506009600085815260200190815260200160002060008201518160000160006101000a81548173ffffffffffffffffffffffffffffffffffffffff021916908373ffffffffffffffffffffffffffffffffffffffff16021790555060208201518160000160146101000a8154816bffffffffffffffffffffffff02191690836bffffffffffffffffffffffff160217905550905050505050565b61179e82611a58565b6117dd576040517f08c379a00000000000000000000000000000000000000000000000000000000081526004016117d490613e15565b60405180910390fd5b806006600084815260200190815260200160002090816117fd9190613fd7565b505050565b61181361180d611348565b83611350565b611852576040517f08c379a00000000000000000000000000000000000000000000000000000000081526004016118499061375e565b60405180910390fd5b61185e8484848461211f565b50505050565b606061186f82610f7e565b600060066000848152602001908152602001600020805461188f906135ea565b80601f01602080910402602001604051908101604052809291908181526020018280546118bb906135ea565b80156119085780601f106118dd57610100808354040283529160200191611908565b820191906000526020600020905b8154815290600101906020018083116118eb57829003601f168201915b50505050509050600061191961217b565b9050600081510361192e578192505050611971565b60008251111561196357808260405160200161194b9291906140da565b60405160208183030381529060405292505050611971565b61196c84612192565b925050505b919050565b60007f80ac58cd000000000000000000000000000000000000000000000000000000007bffffffffffffffffffffffffffffffffffffffffffffffffffffffff1916827bffffffffffffffffffffffffffffffffffffffffffffffffffffffff19161480611a4157507f5b5e139f000000000000000000000000000000000000000000000000000000007bffffffffffffffffffffffffffffffffffffffffffffffffffffffff1916827bffffffffffffffffffffffffffffffffffffffffffffffffffffffff1916145b80611a515750611a50826121fa565b5b9050919050565b60008073ffffffffffffffffffffffffffffffffffffffff16611a7a836113f1565b73ffffffffffffffffffffffffffffffffffffffff1614159050919050565b816004600083815260200190815260200160002060006101000a81548173ffffffffffffffffffffffffffffffffffffffff021916908373ffffffffffffffffffffffffffffffffffffffff160217905550808273ffffffffffffffffffffffffffffffffffffffff16611b0c8361097e565b73ffffffffffffffffffffffffffffffffffffffff167f8c5be1e5ebec7d5bd14f71427d1e84f3dd0314c0f7b2291e5b200ac8c7c3b92560405160405180910390a45050565b8273ffffffffffffffffffffffffffffffffffffffff16611b728261097e565b73ffffffffffffffffffffffffffffffffffffffff1614611bc8576040517f08c379a0000000000000000000000000000000000000000000000000000000008152600401611bbf90614170565b60405180910390fd5b600073ffffffffffffffffffffffffffffffffffffffff168273ffffffffffffffffffffffffffffffffffffffff1603611c37576040517f08c379a0000000000000000000000000000000000000000000000000000000008152600401611c2e90614202565b60405180910390fd5b611c448383836001612264565b8273ffffffffffffffffffffffffffffffffffffffff16611c648261097e565b73ffffffffffffffffffffffffffffffffffffffff1614611cba576040517f08c379a0000000000000000000000000000000000000000000000000000000008152600401611cb190614170565b60405180910390fd5b6004600082815260200190815260200160002060006101000a81549073ffffffffffffffffffffffffffffffffffffffff02191690556001600360008573ffffffffffffffffffffffffffffffffffffffff1673ffffffffffffffffffffffffffffffffffffffff168152602001908152602001600020600082825403925050819055506001600360008473ffffffffffffffffffffffffffffffffffffffff1673ffffffffffffffffffffffffffffffffffffffff16815260200190815260200160002060008282540192505081905550816002600083815260200190815260200160002060006101000a81548173ffffffffffffffffffffffffffffffffffffffff021916908373ffffffffffffffffffffffffffffffffffffffff160217905550808273ffffffffffffffffffffffffffffffffffffffff168473ffffffffffffffffffffffffffffffffffffffff167fddf252ad1be2c89b69c2b068fc378daa952ba7f163c4a11628f55a4df523b3ef60405160405180910390a4611e46838383600161238a565b505050565b611e53610967565b611e92576040517f08c379a0000000000000000000000000000000000000000000000000000000008152600401611e899061426e565b60405180910390fd5b565b611e9d81612390565b6000600660008381526020019081526020016000208054611ebd906135ea565b905014611ee457600660008281526020019081526020016000206000611ee39190612d5f565b5b50565b611eef610967565b15611f2f576040517f08c379a0000000000000000000000000000000000000000000000000000000008152600401611f26906142da565b60405180910390fd5b565b8173ffffffffffffffffffffffffffffffffffffffff168373ffffffffffffffffffffffffffffffffffffffff1603611f9f576040517f08c379a0000000000000000000000000000000000000000000000000000000008152600401611f9690614346565b60405180910390fd5b80600560008573ffffffffffffffffffffffffffffffffffffffff1673ffffffffffffffffffffffffffffffffffffffff16815260200190815260200160002060008473ffffffffffffffffffffffffffffffffffffffff1673ffffffffffffffffffffffffffffffffffffffff16815260200190815260200160002060006101000a81548160ff0219169083151502179055508173ffffffffffffffffffffffffffffffffffffffff168373ffffffffffffffffffffffffffffffffffffffff167f17307eab39ab6107e8899845ad3d59bd9653f200f220920489ca2b5937696c31836040516120909190612e70565b60405180910390a3505050565b60008060006120ac85856124de565b915091506120b98161252f565b819250505092915050565b6120ce8383612695565b6120db60008484846128b2565b61211a576040517f08c379a0000000000000000000000000000000000000000000000000000000008152600401612111906143d8565b60405180910390fd5b505050565b61212a848484611b52565b612136848484846128b2565b612175576040517f08c379a000000000000000000000000000000000000000000000000000000000815260040161216c906143d8565b60405180910390fd5b50505050565b606060405180602001604052806000815250905090565b606061219d82610f7e565b60006121a761217b565b905060008151116121c757604051806020016040528060008152506121f2565b806121d184612a39565b6040516020016121e29291906140da565b6040516020818303038152906040525b915050919050565b60007f01ffc9a7000000000000000000000000000000000000000000000000000000007bffffffffffffffffffffffffffffffffffffffffffffffffffffffff1916827bffffffffffffffffffffffffffffffffffffffffffffffffffffffff1916149050919050565b600181111561238457600073ffffffffffffffffffffffffffffffffffffffff168473ffffffffffffffffffffffffffffffffffffffff16146122f85780600360008673ffffffffffffffffffffffffffffffffffffffff1673ffffffffffffffffffffffffffffffffffffffff16815260200190815260200160002060008282546122f091906143f8565b925050819055505b600073ffffffffffffffffffffffffffffffffffffffff168373ffffffffffffffffffffffffffffffffffffffff16146123835780600360008573ffffffffffffffffffffffffffffffffffffffff1673ffffffffffffffffffffffffffffffffffffffff168152602001908152602001600020600082825461237b919061442c565b925050819055505b5b50505050565b50505050565b600061239b8261097e565b90506123ab816000846001612264565b6123b48261097e565b90506004600083815260200190815260200160002060006101000a81549073ffffffffffffffffffffffffffffffffffffffff02191690556001600360008373ffffffffffffffffffffffffffffffffffffffff1673ffffffffffffffffffffffffffffffffffffffff168152602001908152602001600020600082825403925050819055506002600083815260200190815260200160002060006101000a81549073ffffffffffffffffffffffffffffffffffffffff021916905581600073ffffffffffffffffffffffffffffffffffffffff168273ffffffffffffffffffffffffffffffffffffffff167fddf252ad1be2c89b69c2b068fc378daa952ba7f163c4a11628f55a4df523b3ef60405160405180910390a46124da81600084600161238a565b5050565b600080604183510361251f5760008060006020860151925060408601519150606086015160001a905061251387828585612b07565b94509450505050612528565b60006002915091505b9250929050565b6000600481111561254357612542614460565b5b81600481111561255657612555614460565b5b031561269257600160048111156125705761256f614460565b5b81600481111561258357612582614460565b5b036125c3576040517f08c379a00000000000000000000000000000000000000000000000000000000081526004016125ba906144db565b60405180910390fd5b600260048111156125d7576125d6614460565b5b8160048111156125ea576125e9614460565b5b0361262a576040517f08c379a000000000000000000000000000000000000000000000000000000000815260040161262190614547565b60405180910390fd5b6003600481111561263e5761263d614460565b5b81600481111561265157612650614460565b5b03612691576040517f08c379a0000000000000000000000000000000000000000000000000000000008152600401612688906145d9565b60405180910390fd5b5b50565b600073ffffffffffffffffffffffffffffffffffffffff168273ffffffffffffffffffffffffffffffffffffffff1603612704576040517f08c379a00000000000000000000000000000000000000000000000000000000081526004016126fb90614645565b60405180910390fd5b61270d81611a58565b1561274d576040517f08c379a0000000000000000000000000000000000000000000000000000000008152600401612744906146b1565b60405180910390fd5b61275b600083836001612264565b61276481611a58565b156127a4576040517f08c379a000000000000000000000000000000000000000000000000000000000815260040161279b906146b1565b60405180910390fd5b6001600360008473ffffffffffffffffffffffffffffffffffffffff1673ffffffffffffffffffffffffffffffffffffffff16815260200190815260200160002060008282540192505081905550816002600083815260200190815260200160002060006101000a81548173ffffffffffffffffffffffffffffffffffffffff021916908373ffffffffffffffffffffffffffffffffffffffff160217905550808273ffffffffffffffffffffffffffffffffffffffff16600073ffffffffffffffffffffffffffffffffffffffff167fddf252ad1be2c89b69c2b068fc378daa952ba7f163c4a11628f55a4df523b3ef60405160405180910390a46128ae60008383600161238a565b5050565b60006128d38473ffffffffffffffffffffffffffffffffffffffff16612be9565b15612a2c578373ffffffffffffffffffffffffffffffffffffffff1663150b7a026128fc611348565b8786866040518563ffffffff1660e01b815260040161291e9493929190614726565b6020604051808303816000875af192505050801561295a57506040513d601f19601f820116820180604052508101906129579190614787565b60015b6129dc573d806000811461298a576040519150601f19603f3d011682016040523d82523d6000602084013e61298f565b606091505b5060008151036129d4576040517f08c379a00000000000000000000000000000000000000000000000000000000081526004016129cb906143d8565b60405180910390fd5b805181602001fd5b63150b7a0260e01b7bffffffffffffffffffffffffffffffffffffffffffffffffffffffff1916817bffffffffffffffffffffffffffffffffffffffffffffffffffffffff191614915050612a31565b600190505b949350505050565b606060006001612a4884612c0c565b01905060008167ffffffffffffffff811115612a6757612a666132a1565b5b6040519080825280601f01601f191660200182016040528015612a995781602001600182028036833780820191505090505b509050600082602001820190505b600115612afc578080600190039150507f3031323334353637383961626364656600000000000000000000000000000000600a86061a8153600a8581612af057612aef61368c565b5b04945060008503612aa7575b819350505050919050565b6000807f7fffffffffffffffffffffffffffffff5d576e7357a4501ddfe92f46681b20a08360001c1115612b42576000600391509150612be0565b600060018787878760405160008152602001604052604051612b6794939291906147df565b6020604051602081039080840390855afa158015612b89573d6000803e3d6000fd5b505050602060405103519050600073ffffffffffffffffffffffffffffffffffffffff168173ffffffffffffffffffffffffffffffffffffffff1603612bd757600060019250925050612be0565b80600092509250505b94509492505050565b6000808273ffffffffffffffffffffffffffffffffffffffff163b119050919050565b600080600090507a184f03e93ff9f4daa797ed6e38ed64bf6a1f0100000000000000008310612c6a577a184f03e93ff9f4daa797ed6e38ed64bf6a1f0100000000000000008381612c6057612c5f61368c565b5b0492506040810190505b6d04ee2d6d415b85acef81000000008310612ca7576d04ee2d6d415b85acef81000000008381612c9d57612c9c61368c565b5b0492506020810190505b662386f26fc100008310612cd657662386f26fc100008381612ccc57612ccb61368c565b5b0492506010810190505b6305f5e1008310612cff576305f5e1008381612cf557612cf461368c565b5b0492506008810190505b6127108310612d24576127108381612d1a57612d1961368c565b5b0492506004810190505b60648310612d475760648381612d3d57612d3c61368c565b5b0492506002810190505b600a8310612d56576001810190505b80915050919050565b508054612d6b906135ea565b6000825580601f10612d7d5750612d9c565b601f016020900490600052602060002090810190612d9b9190612d9f565b5b50565b5b80821115612db8576000816000905550600101612da0565b5090565b6000604051905090565b600080fd5b600080fd5b60007fffffffff0000000000000000000000000000000000000000000000000000000082169050919050565b612e0581612dd0565b8114612e1057600080fd5b50565b600081359050612e2281612dfc565b92915050565b600060208284031215612e3e57612e3d612dc6565b5b6000612e4c84828501612e13565b91505092915050565b60008115159050919050565b612e6a81612e55565b82525050565b6000602082019050612e856000830184612e61565b92915050565b600081519050919050565b600082825260208201905092915050565b60005b83811015612ec5578082015181840152602081019050612eaa565b60008484015250505050565b6000601f19601f8301169050919050565b6000612eed82612e8b565b612ef78185612e96565b9350612f07818560208601612ea7565b612f1081612ed1565b840191505092915050565b60006020820190508181036000830152612f358184612ee2565b905092915050565b6000819050919050565b612f5081612f3d565b8114612f5b57600080fd5b50565b600081359050612f6d81612f47565b92915050565b600060208284031215612f8957612f88612dc6565b5b6000612f9784828501612f5e565b91505092915050565b600073ffffffffffffffffffffffffffffffffffffffff82169050919050565b6000612fcb82612fa0565b9050919050565b612fdb81612fc0565b82525050565b6000602082019050612ff66000830184612fd2565b92915050565b61300581612fc0565b811461301057600080fd5b50565b60008135905061302281612ffc565b92915050565b6000806040838503121561303f5761303e612dc6565b5b600061304d85828601613013565b925050602061305e85828601612f5e565b9150509250929050565b60008060006060848603121561308157613080612dc6565b5b600061308f86828701613013565b93505060206130a086828701613013565b92505060406130b186828701612f5e565b9150509250925092565b600080604083850312156130d2576130d1612dc6565b5b60006130e085828601612f5e565b92505060206130f185828601612f5e565b9150509250929050565b61310481612f3d565b82525050565b600060408201905061311f6000830185612fd2565b61312c60208301846130fb565b9392505050565b6000819050919050565b600061315861315361314e84612fa0565b613133565b612fa0565b9050919050565b600061316a8261313d565b9050919050565b600061317c8261315f565b9050919050565b61318c81613171565b82525050565b60006020820190506131a76000830184613183565b92915050565b6000602082840312156131c3576131c2612dc6565b5b60006131d184828501613013565b91505092915050565b60006020820190506131ef60008301846130fb565b92915050565b6131fe81612e55565b811461320957600080fd5b50565b60008135905061321b816131f5565b92915050565b6000806040838503121561323857613237612dc6565b5b600061324685828601613013565b92505060206132578582860161320c565b9150509250929050565b6000819050919050565b61327481613261565b811461327f57600080fd5b50565b6000813590506132918161326b565b92915050565b600080fd5b600080fd5b7f4e487b7100000000000000000000000000000000000000000000000000000000600052604160045260246000fd5b6132d982612ed1565b810181811067ffffffffffffffff821117156132f8576132f76132a1565b5b80604052505050565b600061330b612dbc565b905061331782826132d0565b919050565b600067ffffffffffffffff821115613337576133366132a1565b5b61334082612ed1565b9050602081019050919050565b82818337600083830152505050565b600061336f61336a8461331c565b613301565b90508281526020810184848401111561338b5761338a61329c565b5b61339684828561334d565b509392505050565b600082601f8301126133b3576133b2613297565b5b81356133c384826020860161335c565b91505092915050565b600067ffffffffffffffff8211156133e7576133e66132a1565b5b6133f082612ed1565b9050602081019050919050565b600061341061340b846133cc565b613301565b90508281526020810184848401111561342c5761342b61329c565b5b61343784828561334d565b509392505050565b600082601f83011261345457613453613297565b5b81356134648482602086016133fd565b91505092915050565b60008060006060848603121561348657613485612dc6565b5b600061349486828701613282565b935050602084013567ffffffffffffffff8111156134b5576134b4612dcb565b5b6134c18682870161339e565b925050604084013567ffffffffffffffff8111156134e2576134e1612dcb565b5b6134ee8682870161343f565b9150509250925092565b6000806000806080858703121561351257613511612dc6565b5b600061352087828801613013565b945050602061353187828801613013565b935050604061354287828801612f5e565b925050606085013567ffffffffffffffff81111561356357613562612dcb565b5b61356f8782880161339e565b91505092959194509250565b6000806040838503121561359257613591612dc6565b5b60006135a085828601613013565b92505060206135b185828601613013565b9150509250929050565b7f4e487b7100000000000000000000000000000000000000000000000000000000600052602260045260246000fd5b6000600282049050600182168061360257607f821691505b602082108103613615576136146135bb565b5b50919050565b7f4e487b7100000000000000000000000000000000000000000000000000000000600052601160045260246000fd5b600061365582612f3d565b915061366083612f3d565b925082820261366e81612f3d565b915082820484148315176136855761368461361b565b5b5092915050565b7f4e487b7100000000000000000000000000000000000000000000000000000000600052601260045260246000fd5b60006136c682612f3d565b91506136d183612f3d565b9250826136e1576136e061368c565b5b828204905092915050565b7f4552433732313a2063616c6c6572206973206e6f7420746f6b656e206f776e6560008201527f72206f7220617070726f76656400000000000000000000000000000000000000602082015250565b6000613748602d83612e96565b9150613753826136ec565b604082019050919050565b600060208201905081810360008301526137778161373b565b9050919050565b7f4552433732313a20696e76616c696420746f6b656e2049440000000000000000600082015250565b60006137b4601883612e96565b91506137bf8261377e565b602082019050919050565b600060208201905081810360008301526137e3816137a7565b9050919050565b7f4552433732313a2061646472657373207a65726f206973206e6f74206120766160008201527f6c6964206f776e65720000000000000000000000000000000000000000000000602082015250565b6000613846602983612e96565b9150613851826137ea565b604082019050919050565b6000602082019050818103600083015261387581613839565b9050919050565b7f5369676e6174757265204661696c656400000000000000000000000000000000600082015250565b60006138b2601083612e96565b91506138bd8261387c565b602082019050919050565b600060208201905081810360008301526138e1816138a5565b9050919050565b7f4e6f7420656e6f756768204d415449432073656e743b20636865636b2070726960008201527f6365210000000000000000000000000000000000000000000000000000000000602082015250565b6000613944602383612e96565b915061394f826138e8565b604082019050919050565b6000602082019050818103600083015261397381613937565b9050919050565b7f4f776e61626c653a206e6577206f776e657220697320746865207a65726f206160008201527f6464726573730000000000000000000000000000000000000000000000000000602082015250565b60006139d6602683612e96565b91506139e18261397a565b604082019050919050565b60006020820190508181036000830152613a05816139c9565b9050919050565b6000604082019050613a216000830185612fd2565b613a2e6020830184612fd2565b9392505050565b600081519050613a44816131f5565b92915050565b600060208284031215613a6057613a5f612dc6565b5b6000613a6e84828501613a35565b91505092915050565b7f4552433732313a20617070726f76616c20746f2063757272656e74206f776e6560008201527f7200000000000000000000000000000000000000000000000000000000000000602082015250565b6000613ad3602183612e96565b9150613ade82613a77565b604082019050919050565b60006020820190508181036000830152613b0281613ac6565b9050919050565b7f4552433732313a20617070726f76652063616c6c6572206973206e6f7420746f60008201527f6b656e206f776e6572206f7220617070726f76656420666f7220616c6c000000602082015250565b6000613b65603d83612e96565b9150613b7082613b09565b604082019050919050565b60006020820190508181036000830152613b9481613b58565b9050919050565b7f4f776e61626c653a2063616c6c6572206973206e6f7420746865206f776e6572600082015250565b6000613bd1602083612e96565b9150613bdc82613b9b565b602082019050919050565b60006020820190508181036000830152613c0081613bc4565b9050919050565b600081905092915050565b7f19457468657265756d205369676e6564204d6573736167653a0a333200000000600082015250565b6000613c48601c83613c07565b9150613c5382613c12565b601c82019050919050565b6000819050919050565b613c79613c7482613261565b613c5e565b82525050565b6000613c8a82613c3b565b9150613c968284613c68565b60208201915081905092915050565b7f455243323938313a20726f79616c7479206665652077696c6c2065786365656460008201527f2073616c65507269636500000000000000000000000000000000000000000000602082015250565b6000613d01602a83612e96565b9150613d0c82613ca5565b604082019050919050565b60006020820190508181036000830152613d3081613cf4565b9050919050565b7f455243323938313a20496e76616c696420706172616d65746572730000000000600082015250565b6000613d6d601b83612e96565b9150613d7882613d37565b602082019050919050565b60006020820190508181036000830152613d9c81613d60565b9050919050565b7f45524337323155524953746f726167653a2055524920736574206f66206e6f6e60008201527f6578697374656e7420746f6b656e000000000000000000000000000000000000602082015250565b6000613dff602e83612e96565b9150613e0a82613da3565b604082019050919050565b60006020820190508181036000830152613e2e81613df2565b9050919050565b60008190508160005260206000209050919050565b60006020601f8301049050919050565b600082821b905092915050565b600060088302613e977fffffffffffffffffffffffffffffffffffffffffffffffffffffffffffffffff82613e5a565b613ea18683613e5a565b95508019841693508086168417925050509392505050565b6000613ed4613ecf613eca84612f3d565b613133565b612f3d565b9050919050565b6000819050919050565b613eee83613eb9565b613f02613efa82613edb565b848454613e67565b825550505050565b600090565b613f17613f0a565b613f22818484613ee5565b505050565b5b81811015613f4657613f3b600082613f0f565b600181019050613f28565b5050565b601f821115613f8b57613f5c81613e35565b613f6584613e4a565b81016020851015613f74578190505b613f88613f8085613e4a565b830182613f27565b50505b505050565b600082821c905092915050565b6000613fae60001984600802613f90565b1980831691505092915050565b6000613fc78383613f9d565b9150826002028217905092915050565b613fe082612e8b565b67ffffffffffffffff811115613ff957613ff86132a1565b5b61400382546135ea565b61400e828285613f4a565b600060209050601f831160018114614041576000841561402f578287015190505b6140398582613fbb565b8655506140a1565b601f19841661404f86613e35565b60005b8281101561407757848901518255600182019150602085019450602081019050614052565b868310156140945784890151614090601f891682613f9d565b8355505b6001600288020188555050505b505050505050565b60006140b482612e8b565b6140be8185613c07565b93506140ce818560208601612ea7565b80840191505092915050565b60006140e682856140a9565b91506140f282846140a9565b91508190509392505050565b7f4552433732313a207472616e736665722066726f6d20696e636f72726563742060008201527f6f776e6572000000000000000000000000000000000000000000000000000000602082015250565b600061415a602583612e96565b9150614165826140fe565b604082019050919050565b600060208201905081810360008301526141898161414d565b9050919050565b7f4552433732313a207472616e7366657220746f20746865207a65726f2061646460008201527f7265737300000000000000000000000000000000000000000000000000000000602082015250565b60006141ec602483612e96565b91506141f782614190565b604082019050919050565b6000602082019050818103600083015261421b816141df565b9050919050565b7f5061757361626c653a206e6f7420706175736564000000000000000000000000600082015250565b6000614258601483612e96565b915061426382614222565b602082019050919050565b600060208201905081810360008301526142878161424b565b9050919050565b7f5061757361626c653a2070617573656400000000000000000000000000000000600082015250565b60006142c4601083612e96565b91506142cf8261428e565b602082019050919050565b600060208201905081810360008301526142f3816142b7565b9050919050565b7f4552433732313a20617070726f766520746f2063616c6c657200000000000000600082015250565b6000614330601983612e96565b915061433b826142fa565b602082019050919050565b6000602082019050818103600083015261435f81614323565b9050919050565b7f4552433732313a207472616e7366657220746f206e6f6e20455243373231526560008201527f63656976657220696d706c656d656e7465720000000000000000000000000000602082015250565b60006143c2603283612e96565b91506143cd82614366565b604082019050919050565b600060208201905081810360008301526143f1816143b5565b9050919050565b600061440382612f3d565b915061440e83612f3d565b92508282039050818111156144265761442561361b565b5b92915050565b600061443782612f3d565b915061444283612f3d565b925082820190508082111561445a5761445961361b565b5b92915050565b7f4e487b7100000000000000000000000000000000000000000000000000000000600052602160045260246000fd5b7f45434453413a20696e76616c6964207369676e61747572650000000000000000600082015250565b60006144c5601883612e96565b91506144d08261448f565b602082019050919050565b600060208201905081810360008301526144f4816144b8565b9050919050565b7f45434453413a20696e76616c6964207369676e6174757265206c656e67746800600082015250565b6000614531601f83612e96565b915061453c826144fb565b602082019050919050565b6000602082019050818103600083015261456081614524565b9050919050565b7f45434453413a20696e76616c6964207369676e6174757265202773272076616c60008201527f7565000000000000000000000000000000000000000000000000000000000000602082015250565b60006145c3602283612e96565b91506145ce82614567565b604082019050919050565b600060208201905081810360008301526145f2816145b6565b9050919050565b7f4552433732313a206d696e7420746f20746865207a65726f2061646472657373600082015250565b600061462f602083612e96565b915061463a826145f9565b602082019050919050565b6000602082019050818103600083015261465e81614622565b9050919050565b7f4552433732313a20746f6b656e20616c7265616479206d696e74656400000000600082015250565b600061469b601c83612e96565b91506146a682614665565b602082019050919050565b600060208201905081810360008301526146ca8161468e565b9050919050565b600081519050919050565b600082825260208201905092915050565b60006146f8826146d1565b61470281856146dc565b9350614712818560208601612ea7565b61471b81612ed1565b840191505092915050565b600060808201905061473b6000830187612fd2565b6147486020830186612fd2565b61475560408301856130fb565b818103606083015261476781846146ed565b905095945050505050565b60008151905061478181612dfc565b92915050565b60006020828403121561479d5761479c612dc6565b5b60006147ab84828501614772565b91505092915050565b6147bd81613261565b82525050565b600060ff82169050919050565b6147d9816147c3565b82525050565b60006080820190506147f460008301876147b4565b61480160208301866147d0565b61480e60408301856147b4565b61481b60608301846147b4565b9594505050505056fea2646970667358221220f19010e53ffac4500c87b79740318c4540eeab368763ce51697630dcde68af4d64736f6c63430008110033",
  "linkReferences": {},
  "deployedLinkReferences": {}
}